{
  "contractName": "LuvNFT",
  "abi": [
    {
      "inputs": [],
      "stateMutability": "nonpayable",
      "type": "constructor"
    },
    {
      "anonymous": false,
      "inputs": [
        {
          "indexed": true,
          "internalType": "address",
          "name": "owner",
          "type": "address"
        },
        {
          "indexed": true,
          "internalType": "address",
          "name": "approved",
          "type": "address"
        },
        {
          "indexed": true,
          "internalType": "uint256",
          "name": "tokenId",
          "type": "uint256"
        }
      ],
      "name": "Approval",
      "type": "event"
    },
    {
      "anonymous": false,
      "inputs": [
        {
          "indexed": true,
          "internalType": "address",
          "name": "owner",
          "type": "address"
        },
        {
          "indexed": true,
          "internalType": "address",
          "name": "operator",
          "type": "address"
        },
        {
          "indexed": false,
          "internalType": "bool",
          "name": "approved",
          "type": "bool"
        }
      ],
      "name": "ApprovalForAll",
      "type": "event"
    },
    {
      "anonymous": false,
      "inputs": [
        {
          "indexed": false,
          "internalType": "uint256",
          "name": "tokenId",
          "type": "uint256"
        },
        {
          "indexed": false,
          "internalType": "uint256",
          "name": "price",
          "type": "uint256"
        }
      ],
      "name": "NftPriceChanged",
      "type": "event"
    },
    {
      "anonymous": false,
      "inputs": [
        {
          "indexed": true,
          "internalType": "address",
          "name": "previousOwner",
          "type": "address"
        },
        {
          "indexed": true,
          "internalType": "address",
          "name": "newOwner",
          "type": "address"
        }
      ],
      "name": "OwnershipTransferred",
      "type": "event"
    },
    {
      "anonymous": false,
      "inputs": [
        {
          "indexed": true,
          "internalType": "address",
          "name": "from",
          "type": "address"
        },
        {
          "indexed": true,
          "internalType": "address",
          "name": "to",
          "type": "address"
        },
        {
          "indexed": true,
          "internalType": "uint256",
          "name": "tokenId",
          "type": "uint256"
        }
      ],
      "name": "Transfer",
      "type": "event"
    },
    {
      "inputs": [
        {
          "internalType": "address",
          "name": "to",
          "type": "address"
        },
        {
          "internalType": "uint256",
          "name": "tokenId",
          "type": "uint256"
        }
      ],
      "name": "approve",
      "outputs": [],
      "stateMutability": "nonpayable",
      "type": "function"
    },
    {
      "inputs": [
        {
          "internalType": "address",
          "name": "owner",
          "type": "address"
        }
      ],
      "name": "balanceOf",
      "outputs": [
        {
          "internalType": "uint256",
          "name": "",
          "type": "uint256"
        }
      ],
      "stateMutability": "view",
      "type": "function"
    },
    {
      "inputs": [],
      "name": "baseURI",
      "outputs": [
        {
          "internalType": "string",
          "name": "",
          "type": "string"
        }
      ],
      "stateMutability": "view",
      "type": "function"
    },
    {
      "inputs": [
        {
          "internalType": "uint256",
          "name": "tokenId",
          "type": "uint256"
        }
      ],
      "name": "getApproved",
      "outputs": [
        {
          "internalType": "address",
          "name": "",
          "type": "address"
        }
      ],
      "stateMutability": "view",
      "type": "function"
    },
    {
      "inputs": [
        {
          "internalType": "address",
          "name": "owner",
          "type": "address"
        },
        {
          "internalType": "address",
          "name": "operator",
          "type": "address"
        }
      ],
      "name": "isApprovedForAll",
      "outputs": [
        {
          "internalType": "bool",
          "name": "",
          "type": "bool"
        }
      ],
      "stateMutability": "view",
      "type": "function"
    },
    {
      "inputs": [],
      "name": "name",
      "outputs": [
        {
          "internalType": "string",
          "name": "",
          "type": "string"
        }
      ],
      "stateMutability": "view",
      "type": "function"
    },
    {
      "inputs": [],
      "name": "nextId",
      "outputs": [
        {
          "internalType": "uint256",
          "name": "",
          "type": "uint256"
        }
      ],
      "stateMutability": "view",
      "type": "function"
    },
    {
      "inputs": [],
      "name": "owner",
      "outputs": [
        {
          "internalType": "address",
          "name": "",
          "type": "address"
        }
      ],
      "stateMutability": "view",
      "type": "function"
    },
    {
      "inputs": [
        {
          "internalType": "uint256",
          "name": "tokenId",
          "type": "uint256"
        }
      ],
      "name": "ownerOf",
      "outputs": [
        {
          "internalType": "address",
          "name": "",
          "type": "address"
        }
      ],
      "stateMutability": "view",
      "type": "function"
    },
    {
      "inputs": [],
      "name": "renounceOwnership",
      "outputs": [],
      "stateMutability": "nonpayable",
      "type": "function"
    },
    {
      "inputs": [
        {
          "internalType": "address",
          "name": "from",
          "type": "address"
        },
        {
          "internalType": "address",
          "name": "to",
          "type": "address"
        },
        {
          "internalType": "uint256",
          "name": "tokenId",
          "type": "uint256"
        }
      ],
      "name": "safeTransferFrom",
      "outputs": [],
      "stateMutability": "nonpayable",
      "type": "function"
    },
    {
      "inputs": [
        {
          "internalType": "address",
          "name": "from",
          "type": "address"
        },
        {
          "internalType": "address",
          "name": "to",
          "type": "address"
        },
        {
          "internalType": "uint256",
          "name": "tokenId",
          "type": "uint256"
        },
        {
          "internalType": "bytes",
          "name": "_data",
          "type": "bytes"
        }
      ],
      "name": "safeTransferFrom",
      "outputs": [],
      "stateMutability": "nonpayable",
      "type": "function"
    },
    {
      "inputs": [
        {
          "internalType": "address",
          "name": "operator",
          "type": "address"
        },
        {
          "internalType": "bool",
          "name": "approved",
          "type": "bool"
        }
      ],
      "name": "setApprovalForAll",
      "outputs": [],
      "stateMutability": "nonpayable",
      "type": "function"
    },
    {
      "inputs": [
        {
          "internalType": "bytes4",
          "name": "interfaceId",
          "type": "bytes4"
        }
      ],
      "name": "supportsInterface",
      "outputs": [
        {
          "internalType": "bool",
          "name": "",
          "type": "bool"
        }
      ],
      "stateMutability": "view",
      "type": "function"
    },
    {
      "inputs": [],
      "name": "symbol",
      "outputs": [
        {
          "internalType": "string",
          "name": "",
          "type": "string"
        }
      ],
      "stateMutability": "view",
      "type": "function"
    },
    {
      "inputs": [
        {
          "internalType": "uint256",
          "name": "index",
          "type": "uint256"
        }
      ],
      "name": "tokenByIndex",
      "outputs": [
        {
          "internalType": "uint256",
          "name": "",
          "type": "uint256"
        }
      ],
      "stateMutability": "view",
      "type": "function"
    },
    {
      "inputs": [
        {
          "internalType": "uint256",
          "name": "",
          "type": "uint256"
        }
      ],
      "name": "tokenIdIsExist",
      "outputs": [
        {
          "internalType": "bool",
          "name": "",
          "type": "bool"
        }
      ],
      "stateMutability": "view",
      "type": "function"
    },
    {
      "inputs": [
        {
          "internalType": "uint256",
          "name": "",
          "type": "uint256"
        }
      ],
      "name": "tokenIdToPrice",
      "outputs": [
        {
          "internalType": "uint256",
          "name": "",
          "type": "uint256"
        }
      ],
      "stateMutability": "view",
      "type": "function"
    },
    {
      "inputs": [
        {
          "internalType": "address",
          "name": "owner",
          "type": "address"
        },
        {
          "internalType": "uint256",
          "name": "index",
          "type": "uint256"
        }
      ],
      "name": "tokenOfOwnerByIndex",
      "outputs": [
        {
          "internalType": "uint256",
          "name": "",
          "type": "uint256"
        }
      ],
      "stateMutability": "view",
      "type": "function"
    },
    {
      "inputs": [
        {
          "internalType": "uint256",
          "name": "tokenId",
          "type": "uint256"
        }
      ],
      "name": "tokenURI",
      "outputs": [
        {
          "internalType": "string",
          "name": "",
          "type": "string"
        }
      ],
      "stateMutability": "view",
      "type": "function"
    },
    {
      "inputs": [],
      "name": "totalSupply",
      "outputs": [
        {
          "internalType": "uint256",
          "name": "",
          "type": "uint256"
        }
      ],
      "stateMutability": "view",
      "type": "function"
    },
    {
      "inputs": [
        {
          "internalType": "address",
          "name": "from",
          "type": "address"
        },
        {
          "internalType": "address",
          "name": "to",
          "type": "address"
        },
        {
          "internalType": "uint256",
          "name": "tokenId",
          "type": "uint256"
        }
      ],
      "name": "transferFrom",
      "outputs": [],
      "stateMutability": "nonpayable",
      "type": "function"
    },
    {
      "inputs": [
        {
          "internalType": "address",
          "name": "newOwner",
          "type": "address"
        }
      ],
      "name": "transferOwnership",
      "outputs": [],
      "stateMutability": "nonpayable",
      "type": "function"
    },
    {
      "inputs": [
        {
          "internalType": "string",
          "name": "tokenURI",
          "type": "string"
        },
        {
          "internalType": "uint256",
          "name": "price",
          "type": "uint256"
        }
      ],
      "name": "mint",
      "outputs": [],
      "stateMutability": "nonpayable",
      "type": "function"
    },
    {
      "inputs": [
        {
          "internalType": "uint256",
          "name": "tokenId",
          "type": "uint256"
        }
      ],
      "name": "getPriceOf",
      "outputs": [
        {
          "internalType": "uint256",
          "name": "",
          "type": "uint256"
        }
      ],
      "stateMutability": "view",
      "type": "function"
    },
    {
      "inputs": [
        {
          "internalType": "uint256",
          "name": "tokenId",
          "type": "uint256"
        },
        {
          "internalType": "uint256",
          "name": "price",
          "type": "uint256"
        }
      ],
      "name": "setPriceOf",
      "outputs": [],
      "stateMutability": "nonpayable",
      "type": "function"
    },
    {
      "inputs": [
        {
          "internalType": "uint256",
          "name": "tokenId",
          "type": "uint256"
        }
      ],
      "name": "getOwnerOf",
      "outputs": [
        {
          "internalType": "address",
          "name": "",
          "type": "address"
        }
      ],
      "stateMutability": "view",
      "type": "function"
    },
    {
      "inputs": [
        {
          "internalType": "uint256",
          "name": "tokenId",
          "type": "uint256"
        }
      ],
      "name": "getTokenInfo",
      "outputs": [
        {
          "internalType": "string",
          "name": "",
          "type": "string"
        }
      ],
      "stateMutability": "view",
      "type": "function"
    },
    {
      "inputs": [
        {
          "internalType": "uint256",
          "name": "tokenId",
          "type": "uint256"
        },
        {
          "internalType": "string",
          "name": "latitude",
          "type": "string"
        },
        {
          "internalType": "string",
          "name": "longitude",
          "type": "string"
        },
        {
          "internalType": "string",
          "name": "name",
          "type": "string"
        }
      ],
      "name": "getSVG",
      "outputs": [
        {
          "internalType": "string",
          "name": "",
          "type": "string"
        }
      ],
      "stateMutability": "view",
      "type": "function"
    }
  ],
  "bytecode": "0x60806040526000600b553480156200001657600080fd5b50604080518082018252600681526513155593919560d21b60208083019190915282518084019093526003835262262aab60e91b9083015290620000616301ffc9a760e01b62000126565b815162000076906006906020850190620001af565b5080516200008c906007906020840190620001af565b506200009f6380ac58cd60e01b62000126565b620000b1635b5e139f60e01b62000126565b620000c363780e9d6360e01b62000126565b5060009050620000d2620001ab565b600a80546001600160a01b0319166001600160a01b038316908117909155604051919250906000907f8be0079c531659141344cd1fd0a4f28419497f9722a3daafe3b4186f6b6457e0908290a3506200025b565b6001600160e01b0319808216141562000186576040805162461bcd60e51b815260206004820152601c60248201527f4552433136353a20696e76616c696420696e7465726661636520696400000000604482015290519081900360640190fd5b6001600160e01b0319166000908152602081905260409020805460ff19166001179055565b3390565b828054600181600116156101000203166002900490600052602060002090601f016020900481019282620001e7576000855562000232565b82601f106200020257805160ff191683800117855562000232565b8280016001018555821562000232579182015b828111156200023257825182559160200191906001019062000215565b506200024092915062000244565b5090565b5b8082111562000240576000815560010162000245565b6124a5806200026b6000396000f3fe608060405234801561001057600080fd5b50600436106101cf5760003560e01c806370a0823111610104578063a3216158116100a2578063e985e9c511610071578063e985e9c5146103a1578063f2fde38b146103b4578063f4812eb9146103c7578063fba49e4f146103da576101cf565b8063a321615814610355578063b54b4fb914610368578063b88d4fde1461037b578063c87b56dd1461038e576101cf565b80638c7a63ae116100de5780638c7a63ae1461031f5780638da5cb5b1461033257806395d89b411461033a578063a22cb46514610342576101cf565b806370a08231146102f1578063715018a614610304578063836387101461030c576101cf565b80632f226b6f116101715780634f6ccce71161014b5780634f6ccce7146102bb57806361b8ce8c146102ce5780636352211e146102d65780636c0360eb146102e9576101cf565b80632f226b6f146102825780632f745c591461029557806342842e0e146102a8576101cf565b8063081812fc116101ad578063081812fc14610227578063095ea7b31461024757806318160ddd1461025a57806323b872dd1461026f576101cf565b806301ffc9a7146101d4578063056b01ce146101fd57806306fdde0314610212575b600080fd5b6101e76101e2366004611ed3565b6103ed565b6040516101f491906120ac565b60405180910390f35b61021061020b366004611f6e565b610410565b005b61021a6104da565b6040516101f491906120b7565b61023a610235366004611fb1565b610570565b6040516101f49190612098565b610210610255366004611eaa565b6105d2565b6102626106a8565b6040516101f4919061216d565b61021061027d366004611dbc565b6106b9565b6101e7610290366004611fb1565b610710565b6102626102a3366004611eaa565b610725565b6102106102b6366004611dbc565b610750565b6102626102c9366004611fb1565b61076b565b610262610781565b61023a6102e4366004611fb1565b610787565b61021a6107af565b6102626102ff366004611d70565b610810565b610210610878565b61023a61031a366004611fb1565b610936565b61021a61032d366004611fb1565b610941565b61023a61094c565b61021a61095b565b610210610350366004611e70565b6109bc565b61021a610363366004611fc9565b610ac1565b610262610376366004611fb1565b610b7f565b610210610389366004611df7565b610b91565b61021a61039c366004611fb1565b610bef565b6101e76103af366004611d8a565b610e70565b6102106103c2366004611d70565b610e9e565b6102626103d5366004611fb1565b610fb3565b6102106103e836600461204b565b610fc5565b6001600160e01b0319811660009081526020819052604090205460ff165b919050565b61041861104d565b6001600160a01b031661042961094c565b6001600160a01b031614610484576040805162461bcd60e51b815260206004820181905260248201527f4f776e61626c653a2063616c6c6572206973206e6f7420746865206f776e6572604482015290519081900360640190fd5b600b80546000908152600c60205260409020829055546104a5903390611051565b6104b1600b548361117f565b5050600b80546000908152600d60205260409020805460ff191660019081179091558154019055565b60068054604080516020601f60026000196101006001881615020190951694909404938401819004810282018101909252828152606093909290918301828280156105665780601f1061053b57610100808354040283529160200191610566565b820191906000526020600020905b81548152906001019060200180831161054957829003601f168201915b5050505050905090565b600061057b826111e2565b6105b65760405162461bcd60e51b815260040180806020018281038252602c81526020018061236e602c913960400191505060405180910390fd5b506000908152600460205260409020546001600160a01b031690565b60006105dd82610787565b9050806001600160a01b0316836001600160a01b031614156106305760405162461bcd60e51b815260040180806020018281038252602181526020018061241e6021913960400191505060405180910390fd5b806001600160a01b031661064261104d565b6001600160a01b0316148061065e575061065e816103af61104d565b6106995760405162461bcd60e51b81526004018080602001828103825260388152602001806122c16038913960400191505060405180910390fd5b6106a383836111ef565b505050565b60006106b4600261125d565b905090565b6106ca6106c461104d565b82611268565b6107055760405162461bcd60e51b815260040180806020018281038252603181526020018061243f6031913960400191505060405180910390fd5b6106a3838383611304565b600d6020526000908152604090205460ff1681565b6001600160a01b03821660009081526001602052604081206107479083611450565b90505b92915050565b6106a383838360405180602001604052806000815250610b91565b60008061077960028461145c565b509392505050565b600b5481565b600061074a826040518060600160405280602981526020016123236029913960029190611478565b60098054604080516020601f60026000196101006001881615020190951694909404938401819004810282018101909252828152606093909290918301828280156105665780601f1061053b57610100808354040283529160200191610566565b60006001600160a01b0382166108575760405162461bcd60e51b815260040180806020018281038252602a8152602001806122f9602a913960400191505060405180910390fd5b6001600160a01b038216600090815260016020526040902061074a9061125d565b61088061104d565b6001600160a01b031661089161094c565b6001600160a01b0316146108ec576040805162461bcd60e51b815260206004820181905260248201527f4f776e61626c653a2063616c6c6572206973206e6f7420746865206f776e6572604482015290519081900360640190fd5b600a546040516000916001600160a01b0316907f8be0079c531659141344cd1fd0a4f28419497f9722a3daafe3b4186f6b6457e0908390a3600a80546001600160a01b0319169055565b600061074a82610787565b606061074a82610bef565b600a546001600160a01b031690565b60078054604080516020601f60026000196101006001881615020190951694909404938401819004810282018101909252828152606093909290918301828280156105665780601f1061053b57610100808354040283529160200191610566565b6109c461104d565b6001600160a01b0316826001600160a01b03161415610a2a576040805162461bcd60e51b815260206004820152601960248201527f4552433732313a20617070726f766520746f2063616c6c657200000000000000604482015290519081900360640190fd5b8060056000610a3761104d565b6001600160a01b03908116825260208083019390935260409182016000908120918716808252919093529120805460ff191692151592909217909155610a7b61104d565b6001600160a01b03167f17307eab39ab6107e8899845ad3d59bd9653f200f220920489ca2b5937696c318360405180821515815260200191505060405180910390a35050565b606073__NFTDescriptor_________________________630e1d809e6040518060a00160405280888152602001438152602001878152602001868152602001858152506040518263ffffffff1660e01b8152600401610b209190612101565b60006040518083038186803b158015610b3857600080fd5b505af4158015610b4c573d6000803e3d6000fd5b505050506040513d6000823e601f3d908101601f19168201604052610b749190810190611efb565b90505b949350505050565b6000908152600c602052604090205490565b610ba2610b9c61104d565b83611268565b610bdd5760405162461bcd60e51b815260040180806020018281038252603181526020018061243f6031913960400191505060405180910390fd5b610be98484848461148f565b50505050565b6060610bfa826111e2565b610c355760405162461bcd60e51b815260040180806020018281038252602f8152602001806123ef602f913960400191505060405180910390fd5b60008281526008602090815260408083208054825160026001831615610100026000190190921691909104601f810185900485028201850190935282815292909190830182828015610cc85780601f10610c9d57610100808354040283529160200191610cc8565b820191906000526020600020905b815481529060010190602001808311610cab57829003601f168201915b505050505090506000610cd96107af565b9050805160001415610ced5750905061040b565b815115610dae5780826040516020018083805190602001908083835b60208310610d285780518252601f199092019160209182019101610d09565b51815160209384036101000a600019018019909216911617905285519190930192850191508083835b60208310610d705780518252601f199092019160209182019101610d51565b6001836020036101000a038019825116818451168082178552505050505050905001925050506040516020818303038152906040529250505061040b565b80610db8856114e1565b6040516020018083805190602001908083835b60208310610dea5780518252601f199092019160209182019101610dcb565b51815160209384036101000a600019018019909216911617905285519190930192850191508083835b60208310610e325780518252601f199092019160209182019101610e13565b6001836020036101000a0380198251168184511680821785525050505050509050019250505060405160208183030381529060405292505050919050565b6001600160a01b03918216600090815260056020908152604080832093909416825291909152205460ff1690565b610ea661104d565b6001600160a01b0316610eb761094c565b6001600160a01b031614610f12576040805162461bcd60e51b815260206004820181905260248201527f4f776e61626c653a2063616c6c6572206973206e6f7420746865206f776e6572604482015290519081900360640190fd5b6001600160a01b038116610f575760405162461bcd60e51b815260040180806020018281038252602681526020018061224b6026913960400191505060405180910390fd5b600a546040516001600160a01b038084169216907f8be0079c531659141344cd1fd0a4f28419497f9722a3daafe3b4186f6b6457e090600090a3600a80546001600160a01b0319166001600160a01b0392909216919091179055565b600c6020526000908152604090205481565b33610fcf83610787565b6001600160a01b031614610ffe5760405162461bcd60e51b8152600401610ff5906120ca565b60405180910390fd5b6000828152600c602052604090819020829055517fc76e812da26dd30f377a27eb31136e00e8338002ccb11af5ff8db72e9162ac40906110419084908490612176565b60405180910390a15050565b3390565b6001600160a01b0382166110ac576040805162461bcd60e51b815260206004820181905260248201527f4552433732313a206d696e7420746f20746865207a65726f2061646472657373604482015290519081900360640190fd5b6110b5816111e2565b15611107576040805162461bcd60e51b815260206004820152601c60248201527f4552433732313a20746f6b656e20616c7265616479206d696e74656400000000604482015290519081900360640190fd5b611113600083836106a3565b6001600160a01b038216600090815260016020526040902061113590826115bc565b50611142600282846115c8565b5060405181906001600160a01b038416906000907fddf252ad1be2c89b69c2b068fc378daa952ba7f163c4a11628f55a4df523b3ef908290a45050565b611188826111e2565b6111c35760405162461bcd60e51b815260040180806020018281038252602c81526020018061239a602c913960400191505060405180910390fd5b600082815260086020908152604090912082516106a392840190611c5b565b600061074a6002836115de565b600081815260046020526040902080546001600160a01b0319166001600160a01b038416908117909155819061122482610787565b6001600160a01b03167f8c5be1e5ebec7d5bd14f71427d1e84f3dd0314c0f7b2291e5b200ac8c7c3b92560405160405180910390a45050565b600061074a826115ea565b6000611273826111e2565b6112ae5760405162461bcd60e51b815260040180806020018281038252602c815260200180612295602c913960400191505060405180910390fd5b60006112b983610787565b9050806001600160a01b0316846001600160a01b031614806112f45750836001600160a01b03166112e984610570565b6001600160a01b0316145b80610b775750610b778185610e70565b826001600160a01b031661131782610787565b6001600160a01b03161461135c5760405162461bcd60e51b81526004018080602001828103825260298152602001806123c66029913960400191505060405180910390fd5b6001600160a01b0382166113a15760405162461bcd60e51b81526004018080602001828103825260248152602001806122716024913960400191505060405180910390fd5b6113ac8383836106a3565b6113b76000826111ef565b6001600160a01b03831660009081526001602052604090206113d990826115ee565b506001600160a01b03821660009081526001602052604090206113fc90826115bc565b50611409600282846115c8565b5080826001600160a01b0316846001600160a01b03167fddf252ad1be2c89b69c2b068fc378daa952ba7f163c4a11628f55a4df523b3ef60405160405180910390a4505050565b600061074783836115fa565b600080808061146b868661165e565b9097909650945050505050565b60006114858484846116d9565b90505b9392505050565b61149a848484611304565b6114a6848484846117a3565b610be95760405162461bcd60e51b81526004018080602001828103825260328152602001806122196032913960400191505060405180910390fd5b60608161150657506040805180820190915260018152600360fc1b602082015261040b565b8160005b811561151e57600101600a8204915061150a565b60008167ffffffffffffffff8111801561153757600080fd5b506040519080825280601f01601f191660200182016040528015611562576020820181803683370190505b50859350905060001982015b83156115b357600a840660300160f81b8282806001900393508151811061159157fe5b60200101906001600160f81b031916908160001a905350600a8404935061156e565b50949350505050565b6000610747838361190b565b600061148584846001600160a01b038516611955565b600061074783836119ec565b5490565b60006107478383611a04565b8154600090821061163c5760405162461bcd60e51b81526004018080602001828103825260228152602001806121f76022913960400191505060405180910390fd5b82600001828154811061164b57fe5b9060005260206000200154905092915050565b8154600090819083106116a25760405162461bcd60e51b815260040180806020018281038252602281526020018061234c6022913960400191505060405180910390fd5b60008460000184815481106116b357fe5b906000526020600020906002020190508060000154816001015492509250509250929050565b600082815260018401602052604081205482816117745760405162461bcd60e51b81526004018080602001828103825283818151815260200191508051906020019080838360005b83811015611739578181015183820152602001611721565b50505050905090810190601f1680156117665780820380516001836020036101000a031916815260200191505b509250505060405180910390fd5b5084600001600182038154811061178757fe5b9060005260206000209060020201600101549150509392505050565b60006117b7846001600160a01b0316611aca565b6117c357506001610b77565b60006118d1630a85bd0160e11b6117d861104d565b88878760405160240180856001600160a01b03168152602001846001600160a01b0316815260200183815260200180602001828103825283818151815260200191508051906020019080838360005b8381101561183f578181015183820152602001611827565b50505050905090810190601f16801561186c5780820380516001836020036101000a031916815260200191505b5095505050505050604051602081830303815290604052906001600160e01b0319166020820180516001600160e01b038381831617835250505050604051806060016040528060328152602001612219603291396001600160a01b0388169190611ad0565b905060008180602001905160208110156118ea57600080fd5b50516001600160e01b031916630a85bd0160e11b1492505050949350505050565b600061191783836119ec565b61194d5750815460018181018455600084815260208082209093018490558454848252828601909352604090209190915561074a565b50600061074a565b6000828152600184016020526040812054806119ba575050604080518082018252838152602080820184815286546001818101895560008981528481209551600290930290950191825591519082015586548684528188019092529290912055611488565b828560000160018303815481106119cd57fe5b9060005260206000209060020201600101819055506000915050611488565b60009081526001919091016020526040902054151590565b60008181526001830160205260408120548015611ac05783546000198083019190810190600090879083908110611a3757fe5b9060005260206000200154905080876000018481548110611a5457fe5b600091825260208083209091019290925582815260018981019092526040902090840190558654879080611a8457fe5b6001900381819060005260206000200160009055905586600101600087815260200190815260200160002060009055600194505050505061074a565b600091505061074a565b3b151590565b6060611485848460008585611ae485611aca565b611b35576040805162461bcd60e51b815260206004820152601d60248201527f416464726573733a2063616c6c20746f206e6f6e2d636f6e7472616374000000604482015290519081900360640190fd5b600080866001600160a01b031685876040518082805190602001908083835b60208310611b735780518252601f199092019160209182019101611b54565b6001836020036101000a03801982511681845116808217855250505050505090500191505060006040518083038185875af1925050503d8060008114611bd5576040519150601f19603f3d011682016040523d82523d6000602084013e611bda565b606091505b5091509150611bea828286611bf5565b979650505050505050565b60608315611c04575081611488565b825115611c145782518084602001fd5b60405162461bcd60e51b8152602060048201818152845160248401528451859391928392604401919085019080838360008315611739578181015183820152602001611721565b828054600181600116156101000203166002900490600052602060002090601f016020900481019282611c915760008555611cd7565b82601f10611caa57805160ff1916838001178555611cd7565b82800160010185558215611cd7579182015b82811115611cd7578251825591602001919060010190611cbc565b50611ce3929150611ce7565b5090565b5b80821115611ce35760008155600101611ce8565b6000611d0f611d0a846121a8565b612184565b9050828152838383011115611d2357600080fd5b828260208301376000602084830101529392505050565b80356001600160a01b038116811461040b57600080fd5b600082601f830112611d61578081fd5b61074783833560208501611cfc565b600060208284031215611d81578081fd5b61074782611d3a565b60008060408385031215611d9c578081fd5b611da583611d3a565b9150611db360208401611d3a565b90509250929050565b600080600060608486031215611dd0578081fd5b611dd984611d3a565b9250611de760208501611d3a565b9150604084013590509250925092565b60008060008060808587031215611e0c578081fd5b611e1585611d3a565b9350611e2360208601611d3a565b925060408501359150606085013567ffffffffffffffff811115611e45578182fd5b8501601f81018713611e55578182fd5b611e6487823560208401611cfc565b91505092959194509250565b60008060408385031215611e82578182fd5b611e8b83611d3a565b915060208301358015158114611e9f578182fd5b809150509250929050565b60008060408385031215611ebc578182fd5b611ec583611d3a565b946020939093013593505050565b600060208284031215611ee4578081fd5b81356001600160e01b031981168114611488578182fd5b600060208284031215611f0c578081fd5b815167ffffffffffffffff811115611f22578182fd5b8201601f81018413611f32578182fd5b8051611f40611d0a826121a8565b818152856020838501011115611f54578384fd5b611f658260208301602086016121ca565b95945050505050565b60008060408385031215611f80578182fd5b823567ffffffffffffffff811115611f96578283fd5b611fa285828601611d51565b95602094909401359450505050565b600060208284031215611fc2578081fd5b5035919050565b60008060008060808587031215611fde578384fd5b84359350602085013567ffffffffffffffff80821115611ffc578485fd5b61200888838901611d51565b9450604087013591508082111561201d578384fd5b61202988838901611d51565b9350606087013591508082111561203e578283fd5b50611e6487828801611d51565b6000806040838503121561205d578182fd5b50508035926020909101359150565b600081518084526120848160208601602086016121ca565b601f01601f19169290920160200192915050565b6001600160a01b0391909116815260200190565b901515815260200190565b600060208252610747602083018461206c565b6020808252601f908201527f4f6e6c79206f776e6572206f66204e46542063616e2073657420707269636500604082015260600190565b6000602082528251602083015260208301516040830152604083015160a0606084015261213160c084018261206c565b90506060840151601f198085840301608086015261214f838361206c565b925060808601519150808584030160a086015250611f65828261206c565b90815260200190565b918252602082015260400190565b60405181810167ffffffffffffffff811182821017156121a057fe5b604052919050565b600067ffffffffffffffff8211156121bc57fe5b50601f01601f191660200190565b60005b838110156121e55781810151838201526020016121cd565b83811115610be9575050600091015256fe456e756d657261626c655365743a20696e646578206f7574206f6620626f756e64734552433732313a207472616e7366657220746f206e6f6e20455243373231526563656976657220696d706c656d656e7465724f776e61626c653a206e6577206f776e657220697320746865207a65726f20616464726573734552433732313a207472616e7366657220746f20746865207a65726f20616464726573734552433732313a206f70657261746f7220717565727920666f72206e6f6e6578697374656e7420746f6b656e4552433732313a20617070726f76652063616c6c6572206973206e6f74206f776e6572206e6f7220617070726f76656420666f7220616c6c4552433732313a2062616c616e636520717565727920666f7220746865207a65726f20616464726573734552433732313a206f776e657220717565727920666f72206e6f6e6578697374656e7420746f6b656e456e756d657261626c654d61703a20696e646578206f7574206f6620626f756e64734552433732313a20617070726f76656420717565727920666f72206e6f6e6578697374656e7420746f6b656e4552433732314d657461646174613a2055524920736574206f66206e6f6e6578697374656e7420746f6b656e4552433732313a207472616e73666572206f6620746f6b656e2074686174206973206e6f74206f776e4552433732314d657461646174613a2055524920717565727920666f72206e6f6e6578697374656e7420746f6b656e4552433732313a20617070726f76616c20746f2063757272656e74206f776e65724552433732313a207472616e736665722063616c6c6572206973206e6f74206f776e6572206e6f7220617070726f766564a2646970667358221220fd11a1457b2a15ba9827b920163f405c8d6df2ec6213123a9450d603424e03b564736f6c63430007060033",
  "immutableReferences": {},
  "source": "pragma solidity >=0.4.22 <0.8.0;\r\npragma experimental ABIEncoderV2;\r\n\r\n// import \"https://github.com/OpenZeppelin/openzeppelin-contracts/blob/v3.2.0/contracts/access/Ownable.sol\";\r\n\r\nimport \"@openzeppelin/contracts/token/ERC721/ERC721.sol\";\r\nimport \"@openzeppelin/contracts/access/Ownable.sol\";\r\n\r\nimport \"./GenerativeNFT.sol\";\r\n\r\ncontract LuvNFT is ERC721, Ownable {\r\n    constructor() public ERC721(\"LUVNFT\", \"LUV\") {}\r\n\r\n    uint256 public nextId = 0;\r\n\r\n    mapping(uint256 => uint256) public tokenIdToPrice;\r\n    mapping(uint256 => bool) public tokenIdIsExist;\r\n\r\n    event NftPriceChanged(uint256 tokenId, uint256 price);\r\n\r\n    //mint new NFT to create new asset.\r\n    function mint(string memory tokenURI, uint256 price) public onlyOwner {\r\n        tokenIdToPrice[nextId] = price; //1 ONE=1e18 wei\r\n        _mint(msg.sender, nextId);\r\n        _setTokenURI(nextId, tokenURI);\r\n        tokenIdIsExist[nextId]=true;\r\n        nextId++;\r\n    }\r\n\r\n    //get the price of NFT\r\n    function getPriceOf(uint256 tokenId) public view returns (uint256) {\r\n        return tokenIdToPrice[tokenId];\r\n    }\r\n\r\n    //set the price of NFT:only owner can set this.\r\n    function setPriceOf(uint256 tokenId, uint256 price) public {\r\n        require(\r\n            ownerOf(tokenId) == msg.sender,\r\n            \"Only owner of NFT can set price\"\r\n        );\r\n        tokenIdToPrice[tokenId] = price;\r\n        emit NftPriceChanged(tokenId, price);\r\n    }\r\n\r\n    //get the owner of NFT\r\n    function getOwnerOf(uint256 tokenId) public view returns (address) {\r\n        return ownerOf(tokenId);\r\n    }\r\n\r\n    //get the detail info of NFT\r\n    function getTokenInfo(uint256 tokenId) public view returns (string memory) {\r\n        return tokenURI(tokenId);\r\n    }\r\n\r\n    //create svg file automatically.\r\n    function getSVG(\r\n        uint256 tokenId,\r\n        string memory latitude,\r\n        string memory longitude,\r\n        string memory name\r\n    ) public view returns (string memory) {\r\n        return\r\n            NFTDescriptor.constructTokenURI(\r\n                NFTDescriptor.URIParams({\r\n                    tokenId: tokenId,\r\n                    blockNumber: block.number,\r\n                    latitude: latitude,\r\n                    longitude: longitude,\r\n                    name: name\r\n                })\r\n            );\r\n    }\r\n}\r\n",
  "sourcePath": "D:\\job\\NFT\\test\\new-contract\\contracts\\LuvNFT.sol",
  "compiler": {
    "name": "solc",
    "version": "0.7.6+commit.7338295f.Emscripten.clang"
  },
  "schemaVersion": "3.4.3",
  "updatedAt": "2022-03-01T12:56:33.704Z",
  "devdoc": {
    "kind": "dev",
    "methods": {
      "approve(address,uint256)": {
        "details": "See {IERC721-approve}."
      },
      "balanceOf(address)": {
        "details": "See {IERC721-balanceOf}."
      },
      "baseURI()": {
        "details": "Returns the base URI set via {_setBaseURI}. This will be automatically added as a prefix in {tokenURI} to each token's URI, or to the token ID if no specific URI is set for that token ID."
      },
      "getApproved(uint256)": {
        "details": "See {IERC721-getApproved}."
      },
      "isApprovedForAll(address,address)": {
        "details": "See {IERC721-isApprovedForAll}."
      },
      "name()": {
        "details": "See {IERC721Metadata-name}."
      },
      "owner()": {
        "details": "Returns the address of the current owner."
      },
      "ownerOf(uint256)": {
        "details": "See {IERC721-ownerOf}."
      },
      "renounceOwnership()": {
        "details": "Leaves the contract without owner. It will not be possible to call `onlyOwner` functions anymore. Can only be called by the current owner. NOTE: Renouncing ownership will leave the contract without an owner, thereby removing any functionality that is only available to the owner."
      },
      "safeTransferFrom(address,address,uint256)": {
        "details": "See {IERC721-safeTransferFrom}."
      },
      "safeTransferFrom(address,address,uint256,bytes)": {
        "details": "See {IERC721-safeTransferFrom}."
      },
      "setApprovalForAll(address,bool)": {
        "details": "See {IERC721-setApprovalForAll}."
      },
      "supportsInterface(bytes4)": {
        "details": "See {IERC165-supportsInterface}. Time complexity O(1), guaranteed to always use less than 30 000 gas."
      },
      "symbol()": {
        "details": "See {IERC721Metadata-symbol}."
      },
      "tokenByIndex(uint256)": {
        "details": "See {IERC721Enumerable-tokenByIndex}."
      },
      "tokenOfOwnerByIndex(address,uint256)": {
        "details": "See {IERC721Enumerable-tokenOfOwnerByIndex}."
      },
      "tokenURI(uint256)": {
        "details": "See {IERC721Metadata-tokenURI}."
      },
      "totalSupply()": {
        "details": "See {IERC721Enumerable-totalSupply}."
      },
      "transferFrom(address,address,uint256)": {
        "details": "See {IERC721-transferFrom}."
      },
      "transferOwnership(address)": {
        "details": "Transfers ownership of the contract to a new account (`newOwner`). Can only be called by the current owner."
      }
    },
    "version": 1
  },
  "userdoc": {
    "kind": "user",
    "methods": {},
    "version": 1
  }
}