{
  "contractName": "LuvNFT",
  "abi": [
    {
      "inputs": [],
      "stateMutability": "nonpayable",
      "type": "constructor"
    },
    {
      "anonymous": false,
      "inputs": [
        {
          "indexed": true,
          "internalType": "address",
          "name": "owner",
          "type": "address"
        },
        {
          "indexed": true,
          "internalType": "address",
          "name": "approved",
          "type": "address"
        },
        {
          "indexed": true,
          "internalType": "uint256",
          "name": "tokenId",
          "type": "uint256"
        }
      ],
      "name": "Approval",
      "type": "event"
    },
    {
      "anonymous": false,
      "inputs": [
        {
          "indexed": true,
          "internalType": "address",
          "name": "owner",
          "type": "address"
        },
        {
          "indexed": true,
          "internalType": "address",
          "name": "operator",
          "type": "address"
        },
        {
          "indexed": false,
          "internalType": "bool",
          "name": "approved",
          "type": "bool"
        }
      ],
      "name": "ApprovalForAll",
      "type": "event"
    },
    {
      "anonymous": false,
      "inputs": [
        {
          "indexed": true,
          "internalType": "address",
          "name": "previousOwner",
          "type": "address"
        },
        {
          "indexed": true,
          "internalType": "address",
          "name": "newOwner",
          "type": "address"
        }
      ],
      "name": "OwnershipTransferred",
      "type": "event"
    },
    {
      "anonymous": false,
      "inputs": [
        {
          "indexed": true,
          "internalType": "address",
          "name": "from",
          "type": "address"
        },
        {
          "indexed": true,
          "internalType": "address",
          "name": "to",
          "type": "address"
        },
        {
          "indexed": true,
          "internalType": "uint256",
          "name": "tokenId",
          "type": "uint256"
        }
      ],
      "name": "Transfer",
      "type": "event"
    },
    {
      "inputs": [
        {
          "internalType": "address",
          "name": "to",
          "type": "address"
        },
        {
          "internalType": "uint256",
          "name": "tokenId",
          "type": "uint256"
        }
      ],
      "name": "approve",
      "outputs": [],
      "stateMutability": "nonpayable",
      "type": "function"
    },
    {
      "inputs": [
        {
          "internalType": "address",
          "name": "owner",
          "type": "address"
        }
      ],
      "name": "balanceOf",
      "outputs": [
        {
          "internalType": "uint256",
          "name": "",
          "type": "uint256"
        }
      ],
      "stateMutability": "view",
      "type": "function"
    },
    {
      "inputs": [],
      "name": "baseURI",
      "outputs": [
        {
          "internalType": "string",
          "name": "",
          "type": "string"
        }
      ],
      "stateMutability": "view",
      "type": "function"
    },
    {
      "inputs": [
        {
          "internalType": "uint256",
          "name": "tokenId",
          "type": "uint256"
        }
      ],
      "name": "getApproved",
      "outputs": [
        {
          "internalType": "address",
          "name": "",
          "type": "address"
        }
      ],
      "stateMutability": "view",
      "type": "function"
    },
    {
      "inputs": [
        {
          "internalType": "address",
          "name": "owner",
          "type": "address"
        },
        {
          "internalType": "address",
          "name": "operator",
          "type": "address"
        }
      ],
      "name": "isApprovedForAll",
      "outputs": [
        {
          "internalType": "bool",
          "name": "",
          "type": "bool"
        }
      ],
      "stateMutability": "view",
      "type": "function"
    },
    {
      "inputs": [],
      "name": "name",
      "outputs": [
        {
          "internalType": "string",
          "name": "",
          "type": "string"
        }
      ],
      "stateMutability": "view",
      "type": "function"
    },
    {
      "inputs": [],
      "name": "nextId",
      "outputs": [
        {
          "internalType": "uint256",
          "name": "",
          "type": "uint256"
        }
      ],
      "stateMutability": "view",
      "type": "function"
    },
    {
      "inputs": [],
      "name": "owner",
      "outputs": [
        {
          "internalType": "address",
          "name": "",
          "type": "address"
        }
      ],
      "stateMutability": "view",
      "type": "function"
    },
    {
      "inputs": [
        {
          "internalType": "uint256",
          "name": "tokenId",
          "type": "uint256"
        }
      ],
      "name": "ownerOf",
      "outputs": [
        {
          "internalType": "address",
          "name": "",
          "type": "address"
        }
      ],
      "stateMutability": "view",
      "type": "function"
    },
    {
      "inputs": [],
      "name": "renounceOwnership",
      "outputs": [],
      "stateMutability": "nonpayable",
      "type": "function"
    },
    {
      "inputs": [
        {
          "internalType": "address",
          "name": "from",
          "type": "address"
        },
        {
          "internalType": "address",
          "name": "to",
          "type": "address"
        },
        {
          "internalType": "uint256",
          "name": "tokenId",
          "type": "uint256"
        }
      ],
      "name": "safeTransferFrom",
      "outputs": [],
      "stateMutability": "nonpayable",
      "type": "function"
    },
    {
      "inputs": [
        {
          "internalType": "address",
          "name": "from",
          "type": "address"
        },
        {
          "internalType": "address",
          "name": "to",
          "type": "address"
        },
        {
          "internalType": "uint256",
          "name": "tokenId",
          "type": "uint256"
        },
        {
          "internalType": "bytes",
          "name": "_data",
          "type": "bytes"
        }
      ],
      "name": "safeTransferFrom",
      "outputs": [],
      "stateMutability": "nonpayable",
      "type": "function"
    },
    {
      "inputs": [
        {
          "internalType": "address",
          "name": "operator",
          "type": "address"
        },
        {
          "internalType": "bool",
          "name": "approved",
          "type": "bool"
        }
      ],
      "name": "setApprovalForAll",
      "outputs": [],
      "stateMutability": "nonpayable",
      "type": "function"
    },
    {
      "inputs": [
        {
          "internalType": "bytes4",
          "name": "interfaceId",
          "type": "bytes4"
        }
      ],
      "name": "supportsInterface",
      "outputs": [
        {
          "internalType": "bool",
          "name": "",
          "type": "bool"
        }
      ],
      "stateMutability": "view",
      "type": "function"
    },
    {
      "inputs": [],
      "name": "symbol",
      "outputs": [
        {
          "internalType": "string",
          "name": "",
          "type": "string"
        }
      ],
      "stateMutability": "view",
      "type": "function"
    },
    {
      "inputs": [
        {
          "internalType": "uint256",
          "name": "index",
          "type": "uint256"
        }
      ],
      "name": "tokenByIndex",
      "outputs": [
        {
          "internalType": "uint256",
          "name": "",
          "type": "uint256"
        }
      ],
      "stateMutability": "view",
      "type": "function"
    },
    {
      "inputs": [
        {
          "internalType": "uint256",
          "name": "",
          "type": "uint256"
        }
      ],
      "name": "tokenIdIsExist",
      "outputs": [
        {
          "internalType": "bool",
          "name": "",
          "type": "bool"
        }
      ],
      "stateMutability": "view",
      "type": "function"
    },
    {
      "inputs": [
        {
          "internalType": "address",
          "name": "owner",
          "type": "address"
        },
        {
          "internalType": "uint256",
          "name": "index",
          "type": "uint256"
        }
      ],
      "name": "tokenOfOwnerByIndex",
      "outputs": [
        {
          "internalType": "uint256",
          "name": "",
          "type": "uint256"
        }
      ],
      "stateMutability": "view",
      "type": "function"
    },
    {
      "inputs": [
        {
          "internalType": "uint256",
          "name": "tokenId",
          "type": "uint256"
        }
      ],
      "name": "tokenURI",
      "outputs": [
        {
          "internalType": "string",
          "name": "",
          "type": "string"
        }
      ],
      "stateMutability": "view",
      "type": "function"
    },
    {
      "inputs": [],
      "name": "totalSupply",
      "outputs": [
        {
          "internalType": "uint256",
          "name": "",
          "type": "uint256"
        }
      ],
      "stateMutability": "view",
      "type": "function"
    },
    {
      "inputs": [
        {
          "internalType": "address",
          "name": "from",
          "type": "address"
        },
        {
          "internalType": "address",
          "name": "to",
          "type": "address"
        },
        {
          "internalType": "uint256",
          "name": "tokenId",
          "type": "uint256"
        }
      ],
      "name": "transferFrom",
      "outputs": [],
      "stateMutability": "nonpayable",
      "type": "function"
    },
    {
      "inputs": [
        {
          "internalType": "address",
          "name": "newOwner",
          "type": "address"
        }
      ],
      "name": "transferOwnership",
      "outputs": [],
      "stateMutability": "nonpayable",
      "type": "function"
    },
    {
      "inputs": [
        {
          "internalType": "string",
          "name": "tokenURI",
          "type": "string"
        }
      ],
      "name": "mint",
      "outputs": [],
      "stateMutability": "nonpayable",
      "type": "function"
    }
  ],
  "bytecode": "0x60806040526000600b553480156200001657600080fd5b50604080518082018252600681526513155593919560d21b60208083019190915282518084019093526003835262262aab60e91b9083015290620000616301ffc9a760e01b62000126565b815162000076906006906020850190620001af565b5080516200008c906007906020840190620001af565b506200009f6380ac58cd60e01b62000126565b620000b1635b5e139f60e01b62000126565b620000c363780e9d6360e01b62000126565b5060009050620000d2620001ab565b600a80546001600160a01b0319166001600160a01b038316908117909155604051919250906000907f8be0079c531659141344cd1fd0a4f28419497f9722a3daafe3b4186f6b6457e0908290a3506200025b565b6001600160e01b0319808216141562000186576040805162461bcd60e51b815260206004820152601c60248201527f4552433136353a20696e76616c696420696e7465726661636520696400000000604482015290519081900360640190fd5b6001600160e01b0319166000908152602081905260409020805460ff19166001179055565b3390565b828054600181600116156101000203166002900490600052602060002090601f016020900481019282620001e7576000855562000232565b82601f106200020257805160ff191683800117855562000232565b8280016001018555821562000232579182015b828111156200023257825182559160200191906001019062000215565b506200024092915062000244565b5090565b5b8082111562000240576000815560010162000245565b612008806200026b6000396000f3fe608060405234801561001057600080fd5b506004361061014d5760003560e01c80636352211e116100c3578063a22cb4651161007c578063a22cb46514610287578063b88d4fde1461029a578063c87b56dd146102ad578063d85d3d27146102c0578063e985e9c5146102d3578063f2fde38b146102e65761014d565b80636352211e146102415780636c0360eb1461025457806370a082311461025c578063715018a61461026f5780638da5cb5b1461027757806395d89b411461027f5761014d565b806323b872dd1161011557806323b872dd146101da5780632f226b6f146101ed5780632f745c591461020057806342842e0e146102135780634f6ccce71461022657806361b8ce8c146102395761014d565b806301ffc9a71461015257806306fdde031461017b578063081812fc14610190578063095ea7b3146101b057806318160ddd146101c5575b600080fd5b610165610160366004611c58565b6102f9565b6040516101729190611cf2565b60405180910390f35b61018361031c565b6040516101729190611cfd565b6101a361019e366004611cc6565b6103b2565b6040516101729190611cde565b6101c36101be366004611c2f565b610414565b005b6101cd6104ea565b6040516101729190611d50565b6101c36101e8366004611b41565b6104fb565b6101656101fb366004611cc6565b610552565b6101cd61020e366004611c2f565b610567565b6101c3610221366004611b41565b610592565b6101cd610234366004611cc6565b6105ad565b6101cd6105c3565b6101a361024f366004611cc6565b6105c9565b6101836105f1565b6101cd61026a366004611af5565b610652565b6101c36106ba565b6101a3610778565b610183610787565b6101c3610295366004611bf5565b6107e8565b6101c36102a8366004611b7c565b6108ed565b6101836102bb366004611cc6565b61094b565b6101c36102ce366004611c80565b610bcc565b6101656102e1366004611b0f565b610c80565b6101c36102f4366004611af5565b610cae565b6001600160e01b0319811660009081526020819052604090205460ff165b919050565b60068054604080516020601f60026000196101006001881615020190951694909404938401819004810282018101909252828152606093909290918301828280156103a85780601f1061037d576101008083540402835291602001916103a8565b820191906000526020600020905b81548152906001019060200180831161038b57829003601f168201915b5050505050905090565b60006103bd82610dc3565b6103f85760405162461bcd60e51b815260040180806020018281038252602c815260200180611ed1602c913960400191505060405180910390fd5b506000908152600460205260409020546001600160a01b031690565b600061041f826105c9565b9050806001600160a01b0316836001600160a01b031614156104725760405162461bcd60e51b8152600401808060200182810382526021815260200180611f816021913960400191505060405180910390fd5b806001600160a01b0316610484610dd0565b6001600160a01b031614806104a057506104a0816102e1610dd0565b6104db5760405162461bcd60e51b8152600401808060200182810382526038815260200180611e246038913960400191505060405180910390fd5b6104e58383610dd4565b505050565b60006104f66002610e42565b905090565b61050c610506610dd0565b82610e4d565b6105475760405162461bcd60e51b8152600401808060200182810382526031815260200180611fa26031913960400191505060405180910390fd5b6104e5838383610ef1565b600c6020526000908152604090205460ff1681565b6001600160a01b0382166000908152600160205260408120610589908361103d565b90505b92915050565b6104e5838383604051806020016040528060008152506108ed565b6000806105bb600284611049565b509392505050565b600b5481565b600061058c82604051806060016040528060298152602001611e866029913960029190611065565b60098054604080516020601f60026000196101006001881615020190951694909404938401819004810282018101909252828152606093909290918301828280156103a85780601f1061037d576101008083540402835291602001916103a8565b60006001600160a01b0382166106995760405162461bcd60e51b815260040180806020018281038252602a815260200180611e5c602a913960400191505060405180910390fd5b6001600160a01b038216600090815260016020526040902061058c90610e42565b6106c2610dd0565b6001600160a01b03166106d3610778565b6001600160a01b03161461072e576040805162461bcd60e51b815260206004820181905260248201527f4f776e61626c653a2063616c6c6572206973206e6f7420746865206f776e6572604482015290519081900360640190fd5b600a546040516000916001600160a01b0316907f8be0079c531659141344cd1fd0a4f28419497f9722a3daafe3b4186f6b6457e0908390a3600a80546001600160a01b0319169055565b600a546001600160a01b031690565b60078054604080516020601f60026000196101006001881615020190951694909404938401819004810282018101909252828152606093909290918301828280156103a85780601f1061037d576101008083540402835291602001916103a8565b6107f0610dd0565b6001600160a01b0316826001600160a01b03161415610856576040805162461bcd60e51b815260206004820152601960248201527f4552433732313a20617070726f766520746f2063616c6c657200000000000000604482015290519081900360640190fd5b8060056000610863610dd0565b6001600160a01b03908116825260208083019390935260409182016000908120918716808252919093529120805460ff1916921515929092179091556108a7610dd0565b6001600160a01b03167f17307eab39ab6107e8899845ad3d59bd9653f200f220920489ca2b5937696c318360405180821515815260200191505060405180910390a35050565b6108fe6108f8610dd0565b83610e4d565b6109395760405162461bcd60e51b8152600401808060200182810382526031815260200180611fa26031913960400191505060405180910390fd5b6109458484848461107c565b50505050565b606061095682610dc3565b6109915760405162461bcd60e51b815260040180806020018281038252602f815260200180611f52602f913960400191505060405180910390fd5b60008281526008602090815260408083208054825160026001831615610100026000190190921691909104601f810185900485028201850190935282815292909190830182828015610a245780601f106109f957610100808354040283529160200191610a24565b820191906000526020600020905b815481529060010190602001808311610a0757829003601f168201915b505050505090506000610a356105f1565b9050805160001415610a4957509050610317565b815115610b0a5780826040516020018083805190602001908083835b60208310610a845780518252601f199092019160209182019101610a65565b51815160209384036101000a600019018019909216911617905285519190930192850191508083835b60208310610acc5780518252601f199092019160209182019101610aad565b6001836020036101000a0380198251168184511680821785525050505050509050019250505060405160208183030381529060405292505050610317565b80610b14856110ce565b6040516020018083805190602001908083835b60208310610b465780518252601f199092019160209182019101610b27565b51815160209384036101000a600019018019909216911617905285519190930192850191508083835b60208310610b8e5780518252601f199092019160209182019101610b6f565b6001836020036101000a0380198251168184511680821785525050505050509050019250505060405160208183030381529060405292505050919050565b610bd4610dd0565b6001600160a01b0316610be5610778565b6001600160a01b031614610c40576040805162461bcd60e51b815260206004820181905260248201527f4f776e61626c653a2063616c6c6572206973206e6f7420746865206f776e6572604482015290519081900360640190fd5b610c4c33600b546111a9565b610c58600b54826112d7565b50600b80546000908152600c60205260409020805460ff191660019081179091558154019055565b6001600160a01b03918216600090815260056020908152604080832093909416825291909152205460ff1690565b610cb6610dd0565b6001600160a01b0316610cc7610778565b6001600160a01b031614610d22576040805162461bcd60e51b815260206004820181905260248201527f4f776e61626c653a2063616c6c6572206973206e6f7420746865206f776e6572604482015290519081900360640190fd5b6001600160a01b038116610d675760405162461bcd60e51b8152600401808060200182810382526026815260200180611dae6026913960400191505060405180910390fd5b600a546040516001600160a01b038084169216907f8be0079c531659141344cd1fd0a4f28419497f9722a3daafe3b4186f6b6457e090600090a3600a80546001600160a01b0319166001600160a01b0392909216919091179055565b600061058c60028361133a565b3390565b600081815260046020526040902080546001600160a01b0319166001600160a01b0384169081179091558190610e09826105c9565b6001600160a01b03167f8c5be1e5ebec7d5bd14f71427d1e84f3dd0314c0f7b2291e5b200ac8c7c3b92560405160405180910390a45050565b600061058c82611346565b6000610e5882610dc3565b610e935760405162461bcd60e51b815260040180806020018281038252602c815260200180611df8602c913960400191505060405180910390fd5b6000610e9e836105c9565b9050806001600160a01b0316846001600160a01b03161480610ed95750836001600160a01b0316610ece846103b2565b6001600160a01b0316145b80610ee95750610ee98185610c80565b949350505050565b826001600160a01b0316610f04826105c9565b6001600160a01b031614610f495760405162461bcd60e51b8152600401808060200182810382526029815260200180611f296029913960400191505060405180910390fd5b6001600160a01b038216610f8e5760405162461bcd60e51b8152600401808060200182810382526024815260200180611dd46024913960400191505060405180910390fd5b610f998383836104e5565b610fa4600082610dd4565b6001600160a01b0383166000908152600160205260409020610fc6908261134a565b506001600160a01b0382166000908152600160205260409020610fe99082611356565b50610ff660028284611362565b5080826001600160a01b0316846001600160a01b03167fddf252ad1be2c89b69c2b068fc378daa952ba7f163c4a11628f55a4df523b3ef60405160405180910390a4505050565b60006105898383611378565b600080808061105886866113dc565b9097909650945050505050565b6000611072848484611457565b90505b9392505050565b611087848484610ef1565b61109384848484611521565b6109455760405162461bcd60e51b8152600401808060200182810382526032815260200180611d7c6032913960400191505060405180910390fd5b6060816110f357506040805180820190915260018152600360fc1b6020820152610317565b8160005b811561110b57600101600a820491506110f7565b60008167ffffffffffffffff8111801561112457600080fd5b506040519080825280601f01601f19166020018201604052801561114f576020820181803683370190505b50859350905060001982015b83156111a057600a840660300160f81b8282806001900393508151811061117e57fe5b60200101906001600160f81b031916908160001a905350600a8404935061115b565b50949350505050565b6001600160a01b038216611204576040805162461bcd60e51b815260206004820181905260248201527f4552433732313a206d696e7420746f20746865207a65726f2061646472657373604482015290519081900360640190fd5b61120d81610dc3565b1561125f576040805162461bcd60e51b815260206004820152601c60248201527f4552433732313a20746f6b656e20616c7265616479206d696e74656400000000604482015290519081900360640190fd5b61126b600083836104e5565b6001600160a01b038216600090815260016020526040902061128d9082611356565b5061129a60028284611362565b5060405181906001600160a01b038416906000907fddf252ad1be2c89b69c2b068fc378daa952ba7f163c4a11628f55a4df523b3ef908290a45050565b6112e082610dc3565b61131b5760405162461bcd60e51b815260040180806020018281038252602c815260200180611efd602c913960400191505060405180910390fd5b600082815260086020908152604090912082516104e5928401906119d9565b60006105898383611689565b5490565b600061058983836116a1565b60006105898383611767565b600061107284846001600160a01b0385166117b1565b815460009082106113ba5760405162461bcd60e51b8152600401808060200182810382526022815260200180611d5a6022913960400191505060405180910390fd5b8260000182815481106113c957fe5b9060005260206000200154905092915050565b8154600090819083106114205760405162461bcd60e51b8152600401808060200182810382526022815260200180611eaf6022913960400191505060405180910390fd5b600084600001848154811061143157fe5b906000526020600020906002020190508060000154816001015492509250509250929050565b600082815260018401602052604081205482816114f25760405162461bcd60e51b81526004018080602001828103825283818151815260200191508051906020019080838360005b838110156114b757818101518382015260200161149f565b50505050905090810190601f1680156114e45780820380516001836020036101000a031916815260200191505b509250505060405180910390fd5b5084600001600182038154811061150557fe5b9060005260206000209060020201600101549150509392505050565b6000611535846001600160a01b0316611848565b61154157506001610ee9565b600061164f630a85bd0160e11b611556610dd0565b88878760405160240180856001600160a01b03168152602001846001600160a01b0316815260200183815260200180602001828103825283818151815260200191508051906020019080838360005b838110156115bd5781810151838201526020016115a5565b50505050905090810190601f1680156115ea5780820380516001836020036101000a031916815260200191505b5095505050505050604051602081830303815290604052906001600160e01b0319166020820180516001600160e01b038381831617835250505050604051806060016040528060328152602001611d7c603291396001600160a01b038816919061184e565b9050600081806020019051602081101561166857600080fd5b50516001600160e01b031916630a85bd0160e11b1492505050949350505050565b60009081526001919091016020526040902054151590565b6000818152600183016020526040812054801561175d57835460001980830191908101906000908790839081106116d457fe5b90600052602060002001549050808760000184815481106116f157fe5b60009182526020808320909101929092558281526001898101909252604090209084019055865487908061172157fe5b6001900381819060005260206000200160009055905586600101600087815260200190815260200160002060009055600194505050505061058c565b600091505061058c565b60006117738383611689565b6117a95750815460018181018455600084815260208082209093018490558454848252828601909352604090209190915561058c565b50600061058c565b600082815260018401602052604081205480611816575050604080518082018252838152602080820184815286546001818101895560008981528481209551600290930290950191825591519082015586548684528188019092529290912055611075565b8285600001600183038154811061182957fe5b9060005260206000209060020201600101819055506000915050611075565b3b151590565b606061107284846000858561186285611848565b6118b3576040805162461bcd60e51b815260206004820152601d60248201527f416464726573733a2063616c6c20746f206e6f6e2d636f6e7472616374000000604482015290519081900360640190fd5b600080866001600160a01b031685876040518082805190602001908083835b602083106118f15780518252601f1990920191602091820191016118d2565b6001836020036101000a03801982511681845116808217855250505050505090500191505060006040518083038185875af1925050503d8060008114611953576040519150601f19603f3d011682016040523d82523d6000602084013e611958565b606091505b5091509150611968828286611973565b979650505050505050565b60608315611982575081611075565b8251156119925782518084602001fd5b60405162461bcd60e51b81526020600482018181528451602484015284518593919283926044019190850190808383600083156114b757818101518382015260200161149f565b828054600181600116156101000203166002900490600052602060002090601f016020900481019282611a0f5760008555611a55565b82601f10611a2857805160ff1916838001178555611a55565b82800160010185558215611a55579182015b82811115611a55578251825591602001919060010190611a3a565b50611a61929150611a65565b5090565b5b80821115611a615760008155600101611a66565b600067ffffffffffffffff80841115611a8f57fe5b604051601f8501601f191681016020018281118282101715611aad57fe5b604052848152915081838501861015611ac557600080fd5b8484602083013760006020868301015250509392505050565b80356001600160a01b038116811461031757600080fd5b600060208284031215611b06578081fd5b61058982611ade565b60008060408385031215611b21578081fd5b611b2a83611ade565b9150611b3860208401611ade565b90509250929050565b600080600060608486031215611b55578081fd5b611b5e84611ade565b9250611b6c60208501611ade565b9150604084013590509250925092565b60008060008060808587031215611b91578081fd5b611b9a85611ade565b9350611ba860208601611ade565b925060408501359150606085013567ffffffffffffffff811115611bca578182fd5b8501601f81018713611bda578182fd5b611be987823560208401611a7a565b91505092959194509250565b60008060408385031215611c07578182fd5b611c1083611ade565b915060208301358015158114611c24578182fd5b809150509250929050565b60008060408385031215611c41578182fd5b611c4a83611ade565b946020939093013593505050565b600060208284031215611c69578081fd5b81356001600160e01b031981168114611075578182fd5b600060208284031215611c91578081fd5b813567ffffffffffffffff811115611ca7578182fd5b8201601f81018413611cb7578182fd5b610ee984823560208401611a7a565b600060208284031215611cd7578081fd5b5035919050565b6001600160a01b0391909116815260200190565b901515815260200190565b6000602080835283518082850152825b81811015611d2957858101830151858201604001528201611d0d565b81811115611d3a5783604083870101525b50601f01601f1916929092016040019392505050565b9081526020019056fe456e756d657261626c655365743a20696e646578206f7574206f6620626f756e64734552433732313a207472616e7366657220746f206e6f6e20455243373231526563656976657220696d706c656d656e7465724f776e61626c653a206e6577206f776e657220697320746865207a65726f20616464726573734552433732313a207472616e7366657220746f20746865207a65726f20616464726573734552433732313a206f70657261746f7220717565727920666f72206e6f6e6578697374656e7420746f6b656e4552433732313a20617070726f76652063616c6c6572206973206e6f74206f776e6572206e6f7220617070726f76656420666f7220616c6c4552433732313a2062616c616e636520717565727920666f7220746865207a65726f20616464726573734552433732313a206f776e657220717565727920666f72206e6f6e6578697374656e7420746f6b656e456e756d657261626c654d61703a20696e646578206f7574206f6620626f756e64734552433732313a20617070726f76656420717565727920666f72206e6f6e6578697374656e7420746f6b656e4552433732314d657461646174613a2055524920736574206f66206e6f6e6578697374656e7420746f6b656e4552433732313a207472616e73666572206f6620746f6b656e2074686174206973206e6f74206f776e4552433732314d657461646174613a2055524920717565727920666f72206e6f6e6578697374656e7420746f6b656e4552433732313a20617070726f76616c20746f2063757272656e74206f776e65724552433732313a207472616e736665722063616c6c6572206973206e6f74206f776e6572206e6f7220617070726f766564a26469706673582212205aeb49f6d788036339e31e25fdd98b87d6a0453fffbae7ce5db7573397c5987c64736f6c63430007060033",
  "immutableReferences": {},
  "source": "// SPDX-License-Identifier: MIT\r\n\r\npragma solidity >=0.4.22 <0.8.0;\r\npragma experimental ABIEncoderV2;\r\n\r\n// import \"https://github.com/OpenZeppelin/openzeppelin-contracts/blob/v3.2.0/contracts/access/Ownable.sol\";\r\n\r\nimport \"@openzeppelin/contracts/token/ERC721/ERC721.sol\";\r\nimport \"@openzeppelin/contracts/access/Ownable.sol\";\r\n\r\ncontract LuvNFT is ERC721, Ownable {\r\n    constructor() public ERC721(\"LUVNFT\", \"LUV\") {}\r\n\r\n    uint256 public nextId = 0;\r\n\r\n    mapping(uint256 => bool) public tokenIdIsExist;\r\n\r\n    //mint new NFT to create new asset.\r\n    function mint(string memory tokenURI) public onlyOwner {\r\n        _mint(msg.sender, nextId);\r\n        _setTokenURI(nextId, tokenURI);\r\n        tokenIdIsExist[nextId]=true;\r\n        nextId++;\r\n    }\r\n}\r\n",
  "sourcePath": "D:\\job\\NFT\\test\\new-contract\\contracts\\LuvNFT.sol",
  "compiler": {
    "name": "solc",
    "version": "0.7.6+commit.7338295f.Emscripten.clang"
  },
  "schemaVersion": "3.4.3",
  "updatedAt": "2022-03-02T07:28:57.216Z",
  "devdoc": {
    "kind": "dev",
    "methods": {
      "approve(address,uint256)": {
        "details": "See {IERC721-approve}."
      },
      "balanceOf(address)": {
        "details": "See {IERC721-balanceOf}."
      },
      "baseURI()": {
        "details": "Returns the base URI set via {_setBaseURI}. This will be automatically added as a prefix in {tokenURI} to each token's URI, or to the token ID if no specific URI is set for that token ID."
      },
      "getApproved(uint256)": {
        "details": "See {IERC721-getApproved}."
      },
      "isApprovedForAll(address,address)": {
        "details": "See {IERC721-isApprovedForAll}."
      },
      "name()": {
        "details": "See {IERC721Metadata-name}."
      },
      "owner()": {
        "details": "Returns the address of the current owner."
      },
      "ownerOf(uint256)": {
        "details": "See {IERC721-ownerOf}."
      },
      "renounceOwnership()": {
        "details": "Leaves the contract without owner. It will not be possible to call `onlyOwner` functions anymore. Can only be called by the current owner. NOTE: Renouncing ownership will leave the contract without an owner, thereby removing any functionality that is only available to the owner."
      },
      "safeTransferFrom(address,address,uint256)": {
        "details": "See {IERC721-safeTransferFrom}."
      },
      "safeTransferFrom(address,address,uint256,bytes)": {
        "details": "See {IERC721-safeTransferFrom}."
      },
      "setApprovalForAll(address,bool)": {
        "details": "See {IERC721-setApprovalForAll}."
      },
      "supportsInterface(bytes4)": {
        "details": "See {IERC165-supportsInterface}. Time complexity O(1), guaranteed to always use less than 30 000 gas."
      },
      "symbol()": {
        "details": "See {IERC721Metadata-symbol}."
      },
      "tokenByIndex(uint256)": {
        "details": "See {IERC721Enumerable-tokenByIndex}."
      },
      "tokenOfOwnerByIndex(address,uint256)": {
        "details": "See {IERC721Enumerable-tokenOfOwnerByIndex}."
      },
      "tokenURI(uint256)": {
        "details": "See {IERC721Metadata-tokenURI}."
      },
      "totalSupply()": {
        "details": "See {IERC721Enumerable-totalSupply}."
      },
      "transferFrom(address,address,uint256)": {
        "details": "See {IERC721-transferFrom}."
      },
      "transferOwnership(address)": {
        "details": "Transfers ownership of the contract to a new account (`newOwner`). Can only be called by the current owner."
      }
    },
    "version": 1
  },
  "userdoc": {
    "kind": "user",
    "methods": {},
    "version": 1
  }
}