{
  "contractName": "LuvRent",
  "abi": [
    {
      "anonymous": false,
      "inputs": [
        {
          "indexed": false,
          "internalType": "uint256",
          "name": "tokenId",
          "type": "uint256"
        }
      ],
      "name": "ListNFT",
      "type": "event"
    },
    {
      "anonymous": false,
      "inputs": [
        {
          "indexed": false,
          "internalType": "uint256",
          "name": "listingId",
          "type": "uint256"
        }
      ],
      "name": "Returned",
      "type": "event"
    },
    {
      "anonymous": false,
      "inputs": [
        {
          "indexed": false,
          "internalType": "uint256",
          "name": "listingId",
          "type": "uint256"
        }
      ],
      "name": "TerminateRental",
      "type": "event"
    },
    {
      "anonymous": false,
      "inputs": [
        {
          "indexed": false,
          "internalType": "uint256",
          "name": "listingId",
          "type": "uint256"
        }
      ],
      "name": "UnlistNFT",
      "type": "event"
    },
    {
      "inputs": [],
      "name": "getListingCount",
      "outputs": [
        {
          "internalType": "uint256",
          "name": "",
          "type": "uint256"
        }
      ],
      "stateMutability": "view",
      "type": "function"
    },
    {
      "inputs": [],
      "name": "viewAllListings",
      "outputs": [
        {
          "components": [
            {
              "internalType": "uint256",
              "name": "id",
              "type": "uint256"
            },
            {
              "internalType": "uint256",
              "name": "tokenId",
              "type": "uint256"
            },
            {
              "internalType": "address",
              "name": "tokenAddress",
              "type": "address"
            },
            {
              "internalType": "address payable",
              "name": "lenderAddress",
              "type": "address"
            },
            {
              "internalType": "uint16",
              "name": "duration",
              "type": "uint16"
            },
            {
              "internalType": "uint16",
              "name": "dailyInterestRate",
              "type": "uint16"
            },
            {
              "internalType": "uint256",
              "name": "collateralRequired",
              "type": "uint256"
            },
            {
              "components": [
                {
                  "internalType": "address payable",
                  "name": "borrowerAddress",
                  "type": "address"
                },
                {
                  "internalType": "uint256",
                  "name": "rentedAt",
                  "type": "uint256"
                }
              ],
              "internalType": "struct LuvRentStorage.Rental",
              "name": "rental",
              "type": "tuple"
            }
          ],
          "internalType": "struct LuvRentStorage.Listing[]",
          "name": "",
          "type": "tuple[]"
        }
      ],
      "stateMutability": "view",
      "type": "function"
    },
    {
      "inputs": [
        {
          "internalType": "uint256",
          "name": "listingId",
          "type": "uint256"
        }
      ],
      "name": "borrow",
      "outputs": [],
      "stateMutability": "payable",
      "type": "function"
    },
    {
      "inputs": [],
      "name": "viewOwnedOngoingListingsAndRentals",
      "outputs": [
        {
          "components": [
            {
              "internalType": "uint256",
              "name": "id",
              "type": "uint256"
            },
            {
              "internalType": "uint256",
              "name": "tokenId",
              "type": "uint256"
            },
            {
              "internalType": "address",
              "name": "tokenAddress",
              "type": "address"
            },
            {
              "internalType": "address payable",
              "name": "lenderAddress",
              "type": "address"
            },
            {
              "internalType": "uint16",
              "name": "duration",
              "type": "uint16"
            },
            {
              "internalType": "uint16",
              "name": "dailyInterestRate",
              "type": "uint16"
            },
            {
              "internalType": "uint256",
              "name": "collateralRequired",
              "type": "uint256"
            },
            {
              "components": [
                {
                  "internalType": "address payable",
                  "name": "borrowerAddress",
                  "type": "address"
                },
                {
                  "internalType": "uint256",
                  "name": "rentedAt",
                  "type": "uint256"
                }
              ],
              "internalType": "struct LuvRentStorage.Rental",
              "name": "rental",
              "type": "tuple"
            }
          ],
          "internalType": "struct LuvRentStorage.Listing[]",
          "name": "",
          "type": "tuple[]"
        }
      ],
      "stateMutability": "view",
      "type": "function"
    },
    {
      "inputs": [
        {
          "internalType": "uint256",
          "name": "tokenId",
          "type": "uint256"
        },
        {
          "internalType": "address",
          "name": "tokenAddress",
          "type": "address"
        },
        {
          "internalType": "uint16",
          "name": "duration",
          "type": "uint16"
        },
        {
          "internalType": "uint16",
          "name": "dailyInterestRate",
          "type": "uint16"
        },
        {
          "internalType": "uint256",
          "name": "collateralRequired",
          "type": "uint256"
        }
      ],
      "name": "listNFT",
      "outputs": [],
      "stateMutability": "nonpayable",
      "type": "function"
    },
    {
      "inputs": [
        {
          "internalType": "uint256",
          "name": "listingId",
          "type": "uint256"
        }
      ],
      "name": "unlistNFT",
      "outputs": [],
      "stateMutability": "nonpayable",
      "type": "function"
    },
    {
      "inputs": [
        {
          "internalType": "uint256",
          "name": "listingId",
          "type": "uint256"
        }
      ],
      "name": "terminateRental",
      "outputs": [],
      "stateMutability": "nonpayable",
      "type": "function"
    },
    {
      "inputs": [],
      "name": "viewRentedListings",
      "outputs": [
        {
          "components": [
            {
              "internalType": "uint256",
              "name": "id",
              "type": "uint256"
            },
            {
              "internalType": "uint256",
              "name": "tokenId",
              "type": "uint256"
            },
            {
              "internalType": "address",
              "name": "tokenAddress",
              "type": "address"
            },
            {
              "internalType": "address payable",
              "name": "lenderAddress",
              "type": "address"
            },
            {
              "internalType": "uint16",
              "name": "duration",
              "type": "uint16"
            },
            {
              "internalType": "uint16",
              "name": "dailyInterestRate",
              "type": "uint16"
            },
            {
              "internalType": "uint256",
              "name": "collateralRequired",
              "type": "uint256"
            },
            {
              "components": [
                {
                  "internalType": "address payable",
                  "name": "borrowerAddress",
                  "type": "address"
                },
                {
                  "internalType": "uint256",
                  "name": "rentedAt",
                  "type": "uint256"
                }
              ],
              "internalType": "struct LuvRentStorage.Rental",
              "name": "rental",
              "type": "tuple"
            }
          ],
          "internalType": "struct LuvRentStorage.Listing[]",
          "name": "",
          "type": "tuple[]"
        }
      ],
      "stateMutability": "view",
      "type": "function"
    },
    {
      "inputs": [
        {
          "internalType": "uint256",
          "name": "listingId",
          "type": "uint256"
        }
      ],
      "name": "returnNFT",
      "outputs": [],
      "stateMutability": "nonpayable",
      "type": "function"
    }
  ],
  "bytecode": "0x6080604052600160005534801561001557600080fd5b5061183e806100256000396000f3fe6080604052600436106100865760003560e01c8063b0cd2aa011610059578063b0cd2aa01461011a578063bf1b2c3a1461013a578063c5ebeaec1461014f578063e522a8a114610162578063f92174191461017757610086565b80637ac0da041461008b57806381fab025146100ad57806387ed92d7146100d8578063961f0944146100fa575b600080fd5b34801561009757600080fd5b506100ab6100a63660046112dd565b610197565b005b3480156100b957600080fd5b506100c2610248565b6040516100cf9190611385565b60405180910390f35b3480156100e457600080fd5b506100ed610386565b6040516100cf91906117ff565b34801561010657600080fd5b506100ab6101153660046112c5565b610395565b34801561012657600080fd5b506100ab6101353660046112c5565b610406565b34801561014657600080fd5b506100c2610620565b6100ab61015d3660046112c5565b610835565b34801561016e57600080fd5b506100c2610977565b34801561018357600080fd5b506100ab6101923660046112c5565b610b8e565b6040805161010081018252600080825260208083018990526001600160a01b0388168385015233606084015261ffff8088166080850152861660a084015260c08301859052835180850190945281845283015260e08101919091526101fb81610d68565b61020481610e2a565b507ffb3c9be84e060b16665f2ed71b9e1f625d2104e176926bbe34b79f4382dbb448816020015160405161023891906117ff565b60405180910390a1505050505050565b60606000610254610f08565b90506000815167ffffffffffffffff8111801561027057600080fd5b506040519080825280602002602001820160405280156102aa57816020015b610297611238565b81526020019060019003908161028f5790505b50905060005b825181101561037f576102d58382815181106102c857fe5b6020026020010151610f93565b604080516101008101825282548152600183015460208083019190915260028401546001600160a01b03908116838501526003850154808216606085015261ffff600160a01b820481166080860152600160b01b9091041660a0840152600485015460c0840152835180850190945260058501541683526006909301549282019290925260e0820152825183908390811061036c57fe5b60209081029190910101526001016102b0565b5091505090565b6000610390610fa4565b905090565b61039e81610fb0565b6103c35760405162461bcd60e51b81526004016103ba906115a2565b60405180910390fd5b6103cc81610fc3565b7fe659a8b2064151c52cf8c07d982ee6619f342d72fda61f98916c2248f5de904f816040516103fb91906117ff565b60405180910390a150565b600061041182610f93565b604080516101008101825282548152600183015460208083019190915260028401546001600160a01b03908116838501526003850154808216606085015261ffff600160a01b820481166080860152600160b01b9091041660a0840152600485015460c0840152835180850190945260058501541683526006909301549282019290925260e082015280519091506104bb5760405162461bcd60e51b81526004016103ba90611623565b60408082015160e083015151606084015160208501519351632142170760e11b81526001600160a01b03909316936342842e0e936104fe93929190600401611361565b600060405180830381600087803b15801561051857600080fd5b505af115801561052c573d6000803e3d6000fd5b5050505060008160e00151600001516001600160a01b03168260c001516040516105559061135e565b60006040518083038185875af1925050503d8060008114610592576040519150601f19603f3d011682016040523d82523d6000602084013e610597565b606091505b50509050806105b85760405162461bcd60e51b81526004016103ba9061177e565b60e082015160200151420360006105d76105d186610f93565b8361102d565b90506105e285610fc3565b7ff8c86c3655fab14dd6996efe90c18eec2193e12c9e41f83d8a7645284f12e91c8560405161061191906117ff565b60405180910390a15050505050565b60606000805b610630600261106b565b8110156106f257600061064c610647600284611076565b610f93565b604080516101008101825282548152600183015460208083019190915260028401546001600160a01b03908116838501526003850154808216606085015261ffff600160a01b820481166080860152600160b01b9091041660a0840152600485015460c084015283518085019094526005850154811684526006909401549083015260e081018290529051909250163314156106e9576001909201915b50600101610626565b5060008167ffffffffffffffff8111801561070c57600080fd5b5060405190808252806020026020018201604052801561074657816020015b610733611238565b81526020019060019003908161072b5790505b5090506000805b610757600261106b565b81101561082c57600061076e610647600284611076565b604080516101008101825282548152600183015460208083019190915260028401546001600160a01b03908116838501526003850154808216606085015261ffff600160a01b820481166080860152600160b01b9091041660a0840152600485015460c084015283518085019094526005850154811684526006909401549083015260e08101829052905190925016331415610823578084848151811061081157fe5b60209081029190910101526001909201915b5060010161074d565b50909250505090565b61083e81610fb0565b61085a5760405162461bcd60e51b81526004016103ba906115a2565b600061086582610f93565b60068101549091501561088a5760405162461bcd60e51b81526004016103ba906116a2565b60038101546001600160a01b03163314156108b75760405162461bcd60e51b81526004016103ba9061156b565b60006108c282611089565b90508034146108e35760405162461bcd60e51b81526004016103ba906117c8565b6005820180546001600160a01b03191633908117909155426006840155600283015460038401546001850154604051632142170760e11b81526001600160a01b039384169485946342842e0e9461093f94911692600401611361565b600060405180830381600087803b15801561095957600080fd5b505af115801561096d573d6000803e3d6000fd5b5050505050505050565b60606000805b610987600261106b565b811015610a4c57600061099e610647600284611076565b604080516101008101825282548152600183015460208083019190915260028401546001600160a01b039081168385015260038501548082166060850190815261ffff600160a01b830481166080870152600160b01b90920490911660a0850152600486015460c085015284518086019095526005860154821685526006909501549184019190915260e0820192909252915191925016331415610a43576001909201915b5060010161097d565b5060008167ffffffffffffffff81118015610a6657600080fd5b50604051908082528060200260200182016040528015610aa057816020015b610a8d611238565b815260200190600190039081610a855790505b5090506000805b610ab1600261106b565b81101561082c576000610ac8610647600284611076565b604080516101008101825282548152600183015460208083019190915260028401546001600160a01b039081168385015260038501548082166060850190815261ffff600160a01b830481166080870152600160b01b90920490911660a0850152600486015460c085015284518086019095526005860154821685526006909501549184019190915260e0820192909252915191925016331415610b855780848481518110610b7357fe5b60209081029190910101526001909201915b50600101610aa7565b6000610b9982610f93565b604080516101008101825282548152600183015460208083019190915260028401546001600160a01b03908116838501526003850154808216606085015261ffff600160a01b820481166080860152600160b01b9091041660a0840152600485015460c08401528351808501909452600585015416835260068401549083015260e0810191909152909150610c2d90610d68565b60038101546001600160a01b03163314610c595760405162461bcd60e51b81526004016103ba9061165a565b60008160030160149054906101000a900461ffff1661ffff16620151800262ffffff16826005016001015401905080421015610ca75760405162461bcd60e51b81526004016103ba90611520565b6000610cb283611089565b9050610cbd84610fc3565b6000336001600160a01b031682604051610cd69061135e565b60006040518083038185875af1925050503d8060008114610d13576040519150601f19603f3d011682016040523d82523d6000602084013e610d18565b606091505b5050905080610d395760405162461bcd60e51b81526004016103ba90611736565b7ff4b6d8e6d67e89eda2471635f9ba22585be1274f88e88143a6f0454aff128c158560405161061191906117ff565b6020810151610d895760405162461bcd60e51b81526004016103ba906114d4565b60408101516001600160a01b0316610db35760405162461bcd60e51b81526004016103ba906115d2565b6000816080015161ffff1611610ddb5760405162461bcd60e51b81526004016103ba90611488565b60008160a0015161ffff1611610e035760405162461bcd60e51b81526004016103ba906116d9565b60008160c0015111610e275760405162461bcd60e51b81526004016103ba9061143a565b50565b6000805460018082018355818452908252602081815260408084208551808255838701519482019490945590850151600280830180546001600160a01b03199081166001600160a01b0394851617909155606088015160038501805460808b015160a08c01519185169387169390931761ffff60a01b1916600160a01b61ffff948516021761ffff60b01b1916600160b01b939091169290920291909117905560c0880151600485015560e088015180516005860180549093169416939093179055920151600690910155610efe916110c2565b505080515b919050565b60606000610f16600261106b565b905060008167ffffffffffffffff81118015610f3157600080fd5b50604051908082528060200260200182016040528015610f5b578160200160208202803683370190505b50905060005b8281101561037f57610f74600282611076565b828281518110610f8057fe5b6020908102919091010152600101610f61565b600090815260016020526040902090565b6000610390600261106b565b6000610fbd6002836110ce565b92915050565b60008181526001602081905260408220828155908101829055600280820180546001600160a01b03199081169091556003830180546001600160c01b031916905560048301849055600583018054909116905560069091019190915561102990826110da565b5050565b60006064620151808385600401548660030160169054906101000a900461ffff1661ffff1602028161105b57fe5b048161106357fe5b049392505050565b6000610fbd826110e6565b600061108283836110ea565b9392505050565b60006110b5828360030160149054906101000a900461ffff1661ffff16620151800262ffffff1661102d565b8260040154019050919050565b6000611082838361110e565b60006110828383611158565b60006110828383611170565b5490565b60008260000182815481106110fb57fe5b9060005260206000200154905092915050565b600061111a8383611158565b61115057508154600181810184556000848152602080822090930184905584548482528286019093526040902091909155610fbd565b506000610fbd565b60009081526001919091016020526040902054151590565b6000818152600183016020526040812054801561122e57835460001980830191018082146111e85760008660000182815481106111a957fe5b90600052602060002001549050808760000184815481106111c657fe5b6000918252602080832090910192909255918252600188019052604090208390555b85548690806111f357fe5b600190038181906000526020600020016000905590558560010160008681526020019081526020016000206000905560019350505050610fbd565b6000915050610fbd565b604051806101000160405280600081526020016000815260200160006001600160a01b0316815260200160006001600160a01b03168152602001600061ffff168152602001600061ffff1681526020016000815260200161129761129c565b905290565b604080518082019091526000808252602082015290565b803561ffff81168114610f0357600080fd5b6000602082840312156112d6578081fd5b5035919050565b600080600080600060a086880312156112f4578081fd5b8535945060208601356001600160a01b0381168114611311578182fd5b935061131f604087016112b3565b925061132d606087016112b3565b949793965091946080013592915050565b80516001600160a01b03168252602090810151910152565b61ffff169052565b90565b6001600160a01b039384168152919092166020820152604081019190915260600190565b602080825282518282018190526000919060409081850190868401855b8281101561142d578151805185528681015187860152858101516001600160a01b03908116878701526060808301519091169086015260808082015161ffff169086015260a0808201516113f882880182611356565b505060c0818101519086015260e090810151906114178187018361133e565b50506101209390930192908501906001016113a2565b5091979650505050505050565b6020808252602e908201527f76616c69646174654c697374696e674e46543a3a20436f6c6c61746572616c2060408201526d63616e6e6f74206265207a65726f60901b606082015260800190565b6020808252602c908201527f76616c69646174654c697374696e674e46543a3a204475726174696f6e20636160408201526b6e6e6f74206265207a65726f60a01b606082015260800190565b6020808252602c908201527f76616c69646174654c697374696e674e46543a3a20546f6b656e49642063616e60408201526b6e6f7420626520656d70747960a01b606082015260800190565b6020808252602b908201527f63616e6e6f74207465726d696e6174652072656e74616c20746861742069732060408201526a6e6f74207965742064756560a81b606082015260800190565b6020808252601a908201527f63616e6e6f742072656e7420796f7572206f776e20746f6b656e000000000000604082015260600190565b6020808252601690820152751b1a5cdd1a5b99c8191bd95cc81b9bdd08195e1a5cdd60521b604082015260600190565b60208082526031908201527f76616c69646174654c697374696e674e46543a3a20546f6b656e416464726573604082015270732063616e6e6f7420626520656d70747960781b606082015260800190565b60208082526017908201527f6c697374696e67494420776173206e6f7420666f756e64000000000000000000604082015260600190565b60208082526028908201527f6f6e6c7920746865206c656e6465722063616e207465726d696e61746520746860408201526719481c995b9d185b60c21b606082015260800190565b60208082526018908201527f6e6f7420616e20617661696c61626c65206c697374696e670000000000000000604082015260600190565b60208082526037908201527f76616c69646174654c697374696e674e46543a3a204461696c7920696e74657260408201527f65737420726174652063616e6e6f74206265207a65726f000000000000000000606082015260800190565b60208082526028908201527f6661696c656420746f2073656e6420636f6c6c61746572616c206261636b207460408201526737903632b73232b960c11b606082015260800190565b6020808252602a908201527f6661696c656420746f2073656e6420636f6c6c61746572616c206261636b207460408201526937903137b93937bbb2b960b11b606082015260800190565b6020808252601b908201527f6d7573742073656e6420746865206578616374207061796d656e740000000000604082015260600190565b9081526020019056fea2646970667358221220e525404f164d1869c1ddcb1d95afbed67f7584e317fe11f744c0bb03e3bd519a64736f6c63430007060033",
  "immutableReferences": {},
  "source": "// SPDX-License-Identifier: MIT\r\n\r\npragma solidity ^0.7.6;\r\npragma experimental ABIEncoderV2;\r\n\r\nimport \"./lib/EnumerableSet.sol\";\r\nimport \"@openzeppelin/contracts/token/ERC721/IERC721.sol\";\r\n\r\nabstract contract LuvRentStorage {\r\n    // Rent will be calcualted as collateral required (1ONE) * Daily interest rate (1%) * duration (5 days)\r\n    // 1ONE * 1% daily interest rate * 5 days = 0.05ONE total\r\n    struct Listing {\r\n        uint256 id; // listing id\r\n        uint256 tokenId; // tokenId from ERC 721 https://ethereum.org/en/developers/docs/standards/tokens/erc-721/\r\n        address tokenAddress;\r\n        address payable lenderAddress; // lenderAddress\r\n        uint16 duration; // duration of the loan in days\r\n        uint16 dailyInterestRate; // daily interest rate\r\n        uint256 collateralRequired; // collateral required\r\n        Rental rental; // Store borrower + rental info\r\n    }\r\n\r\n    struct Rental {\r\n        address payable borrowerAddress;\r\n        uint256 rentedAt; // timestamp at which the NFT was rented\r\n    }\r\n\r\n    uint nextListingId = 1;\r\n    // create a mapping of listing_id => Listing\r\n    mapping(uint => Listing) listingsMap;\r\n    // set of active (non-deleted) listing ids.\r\n    EnumerableSet.UintSet internal  listingsSet;\r\n    using EnumerableSet for EnumerableSet.UintSet;\r\n\r\n    // assigns id to a listing, inserts into the data structure, and returns the id.\r\n    function _addListing(Listing memory listing) internal returns (uint) {\r\n        listing.id = nextListingId++;\r\n        listingsMap[listing.id] = listing;\r\n        listingsSet.add(listing.id);\r\n        return listing.id;\r\n    }\r\n\r\n    // deletes a listing from the data structure.\r\n    function _deleteListing(uint256 id) internal {\r\n        delete listingsMap[id];\r\n        listingsSet.remove(id);\r\n    }\r\n\r\n    // gets the number of active listings.\r\n    function _getListingCount() internal view returns (uint) {\r\n        return listingsSet.length();\r\n    }\r\n\r\n    // gets all the listing ids.\r\n    function _getListingIds() internal view returns (uint256[] memory) {\r\n        uint size = listingsSet.length();\r\n        uint256[] memory listingIds = new uint256[](size);\r\n        for (uint i = 0; i < size; i++) {\r\n            listingIds[i] = listingsSet.at(i);\r\n        }\r\n        return listingIds;\r\n    }\r\n\r\n    function _listingExists(uint256 id) internal view returns (bool) {\r\n        return listingsSet.contains(id);\r\n    }\r\n\r\n    // gets the listing by id.\r\n    function _getListingById(uint256 id) internal view returns (Listing storage) {\r\n        return listingsMap[id];\r\n    }\r\n}\r\n\r\nabstract contract LuvRentMath is LuvRentStorage {\r\n    // Calculates the upfront payment for renting an NFT.\r\n    // Includes collateral and the full-term interest. \r\n    function _calculatePayment(Listing storage listing) internal view returns (uint256) {\r\n        return listing.collateralRequired + _calculateInterest(listing, listing.duration * 1 days);\r\n    }\r\n\r\n    // Calculates the interest payment for a partial rental period.\r\n    function _calculateInterest(Listing storage listing, uint periodInSeconds) internal view returns (uint256) {\r\n        return listing.dailyInterestRate * listing.collateralRequired * periodInSeconds / (1 days) / 100;\r\n    }\r\n}\r\n\r\ncontract LuvRent is LuvRentStorage, LuvRentMath {\r\n    using EnumerableSet for EnumerableSet.UintSet;\r\n\r\n    // Events\r\n    event ListNFT(uint256 tokenId);\r\n    event UnlistNFT(uint256 listingId);\r\n    event TerminateRental(uint256 listingId);\r\n    event Returned(uint256 listingId);\r\n\r\n    function getListingCount() public view returns (uint) {\r\n        return _getListingCount();\r\n    }\r\n\r\n    // [Feature 1] Main listings dashboard\r\n    // This function returns all listings stored in the contract.\r\n    function viewAllListings() public view returns (Listing[] memory){\r\n        uint256[] memory listingIds = _getListingIds();\r\n        Listing[] memory listings = new Listing[](listingIds.length);\r\n        for (uint i = 0; i < listingIds.length; i++) {\r\n            listings[i] = _getListingById(listingIds[i]);\r\n        }\r\n        return listings;\r\n    }\r\n\r\n    // [Feature 1] Main listings dashboard\r\n    // Front end will invoke this function to deposit collateral and receive the NFT to the borrower's address\r\n    function borrow(uint256 listingId) public payable {\r\n        require(_listingExists(listingId), \"listing does not exist\");\r\n\r\n        Listing storage listing = _getListingById(listingId);\r\n        require(listing.rental.rentedAt == 0, \"not an available listing\");\r\n        require(listing.lenderAddress != msg.sender, \"cannot rent your own token\");\r\n\r\n        uint payment = _calculatePayment(listing);\r\n        require(msg.value == payment, \"must send the exact payment\");\r\n\r\n        listing.rental.borrowerAddress = payable(msg.sender);\r\n        listing.rental.rentedAt = block.timestamp;\r\n\r\n        IERC721 token = IERC721(listing.tokenAddress);\r\n        token.safeTransferFrom(listing.lenderAddress, msg.sender, listing.tokenId);\r\n    }\r\n\r\n    // [Feature 2] Lender's dashboard\r\n    // Returns a list of all the listings owned by the sender\r\n    function viewOwnedOngoingListingsAndRentals() public view returns (Listing[] memory){\r\n        // Note: Dynamic arrays are not allowed unless they are storage\r\n        // so we need to allocate a statically sized-array to return.\r\n        // We can probably optimize this, but this should functionally work for now.\r\n        uint listingsOwned = 0;\r\n        for (uint i = 0; i < listingsSet.length(); i++) {\r\n            Listing memory listing = _getListingById(listingsSet.at(i));\r\n            if (listing.lenderAddress == msg.sender) {\r\n                listingsOwned++;\r\n            }\r\n        }\r\n        Listing[] memory ownerListings = new Listing[](listingsOwned);\r\n        uint j = 0;\r\n        for (uint i = 0; i < listingsSet.length(); i++) {\r\n            Listing memory listing = _getListingById(listingsSet.at(i));\r\n            if (listing.lenderAddress == msg.sender) {\r\n                ownerListings[j] = listing;\r\n                j++;\r\n            }\r\n        }\r\n        return ownerListings;\r\n    }\r\n\r\n    // [Feature 2] Lender's dashboard\r\n    // Lender can list NFT and store all this information in Listing\r\n    function listNFT(uint256 tokenId, address tokenAddress, uint16 duration, uint16 dailyInterestRate, uint256 collateralRequired) public {\r\n        // TODO: this is basic functionality to enable testing. Need to add validation etc. for public use.\r\n        Listing memory listing = Listing ({\r\n            id: 0,  // will be assigned by _addListing()\r\n            tokenId: tokenId,\r\n            tokenAddress: tokenAddress,\r\n            lenderAddress: payable(msg.sender),\r\n            duration: duration,\r\n            dailyInterestRate: dailyInterestRate,\r\n            collateralRequired: collateralRequired,\r\n            rental: Rental({\r\n                borrowerAddress: payable(0),\r\n                rentedAt: 0\r\n            })\r\n        });\r\n\r\n        validateListingNFT(listing);\r\n\r\n        _addListing(listing);\r\n\r\n        emit ListNFT(listing.tokenId);\r\n    }\r\n\r\n    /// [Feature 2] Lender's dashboard\r\n    // Lender can unlist NFT and this listing is removed from the map/storage\r\n    function unlistNFT(uint256 listingId) public {\r\n        require(_listingExists(listingId), \"listing does not exist\");\r\n        \r\n        _deleteListing(listingId);\r\n\r\n        emit UnlistNFT(listingId);\r\n    }\r\n\r\n    // [Feature 2] Lender's dashboard\r\n    // Lender can unlist NFT and this listing is removed from the map/storage\r\n    function terminateRental(uint256 listingId) public {\r\n        Listing storage listing = _getListingById(listingId);\r\n        validateListingNFT(listing);\r\n        require(listing.lenderAddress == msg.sender, \"only the lender can terminate the rental\");\r\n        uint dueDate = listing.rental.rentedAt + listing.duration * 86400;\r\n        require(block.timestamp >= dueDate, \"cannot terminate rental that is not yet due\");\r\n        uint payment = _calculatePayment(listing);\r\n        _deleteListing(listingId);\r\n        (bool sent,) = msg.sender.call{ value: payment }(\"\");\r\n        require(sent, \"failed to send collateral back to lender\");\r\n        emit TerminateRental(listingId);\r\n    }\r\n\r\n    // [Feature 3] Borrower's dashboard\r\n    // borrower can see all the NFTs they borrowed\r\n    function viewRentedListings() public view returns (Listing[] memory){\r\n        // Note: Dynamic arrays are not allowed unless they are storage\r\n        // so we need to allocate a statically sized-array to return.\r\n        // We can probably optimize this, but this should functionally work for now.\r\n        uint listingsRented = 0;\r\n        for (uint i = 0; i < listingsSet.length(); i++) {\r\n            Listing memory listing = _getListingById(listingsSet.at(i));\r\n            if (listing.rental.borrowerAddress == msg.sender) {\r\n                listingsRented++;\r\n            }\r\n        }\r\n        Listing[] memory rentedListings = new Listing[](listingsRented);\r\n        uint j = 0;\r\n        for (uint i = 0; i < listingsSet.length(); i++) {\r\n            Listing memory listing = _getListingById(listingsSet.at(i));\r\n            if (listing.rental.borrowerAddress == msg.sender) {\r\n                rentedListings[j] = listing;\r\n                j++;\r\n            }\r\n        }\r\n        return rentedListings;\r\n    }\r\n\r\n    // [Feature 3] Borrower's dashboard\r\n    // After borrower return NFT, collateral is sent from smart contract to borrower's address\r\n    function returnNFT(uint256 listingId) public {\r\n        Listing memory listing = _getListingById(listingId);\r\n        require(listing.id != 0, \"listingID was not found\");\r\n        IERC721(listing.tokenAddress).safeTransferFrom(listing.rental.borrowerAddress,\r\n                                                       listing.lenderAddress,\r\n                                                       listing.tokenId);\r\n        (bool sent,) = payable(listing.rental.borrowerAddress).call{value: listing.collateralRequired}(\"\");\r\n        require(sent, \"failed to send collateral back to borrower\");\r\n        uint elapsedRentalTime = block.timestamp - listing.rental.rentedAt;\r\n        uint256 interestAmount = LuvRentMath._calculateInterest(_getListingById(listingId), elapsedRentalTime);\r\n        payable(listing.lenderAddress).call{value: interestAmount};\r\n        _deleteListing(listingId);\r\n        emit Returned(listingId);\r\n    }\r\n\r\n    // helper functions\r\n    function validateListingNFT(Listing memory listing) private pure {\r\n        require(listing.tokenId != 0, \"validateListingNFT:: TokenId cannot be empty\");\r\n        require(listing.tokenAddress != address(0), \"validateListingNFT:: TokenAddress cannot be empty\");\r\n        require(listing.duration > 0, \"validateListingNFT:: Duration cannot be zero\");\r\n        require(listing.dailyInterestRate > 0, \"validateListingNFT:: Daily interest rate cannot be zero\");\r\n        require(listing.collateralRequired > 0, \"validateListingNFT:: Collateral cannot be zero\");\r\n    }\r\n\r\n}\r\n",
  "sourcePath": "D:\\job\\NFT\\test\\new-contract\\contracts\\Rental.sol",
  "compiler": {
    "name": "solc",
    "version": "0.7.6+commit.7338295f.Emscripten.clang"
  },
  "schemaVersion": "3.4.3",
  "updatedAt": "2022-03-02T12:44:57.423Z",
  "devdoc": {
    "kind": "dev",
    "methods": {},
    "version": 1
  },
  "userdoc": {
    "kind": "user",
    "methods": {
      "unlistNFT(uint256)": {
        "notice": "[Feature 2] Lender's dashboard"
      }
    },
    "version": 1
  }
}