{
  "contractName": "NFTAuction",
  "abi": [
    {
      "inputs": [
        {
          "internalType": "address",
          "name": "nftContractAddress",
          "type": "address"
        },
        {
          "internalType": "address",
          "name": "_manager",
          "type": "address"
        }
      ],
      "stateMutability": "nonpayable",
      "type": "constructor"
    },
    {
      "anonymous": false,
      "inputs": [
        {
          "indexed": false,
          "internalType": "uint256",
          "name": "tokenId",
          "type": "uint256"
        },
        {
          "indexed": false,
          "internalType": "uint64",
          "name": "auctionEndPeriod",
          "type": "uint64"
        }
      ],
      "name": "AuctionPeriodUpdated",
      "type": "event"
    },
    {
      "anonymous": false,
      "inputs": [
        {
          "indexed": false,
          "internalType": "uint256",
          "name": "tokenId",
          "type": "uint256"
        },
        {
          "indexed": false,
          "internalType": "address",
          "name": "auctionSettler",
          "type": "address"
        }
      ],
      "name": "AuctionSettled",
      "type": "event"
    },
    {
      "anonymous": false,
      "inputs": [
        {
          "indexed": false,
          "internalType": "uint256",
          "name": "tokenId",
          "type": "uint256"
        },
        {
          "indexed": false,
          "internalType": "address",
          "name": "nftOwner",
          "type": "address"
        }
      ],
      "name": "AuctionWithdrawn",
      "type": "event"
    },
    {
      "anonymous": false,
      "inputs": [
        {
          "indexed": false,
          "internalType": "uint256",
          "name": "tokenId",
          "type": "uint256"
        },
        {
          "indexed": false,
          "internalType": "address",
          "name": "bidder",
          "type": "address"
        },
        {
          "indexed": false,
          "internalType": "uint256",
          "name": "ethAmount",
          "type": "uint256"
        },
        {
          "indexed": false,
          "internalType": "address",
          "name": "erc20Token",
          "type": "address"
        },
        {
          "indexed": false,
          "internalType": "uint256",
          "name": "tokenAmount",
          "type": "uint256"
        }
      ],
      "name": "BidMade",
      "type": "event"
    },
    {
      "anonymous": false,
      "inputs": [
        {
          "indexed": false,
          "internalType": "uint256",
          "name": "tokenId",
          "type": "uint256"
        },
        {
          "indexed": false,
          "internalType": "address",
          "name": "highestBidder",
          "type": "address"
        }
      ],
      "name": "BidWithdrawn",
      "type": "event"
    },
    {
      "anonymous": false,
      "inputs": [
        {
          "indexed": false,
          "internalType": "uint32",
          "name": "fee",
          "type": "uint32"
        }
      ],
      "name": "FeeSet",
      "type": "event"
    },
    {
      "anonymous": false,
      "inputs": [
        {
          "indexed": false,
          "internalType": "uint256",
          "name": "tokenId",
          "type": "uint256"
        }
      ],
      "name": "HighestBidTaken",
      "type": "event"
    },
    {
      "anonymous": false,
      "inputs": [
        {
          "indexed": false,
          "internalType": "uint256",
          "name": "tokenId",
          "type": "uint256"
        },
        {
          "indexed": false,
          "internalType": "address",
          "name": "nftSeller",
          "type": "address"
        },
        {
          "indexed": false,
          "internalType": "uint128",
          "name": "nftHighestBid",
          "type": "uint128"
        },
        {
          "indexed": false,
          "internalType": "address",
          "name": "nftHighestBidder",
          "type": "address"
        },
        {
          "indexed": false,
          "internalType": "address",
          "name": "nftRecipient",
          "type": "address"
        }
      ],
      "name": "NFTTransferredAndSellerPaid",
      "type": "event"
    },
    {
      "anonymous": false,
      "inputs": [
        {
          "indexed": false,
          "internalType": "uint256",
          "name": "tokenId",
          "type": "uint256"
        },
        {
          "indexed": false,
          "internalType": "address",
          "name": "nftSeller",
          "type": "address"
        },
        {
          "indexed": false,
          "internalType": "address",
          "name": "erc20Token",
          "type": "address"
        },
        {
          "indexed": false,
          "internalType": "uint128",
          "name": "minPrice",
          "type": "uint128"
        },
        {
          "indexed": false,
          "internalType": "uint128",
          "name": "buyNowPrice",
          "type": "uint128"
        },
        {
          "indexed": false,
          "internalType": "uint32",
          "name": "auctionBidPeriod",
          "type": "uint32"
        },
        {
          "indexed": false,
          "internalType": "uint32",
          "name": "bidIncreasePercentage",
          "type": "uint32"
        },
        {
          "indexed": false,
          "internalType": "address[]",
          "name": "feeRecipients",
          "type": "address[]"
        },
        {
          "indexed": false,
          "internalType": "uint32[]",
          "name": "feePercentages",
          "type": "uint32[]"
        }
      ],
      "name": "NftAuctionCreated",
      "type": "event"
    },
    {
      "anonymous": false,
      "inputs": [
        {
          "indexed": false,
          "internalType": "address",
          "name": "_seller",
          "type": "address"
        },
        {
          "indexed": false,
          "internalType": "address",
          "name": "_buyer",
          "type": "address"
        },
        {
          "indexed": false,
          "internalType": "uint256",
          "name": "_price",
          "type": "uint256"
        }
      ],
      "name": "NftBorrow",
      "type": "event"
    },
    {
      "anonymous": false,
      "inputs": [
        {
          "indexed": false,
          "internalType": "uint256",
          "name": "tokenId",
          "type": "uint256"
        },
        {
          "indexed": false,
          "internalType": "uint256",
          "name": "price",
          "type": "uint256"
        }
      ],
      "name": "NftPriceChanged",
      "type": "event"
    },
    {
      "anonymous": false,
      "inputs": [
        {
          "indexed": false,
          "internalType": "address",
          "name": "lender",
          "type": "address"
        },
        {
          "indexed": false,
          "internalType": "uint256",
          "name": "tokenId",
          "type": "uint256"
        },
        {
          "indexed": false,
          "internalType": "uint32",
          "name": "period",
          "type": "uint32"
        },
        {
          "indexed": false,
          "internalType": "uint128",
          "name": "price",
          "type": "uint128"
        },
        {
          "indexed": false,
          "internalType": "uint128",
          "name": "_extraPay",
          "type": "uint128"
        },
        {
          "indexed": false,
          "internalType": "uint128",
          "name": "_collateral",
          "type": "uint128"
        }
      ],
      "name": "NftToLend",
      "type": "event"
    },
    {
      "anonymous": false,
      "inputs": [
        {
          "indexed": false,
          "internalType": "address",
          "name": "lender",
          "type": "address"
        },
        {
          "indexed": false,
          "internalType": "address",
          "name": "borrower",
          "type": "address"
        },
        {
          "indexed": false,
          "internalType": "uint256",
          "name": "_tokenId",
          "type": "uint256"
        }
      ],
      "name": "ReturnNftToLender",
      "type": "event"
    },
    {
      "anonymous": false,
      "inputs": [
        {
          "indexed": false,
          "internalType": "uint256",
          "name": "tokenId",
          "type": "uint256"
        },
        {
          "indexed": false,
          "internalType": "address",
          "name": "nftSeller",
          "type": "address"
        },
        {
          "indexed": false,
          "internalType": "address",
          "name": "erc20Token",
          "type": "address"
        },
        {
          "indexed": false,
          "internalType": "uint128",
          "name": "buyNowPrice",
          "type": "uint128"
        },
        {
          "indexed": false,
          "internalType": "address[]",
          "name": "feeRecipients",
          "type": "address[]"
        },
        {
          "indexed": false,
          "internalType": "uint32[]",
          "name": "feePercentages",
          "type": "uint32[]"
        }
      ],
      "name": "SaleCreated",
      "type": "event"
    },
    {
      "inputs": [],
      "name": "_nftContractAddress",
      "outputs": [
        {
          "internalType": "address",
          "name": "",
          "type": "address"
        }
      ],
      "stateMutability": "view",
      "type": "function"
    },
    {
      "inputs": [],
      "name": "defaultAuctionBidPeriod",
      "outputs": [
        {
          "internalType": "uint32",
          "name": "",
          "type": "uint32"
        }
      ],
      "stateMutability": "view",
      "type": "function"
    },
    {
      "inputs": [],
      "name": "defaultBidIncreasePercentage",
      "outputs": [
        {
          "internalType": "uint32",
          "name": "",
          "type": "uint32"
        }
      ],
      "stateMutability": "view",
      "type": "function"
    },
    {
      "inputs": [],
      "name": "manager",
      "outputs": [
        {
          "internalType": "address",
          "name": "",
          "type": "address"
        }
      ],
      "stateMutability": "view",
      "type": "function"
    },
    {
      "inputs": [],
      "name": "managerFee",
      "outputs": [
        {
          "internalType": "uint32",
          "name": "",
          "type": "uint32"
        }
      ],
      "stateMutability": "view",
      "type": "function"
    },
    {
      "inputs": [
        {
          "internalType": "uint256",
          "name": "",
          "type": "uint256"
        }
      ],
      "name": "nftContractAuctions",
      "outputs": [
        {
          "internalType": "uint32",
          "name": "bidIncreasePercentage",
          "type": "uint32"
        },
        {
          "internalType": "uint32",
          "name": "auctionBidPeriod",
          "type": "uint32"
        },
        {
          "internalType": "uint64",
          "name": "auctionEnd",
          "type": "uint64"
        },
        {
          "internalType": "uint128",
          "name": "minPrice",
          "type": "uint128"
        },
        {
          "internalType": "uint128",
          "name": "buyNowPrice",
          "type": "uint128"
        },
        {
          "internalType": "uint128",
          "name": "nftHighestBid",
          "type": "uint128"
        },
        {
          "internalType": "address",
          "name": "nftHighestBidder",
          "type": "address"
        },
        {
          "internalType": "address",
          "name": "nftSeller",
          "type": "address"
        },
        {
          "internalType": "address",
          "name": "nftRecipient",
          "type": "address"
        },
        {
          "internalType": "address",
          "name": "ERC20Token",
          "type": "address"
        }
      ],
      "stateMutability": "view",
      "type": "function"
    },
    {
      "inputs": [
        {
          "internalType": "uint256",
          "name": "",
          "type": "uint256"
        }
      ],
      "name": "rentNfts",
      "outputs": [
        {
          "internalType": "address",
          "name": "lender",
          "type": "address"
        },
        {
          "internalType": "address",
          "name": "borrower",
          "type": "address"
        },
        {
          "internalType": "uint32",
          "name": "period",
          "type": "uint32"
        },
        {
          "internalType": "uint128",
          "name": "price",
          "type": "uint128"
        },
        {
          "internalType": "uint128",
          "name": "collateral",
          "type": "uint128"
        },
        {
          "internalType": "uint128",
          "name": "extraPay",
          "type": "uint128"
        },
        {
          "internalType": "uint64",
          "name": "rentEnd",
          "type": "uint64"
        }
      ],
      "stateMutability": "view",
      "type": "function"
    },
    {
      "inputs": [
        {
          "internalType": "uint256",
          "name": "_tokenId",
          "type": "uint256"
        },
        {
          "internalType": "address",
          "name": "_erc20Token",
          "type": "address"
        },
        {
          "internalType": "uint128",
          "name": "_minPrice",
          "type": "uint128"
        },
        {
          "internalType": "uint128",
          "name": "_buyNowPrice",
          "type": "uint128"
        },
        {
          "internalType": "uint32",
          "name": "_auctionBidPeriod",
          "type": "uint32"
        },
        {
          "internalType": "uint32",
          "name": "_bidIncreasePercentage",
          "type": "uint32"
        },
        {
          "internalType": "address[]",
          "name": "_feeRecipients",
          "type": "address[]"
        },
        {
          "internalType": "uint32[]",
          "name": "_feePercentages",
          "type": "uint32[]"
        }
      ],
      "name": "createNewNftAuction",
      "outputs": [],
      "stateMutability": "nonpayable",
      "type": "function"
    },
    {
      "inputs": [
        {
          "internalType": "uint256",
          "name": "_tokenId",
          "type": "uint256"
        },
        {
          "internalType": "address",
          "name": "_erc20Token",
          "type": "address"
        },
        {
          "internalType": "uint128",
          "name": "_buyNowPrice",
          "type": "uint128"
        },
        {
          "internalType": "address[]",
          "name": "_feeRecipients",
          "type": "address[]"
        },
        {
          "internalType": "uint32[]",
          "name": "_feePercentages",
          "type": "uint32[]"
        }
      ],
      "name": "createSale",
      "outputs": [],
      "stateMutability": "nonpayable",
      "type": "function"
    },
    {
      "inputs": [
        {
          "internalType": "uint256",
          "name": "_tokenId",
          "type": "uint256"
        },
        {
          "internalType": "address",
          "name": "_erc20Token",
          "type": "address"
        },
        {
          "internalType": "uint128",
          "name": "_tokenAmount",
          "type": "uint128"
        },
        {
          "internalType": "address",
          "name": "_nftRecipient",
          "type": "address"
        }
      ],
      "name": "makeCustomBid",
      "outputs": [],
      "stateMutability": "payable",
      "type": "function"
    },
    {
      "inputs": [
        {
          "internalType": "uint256",
          "name": "_tokenId",
          "type": "uint256"
        }
      ],
      "name": "settleAuction",
      "outputs": [],
      "stateMutability": "nonpayable",
      "type": "function"
    },
    {
      "inputs": [
        {
          "internalType": "uint256",
          "name": "_tokenId",
          "type": "uint256"
        }
      ],
      "name": "withdrawAuction",
      "outputs": [],
      "stateMutability": "nonpayable",
      "type": "function"
    },
    {
      "inputs": [
        {
          "internalType": "uint256",
          "name": "_tokenId",
          "type": "uint256"
        }
      ],
      "name": "withdrawBid",
      "outputs": [],
      "stateMutability": "nonpayable",
      "type": "function"
    },
    {
      "inputs": [
        {
          "internalType": "uint256",
          "name": "_tokenId",
          "type": "uint256"
        }
      ],
      "name": "takeHighestBid",
      "outputs": [],
      "stateMutability": "nonpayable",
      "type": "function"
    },
    {
      "inputs": [
        {
          "internalType": "uint256",
          "name": "_tokenId",
          "type": "uint256"
        }
      ],
      "name": "ownerOfNFT",
      "outputs": [
        {
          "internalType": "address",
          "name": "",
          "type": "address"
        }
      ],
      "stateMutability": "view",
      "type": "function"
    },
    {
      "inputs": [],
      "name": "withdrawAllFailedCredits",
      "outputs": [],
      "stateMutability": "nonpayable",
      "type": "function"
    },
    {
      "inputs": [
        {
          "internalType": "uint256",
          "name": "_tokenId",
          "type": "uint256"
        }
      ],
      "name": "getAuctionInfo",
      "outputs": [
        {
          "components": [
            {
              "internalType": "uint32",
              "name": "bidIncreasePercentage",
              "type": "uint32"
            },
            {
              "internalType": "uint32",
              "name": "auctionBidPeriod",
              "type": "uint32"
            },
            {
              "internalType": "uint64",
              "name": "auctionEnd",
              "type": "uint64"
            },
            {
              "internalType": "uint128",
              "name": "minPrice",
              "type": "uint128"
            },
            {
              "internalType": "uint128",
              "name": "buyNowPrice",
              "type": "uint128"
            },
            {
              "internalType": "uint128",
              "name": "nftHighestBid",
              "type": "uint128"
            },
            {
              "internalType": "address",
              "name": "nftHighestBidder",
              "type": "address"
            },
            {
              "internalType": "address",
              "name": "nftSeller",
              "type": "address"
            },
            {
              "internalType": "address",
              "name": "nftRecipient",
              "type": "address"
            },
            {
              "internalType": "address",
              "name": "ERC20Token",
              "type": "address"
            },
            {
              "internalType": "address[]",
              "name": "feeRecipients",
              "type": "address[]"
            },
            {
              "internalType": "uint32[]",
              "name": "feePercentages",
              "type": "uint32[]"
            }
          ],
          "internalType": "struct NFTAuction.Auction",
          "name": "",
          "type": "tuple"
        }
      ],
      "stateMutability": "view",
      "type": "function"
    },
    {
      "inputs": [
        {
          "internalType": "uint256",
          "name": "_tokenId",
          "type": "uint256"
        },
        {
          "internalType": "string",
          "name": "latitude",
          "type": "string"
        },
        {
          "internalType": "string",
          "name": "longitude",
          "type": "string"
        },
        {
          "internalType": "string",
          "name": "name",
          "type": "string"
        }
      ],
      "name": "getSVG",
      "outputs": [
        {
          "internalType": "string",
          "name": "",
          "type": "string"
        }
      ],
      "stateMutability": "view",
      "type": "function"
    },
    {
      "inputs": [
        {
          "internalType": "uint256",
          "name": "_tokenId",
          "type": "uint256"
        },
        {
          "internalType": "uint32",
          "name": "_period",
          "type": "uint32"
        },
        {
          "internalType": "uint128",
          "name": "_collateral",
          "type": "uint128"
        },
        {
          "internalType": "uint128",
          "name": "_price",
          "type": "uint128"
        },
        {
          "internalType": "uint128",
          "name": "_extraPay",
          "type": "uint128"
        }
      ],
      "name": "lend",
      "outputs": [],
      "stateMutability": "nonpayable",
      "type": "function"
    },
    {
      "inputs": [
        {
          "internalType": "uint256",
          "name": "_tokenId",
          "type": "uint256"
        }
      ],
      "name": "borrow",
      "outputs": [],
      "stateMutability": "payable",
      "type": "function"
    },
    {
      "inputs": [
        {
          "internalType": "uint256",
          "name": "_tokenId",
          "type": "uint256"
        }
      ],
      "name": "returnNft",
      "outputs": [],
      "stateMutability": "nonpayable",
      "type": "function"
    },
    {
      "inputs": [
        {
          "internalType": "uint32",
          "name": "fee",
          "type": "uint32"
        }
      ],
      "name": "setManagerFee",
      "outputs": [],
      "stateMutability": "nonpayable",
      "type": "function"
    }
  ],
  "bytecode": "0x60806040523480156200001157600080fd5b5060405162003b4538038062003b458339810160408190526200003491620000c8565b60038054600480546001600160a01b0319166001600160a01b03948516179055606463ffffffff199091161763ffffffff60201b1916660151800000000017600160401b600160e01b031916680100000000000000009390921692909202176001600160e01b031661011360e21b179055620000ff565b80516001600160a01b0381168114620000c357600080fd5b919050565b60008060408385031215620000db578182fd5b620000e683620000ab565b9150620000f660208401620000ab565b90509250929050565b613a36806200010f6000396000f3fe6080604052600436106101345760003560e01c8063989445be116100ab578063b6ad69141161006f578063b6ad69141461033d578063c1278a7214610352578063c5ebeaec14610372578063fa70eb3c14610385578063fc3fc4ed146103b8578063fe028497146103e557610134565b8063989445be146102a65780639c0b9966146102c65780639c7632fc146102db578063a3216158146102f0578063b5fc98331461031d57610134565b80632d8a746e116100fd5780632d8a746e146101db5780632e993611146101fb57806345a977151461021b578063481c6a751461025157806354e538d6146102665780636724637a1461028657610134565b80626264301461013957806309d77f0e1461014e5780630eaaf4c81461016e578063186779d51461018e578063190efb6b146101b9575b600080fd5b61014c610147366004612bc0565b610405565b005b34801561015a57600080fd5b5061014c610169366004612ba8565b610498565b34801561017a57600080fd5b5061014c610189366004612ba8565b610608565b34801561019a57600080fd5b506101a36106e7565b6040516101b091906138da565b60405180910390f35b3480156101c557600080fd5b506101ce6106fb565b6040516101b09190612f38565b3480156101e757600080fd5b506101ce6101f6366004612ba8565b610711565b34801561020757600080fd5b5061014c610216366004612ba8565b610751565b34801561022757600080fd5b5061023b610236366004612ba8565b6107be565b6040516101b09a999897969594939291906138eb565b34801561025d57600080fd5b506101ce610843565b34801561027257600080fd5b5061014c610281366004612e46565b610852565b34801561029257600080fd5b5061014c6102a1366004612c10565b6108d4565b3480156102b257600080fd5b5061014c6102c1366004612c9d565b610ad6565b3480156102d257600080fd5b506101a3610caa565b3480156102e757600080fd5b506101a3610cb6565b3480156102fc57600080fd5b5061031061030b366004612d5c565b610cc9565b6040516101b09190613054565b34801561032957600080fd5b5061014c610338366004612ba8565b610d85565b34801561034957600080fd5b5061014c610e6c565b34801561035e57600080fd5b5061014c61036d366004612ba8565b610f27565b61014c610380366004612ba8565b610fc8565b34801561039157600080fd5b506103a56103a0366004612ba8565b61122a565b6040516101b09796959493929190612fe4565b3480156103c457600080fd5b506103d86103d3366004612ba8565b611295565b6040516101b091906135de565b3480156103f157600080fd5b5061014c610400366004612de9565b61143a565b8361040f816116f8565b6104345760405162461bcd60e51b815260040161042b90613218565b60405180910390fd5b816001600160a01b03811661045b5760405162461bcd60e51b815260040161042b90613557565b600086815260208190526040902060040180546001600160a01b0319166001600160a01b038516179055610490868686611733565b505050505050565b600081815260026020526040902060030154600160801b90046001600160401b031642116104d85760405162461bcd60e51b815260040161042b906130c7565b6000818152600260205260409020600101546001600160a01b031633148061051657506000818152600260205260409020546001600160a01b031633145b6105325760405162461bcd60e51b815260040161042b906134b6565b60008181526002602052604090819020805460019091015460035492516323b872dd60e01b81526001600160a01b039283169391831692600160401b909204909116906323b872dd9061058d90849086908890600401612fc0565b600060405180830381600087803b1580156105a757600080fd5b505af11580156105bb573d6000803e3d6000fd5b505050507f3559d7fad99b6819dc6714e8bbbc188935f449cfe629387b3a83a225e2cb0a858282856040516105f293929190612fc0565b60405180910390a161060383611813565b505050565b8061061281611864565b1561062f5760405162461bcd60e51b815260040161042b90613067565b6000828152602081905260409020600201546001600160a01b03163381146106695760405162461bcd60e51b815260040161042b906132ff565b600083815260208190526040902060010154600160801b90046001600160801b0316610694846118bd565b6106a88483836001600160801b03166118ff565b7f5e9c7ae3229b2cda5065d7058fcc05765c695c29ce05313fbe96cb2ca639231a84336040516106d992919061375b565b60405180910390a150505050565b600354640100000000900463ffffffff1681565b600354600160401b90046001600160a01b031681565b6000818152602081905260408120600301546001600160a01b0316806107495760405162461bcd60e51b815260040161042b90613129565b90505b919050565b8061075b816116f8565b156107785760405162461bcd60e51b815260040161042b906133be565b61078182611a3e565b7f3cb6ab80f3d78a04ca009e9869c4d9f4e27be13d3c443861e450ff1e40fc5bbb82336040516107b292919061375b565b60405180910390a15050565b60006020819052908152604090208054600182015460028301546003840154600485015460059095015463ffffffff808616966401000000008704909116956001600160401b03600160401b820416956001600160801b03600160801b92839004811696828216969390920416936001600160a01b039182169392821692821691168a565b6004546001600160a01b031681565b6004546001600160a01b0316331461087c5760405162461bcd60e51b815260040161042b906132d8565b600380546001600160e01b0316600160e01b63ffffffff8416021790556040517ff489d8b93b3874572cc94319f109187d1ea814b9de5a3d9e54c48c1ac0d57cad906108c99083906138da565b60405180910390a150565b60008581526020819052604090206003015485906001600160a01b03163314156109105760405162461bcd60e51b815260040161042b906132a3565b6000818152602081905260409020600301546001600160a01b0316156109ef576003546040516331a9108f60e11b8152600160401b9091046001600160a01b031690636352211e90610966908490600401613752565b60206040518083038186803b15801561097e57600080fd5b505afa158015610992573d6000803e3d6000fd5b505050506040513d601f19601f820116820180604052508101906109b69190612b03565b6001600160a01b0316336001600160a01b0316146109e65760405162461bcd60e51b815260040161042b90613243565b6109ef81611b6c565b836001600160801b031660008111610a195760405162461bcd60e51b815260040161042b9061309c565b60008781526002602052604090205487906001600160a01b031615610a505760405162461bcd60e51b815260040161042b90613422565b610a5d8888888888611bb2565b7fd616c394f076d4784a2536d1ff9bd5df88e1be198cfb67ead2e7b22a798576b2883389898989604051610a9696959493929190613772565b60405180910390a1610aa788611d8f565b15610acc57610ab588611db6565b15610acc57610ac388611e0b565b610acc88611a3e565b5050505050505050565b60008881526020819052604090206003015488906001600160a01b0316331415610b125760405162461bcd60e51b815260040161042b906132a3565b6000818152602081905260409020600301546001600160a01b031615610bf1576003546040516331a9108f60e11b8152600160401b9091046001600160a01b031690636352211e90610b68908490600401613752565b60206040518083038186803b158015610b8057600080fd5b505afa158015610b94573d6000803e3d6000fd5b505050506040513d601f19601f82011682018060405250810190610bb89190612b03565b6001600160a01b0316336001600160a01b031614610be85760405162461bcd60e51b815260040161042b90613243565b610bf181611b6c565b866001600160801b031660008111610c1b5760405162461bcd60e51b815260040161042b9061309c565b60008a8152600260205260409020548a906001600160a01b031615610c525760405162461bcd60e51b815260040161042b90613422565b60008b8152602081905260409020805463ffffffff88811663ffffffff19918b166401000000000267ffffffff00000000199093169290921716179055610c9d8b8b8b8b8989612086565b5050505050505050505050565b60035463ffffffff1681565b600354600160e01b900463ffffffff1681565b606073__NFTDescriptor_________________________630e1d809e6040518060a00160405280888152602001438152602001878152602001868152602001858152506040518263ffffffff1660e01b8152600401610d2891906136e6565b60006040518083038186803b158015610d4057600080fd5b505af4158015610d54573d6000803e3d6000fd5b505050506040513d6000823e601f3d908101601f19168201604052610d7c9190810190612b3f565b95945050505050565b6003546040516331a9108f60e11b81523391600160401b90046001600160a01b031690636352211e90610dbc908590600401613752565b60206040518083038186803b158015610dd457600080fd5b505afa158015610de8573d6000803e3d6000fd5b505050506040513d601f19601f82011682018060405250810190610e0c9190612b03565b6001600160a01b031614610e325760405162461bcd60e51b815260040161042b906135b7565b610e3b81611b6c565b7f8bac68995ade0fea3fbfce99e614e2ca91bcbd46732ea234ea30a3246bcbb12c81336040516108c992919061375b565b3360009081526001602052604090205480610e995760405162461bcd60e51b815260040161042b90613273565b3360008181526001602052604080822082905551909190614e20908490610ebf90612f35565b600060405180830381858888f193505050503d8060008114610efd576040519150601f19603f3d011682016040523d82523d6000602084013e610f02565b606091505b5050905080610f235760405162461bcd60e51b815260040161042b9061358e565b5050565b60008181526020819052604090206003015481906001600160a01b03163314610f625760405162461bcd60e51b815260040161042b906131c2565b610f6b82611d8f565b610f875760405162461bcd60e51b815260040161042b906133f5565b610f9082611e0b565b610f9982611a3e565b7f951998909c69503759ab614fef092cad84e66b38279d4274a4951aaa2bfbc14b826040516107b29190613752565b33610fd257600080fd5b600081815260026020819052604090912001546001600160801b03168061100b5760405162461bcd60e51b815260040161042b90613459565b60008281526002602081905260409091200154600160801b90046001600160801b0390811690821634146110515760405162461bcd60e51b815260040161042b9061332e565b600083815260026020526040908190205460035491516323b872dd60e01b81526001600160a01b0391821692600160401b9004909116906323b872dd906110a090849033908990600401612fc0565b600060405180830381600087803b1580156110ba57600080fd5b505af11580156110ce573d6000803e3d6000fd5b505050600085815260026020819052604080832091820180546001600160801b03191690556001820180546001600160a01b031916331790819055600390920180546001600160401b034263ffffffff600160a01b9096049590951694850116600160801b0267ffffffffffffffff60801b19909116179055519092506001600160a01b038416913480156108fc02929091818181858888f1935050505015801561117d573d6000803e3d6000fd5b507fdc05ece63515076f5d93439cbba890fcbb9664934a257dbfbe6ecf58ca4759ce8233346040516111b193929190612fc0565b60405180910390a160035460405163095ea7b360e01b8152600160401b9091046001600160a01b03169063095ea7b3906111f1908590899060040161303b565b600060405180830381600087803b15801561120b57600080fd5b505af115801561121f573d6000803e3d6000fd5b505050505050505050565b600260208190526000918252604090912080546001820154928201546003909201546001600160a01b039182169391821692600160a01b90920463ffffffff16916001600160801b0380821692600160801b928390048216929181169190046001600160401b031687565b61129d612830565b60008281526020818152604091829020825161018081018452815463ffffffff8082168352640100000000820416828501526001600160401b03600160401b820416828601526001600160801b03600160801b918290048116606084015260018401548082166080850152919091041660a082015260028201546001600160a01b0390811660c08301526003830154811660e0830152600483015481166101008301526005830154166101208201526006820180548551818602810186019096528086529194929361014086019392908301828280156113a657602002820191906000526020600020905b81546001600160a01b03168152600190910190602001808311611388575b505050505081526020016007820180548060200260200160405190810160405280929190818152602001828054801561142a57602002820191906000526020600020906000905b82829054906101000a900463ffffffff1663ffffffff16815260200190600401906020826003010492830192600103820291508084116113ed5790505b5050505050815250509050919050565b60008581526020819052604090206003015485906001600160a01b03163314156114765760405162461bcd60e51b815260040161042b906132a3565b6000818152602081905260409020600301546001600160a01b031615611555576003546040516331a9108f60e11b8152600160401b9091046001600160a01b031690636352211e906114cc908490600401613752565b60206040518083038186803b1580156114e457600080fd5b505afa1580156114f8573d6000803e3d6000fd5b505050506040513d601f19601f8201168201806040525081019061151c9190612b03565b6001600160a01b0316336001600160a01b03161461154c5760405162461bcd60e51b815260040161042b90613243565b61155581611b6c565b826001600160801b03166000811161157f5760405162461bcd60e51b815260040161042b9061309c565b6003546040516331a9108f60e11b81523391600160401b90046001600160a01b031690636352211e906115b6908b90600401613752565b60206040518083038186803b1580156115ce57600080fd5b505afa1580156115e2573d6000803e3d6000fd5b505050506040513d601f19601f820116820180604052508101906116069190612b03565b6001600160a01b03161461162c5760405162461bcd60e51b815260040161042b90613154565b6000878152600260208190526040918290208054336001600160a01b03199091168117825560018201805463ffffffff60a01b1916600160a01b63ffffffff8d160217905591810180546001600160801b03196001600160801b03918216600160801b8c8416021781168a8316179092556003909201805490911691871691909117905590517ffed4b81d8a530701cbf2ccb6545cad65a111a1a5089c821251fde6dce422390f916116e7918a908a90899089908c90612f78565b60405180910390a150505050505050565b600081815260208190526040812054600160401b90046001600160401b031680158061172c5750806001600160401b031642105b9392505050565b60008381526020819052604090206003015483906001600160a01b031633141561176f5760405162461bcd60e51b815260040161042b90613520565b83838361177d8383836120f4565b6117995760405162461bcd60e51b815260040161042b906134eb565b86856117a58282612188565b6117c15760405162461bcd60e51b815260040161042b906130f2565b6117cb8988612267565b7f589906d28d13d8aff8ab40eccde1d74a4434aca34bdac9812e0589fcfc6490448933348b8b604051611802959493929190613855565b60405180910390a161121f896122c0565b600090815260026020819052604090912080546001600160a01b03191681556001810180546001600160c01b031990811690915591810180546001600160801b031916905560030180549091169055565b600081815260208190526040812054600160801b90046001600160801b0316801580159061172c57506000838152602081905260409020600101546001600160801b03808316600160801b909204161015915050919050565b60009081526020819052604090206002810180546001600160a01b03199081169091556001820180546001600160801b03169055600490910180549091169055565b6000838152602081905260409020600501546001600160a01b031661192381612308565b156119ae5760405163a9059cbb60e01b81526001600160a01b0382169063a9059cbb90611956908690869060040161303b565b602060405180830381600087803b15801561197057600080fd5b505af1158015611984573d6000803e3d6000fd5b505050506040513d601f19601f820116820180604052508101906119a89190612b1f565b50611a38565b6000836001600160a01b031683614e20906040516119cb90612f35565b600060405180830381858888f193505050503d8060008114611a09576040519150601f19603f3d011682016040523d82523d6000602084013e611a0e565b606091505b5050905080611a36576001600160a01b03841660009081526001602052604090208054840190555b505b50505050565b600081815260208190526040812060038101546002909101546001600160a01b0391821692911690611a6f84612316565b600085815260208190526040902060010154909150600160801b90046001600160801b0316611a9d856118bd565b611ab18585836001600160801b031661235f565b6003546040516323b872dd60e01b8152600160401b9091046001600160a01b0316906323b872dd90611aeb90309086908a90600401612fc0565b600060405180830381600087803b158015611b0557600080fd5b505af1158015611b19573d6000803e3d6000fd5b50505050611b2685611b6c565b7f897add4c43e2c053508f485324f74ccff203150b27bf0c5ebe137849ac92d6f88585838686604051611b5d95949392919061388c565b60405180910390a15050505050565b60009081526020819052604081206001810180546001600160801b03191690559081556003810180546001600160a01b0319908116909155600590910180549091169055565b81518151808214611bd55760405162461bcd60e51b815260040161042b9061347f565b6004548451859185916001600160a01b03909116908390600090611bf557fe5b60200260200101516001600160a01b0316148015611c4457506003601c9054906101000a900463ffffffff1663ffffffff1681600081518110611c3457fe5b602002602001015163ffffffff16145b611c605760405162461bcd60e51b815260040161042b9061318b565b846000805b8251811015611c9357828181518110611c7a57fe5b6020026020010151820191508080600101915050611c65565b506127108163ffffffff161115611cbc5760405162461bcd60e51b815260040161042b90613357565b6001600160a01b038a1615611cf65760008b815260208190526040902060050180546001600160a01b0319166001600160a01b038c161790555b60008b8152602081815260409091208951611d19926006909201918b0190612896565b5060008b8152602081815260409091208851611d3d926007909201918a01906128fb565b50505060009889525050506020869052505060409093206001810180546001600160801b039093166001600160801b03199093169290921790915560030180546001600160a01b031916331790555050565b600090815260208190526040902060010154600160801b90046001600160801b0316151590565b6000818152602081905260408120600101546001600160801b0316801580159061172c57506000838152602081905260409020600101546001600160801b03808316600160801b909204161015915050919050565b60008181526020819052604090819020600390810154905491516331a9108f60e11b81526001600160a01b03918216928392600160401b9091041690636352211e90611e5b908690600401613752565b60206040518083038186803b158015611e7357600080fd5b505afa158015611e87573d6000803e3d6000fd5b505050506040513d601f19601f82011682018060405250810190611eab9190612b03565b6001600160a01b03161415611fd9576003546040516323b872dd60e01b8152600160401b9091046001600160a01b0316906323b872dd90611ef490849030908790600401612fc0565b600060405180830381600087803b158015611f0e57600080fd5b505af1158015611f22573d6000803e3d6000fd5b50506003546040516331a9108f60e11b8152309350600160401b9091046001600160a01b03169150636352211e90611f5e908690600401613752565b60206040518083038186803b158015611f7657600080fd5b505afa158015611f8a573d6000803e3d6000fd5b505050506040513d601f19601f82011682018060405250810190611fae9190612b03565b6001600160a01b031614611fd45760405162461bcd60e51b815260040161042b906131eb565b610f23565b6003546040516331a9108f60e11b81523091600160401b90046001600160a01b031690636352211e90612010908690600401613752565b60206040518083038186803b15801561202857600080fd5b505afa15801561203c573d6000803e3d6000fd5b505050506040513d601f19601f820116820180604052508101906120609190612b03565b6001600160a01b031614610f235760405162461bcd60e51b815260040161042b9061338e565b612094868686868686612425565b7f889326f337fa9616608e11f378f7ad305556626b89289e15efc1be1412f8580d86338787876120c38c612612565b6120cc8d61264c565b89896040516120e3999897969594939291906137d2565b60405180910390a1610490866122c0565b6000838152602081905260408120600501546001600160a01b031661211881612308565b15612159573415801561213c5750836001600160a01b0316816001600160a01b0316145b801561215157506000836001600160801b0316115b91505061172c565b341580159061216f57506001600160a01b038416155b8015612151575050506001600160801b03161592915050565b6000828152602081905260408120600101546001600160801b031680158015906121d75750806001600160801b0316341015806121d75750806001600160801b0316836001600160801b031610155b156121e6576001915050612261565b60006127106121f48661264c565b6127100163ffffffff1660008088815260200190815260200160002060010160109054906101000a90046001600160801b0316026001600160801b03168161223857fe5b046001600160801b03169050803410158061225c575080846001600160801b031610155b925050505b92915050565b600082815260208190526040902060028101546001909101546001600160a01b0390911690600160801b90046001600160801b03166122a68484612676565b6001600160a01b03821615611a3857611a388483836118ff565b6122c981611db6565b156122e5576122d781611e0b565b6122e081611a3e565b612305565b6122ee81611864565b15612305576122fc81611e0b565b6123058161279f565b50565b6001600160a01b0316151590565b6000818152602081905260408120600401546001600160a01b0316806123585750506000818152602081905260409020600201546001600160a01b031661074c565b905061074c565b6000805b60008581526020819052604090206006015481101561241757600085815260208190526040812060070180546123c89186918590811061239f57fe5b6000918252602090912060088204015460079091166004026101000a900463ffffffff16612827565b9050808301925061240e8660008089815260200190815260200160002060060184815481106123f357fe5b6000918252602090912001546001600160a01b0316836118ff565b50600101612363565b50611a3884848385036118ff565b815181518082146124485760405162461bcd60e51b815260040161042b9061347f565b6004548451859185916001600160a01b0390911690839060009061246857fe5b60200260200101516001600160a01b03161480156124b757506003601c9054906101000a900463ffffffff1663ffffffff16816000815181106124a757fe5b602002602001015163ffffffff16145b6124d35760405162461bcd60e51b815260040161042b9061318b565b846000805b8251811015612506578281815181106124ed57fe5b60200260200101518201915080806001019150506124d8565b506127108163ffffffff16111561252f5760405162461bcd60e51b815260040161042b90613357565b6001600160a01b038b16156125695760008c815260208190526040902060050180546001600160a01b0319166001600160a01b038d161790555b60008c815260208181526040909120895161258c926006909201918b0190612896565b5060008c81526020818152604090912088516125b0926007909201918a01906128fb565b5050506000998a525050506020879052505060409094206001810180546001600160801b0319166001600160801b0393841617905580548216600160801b93909216929092021781556003018054336001600160a01b03199091161790555050565b600081815260208190526040812054640100000000900463ffffffff1680612358575050600354640100000000900463ffffffff1661074c565b60008181526020819052604081205463ffffffff168061235857505060035463ffffffff1661074c565b6000828152602081905260409020600501546001600160a01b031661269a81612308565b15612750576040516323b872dd60e01b81526001600160a01b038216906323b872dd906126cf90339030908790600401612f4c565b602060405180830381600087803b1580156126e957600080fd5b505af11580156126fd573d6000803e3d6000fd5b505050506040513d601f19601f820116820180604052508101906127219190612b1f565b50600083815260208190526040902060010180546001600160801b03808516600160801b02911617905561277a565b600083815260208190526040902060010180546001600160801b03348116600160801b0291161790555b5050600090815260208190526040902060020180546001600160a01b03191633179055565b426127a982612612565b6000838152602081905260409081902080546fffffffffffffffff00000000000000001916600160401b63ffffffff94909416949094016001600160401b039081168402949094179081905590517f2c022afa2469f5dfea36bb416f03a9972a290b5572a34a4fdfe6b0048fb6b7e8936108c99386930416906138c3565b61271091020490565b604080516101808101825260008082526020820181905291810182905260608082018390526080820183905260a0820183905260c0820183905260e082018390526101008201839052610120820192909252610140810182905261016081019190915290565b8280548282559060005260206000209081019282156128eb579160200282015b828111156128eb57825182546001600160a01b0319166001600160a01b039091161782556020909201916001909101906128b6565b506128f79291506129a1565b5090565b828054828255906000526020600020906007016008900481019282156128eb5791602002820160005b8382111561296857835183826101000a81548163ffffffff021916908363ffffffff1602179055509260200192600401602081600301049283019260010302612924565b80156129985782816101000a81549063ffffffff0219169055600401602081600301049283019260010302612968565b50506128f79291505b5b808211156128f757600081556001016129a2565b600082601f8301126129c6578081fd5b813560206129db6129d683613981565b61395e565b82815281810190858301838502870184018810156129f7578586fd5b855b85811015612a1e578135612a0c816139eb565b845292840192908401906001016129f9565b5090979650505050505050565b600082601f830112612a3b578081fd5b81356020612a4b6129d683613981565b8281528181019085830183850287018401881015612a67578586fd5b855b85811015612a1e57612a7a82612aef565b84529284019290840190600101612a69565b600082601f830112612a9c578081fd5b8135612aaa6129d68261399e565b818152846020838601011115612abe578283fd5b816020850160208301379081016020019190915292915050565b80356001600160801b038116811461074c57600080fd5b803563ffffffff8116811461074c57600080fd5b600060208284031215612b14578081fd5b815161172c816139eb565b600060208284031215612b30578081fd5b8151801515811461172c578182fd5b600060208284031215612b50578081fd5b81516001600160401b03811115612b65578182fd5b8201601f81018413612b75578182fd5b8051612b836129d68261399e565b818152856020838501011115612b97578384fd5b610d7c8260208301602086016139bf565b600060208284031215612bb9578081fd5b5035919050565b60008060008060808587031215612bd5578283fd5b843593506020850135612be7816139eb565b9250612bf560408601612ad8565b91506060850135612c05816139eb565b939692955090935050565b600080600080600060a08688031215612c27578081fd5b853594506020860135612c39816139eb565b9350612c4760408701612ad8565b925060608601356001600160401b0380821115612c62578283fd5b612c6e89838a016129b6565b93506080880135915080821115612c83578283fd5b50612c9088828901612a2b565b9150509295509295909350565b600080600080600080600080610100898b031215612cb9578283fd5b883597506020890135612ccb816139eb565b9650612cd960408a01612ad8565b9550612ce760608a01612ad8565b9450612cf560808a01612aef565b9350612d0360a08a01612aef565b925060c08901356001600160401b0380821115612d1e578384fd5b612d2a8c838d016129b6565b935060e08b0135915080821115612d3f578283fd5b50612d4c8b828c01612a2b565b9150509295985092959890939650565b60008060008060808587031215612d71578182fd5b8435935060208501356001600160401b0380821115612d8e578384fd5b612d9a88838901612a8c565b94506040870135915080821115612daf578384fd5b612dbb88838901612a8c565b93506060870135915080821115612dd0578283fd5b50612ddd87828801612a8c565b91505092959194509250565b600080600080600060a08688031215612e00578283fd5b85359450612e1060208701612aef565b9350612e1e60408701612ad8565b9250612e2c60608701612ad8565b9150612e3a60808701612ad8565b90509295509295909350565b600060208284031215612e57578081fd5b61172c82612aef565b6001600160a01b03169052565b6000815180845260208085019450808401835b83811015612ea55781516001600160a01b031687529582019590820190600101612e80565b509495945050505050565b6000815180845260208085019450808401835b83811015612ea557815163ffffffff1687529582019590820190600101612ec3565b60008151808452612efd8160208601602086016139bf565b601f01601f19169290920160200192915050565b6001600160801b03169052565b63ffffffff169052565b6001600160401b03169052565b90565b6001600160a01b0391909116815260200190565b6001600160a01b0393841681529190921660208201526001600160801b03909116604082015260600190565b6001600160a01b03969096168652602086019490945263ffffffff9290921660408501526001600160801b03908116606085015290811660808401521660a082015260c00190565b6001600160a01b039384168152919092166020820152604081019190915260600190565b6001600160a01b03978816815295909616602086015263ffffffff9390931660408501526001600160801b039182166060850152811660808401521660a08201526001600160401b0390911660c082015260e00190565b6001600160a01b03929092168252602082015260400190565b60006020825261172c6020830184612ee5565b6020808252818101527f5468652061756374696f6e2068617320612076616c696420626964206d616465604082015260600190565b602080825260119082015270050726963652063616e6e6f74206265203607c1b604082015260600190565b60208082526011908201527014995b9d081a5cc81b9bdd08195b991959607a1b604082015260600190565b6020808252601e908201527f4e6f7420656e6f7567682066756e647320746f20626964206f6e204e46540000604082015260600190565b602080825260119082015270139195081b9bdd0819195c1bdcda5d1959607a1b604082015260600190565b6020808252601c908201527f4f6e6c79206f776e65722063616e206c656e642074686973204e465400000000604082015260600190565b6020808252601f908201527f4d7573742070617920636f72726563742066656520746f206d616e6167657200604082015260600190565b6020808252600f908201526e27b7363c9037333a1039b2b63632b960891b604082015260600190565b6020808252601390820152721b999d081d1c985b9cd9995c8819985a5b1959606a1b604082015260600190565b602080825260119082015270105d58dd1a5bdb881a185cc8195b991959607a1b604082015260600190565b60208082526016908201527514d95b99195c88191bd95cdb89dd081bdddb8813919560521b604082015260600190565b6020808252601690820152756e6f206372656469747320746f20776974686472617760501b604082015260600190565b6020808252818101527f41756374696f6e20616c72656164792073746172746564206279206f776e6572604082015260600190565b6020808252600d908201526c2737ba10309036b0b730b3b2b960991b604082015260600190565b60208082526015908201527443616e6e6f742077697468647261772066756e647360581b604082015260600190565b6020808252600f908201526e496e636f72726563742076616c756560881b604082015260600190565b6020808252601e908201527f4665652070657263656e746167657320657863656564206d6178696d756d0000604082015260600190565b60208082526016908201527514d95b1b195c88191bd95cdb89dd081bdddb8813919560521b604082015260600190565b60208082526017908201527f41756374696f6e206973206e6f7420796574206f766572000000000000000000604082015260600190565b60208082526013908201527218d85b9b9bdd081c185e5bdd5d080c08189a59606a1b604082015260600190565b6020808252601d908201527f447572696e672072656e7420796f752063616e27742061756374696f6e000000604082015260600190565b6020808252600c908201526b139bdd08199bdc881c995b9d60a21b604082015260600190565b60208082526019908201527f526563697069656e747320213d2070657263656e746167657300000000000000604082015260600190565b6020808252818101527f596f7520617265206e6f74206120626f72726f776572206f72206c656e646572604082015260600190565b6020808252818101527f42696420746f20626520696e207370656369666965642045524332302f457468604082015260600190565b6020808252601b908201527f4f776e65722063616e6e6f7420626964206f6e206f776e204e46540000000000604082015260600190565b60208082526018908201527f43616e6e6f742073706563696679203020616464726573730000000000000000604082015260600190565b6020808252600f908201526e1dda5d1a191c985dc819985a5b1959608a1b604082015260600190565b6020808252600d908201526c2737ba1027232a1037bbb732b960991b604082015260600190565b6000602082526135f2602083018451612f1e565b60208301516136046040840182612f1e565b5060408301516136176060840182612f28565b50606083015161362a6080840182612f11565b50608083015161363d60a0840182612f11565b5060a083015161365060c0840182612f11565b5060c083015161366360e0840182612e60565b5060e083015161010061367881850183612e60565b840151905061012061368c84820183612e60565b84015190506101406136a084820183612e60565b8085015191505061018061016081818601526136c06101a0860184612e6d565b90860151858203601f1901838701529092506136dc8382612eb0565b9695505050505050565b6000602082528251602083015260208301516040830152604083015160a0606084015261371660c0840182612ee5565b90506060840151601f19808584030160808601526137348383612ee5565b925060808601519150808584030160a08601525061225c8282612ee5565b90815260200190565b9182526001600160a01b0316602082015260400190565b8681526001600160a01b038681166020830152851660408201526001600160801b038416606082015260c0608082018190526000906137b390830185612e6d565b82810360a08401526137c58185612eb0565b9998505050505050505050565b8981526001600160a01b038981166020830152881660408201526001600160801b0387811660608301528616608082015263ffffffff85811660a0830152841660c082015261012060e0820181905260009061383083820186612e6d565b90508281036101008401526138458185612eb0565b9c9b505050505050505050505050565b9485526001600160a01b039384166020860152604085019290925290911660608301526001600160801b0316608082015260a00190565b9485526001600160a01b0393841660208601526001600160801b039290921660408501528216606084015216608082015260a00190565b9182526001600160401b0316602082015260400190565b63ffffffff91909116815260200190565b63ffffffff9a8b1681529890991660208901526001600160401b039690961660408801526001600160801b0394851660608801529284166080870152921660a08501526001600160a01b0391821660c0850152811660e08401529081166101008301529091166101208201526101400190565b6040518181016001600160401b038111828210171561397957fe5b604052919050565b60006001600160401b0382111561399457fe5b5060209081020190565b60006001600160401b038211156139b157fe5b50601f01601f191660200190565b60005b838110156139da5781810151838201526020016139c2565b83811115611a385750506000910152565b6001600160a01b038116811461230557600080fdfea26469706673582212201ab82c84961772458970544e1e54c845ca039ed215419a9a30a30c5b25eac8ea64736f6c63430007060033",
  "immutableReferences": {},
  "source": "// SPDX-License-Identifier: UNLICENSED\r\n\r\npragma solidity ^0.7.6;\r\npragma experimental ABIEncoderV2;\r\n\r\nimport \"@openzeppelin/contracts/token/ERC721/IERC721.sol\";\r\nimport \"@openzeppelin/contracts/token/ERC721/IERC721Receiver.sol\";\r\nimport \"@openzeppelin/contracts/token/ERC20/IERC20.sol\";\r\n\r\nimport \"./lib/GenerativeNFT.sol\";\r\n\r\ncontract NFTAuction {\r\n    mapping(uint256 => Auction) public nftContractAuctions;\r\n    mapping(address => uint256) failedTransferCredits; //return the money to bidders\r\n    // mapping(uint256 => uint256) public tokenIdToPrice;\r\n    // mapping(uint256 => bool) public isRent;\r\n    mapping(uint256 => Rent) public rentNfts;\r\n\r\n    struct Rent {\r\n        address lender;\r\n        address borrower;\r\n        uint32 period;\r\n        uint128 price;\r\n        uint128 collateral;\r\n        uint128 extraPay; //is used when the borrower didn't return NFT at definite time.\r\n        uint64 rentEnd;\r\n        // address[] feeRecipients;\r\n        // uint32[] feePercentages;\r\n    }\r\n\r\n    struct Auction {\r\n        //map token ID to\r\n        uint32 bidIncreasePercentage;\r\n        uint32 auctionBidPeriod; //Increments the length of time the auction is open in which a new bid can be made after each bid.\r\n        uint64 auctionEnd;\r\n        uint128 minPrice;\r\n        uint128 buyNowPrice;\r\n        uint128 nftHighestBid;\r\n        address nftHighestBidder;\r\n        address nftSeller;\r\n        address nftRecipient; //The bidder can specify a recipient for the NFT if their bid is successful.\r\n        address ERC20Token; // The seller can specify an ERC20 token that can be used to bid or purchase the NFT.\r\n        address[] feeRecipients;\r\n        uint32[] feePercentages;\r\n    }\r\n\r\n    //Default values that are used if not specified by the NFT seller.\r\n    uint32 public defaultBidIncreasePercentage;\r\n    // uint32 public minimumSettableIncreasePercentage;\r\n    uint32 public defaultAuctionBidPeriod;\r\n\r\n    //NFT token contract address\r\n    address public _nftContractAddress;\r\n\r\n    uint32 public managerFee;//shown by 10000 not 100\r\n    address public manager;\r\n\r\n    /*\r\n                 EVENTS            \r\n      */\r\n    event NftAuctionCreated(\r\n        uint256 tokenId,\r\n        address nftSeller,\r\n        address erc20Token,\r\n        uint128 minPrice,\r\n        uint128 buyNowPrice,\r\n        uint32 auctionBidPeriod,\r\n        uint32 bidIncreasePercentage,\r\n        address[] feeRecipients,\r\n        uint32[] feePercentages\r\n    );\r\n\r\n    event NFTTransferredAndSellerPaid(\r\n        uint256 tokenId,\r\n        address nftSeller,\r\n        uint128 nftHighestBid,\r\n        address nftHighestBidder,\r\n        address nftRecipient\r\n    );\r\n\r\n    event AuctionPeriodUpdated(uint256 tokenId, uint64 auctionEndPeriod);\r\n\r\n    event SaleCreated(\r\n        uint256 tokenId,\r\n        address nftSeller,\r\n        address erc20Token,\r\n        uint128 buyNowPrice,\r\n        address[] feeRecipients,\r\n        uint32[] feePercentages\r\n    );\r\n\r\n    event BidMade(\r\n        uint256 tokenId,\r\n        address bidder,\r\n        uint256 ethAmount,\r\n        address erc20Token,\r\n        uint256 tokenAmount\r\n    );\r\n\r\n    event AuctionSettled(uint256 tokenId, address auctionSettler);\r\n\r\n    event AuctionWithdrawn(uint256 tokenId, address nftOwner);\r\n\r\n    event BidWithdrawn(uint256 tokenId, address highestBidder);\r\n\r\n    event HighestBidTaken(uint256 tokenId);\r\n\r\n    event NftPriceChanged(uint256 tokenId, uint256 price);\r\n\r\n    event NftBorrow(address _seller, address _buyer, uint256 _price);\r\n\r\n    event NftToLend(\r\n        address lender,\r\n        uint256 tokenId,\r\n        uint32 period,\r\n        uint128 price,\r\n        uint128 _extraPay,\r\n        uint128 _collateral\r\n    );\r\n\r\n    event ReturnNftToLender(address lender, address borrower, uint256 _tokenId);\r\n\r\n    event FeeSet(uint32 fee);\r\n\r\n    /**********************************/\r\n    /*\r\n                   END             \r\n                  EVENTS           \r\n      */\r\n    /**********************************/\r\n\r\n    /*\r\n                MODIFIERS          \r\n      */\r\n    modifier isAuctionNotStartedByOwner(uint256 _tokenId) {\r\n        require(\r\n            nftContractAuctions[_tokenId].nftSeller != msg.sender,\r\n            \"Auction already started by owner\"\r\n        );\r\n\r\n        if (nftContractAuctions[_tokenId].nftSeller != address(0)) {\r\n            require(\r\n                msg.sender == IERC721(_nftContractAddress).ownerOf(_tokenId),\r\n                \"Sender doesn't own NFT\"\r\n            );\r\n\r\n            _resetAuction(_tokenId);\r\n        }\r\n        _;\r\n    }\r\n\r\n    modifier isRentNotStartedByOwner(uint256 _tokenId) {\r\n        require(\r\n            rentNfts[_tokenId].lender == address(0),\r\n            \"During rent you can't auction\"\r\n        );\r\n        _;\r\n    }\r\n\r\n    modifier auctionOngoing(uint256 _tokenId) {\r\n        require(_isAuctionOngoing(_tokenId), \"Auction has ended\");\r\n        _;\r\n    }\r\n\r\n    modifier isFeeToManagerMeet(\r\n        address[] memory _feeRecipients,\r\n        uint32[] memory _feePercentages\r\n    ) {\r\n        require(\r\n            _feeRecipients[0] == manager && _feePercentages[0] == managerFee,\r\n            \"Must pay correct fee to manager\"\r\n        );\r\n        _;\r\n    }\r\n\r\n    modifier priceGreaterThanZero(uint256 _price) {\r\n        require(_price > 0, \"Price cannot be 0\");\r\n        _;\r\n    }\r\n\r\n    modifier notNftSeller(uint256 _tokenId) {\r\n        require(\r\n            msg.sender != nftContractAuctions[_tokenId].nftSeller,\r\n            \"Owner cannot bid on own NFT\"\r\n        );\r\n        _;\r\n    }\r\n\r\n    modifier onlyNftSeller(uint256 _tokenId) {\r\n        require(\r\n            msg.sender == nftContractAuctions[_tokenId].nftSeller,\r\n            \"Only nft seller\"\r\n        );\r\n        _;\r\n    }\r\n\r\n    modifier bidAmountMeetsBidRequirements(\r\n        uint256 _tokenId,\r\n        uint128 _tokenAmount\r\n    ) {\r\n        require(\r\n            _doesBidMeetBidRequirements(_tokenId, _tokenAmount),\r\n            \"Not enough funds to bid on NFT\"\r\n        );\r\n        _;\r\n    }\r\n\r\n    /*\r\n     * Payment is accepted if the payment is made in the ERC20 token or ETH specified by the seller.\r\n     * Early bids on NFTs not yet up for auction must be made in ETH.\r\n     */\r\n    modifier paymentAccepted(\r\n        uint256 _tokenId,\r\n        address _erc20Token,\r\n        uint128 _tokenAmount\r\n    ) {\r\n        require(\r\n            _isPaymentAccepted(_tokenId, _erc20Token, _tokenAmount),\r\n            \"Bid to be in specified ERC20/Eth\"\r\n        );\r\n        _;\r\n    }\r\n\r\n    modifier isAuctionOver(uint256 _tokenId) {\r\n        require(!_isAuctionOngoing(_tokenId), \"Auction is not yet over\");\r\n        _;\r\n    }\r\n\r\n    modifier notZeroAddress(address _address) {\r\n        require(_address != address(0), \"Cannot specify 0 address\");\r\n        _;\r\n    }\r\n\r\n    modifier isFeePercentagesLessThanMaximum(uint32[] memory _feePercentages) {\r\n        uint32 totalPercent;\r\n        for (uint256 i = 0; i < _feePercentages.length; i++) {\r\n            totalPercent = totalPercent + _feePercentages[i];\r\n        }\r\n        require(totalPercent <= 10000, \"Fee percentages exceed maximum\");\r\n        _;\r\n    }\r\n\r\n    modifier correctFeeRecipientsAndPercentages(\r\n        uint256 _recipientsLength,\r\n        uint256 _percentagesLength\r\n    ) {\r\n        require(\r\n            _recipientsLength == _percentagesLength,\r\n            \"Recipients != percentages\"\r\n        );\r\n        _;\r\n    }\r\n\r\n    modifier isNotASale(uint256 _tokenId) {\r\n        require(!_isASale(_tokenId), \"Not applicable for a sale\");\r\n        _;\r\n    }\r\n\r\n    modifier minimumBidNotMade(uint256 _tokenId) {\r\n        require(\r\n            !_isMinimumBidMade(_tokenId),\r\n            \"The auction has a valid bid made\"\r\n        );\r\n        _;\r\n    }\r\n\r\n    // constructor\r\n    constructor(address nftContractAddress, address _manager) {\r\n        defaultBidIncreasePercentage = 100;\r\n        defaultAuctionBidPeriod = 86400; //1 day\r\n        // minimumSettableIncreasePercentage = 100;\r\n        _nftContractAddress = nftContractAddress;\r\n        manager = _manager;\r\n        managerFee = 1100;\r\n    }\r\n\r\n    /*\r\n          AUCTION CHECK FUNCTIONS   \r\n      */\r\n    function _isAuctionOngoing(uint256 _tokenId) internal view returns (bool) {\r\n        uint64 auctionEndTimestamp = nftContractAuctions[_tokenId].auctionEnd;\r\n        //if the auctionEnd is set to 0, the auction is technically on-going, however\r\n        //the minimum bid price (minPrice) has not yet been met.\r\n        return (auctionEndTimestamp == 0 ||\r\n            block.timestamp < auctionEndTimestamp);\r\n    }\r\n\r\n    /*\r\n     * Check that a bid is applicable for the purchase of the NFT.\r\n     * In the case of a sale: the bid needs to meet the buyNowPrice.\r\n     * In the case of an auction: the bid needs to be a % higher than the previous bid.\r\n     */\r\n    function _doesBidMeetBidRequirements(uint256 _tokenId, uint128 _tokenAmount)\r\n        internal\r\n        view\r\n        returns (bool)\r\n    {\r\n        uint128 buyNowPrice = nftContractAuctions[_tokenId].buyNowPrice;\r\n        //if buyNowPrice is met, ignore increase percentage\r\n        if (\r\n            buyNowPrice > 0 &&\r\n            (msg.value >= buyNowPrice || _tokenAmount >= buyNowPrice)\r\n        ) {\r\n            return true;\r\n        }\r\n        //if the NFT is up for auction, the bid needs to be a % higher than the previous bid\r\n        uint256 bidIncreaseAmount = (nftContractAuctions[_tokenId]\r\n            .nftHighestBid * (10000 + _getBidIncreasePercentage(_tokenId))) /\r\n            10000;\r\n        return (msg.value >= bidIncreaseAmount ||\r\n            _tokenAmount >= bidIncreaseAmount);\r\n    }\r\n\r\n    /**\r\n     * Payment is accepted in the following scenarios:\r\n     * (1) Auction already created - can accept ETH or Specified Token\r\n     *  --------> Cannot bid with ETH & an ERC20 Token together in any circumstance<------\r\n     * (2) Auction not created - only ETH accepted (cannot early bid with an ERC20 Token\r\n     * (3) Cannot make a zero bid (no ETH or Token amount)\r\n     */\r\n    function _isPaymentAccepted(\r\n        uint256 _tokenId,\r\n        address _bidERC20Token,\r\n        uint128 _tokenAmount\r\n    ) internal view returns (bool) {\r\n        address auctionERC20Token = nftContractAuctions[_tokenId].ERC20Token;\r\n        if (_isERC20Auction(auctionERC20Token)) {\r\n            return\r\n                msg.value == 0 &&\r\n                auctionERC20Token == _bidERC20Token &&\r\n                _tokenAmount > 0;\r\n        } else {\r\n            return\r\n                msg.value != 0 &&\r\n                _bidERC20Token == address(0) &&\r\n                _tokenAmount == 0;\r\n        }\r\n    }\r\n\r\n    function _isERC20Auction(address _auctionERC20Token)\r\n        internal\r\n        pure\r\n        returns (bool)\r\n    {\r\n        return _auctionERC20Token != address(0);\r\n    }\r\n\r\n    /*\r\n     * An NFT is up for sale if the buyNowPrice is set, but the minPrice is not set.\r\n     * Therefore the only way to conclude the NFT sale is to meet the buyNowPrice.\r\n     */\r\n    function _isASale(uint256 _tokenId) internal view returns (bool) {\r\n        return (nftContractAuctions[_tokenId].buyNowPrice > 0 &&\r\n            nftContractAuctions[_tokenId].minPrice == 0);\r\n    }\r\n\r\n    /*\r\n     * If the buy now price is set by the seller, check that the highest bid meets that price.\r\n     */\r\n    function _isBuyNowPriceMet(uint256 _tokenId) internal view returns (bool) {\r\n        uint128 buyNowPrice = nftContractAuctions[_tokenId].buyNowPrice;\r\n        return\r\n            buyNowPrice > 0 &&\r\n            nftContractAuctions[_tokenId].nftHighestBid >= buyNowPrice;\r\n    }\r\n\r\n    /*\r\n     * Returns the percentage of the total bid (used to calculate fee payments)\r\n     */\r\n    function _getPortionOfBid(uint256 _totalBid, uint256 _percentage)\r\n        internal\r\n        pure\r\n        returns (uint256)\r\n    {\r\n        return (_totalBid * (_percentage)) / 10000;\r\n    }\r\n\r\n    /*\r\n     *if the minPrice is set by the seller, check that the highest bid meets or exceeds that price.\r\n     */\r\n    function _isMinimumBidMade(uint256 _tokenId) internal view returns (bool) {\r\n        uint128 minPrice = nftContractAuctions[_tokenId].minPrice;\r\n        return\r\n            minPrice > 0 &&\r\n            (nftContractAuctions[_tokenId].nftHighestBid >= minPrice);\r\n    }\r\n\r\n    /*\r\n     * Check if a bid has been made. This is applicable in the early bid scenario\r\n     * to ensure that if an auction is created after an early bid, the auction\r\n     * begins appropriately or is settled if the buy now price is met.\r\n     */\r\n    function _isABidMade(uint256 _tokenId) internal view returns (bool) {\r\n        return (nftContractAuctions[_tokenId].nftHighestBid > 0);\r\n    }\r\n\r\n    /**********************************/\r\n    /*\r\n                   END              \r\n          AUCTION CHECK FUNCTIONS   \r\n      */\r\n    /**********************************/\r\n    /*\r\n          DEFAULT GETTER FUNCTIONS  \r\n      */\r\n    /*****************************************************************\r\n     * These functions check if the applicable auction parameter has *\r\n     * been set by the NFT seller. If not, return the default value. *\r\n     *****************************************************************/\r\n\r\n    function _getBidIncreasePercentage(uint256 _tokenId)\r\n        internal\r\n        view\r\n        returns (uint32)\r\n    {\r\n        uint32 bidIncreasePercentage = nftContractAuctions[_tokenId]\r\n            .bidIncreasePercentage;\r\n\r\n        if (bidIncreasePercentage == 0) {\r\n            return defaultBidIncreasePercentage;\r\n        } else {\r\n            return bidIncreasePercentage;\r\n        }\r\n    }\r\n\r\n    function _getAuctionBidPeriod(uint256 _tokenId)\r\n        internal\r\n        view\r\n        returns (uint32)\r\n    {\r\n        uint32 auctionBidPeriod = nftContractAuctions[_tokenId]\r\n            .auctionBidPeriod;\r\n\r\n        if (auctionBidPeriod == 0) {\r\n            return defaultAuctionBidPeriod;\r\n        } else {\r\n            return auctionBidPeriod;\r\n        }\r\n    }\r\n\r\n    /*\r\n     * The default value for the NFT recipient is the highest bidder\r\n     */\r\n    function _getNftRecipient(uint256 _tokenId)\r\n        internal\r\n        view\r\n        returns (address)\r\n    {\r\n        address nftRecipient = nftContractAuctions[_tokenId].nftRecipient;\r\n\r\n        if (nftRecipient == address(0)) {\r\n            return nftContractAuctions[_tokenId].nftHighestBidder;\r\n        } else {\r\n            return nftRecipient;\r\n        }\r\n    }\r\n\r\n    /**********************************/\r\n    /*\r\n                   END              \r\n          DEFAULT GETTER FUNCTIONS  \r\n      */\r\n    /**********************************/\r\n\r\n    /*\r\n        TRANSFER NFTS TO CONTRACT   \r\n      */\r\n\r\n    function _transferNftToAuctionContract(uint256 _tokenId) internal {\r\n        address _nftSeller = nftContractAuctions[_tokenId].nftSeller;\r\n        if (IERC721(_nftContractAddress).ownerOf(_tokenId) == _nftSeller) {\r\n            IERC721(_nftContractAddress).transferFrom(\r\n                _nftSeller,\r\n                address(this),\r\n                _tokenId\r\n            );\r\n            require(\r\n                IERC721(_nftContractAddress).ownerOf(_tokenId) == address(this),\r\n                \"nft transfer failed\"\r\n            );\r\n        } else {\r\n            require(\r\n                IERC721(_nftContractAddress).ownerOf(_tokenId) == address(this),\r\n                \"Seller doesn't own NFT\"\r\n            );\r\n        }\r\n    }\r\n\r\n    /**********************************/\r\n    /*\r\n                   END              \r\n        TRANSFER NFTS TO CONTRACT   \r\n      */\r\n    /**********************************/\r\n\r\n    /*\r\n             AUCTION CREATION       \r\n      */\r\n\r\n    /**\r\n     * Setup parameters applicable to all auctions and whitelised sales:\r\n     * -> ERC20 Token for payment (if specified by the seller) : _erc20Token\r\n     * -> minimum price : _minPrice\r\n     * -> buy now price : _buyNowPrice\r\n     * -> the nft seller: msg.sender\r\n     * -> The fee recipients & their respective percentages for a sucessful auction/sale\r\n     */\r\n    function _setupAuction(\r\n        uint256 _tokenId,\r\n        address _erc20Token,\r\n        uint128 _minPrice,\r\n        uint128 _buyNowPrice,\r\n        address[] memory _feeRecipients,\r\n        uint32[] memory _feePercentages\r\n    )\r\n        internal\r\n        correctFeeRecipientsAndPercentages(\r\n            _feeRecipients.length,\r\n            _feePercentages.length\r\n        )\r\n        isFeeToManagerMeet(_feeRecipients, _feePercentages)\r\n        isFeePercentagesLessThanMaximum(_feePercentages)\r\n    {\r\n        if (_erc20Token != address(0)) {\r\n            nftContractAuctions[_tokenId].ERC20Token = _erc20Token;\r\n        }\r\n        nftContractAuctions[_tokenId].feeRecipients = _feeRecipients;\r\n        nftContractAuctions[_tokenId].feePercentages = _feePercentages;\r\n        nftContractAuctions[_tokenId].buyNowPrice = _buyNowPrice;\r\n        nftContractAuctions[_tokenId].minPrice = _minPrice;\r\n        nftContractAuctions[_tokenId].nftSeller = msg.sender;\r\n    }\r\n\r\n    function _createNewNftAuction(\r\n        uint256 _tokenId,\r\n        address _erc20Token,\r\n        uint128 _minPrice,\r\n        uint128 _buyNowPrice,\r\n        address[] memory _feeRecipients,\r\n        uint32[] memory _feePercentages\r\n    ) internal {\r\n        // Sending the NFT to this contract\r\n        _setupAuction(\r\n            _tokenId,\r\n            _erc20Token,\r\n            _minPrice,\r\n            _buyNowPrice,\r\n            _feeRecipients,\r\n            _feePercentages\r\n        );\r\n        emit NftAuctionCreated(\r\n            _tokenId,\r\n            msg.sender,\r\n            _erc20Token,\r\n            _minPrice,\r\n            _buyNowPrice,\r\n            _getAuctionBidPeriod(_tokenId),\r\n            _getBidIncreasePercentage(_tokenId),\r\n            _feeRecipients,\r\n            _feePercentages\r\n        );\r\n        _updateOngoingAuction(_tokenId);\r\n    }\r\n\r\n    function createNewNftAuction(\r\n        uint256 _tokenId,\r\n        address _erc20Token,\r\n        uint128 _minPrice,\r\n        uint128 _buyNowPrice,\r\n        uint32 _auctionBidPeriod, //this is the time that the auction lasts until another bid occurs\r\n        uint32 _bidIncreasePercentage,\r\n        address[] memory _feeRecipients,\r\n        uint32[] memory _feePercentages\r\n    )\r\n        external\r\n        isAuctionNotStartedByOwner(_tokenId)\r\n        priceGreaterThanZero(_minPrice)\r\n        isRentNotStartedByOwner(_tokenId)\r\n    {\r\n        nftContractAuctions[_tokenId].auctionBidPeriod = _auctionBidPeriod;\r\n        nftContractAuctions[_tokenId]\r\n            .bidIncreasePercentage = _bidIncreasePercentage;\r\n        _createNewNftAuction(\r\n            _tokenId,\r\n            _erc20Token,\r\n            _minPrice,\r\n            _buyNowPrice,\r\n            _feeRecipients,\r\n            _feePercentages\r\n        );\r\n    }\r\n\r\n    /**********************************/\r\n    /*\r\n                   END              \r\n             AUCTION CREATION       \r\n      */\r\n    /**********************************/\r\n\r\n    /*\r\n                  SALES             \r\n      */\r\n\r\n    /********************************************************************\r\n     * Allows for a standard sale mechanism where the NFT seller can    *\r\n     * can select an address to be whitelisted. This address is then    *\r\n     * allowed to make a bid on the NFT. No other address can bid on    *\r\n     * the NFT.                                                         *\r\n     ********************************************************************/\r\n    function _setupSale(\r\n        uint256 _tokenId,\r\n        address _erc20Token,\r\n        uint128 _buyNowPrice,\r\n        address[] memory _feeRecipients,\r\n        uint32[] memory _feePercentages\r\n    )\r\n        internal\r\n        correctFeeRecipientsAndPercentages(\r\n            _feeRecipients.length,\r\n            _feePercentages.length\r\n        )\r\n        isFeeToManagerMeet(_feeRecipients, _feePercentages)\r\n        isFeePercentagesLessThanMaximum(_feePercentages)\r\n    {\r\n        if (_erc20Token != address(0)) {\r\n            nftContractAuctions[_tokenId].ERC20Token = _erc20Token;\r\n        }\r\n        nftContractAuctions[_tokenId].feeRecipients = _feeRecipients;\r\n        nftContractAuctions[_tokenId].feePercentages = _feePercentages;\r\n        nftContractAuctions[_tokenId].buyNowPrice = _buyNowPrice;\r\n        nftContractAuctions[_tokenId].nftSeller = msg.sender;\r\n    }\r\n\r\n    function createSale(\r\n        uint256 _tokenId,\r\n        address _erc20Token,\r\n        uint128 _buyNowPrice,\r\n        address[] memory _feeRecipients,\r\n        uint32[] memory _feePercentages\r\n    )\r\n        external\r\n        isAuctionNotStartedByOwner(_tokenId)\r\n        priceGreaterThanZero(_buyNowPrice)\r\n        isRentNotStartedByOwner(_tokenId)\r\n    {\r\n        //min price = 0\r\n        _setupSale(\r\n            _tokenId,\r\n            _erc20Token,\r\n            _buyNowPrice,\r\n            _feeRecipients,\r\n            _feePercentages\r\n        );\r\n\r\n        emit SaleCreated(\r\n            _tokenId,\r\n            msg.sender,\r\n            _erc20Token,\r\n            _buyNowPrice,\r\n            _feeRecipients,\r\n            _feePercentages\r\n        );\r\n        //check if buyNowPrice is meet and conclude sale, otherwise reverse the early bid\r\n        if (_isABidMade(_tokenId)) {\r\n            if (_isBuyNowPriceMet(_tokenId)) {\r\n                _transferNftToAuctionContract(_tokenId);\r\n                _transferNftAndPaySeller(_tokenId);\r\n            }\r\n        }\r\n    }\r\n\r\n    /**********************************/\r\n    /*\r\n                   END              \r\n                  SALES             \r\n      */\r\n    /**********************************/\r\n\r\n    /*\r\n              BID FUNCTIONS        \r\n      */\r\n\r\n    /********************************************************************\r\n     * Make bids with ETH or an ERC20 Token specified by the NFT seller.*\r\n     * Additionally, a buyer can pay the asking price to conclude a sale*\r\n     * of an NFT.                                                      *\r\n     ********************************************************************/\r\n\r\n    function _makeBid(\r\n        uint256 _tokenId,\r\n        address _erc20Token,\r\n        uint128 _tokenAmount\r\n    )\r\n        internal\r\n        notNftSeller(_tokenId)\r\n        paymentAccepted(_tokenId, _erc20Token, _tokenAmount)\r\n        bidAmountMeetsBidRequirements(_tokenId, _tokenAmount)\r\n    {\r\n        _reversePreviousBidAndUpdateHighestBid(_tokenId, _tokenAmount);\r\n        emit BidMade(\r\n            _tokenId,\r\n            msg.sender,\r\n            msg.value,\r\n            _erc20Token,\r\n            _tokenAmount\r\n        );\r\n        _updateOngoingAuction(_tokenId);\r\n    }\r\n\r\n    function makeCustomBid(\r\n        uint256 _tokenId,\r\n        address _erc20Token,\r\n        uint128 _tokenAmount,\r\n        address _nftRecipient\r\n    ) external payable auctionOngoing(_tokenId) notZeroAddress(_nftRecipient) {\r\n        nftContractAuctions[_tokenId].nftRecipient = _nftRecipient;\r\n        _makeBid(_tokenId, _erc20Token, _tokenAmount);\r\n    }\r\n\r\n    /**********************************/\r\n    /*\r\n                   END              \r\n              BID FUNCTIONS         \r\n      */\r\n    /**********************************/\r\n\r\n    /*\r\n             UPDATE AUCTION         \r\n      */\r\n\r\n    /***************************************************************\r\n     * Settle an auction or sale if the buyNowPrice is met or set  *\r\n     *  auction period to begin if the minimum price has been met. *\r\n     ***************************************************************/\r\n    function _updateOngoingAuction(uint256 _tokenId) internal {\r\n        if (_isBuyNowPriceMet(_tokenId)) {\r\n            _transferNftToAuctionContract(_tokenId);\r\n            _transferNftAndPaySeller(_tokenId);\r\n            return;\r\n        }\r\n        //min price not set, nft not up for auction yet\r\n        if (_isMinimumBidMade(_tokenId)) {\r\n            _transferNftToAuctionContract(_tokenId);\r\n            _updateAuctionEnd(_tokenId);\r\n        }\r\n    }\r\n\r\n    function _updateAuctionEnd(uint256 _tokenId) internal {\r\n        //the auction end is always set to now + the bid period\r\n        nftContractAuctions[_tokenId].auctionEnd =\r\n            _getAuctionBidPeriod(_tokenId) +\r\n            uint64(block.timestamp);\r\n        emit AuctionPeriodUpdated(\r\n            _tokenId,\r\n            nftContractAuctions[_tokenId].auctionEnd\r\n        );\r\n    }\r\n\r\n    /**********************************/\r\n    /*\r\n                   END              \r\n             UPDATE AUCTION         \r\n      */\r\n    /**********************************/\r\n\r\n    /*\r\n             RESET FUNCTIONS        \r\n      */\r\n\r\n    /*\r\n     * Reset all auction related parameters for an NFT.\r\n     * This effectively removes an EFT as an item up for auction\r\n     */\r\n    function _resetAuction(uint256 _tokenId) internal {\r\n        nftContractAuctions[_tokenId].minPrice = 0;\r\n        nftContractAuctions[_tokenId].buyNowPrice = 0;\r\n        nftContractAuctions[_tokenId].auctionEnd = 0;\r\n        nftContractAuctions[_tokenId].auctionBidPeriod = 0;\r\n        nftContractAuctions[_tokenId].bidIncreasePercentage = 0;\r\n        nftContractAuctions[_tokenId].nftSeller = address(0);\r\n        nftContractAuctions[_tokenId].ERC20Token = address(0);\r\n    }\r\n\r\n    function _resetBids(uint256 _tokenId) internal {\r\n        nftContractAuctions[_tokenId].nftHighestBidder = address(0);\r\n        nftContractAuctions[_tokenId].nftHighestBid = 0;\r\n        nftContractAuctions[_tokenId].nftRecipient = address(0);\r\n    }\r\n\r\n    /**********************************/\r\n    /*\r\n                   END              \r\n             RESET FUNCTIONS        \r\n      */\r\n    /**********************************/\r\n\r\n    /*\r\n               UPDATE BIDS          \r\n      */\r\n    /******************************************************************\r\n     * Internal functions that update bid parameters and reverse bids *\r\n     * to ensure contract only holds the highest bid.                 *\r\n     ******************************************************************/\r\n    function _updateHighestBid(uint256 _tokenId, uint128 _tokenAmount)\r\n        internal\r\n    {\r\n        address auctionERC20Token = nftContractAuctions[_tokenId].ERC20Token;\r\n        if (_isERC20Auction(auctionERC20Token)) {\r\n            IERC20(auctionERC20Token).transferFrom(\r\n                msg.sender,\r\n                address(this),\r\n                _tokenAmount\r\n            );\r\n            nftContractAuctions[_tokenId].nftHighestBid = _tokenAmount;\r\n        } else {\r\n            nftContractAuctions[_tokenId].nftHighestBid = uint128(msg.value);\r\n        }\r\n        nftContractAuctions[_tokenId].nftHighestBidder = msg.sender;\r\n    }\r\n\r\n    function _reversePreviousBidAndUpdateHighestBid(\r\n        uint256 _tokenId,\r\n        uint128 _tokenAmount\r\n    ) internal {\r\n        address prevNftHighestBidder = nftContractAuctions[_tokenId]\r\n            .nftHighestBidder;\r\n\r\n        uint256 prevNftHighestBid = nftContractAuctions[_tokenId].nftHighestBid;\r\n        _updateHighestBid(_tokenId, _tokenAmount);\r\n\r\n        if (prevNftHighestBidder != address(0)) {\r\n            _payout(_tokenId, prevNftHighestBidder, prevNftHighestBid);\r\n        }\r\n    }\r\n\r\n    /**********************************/\r\n    /*\r\n                   END              \r\n               UPDATE BIDS          \r\n      */\r\n    /**********************************/\r\n\r\n    /*\r\n        TRANSFER NFT & PAY SELLER   \r\n      */\r\n    function _transferNftAndPaySeller(uint256 _tokenId) internal {\r\n        address _nftSeller = nftContractAuctions[_tokenId].nftSeller;\r\n        address _nftHighestBidder = nftContractAuctions[_tokenId]\r\n            .nftHighestBidder;\r\n        address _nftRecipient = _getNftRecipient(_tokenId);\r\n        uint128 _nftHighestBid = nftContractAuctions[_tokenId].nftHighestBid;\r\n        _resetBids(_tokenId);\r\n\r\n        _payFeesAndSeller(_tokenId, _nftSeller, _nftHighestBid);\r\n        IERC721(_nftContractAddress).transferFrom(\r\n            address(this),\r\n            _nftRecipient,\r\n            _tokenId\r\n        );\r\n\r\n        _resetAuction(_tokenId);\r\n        emit NFTTransferredAndSellerPaid(\r\n            _tokenId,\r\n            _nftSeller,\r\n            _nftHighestBid,\r\n            _nftHighestBidder,\r\n            _nftRecipient\r\n        );\r\n    }\r\n\r\n    function _payFeesAndSeller(\r\n        uint256 _tokenId,\r\n        address _nftSeller,\r\n        uint256 _highestBid\r\n    ) internal {\r\n        uint256 feesPaid;\r\n        for (\r\n            uint256 i = 0;\r\n            i < nftContractAuctions[_tokenId].feeRecipients.length;\r\n            i++\r\n        ) {\r\n            uint256 fee = _getPortionOfBid(\r\n                _highestBid,\r\n                nftContractAuctions[_tokenId].feePercentages[i]\r\n            );\r\n            feesPaid = feesPaid + fee;\r\n            _payout(\r\n                _tokenId,\r\n                nftContractAuctions[_tokenId].feeRecipients[i],\r\n                fee\r\n            );\r\n        }\r\n        _payout(_tokenId, _nftSeller, (_highestBid - feesPaid));\r\n    }\r\n\r\n    function _payout(\r\n        uint256 _tokenId,\r\n        address _recipient,\r\n        uint256 _amount\r\n    ) internal {\r\n        address auctionERC20Token = nftContractAuctions[_tokenId].ERC20Token;\r\n        if (_isERC20Auction(auctionERC20Token)) {\r\n            IERC20(auctionERC20Token).transfer(_recipient, _amount);\r\n        } else {\r\n            // attempt to send the funds to the recipient\r\n            (bool success, ) = payable(_recipient).call{\r\n                value: _amount,\r\n                gas: 20000\r\n            }(\"\");\r\n            // if it failed, update their credit balance so they can pull it later\r\n            if (!success) {\r\n                failedTransferCredits[_recipient] =\r\n                    failedTransferCredits[_recipient] +\r\n                    _amount;\r\n            }\r\n        }\r\n    }\r\n\r\n    /**********************************/\r\n    /*\r\n                   END              \r\n        TRANSFER NFT & PAY SELLER   \r\n      */\r\n    /**********************************/\r\n\r\n    /*\r\n            SETTLE & WITHDRAW       \r\n      */\r\n\r\n    function settleAuction(uint256 _tokenId) external isAuctionOver(_tokenId) {\r\n        _transferNftAndPaySeller(_tokenId);\r\n        emit AuctionSettled(_tokenId, msg.sender);\r\n    }\r\n\r\n    function withdrawAuction(uint256 _tokenId) external {\r\n        //only the NFT owner can prematurely close and auction\r\n        require(\r\n            IERC721(_nftContractAddress).ownerOf(_tokenId) == msg.sender,\r\n            \"Not NFT owner\"\r\n        );\r\n        _resetAuction(_tokenId);\r\n        emit AuctionWithdrawn(_tokenId, msg.sender);\r\n    }\r\n\r\n    function withdrawBid(uint256 _tokenId)\r\n        external\r\n        minimumBidNotMade(_tokenId)\r\n    {\r\n        address nftHighestBidder = nftContractAuctions[_tokenId]\r\n            .nftHighestBidder;\r\n        require(msg.sender == nftHighestBidder, \"Cannot withdraw funds\");\r\n\r\n        uint128 nftHighestBid = nftContractAuctions[_tokenId].nftHighestBid;\r\n        _resetBids(_tokenId);\r\n\r\n        _payout(_tokenId, nftHighestBidder, nftHighestBid);\r\n\r\n        emit BidWithdrawn(_tokenId, msg.sender);\r\n    }\r\n\r\n    /**********************************/\r\n    /*\r\n                   END              \r\n            SETTLE & WITHDRAW       \r\n      */\r\n    /**********************************/\r\n\r\n    /*\r\n             UPDATE AUCTION         \r\n      */\r\n\r\n    /*\r\n     * The NFT seller can opt to end an auction by taking the current highest bid.\r\n     */\r\n    function takeHighestBid(uint256 _tokenId) external onlyNftSeller(_tokenId) {\r\n        require(_isABidMade(_tokenId), \"cannot payout 0 bid\");\r\n        _transferNftToAuctionContract(_tokenId);\r\n        _transferNftAndPaySeller(_tokenId);\r\n        emit HighestBidTaken(_tokenId);\r\n    }\r\n\r\n    /*\r\n     * Query the owner of an NFT deposited for auction\r\n     */\r\n    function ownerOfNFT(uint256 _tokenId) external view returns (address) {\r\n        address nftSeller = nftContractAuctions[_tokenId].nftSeller;\r\n        require(nftSeller != address(0), \"NFT not deposited\");\r\n\r\n        return nftSeller;\r\n    }\r\n\r\n    /*\r\n     * If the transfer of a bid has failed, allow the recipient to reclaim their amount later.\r\n     */\r\n    function withdrawAllFailedCredits() external {\r\n        uint256 amount = failedTransferCredits[msg.sender];\r\n\r\n        require(amount != 0, \"no credits to withdraw\");\r\n\r\n        failedTransferCredits[msg.sender] = 0;\r\n\r\n        (bool successfulWithdraw, ) = msg.sender.call{\r\n            value: amount,\r\n            gas: 20000\r\n        }(\"\");\r\n        require(successfulWithdraw, \"withdraw failed\");\r\n    }\r\n\r\n    /**********************************/\r\n    /*\r\n                   END              \r\n             UPDATE AUCTION         \r\n      */\r\n    /**********************************/\r\n\r\n    /*\r\n                 Get Info           \r\n      */\r\n    function getAuctionInfo(uint256 _tokenId)\r\n        public\r\n        view\r\n        returns (Auction memory)\r\n    {\r\n        return nftContractAuctions[_tokenId];\r\n    }\r\n\r\n    /*\r\n             create svg file        \r\n      */\r\n    //create svg file automatically.\r\n    function getSVG(\r\n        uint256 _tokenId,\r\n        string memory latitude,\r\n        string memory longitude,\r\n        string memory name\r\n    ) public view returns (string memory) {\r\n        return\r\n            NFTDescriptor.constructTokenURI(\r\n                NFTDescriptor.URIParams({\r\n                    tokenId: _tokenId,\r\n                    blockNumber: block.number,\r\n                    latitude: latitude,\r\n                    longitude: longitude,\r\n                    name: name\r\n                })\r\n            );\r\n    }\r\n\r\n    /*\r\n                create rent         \r\n      */\r\n\r\n    //users can't borrow NFT during auction\r\n    function lend(\r\n        uint256 _tokenId,\r\n        uint32 _period,\r\n        uint128 _collateral,\r\n        uint128 _price,\r\n        uint128 _extraPay\r\n    )\r\n        external\r\n        // address[] memory _feeRecipients,\r\n        // uint32[] memory _feePercentages\r\n        isAuctionNotStartedByOwner(_tokenId)\r\n        priceGreaterThanZero(_price)\r\n    {\r\n        require(\r\n            IERC721(_nftContractAddress).ownerOf(_tokenId) == msg.sender,\r\n            \"Only owner can lend this NFT\"\r\n        );\r\n        rentNfts[_tokenId].lender = msg.sender;\r\n        rentNfts[_tokenId].period = _period;\r\n        rentNfts[_tokenId].collateral = _collateral; //get extrapay from this\r\n        rentNfts[_tokenId].price = _price;\r\n        rentNfts[_tokenId].extraPay = _extraPay;\r\n        // rentNfts[_tokenId].feeRecipients=_feeRecipients;\r\n        // rentNfts[_tokenId].feePercentages=_feePercentages;\r\n        emit NftToLend(\r\n            msg.sender,\r\n            _tokenId,\r\n            _period,\r\n            _price,\r\n            _extraPay,\r\n            _collateral\r\n        );\r\n    }\r\n\r\n    //users pay price + collateral(not implemented now)\r\n    function borrow(uint256 _tokenId) external payable {\r\n        require(msg.sender != address(0));\r\n        uint128 price = rentNfts[_tokenId].price;\r\n        require(price > 0, \"Not for rent\");\r\n        uint128 collateral = rentNfts[_tokenId].collateral;\r\n        require(msg.value == price, \"Incorrect value\");\r\n        // require(msg.value == (price+collateral), \"Incorrect value\");\r\n        address lender = rentNfts[_tokenId].lender;\r\n        IERC721(_nftContractAddress).transferFrom(lender, msg.sender, _tokenId);\r\n        rentNfts[_tokenId].price = 0;\r\n        rentNfts[_tokenId].borrower = msg.sender;\r\n        uint32 period = rentNfts[_tokenId].period;\r\n        rentNfts[_tokenId].rentEnd = period + uint64(block.timestamp);\r\n        payable(lender).transfer(msg.value);\r\n        emit NftBorrow(lender, msg.sender, msg.value);\r\n        IERC721(_nftContractAddress).approve(lender, _tokenId); //make lender can return NFT.\r\n    }\r\n\r\n    //users get collateral - extrapay * delaytime\r\n    function returnNft(uint256 _tokenId) public {\r\n        require(\r\n            block.timestamp > rentNfts[_tokenId].rentEnd,\r\n            \"Rent is not ended\"\r\n        );\r\n        require(\r\n            rentNfts[_tokenId].borrower == msg.sender ||\r\n                rentNfts[_tokenId].lender == msg.sender,\r\n            \"You are not a borrower or lender\"\r\n        );\r\n        address lender = rentNfts[_tokenId].lender;\r\n        address borrower = rentNfts[_tokenId].borrower;\r\n        IERC721(_nftContractAddress).transferFrom(borrower, lender, _tokenId);\r\n        emit ReturnNftToLender(lender, borrower, _tokenId);\r\n        _resetRent(_tokenId);\r\n    }\r\n\r\n    function _resetRent(uint256 _tokenId) internal {\r\n        rentNfts[_tokenId].lender = address(0);\r\n        rentNfts[_tokenId].borrower = address(0);\r\n        rentNfts[_tokenId].period = 0;\r\n        rentNfts[_tokenId].price = 0;\r\n        rentNfts[_tokenId].extraPay = 0;\r\n        rentNfts[_tokenId].rentEnd = 0;\r\n    }\r\n\r\n    /*\r\n              set managerfee        \r\n      */\r\n\r\n    function setManagerFee(uint32 fee) public {\r\n        require(msg.sender == manager, \"Not a manager\");\r\n        managerFee = fee;\r\n        emit FeeSet(fee);\r\n    }\r\n}\r\n",
  "sourcePath": "D:\\job\\NFT\\test\\new-contract\\contracts\\Auction.sol",
  "compiler": {
    "name": "solc",
    "version": "0.7.6+commit.7338295f.Emscripten.clang"
  },
  "schemaVersion": "3.4.3",
  "updatedAt": "2022-03-02T14:01:21.873Z",
  "devdoc": {
    "kind": "dev",
    "methods": {},
    "version": 1
  },
  "userdoc": {
    "kind": "user",
    "methods": {},
    "version": 1
  }
}