{
  "contractName": "NFTAuction",
  "abi": [
    {
      "inputs": [
        {
          "internalType": "address",
          "name": "nftContractAddress",
          "type": "address"
        }
      ],
      "stateMutability": "nonpayable",
      "type": "constructor"
    },
    {
      "anonymous": false,
      "inputs": [
        {
          "indexed": false,
          "internalType": "uint256",
          "name": "tokenId",
          "type": "uint256"
        },
        {
          "indexed": false,
          "internalType": "uint64",
          "name": "auctionEndPeriod",
          "type": "uint64"
        }
      ],
      "name": "AuctionPeriodUpdated",
      "type": "event"
    },
    {
      "anonymous": false,
      "inputs": [
        {
          "indexed": false,
          "internalType": "uint256",
          "name": "tokenId",
          "type": "uint256"
        },
        {
          "indexed": false,
          "internalType": "address",
          "name": "auctionSettler",
          "type": "address"
        }
      ],
      "name": "AuctionSettled",
      "type": "event"
    },
    {
      "anonymous": false,
      "inputs": [
        {
          "indexed": false,
          "internalType": "uint256",
          "name": "tokenId",
          "type": "uint256"
        },
        {
          "indexed": false,
          "internalType": "address",
          "name": "nftOwner",
          "type": "address"
        }
      ],
      "name": "AuctionWithdrawn",
      "type": "event"
    },
    {
      "anonymous": false,
      "inputs": [
        {
          "indexed": false,
          "internalType": "uint256",
          "name": "tokenId",
          "type": "uint256"
        },
        {
          "indexed": false,
          "internalType": "address",
          "name": "bidder",
          "type": "address"
        },
        {
          "indexed": false,
          "internalType": "uint256",
          "name": "ethAmount",
          "type": "uint256"
        },
        {
          "indexed": false,
          "internalType": "address",
          "name": "erc20Token",
          "type": "address"
        },
        {
          "indexed": false,
          "internalType": "uint256",
          "name": "tokenAmount",
          "type": "uint256"
        }
      ],
      "name": "BidMade",
      "type": "event"
    },
    {
      "anonymous": false,
      "inputs": [
        {
          "indexed": false,
          "internalType": "uint256",
          "name": "tokenId",
          "type": "uint256"
        },
        {
          "indexed": false,
          "internalType": "address",
          "name": "highestBidder",
          "type": "address"
        }
      ],
      "name": "BidWithdrawn",
      "type": "event"
    },
    {
      "anonymous": false,
      "inputs": [
        {
          "indexed": false,
          "internalType": "uint256",
          "name": "tokenId",
          "type": "uint256"
        }
      ],
      "name": "HighestBidTaken",
      "type": "event"
    },
    {
      "anonymous": false,
      "inputs": [
        {
          "indexed": false,
          "internalType": "uint256",
          "name": "tokenId",
          "type": "uint256"
        },
        {
          "indexed": false,
          "internalType": "address",
          "name": "nftSeller",
          "type": "address"
        },
        {
          "indexed": false,
          "internalType": "uint128",
          "name": "nftHighestBid",
          "type": "uint128"
        },
        {
          "indexed": false,
          "internalType": "address",
          "name": "nftHighestBidder",
          "type": "address"
        },
        {
          "indexed": false,
          "internalType": "address",
          "name": "nftRecipient",
          "type": "address"
        }
      ],
      "name": "NFTTransferredAndSellerPaid",
      "type": "event"
    },
    {
      "anonymous": false,
      "inputs": [
        {
          "indexed": false,
          "internalType": "uint256",
          "name": "tokenId",
          "type": "uint256"
        },
        {
          "indexed": false,
          "internalType": "address",
          "name": "nftSeller",
          "type": "address"
        },
        {
          "indexed": false,
          "internalType": "address",
          "name": "erc20Token",
          "type": "address"
        },
        {
          "indexed": false,
          "internalType": "uint128",
          "name": "minPrice",
          "type": "uint128"
        },
        {
          "indexed": false,
          "internalType": "uint128",
          "name": "buyNowPrice",
          "type": "uint128"
        },
        {
          "indexed": false,
          "internalType": "uint32",
          "name": "auctionBidPeriod",
          "type": "uint32"
        },
        {
          "indexed": false,
          "internalType": "uint32",
          "name": "bidIncreasePercentage",
          "type": "uint32"
        },
        {
          "indexed": false,
          "internalType": "address[]",
          "name": "feeRecipients",
          "type": "address[]"
        },
        {
          "indexed": false,
          "internalType": "uint32[]",
          "name": "feePercentages",
          "type": "uint32[]"
        }
      ],
      "name": "NftAuctionCreated",
      "type": "event"
    },
    {
      "anonymous": false,
      "inputs": [
        {
          "indexed": false,
          "internalType": "uint256",
          "name": "tokenId",
          "type": "uint256"
        },
        {
          "indexed": false,
          "internalType": "address",
          "name": "nftSeller",
          "type": "address"
        },
        {
          "indexed": false,
          "internalType": "address",
          "name": "erc20Token",
          "type": "address"
        },
        {
          "indexed": false,
          "internalType": "uint128",
          "name": "buyNowPrice",
          "type": "uint128"
        },
        {
          "indexed": false,
          "internalType": "address",
          "name": "whitelistedBuyer",
          "type": "address"
        },
        {
          "indexed": false,
          "internalType": "address[]",
          "name": "feeRecipients",
          "type": "address[]"
        },
        {
          "indexed": false,
          "internalType": "uint32[]",
          "name": "feePercentages",
          "type": "uint32[]"
        }
      ],
      "name": "SaleCreated",
      "type": "event"
    },
    {
      "inputs": [],
      "name": "_nftContractAddress",
      "outputs": [
        {
          "internalType": "address",
          "name": "",
          "type": "address"
        }
      ],
      "stateMutability": "view",
      "type": "function"
    },
    {
      "inputs": [],
      "name": "defaultAuctionBidPeriod",
      "outputs": [
        {
          "internalType": "uint32",
          "name": "",
          "type": "uint32"
        }
      ],
      "stateMutability": "view",
      "type": "function"
    },
    {
      "inputs": [],
      "name": "defaultBidIncreasePercentage",
      "outputs": [
        {
          "internalType": "uint32",
          "name": "",
          "type": "uint32"
        }
      ],
      "stateMutability": "view",
      "type": "function"
    },
    {
      "inputs": [],
      "name": "minimumSettableIncreasePercentage",
      "outputs": [
        {
          "internalType": "uint32",
          "name": "",
          "type": "uint32"
        }
      ],
      "stateMutability": "view",
      "type": "function"
    },
    {
      "inputs": [
        {
          "internalType": "uint256",
          "name": "",
          "type": "uint256"
        }
      ],
      "name": "nftContractAuctions",
      "outputs": [
        {
          "internalType": "uint32",
          "name": "bidIncreasePercentage",
          "type": "uint32"
        },
        {
          "internalType": "uint32",
          "name": "auctionBidPeriod",
          "type": "uint32"
        },
        {
          "internalType": "uint64",
          "name": "auctionEnd",
          "type": "uint64"
        },
        {
          "internalType": "uint128",
          "name": "minPrice",
          "type": "uint128"
        },
        {
          "internalType": "uint128",
          "name": "buyNowPrice",
          "type": "uint128"
        },
        {
          "internalType": "uint128",
          "name": "nftHighestBid",
          "type": "uint128"
        },
        {
          "internalType": "address",
          "name": "nftHighestBidder",
          "type": "address"
        },
        {
          "internalType": "address",
          "name": "nftSeller",
          "type": "address"
        },
        {
          "internalType": "address",
          "name": "nftRecipient",
          "type": "address"
        },
        {
          "internalType": "address",
          "name": "ERC20Token",
          "type": "address"
        }
      ],
      "stateMutability": "view",
      "type": "function"
    },
    {
      "inputs": [
        {
          "internalType": "uint256",
          "name": "_tokenId",
          "type": "uint256"
        },
        {
          "internalType": "address",
          "name": "_erc20Token",
          "type": "address"
        },
        {
          "internalType": "uint128",
          "name": "_minPrice",
          "type": "uint128"
        },
        {
          "internalType": "uint128",
          "name": "_buyNowPrice",
          "type": "uint128"
        },
        {
          "internalType": "uint32",
          "name": "_auctionBidPeriod",
          "type": "uint32"
        },
        {
          "internalType": "uint32",
          "name": "_bidIncreasePercentage",
          "type": "uint32"
        },
        {
          "internalType": "address[]",
          "name": "_feeRecipients",
          "type": "address[]"
        },
        {
          "internalType": "uint32[]",
          "name": "_feePercentages",
          "type": "uint32[]"
        }
      ],
      "name": "createNewNftAuction",
      "outputs": [],
      "stateMutability": "nonpayable",
      "type": "function"
    },
    {
      "inputs": [
        {
          "internalType": "uint256",
          "name": "_tokenId",
          "type": "uint256"
        },
        {
          "internalType": "address",
          "name": "_erc20Token",
          "type": "address"
        },
        {
          "internalType": "uint128",
          "name": "_buyNowPrice",
          "type": "uint128"
        },
        {
          "internalType": "address",
          "name": "_whitelistedBuyer",
          "type": "address"
        },
        {
          "internalType": "address[]",
          "name": "_feeRecipients",
          "type": "address[]"
        },
        {
          "internalType": "uint32[]",
          "name": "_feePercentages",
          "type": "uint32[]"
        }
      ],
      "name": "createSale",
      "outputs": [],
      "stateMutability": "nonpayable",
      "type": "function"
    },
    {
      "inputs": [
        {
          "internalType": "uint256",
          "name": "_tokenId",
          "type": "uint256"
        },
        {
          "internalType": "address",
          "name": "_erc20Token",
          "type": "address"
        },
        {
          "internalType": "uint128",
          "name": "_tokenAmount",
          "type": "uint128"
        },
        {
          "internalType": "address",
          "name": "_nftRecipient",
          "type": "address"
        }
      ],
      "name": "makeCustomBid",
      "outputs": [],
      "stateMutability": "payable",
      "type": "function"
    },
    {
      "inputs": [
        {
          "internalType": "uint256",
          "name": "_tokenId",
          "type": "uint256"
        }
      ],
      "name": "settleAuction",
      "outputs": [],
      "stateMutability": "nonpayable",
      "type": "function"
    },
    {
      "inputs": [
        {
          "internalType": "uint256",
          "name": "_tokenId",
          "type": "uint256"
        }
      ],
      "name": "withdrawAuction",
      "outputs": [],
      "stateMutability": "nonpayable",
      "type": "function"
    },
    {
      "inputs": [
        {
          "internalType": "uint256",
          "name": "_tokenId",
          "type": "uint256"
        }
      ],
      "name": "withdrawBid",
      "outputs": [],
      "stateMutability": "nonpayable",
      "type": "function"
    },
    {
      "inputs": [
        {
          "internalType": "uint256",
          "name": "_tokenId",
          "type": "uint256"
        }
      ],
      "name": "takeHighestBid",
      "outputs": [],
      "stateMutability": "nonpayable",
      "type": "function"
    },
    {
      "inputs": [
        {
          "internalType": "uint256",
          "name": "_tokenId",
          "type": "uint256"
        }
      ],
      "name": "ownerOfNFT",
      "outputs": [
        {
          "internalType": "address",
          "name": "",
          "type": "address"
        }
      ],
      "stateMutability": "view",
      "type": "function"
    },
    {
      "inputs": [],
      "name": "withdrawAllFailedCredits",
      "outputs": [],
      "stateMutability": "nonpayable",
      "type": "function"
    },
    {
      "inputs": [
        {
          "internalType": "uint256",
          "name": "tokenId",
          "type": "uint256"
        }
      ],
      "name": "getAuctionInfo",
      "outputs": [
        {
          "components": [
            {
              "internalType": "uint32",
              "name": "bidIncreasePercentage",
              "type": "uint32"
            },
            {
              "internalType": "uint32",
              "name": "auctionBidPeriod",
              "type": "uint32"
            },
            {
              "internalType": "uint64",
              "name": "auctionEnd",
              "type": "uint64"
            },
            {
              "internalType": "uint128",
              "name": "minPrice",
              "type": "uint128"
            },
            {
              "internalType": "uint128",
              "name": "buyNowPrice",
              "type": "uint128"
            },
            {
              "internalType": "uint128",
              "name": "nftHighestBid",
              "type": "uint128"
            },
            {
              "internalType": "address",
              "name": "nftHighestBidder",
              "type": "address"
            },
            {
              "internalType": "address",
              "name": "nftSeller",
              "type": "address"
            },
            {
              "internalType": "address",
              "name": "nftRecipient",
              "type": "address"
            },
            {
              "internalType": "address",
              "name": "ERC20Token",
              "type": "address"
            },
            {
              "internalType": "address[]",
              "name": "feeRecipients",
              "type": "address[]"
            },
            {
              "internalType": "uint32[]",
              "name": "feePercentages",
              "type": "uint32[]"
            }
          ],
          "internalType": "struct NFTAuction.Auction",
          "name": "",
          "type": "tuple"
        }
      ],
      "stateMutability": "view",
      "type": "function"
    }
  ],
  "bytecode": "0x60806040523480156200001157600080fd5b5060405162002b2f38038062002b2f83398101604081905262000034916200009f565b60028054606463ffffffff199091161763ffffffff60401b19166a01518000000000000000001763ffffffff60201b1916646400000000176001600160601b03166c010000000000000000000000006001600160a01b039390931692909202919091179055620000cf565b600060208284031215620000b1578081fd5b81516001600160a01b0381168114620000c8578182fd5b9392505050565b612a5080620000df6000396000f3fe6080604052600436106100e75760003560e01c806345a977151161008a578063b6ad691411610059578063b6ad69141461024e578063c1278a7214610263578063d15758dd14610283578063fc3fc4ed146102a3576100e7565b806345a97715146101c3578063989445be146101f95780639c0b996614610219578063b5fc98331461022e576100e7565b8063190efb6b116100c6578063190efb6b1461014c5780632d8a746e1461016e5780632e9936111461018e5780633d87d5fb146101ae576100e7565b8062626430146100ec5780630eaaf4c814610101578063186779d514610121575b600080fd5b6100ff6100fa366004611fcf565b6102d0565b005b34801561010d57600080fd5b506100ff61011c366004611fb7565b610363565b34801561012d57600080fd5b50610136610442565b604051610143919061293e565b60405180910390f35b34801561015857600080fd5b50610161610455565b604051610143919061222b565b34801561017a57600080fd5b50610161610189366004611fb7565b61046b565b34801561019a57600080fd5b506100ff6101a9366004611fb7565b6104ab565b3480156101ba57600080fd5b50610136610518565b3480156101cf57600080fd5b506101e36101de366004611fb7565b61052c565b6040516101439a9998979695949392919061294f565b34801561020557600080fd5b506100ff6102143660046120be565b6105b2565b34801561022557600080fd5b5061013661074e565b34801561023a57600080fd5b506100ff610249366004611fb7565b61075a565b34801561025a57600080fd5b506100ff61084c565b34801561026f57600080fd5b506100ff61027e366004611fb7565b610907565b34801561028f57600080fd5b506100ff61029e36600461201f565b6109a8565b3480156102af57600080fd5b506102c36102be366004611fb7565b610b76565b60405161014391906126a4565b836102da81610d1c565b6102ff5760405162461bcd60e51b81526004016102f6906123c0565b60405180910390fd5b816001600160a01b0381166103265760405162461bcd60e51b81526004016102f69061261d565b600086815260208190526040902060040180546001600160a01b0319166001600160a01b03851617905561035b868686610d59565b505050505050565b8061036d81610e44565b1561038a5760405162461bcd60e51b81526004016102f6906122a8565b6000828152602081905260409020600201546001600160a01b03163381146103c45760405162461bcd60e51b81526004016102f690612480565b600083815260208190526040902060010154600160801b90046001600160801b03166103ef84610e9d565b6104038483836001600160801b0316610edf565b7f5e9c7ae3229b2cda5065d7058fcc05765c695c29ce05313fbe96cb2ca639231a84336040516104349291906127b5565b60405180910390a150505050565b600254600160401b900463ffffffff1681565b600254600160601b90046001600160a01b031681565b6000818152602081905260408120600301546001600160a01b0316806104a35760405162461bcd60e51b81526004016102f69061233f565b90505b919050565b806104b581610d1c565b156104d25760405162461bcd60e51b81526004016102f690612516565b6104db8261101e565b7f3cb6ab80f3d78a04ca009e9869c4d9f4e27be13d3c443861e450ff1e40fc5bbb823360405161050c9291906127b5565b60405180910390a15050565b600254640100000000900463ffffffff1681565b60006020819052908152604090208054600182015460028301546003840154600485015460059095015463ffffffff8086169664010000000087049091169567ffffffffffffffff600160401b820416956001600160801b03600160801b92839004811696828216969390920416936001600160a01b039182169392821692821691168a565b60008881526020819052604090206003015488906001600160a01b03163314156105ee5760405162461bcd60e51b81526004016102f69061244b565b6000818152602081905260409020600301546001600160a01b0316156106cd576002546040516331a9108f60e11b8152600160601b9091046001600160a01b031690636352211e906106449084906004016127ac565b60206040518083038186803b15801561065c57600080fd5b505afa158015610670573d6000803e3d6000fd5b505050506040513d601f19601f820116820180604052508101906106949190611f7b565b6001600160a01b0316336001600160a01b0316146106c45760405162461bcd60e51b81526004016102f6906123eb565b6106cd8161114c565b866001600160801b0316600081116106f75760405162461bcd60e51b81526004016102f6906122dd565b60008a8152602081905260409020805463ffffffff87811663ffffffff19918a166401000000000267ffffffff000000001990931692909217161790556107428a8a8a8a8888611192565b50505050505050505050565b60025463ffffffff1681565b6002546040516331a9108f60e11b81523391600160601b90046001600160a01b031690636352211e906107919085906004016127ac565b60206040518083038186803b1580156107a957600080fd5b505afa1580156107bd573d6000803e3d6000fd5b505050506040513d601f19601f820116820180604052508101906107e19190611f7b565b6001600160a01b0316146108075760405162461bcd60e51b81526004016102f69061267d565b6108108161114c565b7f8bac68995ade0fea3fbfce99e614e2ca91bcbd46732ea234ea30a3246bcbb12c81336040516108419291906127b5565b60405180910390a150565b33600090815260016020526040902054806108795760405162461bcd60e51b81526004016102f69061241b565b3360008181526001602052604080822082905551909190614e2090849061089f90612228565b600060405180830381858888f193505050503d80600081146108dd576040519150601f19603f3d011682016040523d82523d6000602084013e6108e2565b606091505b50509050806109035760405162461bcd60e51b81526004016102f690612654565b5050565b60008181526020819052604090206003015481906001600160a01b031633146109425760405162461bcd60e51b81526004016102f69061236a565b61094b82611200565b6109675760405162461bcd60e51b81526004016102f69061254d565b61097082611227565b6109798261101e565b7f951998909c69503759ab614fef092cad84e66b38279d4274a4951aaa2bfbc14b8260405161050c91906127ac565b60008681526020819052604090206003015486906001600160a01b03163314156109e45760405162461bcd60e51b81526004016102f69061244b565b6000818152602081905260409020600301546001600160a01b031615610ac3576002546040516331a9108f60e11b8152600160601b9091046001600160a01b031690636352211e90610a3a9084906004016127ac565b60206040518083038186803b158015610a5257600080fd5b505afa158015610a66573d6000803e3d6000fd5b505050506040513d601f19601f82011682018060405250810190610a8a9190611f7b565b6001600160a01b0316336001600160a01b031614610aba5760405162461bcd60e51b81526004016102f6906123eb565b610ac38161114c565b846001600160801b031660008111610aed5760405162461bcd60e51b81526004016102f6906122dd565b610afb8888888888886114a1565b7fb117f9ced7ae20459ab9712f91e4695f166dddc437bfceb5fbf81474430189ff88338989898989604051610b3697969594939291906127cc565b60405180910390a1610b4788611200565b15610b6c57610b55886115f2565b15610b6c57610b6388611227565b610b6c8861101e565b5050505050505050565b610b7e611cf4565b60008281526020818152604091829020825161018081018452815463ffffffff80821683526401000000008204168285015267ffffffffffffffff600160401b820416828601526001600160801b03600160801b918290048116606084015260018401548082166080850152919091041660a082015260028201546001600160a01b0390811660c08301526003830154811660e083015260048301548116610100830152600583015416610120820152600682018054855181860281018601909652808652919492936101408601939290830182828015610c8857602002820191906000526020600020905b81546001600160a01b03168152600190910190602001808311610c6a575b5050505050815260200160078201805480602002602001604051908101604052809291908181526020018280548015610d0c57602002820191906000526020600020906000905b82829054906101000a900463ffffffff1663ffffffff1681526020019060040190602082600301049283019260010382029150808411610ccf5790505b5050505050815250509050919050565b600081815260208190526040812054600160401b900467ffffffffffffffff16801580610d5257508067ffffffffffffffff1642105b9392505050565b60008381526020819052604090206003015483906001600160a01b0316331415610d955760405162461bcd60e51b81526004016102f6906125e6565b838383610da3838383611647565b610dbf5760405162461bcd60e51b81526004016102f6906125b1565b8685610dcb82826116db565b610de75760405162461bcd60e51b81526004016102f690612308565b610df189886117ba565b7f589906d28d13d8aff8ab40eccde1d74a4434aca34bdac9812e0589fcfc6490448933348b8b604051610e289594939291906128b8565b60405180910390a1610e3989611813565b505050505050505050565b600081815260208190526040812054600160801b90046001600160801b03168015801590610d5257506000838152602081905260409020600101546001600160801b03808316600160801b909204161015915050919050565b60009081526020819052604090206002810180546001600160a01b03199081169091556001820180546001600160801b03169055600490910180549091169055565b6000838152602081905260409020600501546001600160a01b0316610f038161185b565b15610f8e5760405163a9059cbb60e01b81526001600160a01b0382169063a9059cbb90610f36908690869060040161228f565b602060405180830381600087803b158015610f5057600080fd5b505af1158015610f64573d6000803e3d6000fd5b505050506040513d601f19601f82011682018060405250810190610f889190611f97565b50611018565b6000836001600160a01b031683614e2090604051610fab90612228565b600060405180830381858888f193505050503d8060008114610fe9576040519150601f19603f3d011682016040523d82523d6000602084013e610fee565b606091505b5050905080611016576001600160a01b03841660009081526001602052604090208054840190555b505b50505050565b600081815260208190526040812060038101546002909101546001600160a01b039182169291169061104f84611869565b600085815260208190526040902060010154909150600160801b90046001600160801b031661107d85610e9d565b6110918585836001600160801b03166118b2565b6002546040516323b872dd60e01b8152600160601b9091046001600160a01b0316906323b872dd906110cb90309086908a9060040161226b565b600060405180830381600087803b1580156110e557600080fd5b505af11580156110f9573d6000803e3d6000fd5b505050506111068561114c565b7f897add4c43e2c053508f485324f74ccff203150b27bf0c5ebe137849ac92d6f8858583868660405161113d9594939291906128ef565b60405180910390a15050505050565b60009081526020819052604081206001810180546001600160801b03191690559081556003810180546001600160a01b0319908116909155600590910180549091169055565b6111a0868686868686611978565b7f889326f337fa9616608e11f378f7ad305556626b89289e15efc1be1412f8580d86338787876111cf8c611ad6565b6111d88d611b0f565b89896040516111ef99989796959493929190612835565b60405180910390a161035b86611813565b600090815260208190526040902060010154600160801b90046001600160801b0316151590565b600081815260208190526040908190206003015460025491516331a9108f60e11b81526001600160a01b03918216928392600160601b9091041690636352211e906112769086906004016127ac565b60206040518083038186803b15801561128e57600080fd5b505afa1580156112a2573d6000803e3d6000fd5b505050506040513d601f19601f820116820180604052508101906112c69190611f7b565b6001600160a01b031614156113f4576002546040516323b872dd60e01b8152600160601b9091046001600160a01b0316906323b872dd9061130f9084903090879060040161226b565b600060405180830381600087803b15801561132957600080fd5b505af115801561133d573d6000803e3d6000fd5b50506002546040516331a9108f60e11b8152309350600160601b9091046001600160a01b03169150636352211e906113799086906004016127ac565b60206040518083038186803b15801561139157600080fd5b505afa1580156113a5573d6000803e3d6000fd5b505050506040513d601f19601f820116820180604052508101906113c99190611f7b565b6001600160a01b0316146113ef5760405162461bcd60e51b81526004016102f690612393565b610903565b6002546040516331a9108f60e11b81523091600160601b90046001600160a01b031690636352211e9061142b9086906004016127ac565b60206040518083038186803b15801561144357600080fd5b505afa158015611457573d6000803e3d6000fd5b505050506040513d601f19601f8201168201806040525081019061147b9190611f7b565b6001600160a01b0316146109035760405162461bcd60e51b81526004016102f6906124e6565b815181518082146114c45760405162461bcd60e51b81526004016102f69061257a565b826000805b82518110156114f7578281815181106114de57fe5b60200260200101518201915080806001019150506114c9565b506127108163ffffffff1611156115205760405162461bcd60e51b81526004016102f6906124af565b6001600160a01b0389161561155a5760008a815260208190526040902060050180546001600160a01b0319166001600160a01b038b161790555b60008a815260208181526040909120875161157d92600690920191890190611d5a565b5060008a81526020818152604090912086516115a192600790920191880190611dbf565b50505060009788525050506020859052505060409092206001810180546001600160801b039094166001600160801b0319909416939093179092555060030180546001600160a01b03191633179055565b6000818152602081905260408120600101546001600160801b03168015801590610d5257506000838152602081905260409020600101546001600160801b03808316600160801b909204161015915050919050565b6000838152602081905260408120600501546001600160a01b031661166b8161185b565b156116ac573415801561168f5750836001600160a01b0316816001600160a01b0316145b80156116a457506000836001600160801b0316115b915050610d52565b34158015906116c257506001600160a01b038416155b80156116a4575050506001600160801b03161592915050565b6000828152602081905260408120600101546001600160801b0316801580159061172a5750806001600160801b03163410158061172a5750806001600160801b0316836001600160801b031610155b156117395760019150506117b4565b600061271061174786611b0f565b6127100163ffffffff1660008088815260200190815260200160002060010160109054906101000a90046001600160801b0316026001600160801b03168161178b57fe5b046001600160801b0316905080341015806117af575080846001600160801b031610155b925050505b92915050565b600082815260208190526040902060028101546001909101546001600160a01b0390911690600160801b90046001600160801b03166117f98484611b39565b6001600160a01b0382161561101857611018848383610edf565b61181c816115f2565b156118385761182a81611227565b6118338161101e565b611858565b61184181610e44565b156118585761184f81611227565b61185881611c62565b50565b6001600160a01b0316151590565b6000818152602081905260408120600401546001600160a01b0316806118ab5750506000818152602081905260409020600201546001600160a01b03166104a6565b90506104a6565b6000805b60008581526020819052604090206006015481101561196a576000858152602081905260408120600701805461191b918691859081106118f257fe5b6000918252602090912060088204015460079091166004026101000a900463ffffffff16611ceb565b9050808301925061196186600080898152602001908152602001600020600601848154811061194657fe5b6000918252602090912001546001600160a01b031683610edf565b506001016118b6565b506110188484838503610edf565b8151815180821461199b5760405162461bcd60e51b81526004016102f69061257a565b826000805b82518110156119ce578281815181106119b557fe5b60200260200101518201915080806001019150506119a0565b506127108163ffffffff1611156119f75760405162461bcd60e51b81526004016102f6906124af565b6001600160a01b03891615611a315760008a815260208190526040902060050180546001600160a01b0319166001600160a01b038b161790555b60008a8152602081815260409091208751611a5492600690920191890190611d5a565b5060008a8152602081815260409091208651611a7892600790920191880190611dbf565b505050600097885250505060208590525060409093206001810180546001600160801b039586166001600160801b03199091161790558054918416600160801b02919093161782555060030180546001600160a01b03191633179055565b600081815260208190526040812054640100000000900463ffffffff16806118ab575050600254600160401b900463ffffffff166104a6565b60008181526020819052604081205463ffffffff16806118ab57505060025463ffffffff166104a6565b6000828152602081905260409020600501546001600160a01b0316611b5d8161185b565b15611c13576040516323b872dd60e01b81526001600160a01b038216906323b872dd90611b929033903090879060040161223f565b602060405180830381600087803b158015611bac57600080fd5b505af1158015611bc0573d6000803e3d6000fd5b505050506040513d601f19601f82011682018060405250810190611be49190611f97565b50600083815260208190526040902060010180546001600160801b03808516600160801b029116179055611c3d565b600083815260208190526040902060010180546001600160801b03348116600160801b0291161790555b5050600090815260208190526040902060020180546001600160a01b03191633179055565b42611c6c82611ad6565b6000838152602081905260409081902080546fffffffffffffffff00000000000000001916600160401b63ffffffff949094169490940167ffffffffffffffff9081168402949094179081905590517f2c022afa2469f5dfea36bb416f03a9972a290b5572a34a4fdfe6b0048fb6b7e893610841938693041690612926565b61271091020490565b604080516101808101825260008082526020820181905291810182905260608082018390526080820183905260a0820183905260c0820183905260e082018390526101008201839052610120820192909252610140810182905261016081019190915290565b828054828255906000526020600020908101928215611daf579160200282015b82811115611daf57825182546001600160a01b0319166001600160a01b03909116178255602090920191600190910190611d7a565b50611dbb929150611e65565b5090565b82805482825590600052602060002090600701600890048101928215611daf5791602002820160005b83821115611e2c57835183826101000a81548163ffffffff021916908363ffffffff1602179055509260200192600401602081600301049283019260010302611de8565b8015611e5c5782816101000a81549063ffffffff0219169055600401602081600301049283019260010302611e2c565b5050611dbb9291505b5b80821115611dbb5760008155600101611e66565b600082601f830112611e8a578081fd5b81356020611e9f611e9a836129e7565b6129c3565b8281528181019085830183850287018401881015611ebb578586fd5b855b85811015611ee2578135611ed081612a05565b84529284019290840190600101611ebd565b5090979650505050505050565b600082601f830112611eff578081fd5b81356020611f0f611e9a836129e7565b8281528181019085830183850287018401881015611f2b578586fd5b855b85811015611ee257611f3e82611f67565b84529284019290840190600101611f2d565b80356001600160801b03811681146104a657600080fd5b803563ffffffff811681146104a657600080fd5b600060208284031215611f8c578081fd5b8151610d5281612a05565b600060208284031215611fa8578081fd5b81518015158114610d52578182fd5b600060208284031215611fc8578081fd5b5035919050565b60008060008060808587031215611fe4578283fd5b843593506020850135611ff681612a05565b925061200460408601611f50565b9150606085013561201481612a05565b939692955090935050565b60008060008060008060c08789031215612037578182fd5b86359550602087013561204981612a05565b945061205760408801611f50565b9350606087013561206781612a05565b9250608087013567ffffffffffffffff80821115612083578384fd5b61208f8a838b01611e7a565b935060a08901359150808211156120a4578283fd5b506120b189828a01611eef565b9150509295509295509295565b600080600080600080600080610100898b0312156120da578182fd5b8835975060208901356120ec81612a05565b96506120fa60408a01611f50565b955061210860608a01611f50565b945061211660808a01611f67565b935061212460a08a01611f67565b925060c089013567ffffffffffffffff80821115612140578384fd5b61214c8c838d01611e7a565b935060e08b0135915080821115612161578283fd5b5061216e8b828c01611eef565b9150509295985092959890939650565b6001600160a01b03169052565b6000815180845260208085019450808401835b838110156121c35781516001600160a01b03168752958201959082019060010161219e565b509495945050505050565b6000815180845260208085019450808401835b838110156121c357815163ffffffff16875295820195908201906001016121e1565b6001600160801b03169052565b63ffffffff169052565b67ffffffffffffffff169052565b90565b6001600160a01b0391909116815260200190565b6001600160a01b0393841681529190921660208201526001600160801b03909116604082015260600190565b6001600160a01b039384168152919092166020820152604081019190915260600190565b6001600160a01b03929092168252602082015260400190565b6020808252818101527f5468652061756374696f6e2068617320612076616c696420626964206d616465604082015260600190565b602080825260119082015270050726963652063616e6e6f74206265203607c1b604082015260600190565b6020808252601e908201527f4e6f7420656e6f7567682066756e647320746f20626964206f6e204e46540000604082015260600190565b602080825260119082015270139195081b9bdd0819195c1bdcda5d1959607a1b604082015260600190565b6020808252600f908201526e27b7363c9037333a1039b2b63632b960891b604082015260600190565b6020808252601390820152721b999d081d1c985b9cd9995c8819985a5b1959606a1b604082015260600190565b602080825260119082015270105d58dd1a5bdb881a185cc8195b991959607a1b604082015260600190565b60208082526016908201527514d95b99195c88191bd95cdb89dd081bdddb8813919560521b604082015260600190565b6020808252601690820152756e6f206372656469747320746f20776974686472617760501b604082015260600190565b6020808252818101527f41756374696f6e20616c72656164792073746172746564206279206f776e6572604082015260600190565b60208082526015908201527443616e6e6f742077697468647261772066756e647360581b604082015260600190565b6020808252601e908201527f4665652070657263656e746167657320657863656564206d6178696d756d0000604082015260600190565b60208082526016908201527514d95b1b195c88191bd95cdb89dd081bdddb8813919560521b604082015260600190565b60208082526017908201527f41756374696f6e206973206e6f7420796574206f766572000000000000000000604082015260600190565b60208082526013908201527218d85b9b9bdd081c185e5bdd5d080c08189a59606a1b604082015260600190565b60208082526019908201527f526563697069656e747320213d2070657263656e746167657300000000000000604082015260600190565b6020808252818101527f42696420746f20626520696e207370656369666965642045524332302f457468604082015260600190565b6020808252601b908201527f4f776e65722063616e6e6f7420626964206f6e206f776e204e46540000000000604082015260600190565b60208082526018908201527f43616e6e6f742073706563696679203020616464726573730000000000000000604082015260600190565b6020808252600f908201526e1dda5d1a191c985dc819985a5b1959608a1b604082015260600190565b6020808252600d908201526c2737ba1027232a1037bbb732b960991b604082015260600190565b6000602082526126b8602083018451612210565b60208301516126ca6040840182612210565b5060408301516126dd606084018261221a565b5060608301516126f06080840182612203565b50608083015161270360a0840182612203565b5060a083015161271660c0840182612203565b5060c083015161272960e084018261217e565b5060e083015161010061273e8185018361217e565b84015190506101206127528482018361217e565b84015190506101406127668482018361217e565b8085015191505061018061016081818601526127866101a086018461218b565b90860151858203601f1901838701529092506127a283826121ce565b9695505050505050565b90815260200190565b9182526001600160a01b0316602082015260400190565b8781526001600160a01b03878116602083015286811660408301526001600160801b03861660608301528416608082015260e060a082018190526000906128159083018561218b565b82810360c084015261282781856121ce565b9a9950505050505050505050565b8981526001600160a01b038981166020830152881660408201526001600160801b0387811660608301528616608082015263ffffffff85811660a0830152841660c082015261012060e082018190526000906128938382018661218b565b90508281036101008401526128a881856121ce565b9c9b505050505050505050505050565b9485526001600160a01b039384166020860152604085019290925290911660608301526001600160801b0316608082015260a00190565b9485526001600160a01b0393841660208601526001600160801b039290921660408501528216606084015216608082015260a00190565b91825267ffffffffffffffff16602082015260400190565b63ffffffff91909116815260200190565b63ffffffff9a8b16815298909916602089015267ffffffffffffffff9690961660408801526001600160801b0394851660608801529284166080870152921660a08501526001600160a01b0391821660c0850152811660e08401529081166101008301529091166101208201526101400190565b60405181810167ffffffffffffffff811182821017156129df57fe5b604052919050565b600067ffffffffffffffff8211156129fb57fe5b5060209081020190565b6001600160a01b038116811461185857600080fdfea2646970667358221220a4befaefd0461bbd1152394a3952ec1cff9c411a79ec051144e7bf7fe214934f64736f6c63430007060033",
  "immutableReferences": {},
  "source": "pragma solidity ^0.7.6;\r\npragma experimental ABIEncoderV2;\r\n\r\nimport \"@openzeppelin/contracts/token/ERC721/IERC721.sol\";\r\nimport \"@openzeppelin/contracts/token/ERC721/IERC721Receiver.sol\";\r\nimport \"@openzeppelin/contracts/token/ERC20/IERC20.sol\";\r\n\r\ncontract NFTAuction {\r\n    mapping(uint256 => Auction) public nftContractAuctions;\r\n    mapping(address => uint256) failedTransferCredits; //return the money to bidders\r\n\r\n    struct Auction {\r\n        //map token ID to\r\n        uint32 bidIncreasePercentage;\r\n        uint32 auctionBidPeriod; //Increments the length of time the auction is open in which a new bid can be made after each bid.\r\n        uint64 auctionEnd;\r\n        uint128 minPrice;\r\n        uint128 buyNowPrice;\r\n        uint128 nftHighestBid;\r\n        address nftHighestBidder;\r\n        address nftSeller;\r\n        address nftRecipient; //The bidder can specify a recipient for the NFT if their bid is successful.\r\n        address ERC20Token; // The seller can specify an ERC20 token that can be used to bid or purchase the NFT.\r\n        address[] feeRecipients;\r\n        uint32[] feePercentages;\r\n    }\r\n\r\n    //Default values that are used if not specified by the NFT seller.\r\n    uint32 public defaultBidIncreasePercentage;\r\n    uint32 public minimumSettableIncreasePercentage;\r\n    uint32 public defaultAuctionBidPeriod;\r\n\r\n    //NFT token contract address\r\n    address public _nftContractAddress;\r\n\r\n    /*\r\n                 EVENTS            \r\n      */\r\n    event NftAuctionCreated(\r\n        uint256 tokenId,\r\n        address nftSeller,\r\n        address erc20Token,\r\n        uint128 minPrice,\r\n        uint128 buyNowPrice,\r\n        uint32 auctionBidPeriod,\r\n        uint32 bidIncreasePercentage,\r\n        address[] feeRecipients,\r\n        uint32[] feePercentages\r\n    );\r\n\r\n    event NFTTransferredAndSellerPaid(\r\n        uint256 tokenId,\r\n        address nftSeller,\r\n        uint128 nftHighestBid,\r\n        address nftHighestBidder,\r\n        address nftRecipient\r\n    );\r\n\r\n    event AuctionPeriodUpdated(uint256 tokenId, uint64 auctionEndPeriod);\r\n\r\n    event SaleCreated(\r\n        uint256 tokenId,\r\n        address nftSeller,\r\n        address erc20Token,\r\n        uint128 buyNowPrice,\r\n        address whitelistedBuyer,\r\n        address[] feeRecipients,\r\n        uint32[] feePercentages\r\n    );\r\n\r\n    event BidMade(\r\n        uint256 tokenId,\r\n        address bidder,\r\n        uint256 ethAmount,\r\n        address erc20Token,\r\n        uint256 tokenAmount\r\n    );\r\n\r\n    event AuctionSettled(uint256 tokenId, address auctionSettler);\r\n\r\n    event AuctionWithdrawn(uint256 tokenId, address nftOwner);\r\n\r\n    event BidWithdrawn(uint256 tokenId, address highestBidder);\r\n\r\n    event HighestBidTaken(uint256 tokenId);\r\n\r\n    /**********************************/\r\n    /*\r\n                   END             \r\n                  EVENTS           \r\n      */\r\n    /**********************************/\r\n\r\n    /*\r\n                MODIFIERS          \r\n      */\r\n    modifier isAuctionNotStartedByOwner(uint256 _tokenId) {\r\n        require(\r\n            nftContractAuctions[_tokenId].nftSeller != msg.sender,\r\n            \"Auction already started by owner\"\r\n        );\r\n\r\n        if (nftContractAuctions[_tokenId].nftSeller != address(0)) {\r\n            require(\r\n                msg.sender == IERC721(_nftContractAddress).ownerOf(_tokenId),\r\n                \"Sender doesn't own NFT\"\r\n            );\r\n\r\n            _resetAuction(_tokenId);\r\n        }\r\n        _;\r\n    }\r\n\r\n    modifier auctionOngoing(uint256 _tokenId) {\r\n        require(_isAuctionOngoing(_tokenId), \"Auction has ended\");\r\n        _;\r\n    }\r\n\r\n    modifier priceGreaterThanZero(uint256 _price) {\r\n        require(_price > 0, \"Price cannot be 0\");\r\n        _;\r\n    }\r\n\r\n    modifier notNftSeller(uint256 _tokenId) {\r\n        require(\r\n            msg.sender != nftContractAuctions[_tokenId].nftSeller,\r\n            \"Owner cannot bid on own NFT\"\r\n        );\r\n        _;\r\n    }\r\n\r\n    modifier onlyNftSeller(uint256 _tokenId) {\r\n        require(\r\n            msg.sender == nftContractAuctions[_tokenId].nftSeller,\r\n            \"Only nft seller\"\r\n        );\r\n        _;\r\n    }\r\n\r\n    modifier bidAmountMeetsBidRequirements(\r\n        uint256 _tokenId,\r\n        uint128 _tokenAmount\r\n    ) {\r\n        require(\r\n            _doesBidMeetBidRequirements(_tokenId, _tokenAmount),\r\n            \"Not enough funds to bid on NFT\"\r\n        );\r\n        _;\r\n    }\r\n\r\n    /*\r\n     * Payment is accepted if the payment is made in the ERC20 token or ETH specified by the seller.\r\n     * Early bids on NFTs not yet up for auction must be made in ETH.\r\n     */\r\n    modifier paymentAccepted(\r\n        uint256 _tokenId,\r\n        address _erc20Token,\r\n        uint128 _tokenAmount\r\n    ) {\r\n        require(\r\n            _isPaymentAccepted(_tokenId, _erc20Token, _tokenAmount),\r\n            \"Bid to be in specified ERC20/Eth\"\r\n        );\r\n        _;\r\n    }\r\n\r\n    modifier isAuctionOver(uint256 _tokenId) {\r\n        require(!_isAuctionOngoing(_tokenId), \"Auction is not yet over\");\r\n        _;\r\n    }\r\n\r\n    modifier notZeroAddress(address _address) {\r\n        require(_address != address(0), \"Cannot specify 0 address\");\r\n        _;\r\n    }\r\n\r\n    modifier isFeePercentagesLessThanMaximum(uint32[] memory _feePercentages) {\r\n        uint32 totalPercent;\r\n        for (uint256 i = 0; i < _feePercentages.length; i++) {\r\n            totalPercent = totalPercent + _feePercentages[i];\r\n        }\r\n        require(totalPercent <= 10000, \"Fee percentages exceed maximum\");\r\n        _;\r\n    }\r\n\r\n    modifier correctFeeRecipientsAndPercentages(\r\n        uint256 _recipientsLength,\r\n        uint256 _percentagesLength\r\n    ) {\r\n        require(\r\n            _recipientsLength == _percentagesLength,\r\n            \"Recipients != percentages\"\r\n        );\r\n        _;\r\n    }\r\n\r\n    modifier isNotASale(uint256 _tokenId) {\r\n        require(!_isASale(_tokenId), \"Not applicable for a sale\");\r\n        _;\r\n    }\r\n\r\n    modifier minimumBidNotMade(uint256 _tokenId) {\r\n        require(\r\n            !_isMinimumBidMade(_tokenId),\r\n            \"The auction has a valid bid made\"\r\n        );\r\n        _;\r\n    }\r\n\r\n    // constructor\r\n    constructor(address nftContractAddress) {\r\n        defaultBidIncreasePercentage = 100;\r\n        defaultAuctionBidPeriod = 86400; //1 day\r\n        minimumSettableIncreasePercentage = 100;\r\n        _nftContractAddress = nftContractAddress;\r\n    }\r\n\r\n    /*\r\n          AUCTION CHECK FUNCTIONS   \r\n      */\r\n    function _isAuctionOngoing(uint256 _tokenId) internal view returns (bool) {\r\n        uint64 auctionEndTimestamp = nftContractAuctions[_tokenId].auctionEnd;\r\n        //if the auctionEnd is set to 0, the auction is technically on-going, however\r\n        //the minimum bid price (minPrice) has not yet been met.\r\n        return (auctionEndTimestamp == 0 ||\r\n            block.timestamp < auctionEndTimestamp);\r\n    }\r\n\r\n    /*\r\n     * Check that a bid is applicable for the purchase of the NFT.\r\n     * In the case of a sale: the bid needs to meet the buyNowPrice.\r\n     * In the case of an auction: the bid needs to be a % higher than the previous bid.\r\n     */\r\n    function _doesBidMeetBidRequirements(uint256 _tokenId, uint128 _tokenAmount)\r\n        internal\r\n        view\r\n        returns (bool)\r\n    {\r\n        uint128 buyNowPrice = nftContractAuctions[_tokenId].buyNowPrice;\r\n        //if buyNowPrice is met, ignore increase percentage\r\n        if (\r\n            buyNowPrice > 0 &&\r\n            (msg.value >= buyNowPrice || _tokenAmount >= buyNowPrice)\r\n        ) {\r\n            return true;\r\n        }\r\n        //if the NFT is up for auction, the bid needs to be a % higher than the previous bid\r\n        uint256 bidIncreaseAmount = (nftContractAuctions[_tokenId]\r\n            .nftHighestBid * (10000 + _getBidIncreasePercentage(_tokenId))) /\r\n            10000;\r\n        return (msg.value >= bidIncreaseAmount ||\r\n            _tokenAmount >= bidIncreaseAmount);\r\n    }\r\n\r\n    /**\r\n     * Payment is accepted in the following scenarios:\r\n     * (1) Auction already created - can accept ETH or Specified Token\r\n     *  --------> Cannot bid with ETH & an ERC20 Token together in any circumstance<------\r\n     * (2) Auction not created - only ETH accepted (cannot early bid with an ERC20 Token\r\n     * (3) Cannot make a zero bid (no ETH or Token amount)\r\n     */\r\n    function _isPaymentAccepted(\r\n        uint256 _tokenId,\r\n        address _bidERC20Token,\r\n        uint128 _tokenAmount\r\n    ) internal view returns (bool) {\r\n        address auctionERC20Token = nftContractAuctions[_tokenId].ERC20Token;\r\n        if (_isERC20Auction(auctionERC20Token)) {\r\n            return\r\n                msg.value == 0 &&\r\n                auctionERC20Token == _bidERC20Token &&\r\n                _tokenAmount > 0;\r\n        } else {\r\n            return\r\n                msg.value != 0 &&\r\n                _bidERC20Token == address(0) &&\r\n                _tokenAmount == 0;\r\n        }\r\n    }\r\n\r\n    function _isERC20Auction(address _auctionERC20Token)\r\n        internal\r\n        pure\r\n        returns (bool)\r\n    {\r\n        return _auctionERC20Token != address(0);\r\n    }\r\n\r\n    /*\r\n     * An NFT is up for sale if the buyNowPrice is set, but the minPrice is not set.\r\n     * Therefore the only way to conclude the NFT sale is to meet the buyNowPrice.\r\n     */\r\n    function _isASale(uint256 _tokenId) internal view returns (bool) {\r\n        return (nftContractAuctions[_tokenId].buyNowPrice > 0 &&\r\n            nftContractAuctions[_tokenId].minPrice == 0);\r\n    }\r\n\r\n    /*\r\n     * If the buy now price is set by the seller, check that the highest bid meets that price.\r\n     */\r\n    function _isBuyNowPriceMet(uint256 _tokenId) internal view returns (bool) {\r\n        uint128 buyNowPrice = nftContractAuctions[_tokenId].buyNowPrice;\r\n        return\r\n            buyNowPrice > 0 &&\r\n            nftContractAuctions[_tokenId].nftHighestBid >= buyNowPrice;\r\n    }\r\n\r\n    /*\r\n     * Returns the percentage of the total bid (used to calculate fee payments)\r\n     */\r\n    function _getPortionOfBid(uint256 _totalBid, uint256 _percentage)\r\n        internal\r\n        pure\r\n        returns (uint256)\r\n    {\r\n        return (_totalBid * (_percentage)) / 10000;\r\n    }\r\n\r\n    /*\r\n     *if the minPrice is set by the seller, check that the highest bid meets or exceeds that price.\r\n     */\r\n    function _isMinimumBidMade(uint256 _tokenId) internal view returns (bool) {\r\n        uint128 minPrice = nftContractAuctions[_tokenId].minPrice;\r\n        return\r\n            minPrice > 0 &&\r\n            (nftContractAuctions[_tokenId].nftHighestBid >= minPrice);\r\n    }\r\n\r\n    /*\r\n     * Check if a bid has been made. This is applicable in the early bid scenario\r\n     * to ensure that if an auction is created after an early bid, the auction\r\n     * begins appropriately or is settled if the buy now price is met.\r\n     */\r\n    function _isABidMade(uint256 _tokenId) internal view returns (bool) {\r\n        return (nftContractAuctions[_tokenId].nftHighestBid > 0);\r\n    }\r\n\r\n    /**********************************/\r\n    /*\r\n                   END              \r\n          AUCTION CHECK FUNCTIONS   \r\n      */\r\n    /**********************************/\r\n    /*\r\n          DEFAULT GETTER FUNCTIONS  \r\n      */\r\n    /*****************************************************************\r\n     * These functions check if the applicable auction parameter has *\r\n     * been set by the NFT seller. If not, return the default value. *\r\n     *****************************************************************/\r\n\r\n    function _getBidIncreasePercentage(uint256 _tokenId)\r\n        internal\r\n        view\r\n        returns (uint32)\r\n    {\r\n        uint32 bidIncreasePercentage = nftContractAuctions[_tokenId]\r\n            .bidIncreasePercentage;\r\n\r\n        if (bidIncreasePercentage == 0) {\r\n            return defaultBidIncreasePercentage;\r\n        } else {\r\n            return bidIncreasePercentage;\r\n        }\r\n    }\r\n\r\n    function _getAuctionBidPeriod(uint256 _tokenId)\r\n        internal\r\n        view\r\n        returns (uint32)\r\n    {\r\n        uint32 auctionBidPeriod = nftContractAuctions[_tokenId]\r\n            .auctionBidPeriod;\r\n\r\n        if (auctionBidPeriod == 0) {\r\n            return defaultAuctionBidPeriod;\r\n        } else {\r\n            return auctionBidPeriod;\r\n        }\r\n    }\r\n\r\n    /*\r\n     * The default value for the NFT recipient is the highest bidder\r\n     */\r\n    function _getNftRecipient(uint256 _tokenId)\r\n        internal\r\n        view\r\n        returns (address)\r\n    {\r\n        address nftRecipient = nftContractAuctions[_tokenId].nftRecipient;\r\n\r\n        if (nftRecipient == address(0)) {\r\n            return nftContractAuctions[_tokenId].nftHighestBidder;\r\n        } else {\r\n            return nftRecipient;\r\n        }\r\n    }\r\n\r\n    /**********************************/\r\n    /*\r\n                   END              \r\n          DEFAULT GETTER FUNCTIONS  \r\n      */\r\n    /**********************************/\r\n\r\n    /*\r\n        TRANSFER NFTS TO CONTRACT   \r\n      */\r\n\r\n    function _transferNftToAuctionContract(uint256 _tokenId) internal {\r\n        address _nftSeller = nftContractAuctions[_tokenId].nftSeller;\r\n        if (IERC721(_nftContractAddress).ownerOf(_tokenId) == _nftSeller) {\r\n            IERC721(_nftContractAddress).transferFrom(\r\n                _nftSeller,\r\n                address(this),\r\n                _tokenId\r\n            );\r\n            require(\r\n                IERC721(_nftContractAddress).ownerOf(_tokenId) == address(this),\r\n                \"nft transfer failed\"\r\n            );\r\n        } else {\r\n            require(\r\n                IERC721(_nftContractAddress).ownerOf(_tokenId) == address(this),\r\n                \"Seller doesn't own NFT\"\r\n            );\r\n        }\r\n    }\r\n\r\n    /**********************************/\r\n    /*\r\n                   END              \r\n        TRANSFER NFTS TO CONTRACT   \r\n      */\r\n    /**********************************/\r\n\r\n    /*\r\n             AUCTION CREATION       \r\n      */\r\n\r\n    /**\r\n     * Setup parameters applicable to all auctions and whitelised sales:\r\n     * -> ERC20 Token for payment (if specified by the seller) : _erc20Token\r\n     * -> minimum price : _minPrice\r\n     * -> buy now price : _buyNowPrice\r\n     * -> the nft seller: msg.sender\r\n     * -> The fee recipients & their respective percentages for a sucessful auction/sale\r\n     */\r\n    function _setupAuction(\r\n        uint256 _tokenId,\r\n        address _erc20Token,\r\n        uint128 _minPrice,\r\n        uint128 _buyNowPrice,\r\n        address[] memory _feeRecipients,\r\n        uint32[] memory _feePercentages\r\n    )\r\n        internal\r\n        correctFeeRecipientsAndPercentages(\r\n            _feeRecipients.length,\r\n            _feePercentages.length\r\n        )\r\n        isFeePercentagesLessThanMaximum(_feePercentages)\r\n    {\r\n        if (_erc20Token != address(0)) {\r\n            nftContractAuctions[_tokenId].ERC20Token = _erc20Token;\r\n        }\r\n        nftContractAuctions[_tokenId].feeRecipients = _feeRecipients;\r\n        nftContractAuctions[_tokenId].feePercentages = _feePercentages;\r\n        nftContractAuctions[_tokenId].buyNowPrice = _buyNowPrice;\r\n        nftContractAuctions[_tokenId].minPrice = _minPrice;\r\n        nftContractAuctions[_tokenId].nftSeller = msg.sender;\r\n    }\r\n\r\n    function _createNewNftAuction(\r\n        uint256 _tokenId,\r\n        address _erc20Token,\r\n        uint128 _minPrice,\r\n        uint128 _buyNowPrice,\r\n        address[] memory _feeRecipients,\r\n        uint32[] memory _feePercentages\r\n    ) internal {\r\n        // Sending the NFT to this contract\r\n        _setupAuction(\r\n            _tokenId,\r\n            _erc20Token,\r\n            _minPrice,\r\n            _buyNowPrice,\r\n            _feeRecipients,\r\n            _feePercentages\r\n        );\r\n        emit NftAuctionCreated(\r\n            _tokenId,\r\n            msg.sender,\r\n            _erc20Token,\r\n            _minPrice,\r\n            _buyNowPrice,\r\n            _getAuctionBidPeriod(_tokenId),\r\n            _getBidIncreasePercentage(_tokenId),\r\n            _feeRecipients,\r\n            _feePercentages\r\n        );\r\n        _updateOngoingAuction(_tokenId);\r\n    }\r\n\r\n    function createNewNftAuction(\r\n        uint256 _tokenId,\r\n        address _erc20Token,\r\n        uint128 _minPrice,\r\n        uint128 _buyNowPrice,\r\n        uint32 _auctionBidPeriod, //this is the time that the auction lasts until another bid occurs\r\n        uint32 _bidIncreasePercentage,\r\n        address[] memory _feeRecipients,\r\n        uint32[] memory _feePercentages\r\n    )\r\n        external\r\n        isAuctionNotStartedByOwner(_tokenId)\r\n        priceGreaterThanZero(_minPrice)\r\n    {\r\n        nftContractAuctions[_tokenId].auctionBidPeriod = _auctionBidPeriod;\r\n        nftContractAuctions[_tokenId]\r\n            .bidIncreasePercentage = _bidIncreasePercentage;\r\n        _createNewNftAuction(\r\n            _tokenId,\r\n            _erc20Token,\r\n            _minPrice,\r\n            _buyNowPrice,\r\n            _feeRecipients,\r\n            _feePercentages\r\n        );\r\n    }\r\n\r\n    /**********************************/\r\n    /*\r\n                   END              \r\n             AUCTION CREATION       \r\n      */\r\n    /**********************************/\r\n\r\n    /*\r\n                  SALES             \r\n      */\r\n\r\n    /********************************************************************\r\n     * Allows for a standard sale mechanism where the NFT seller can    *\r\n     * can select an address to be whitelisted. This address is then    *\r\n     * allowed to make a bid on the NFT. No other address can bid on    *\r\n     * the NFT.                                                         *\r\n     ********************************************************************/\r\n    function _setupSale(\r\n        uint256 _tokenId,\r\n        address _erc20Token,\r\n        uint128 _buyNowPrice,\r\n        address _whitelistedBuyer,\r\n        address[] memory _feeRecipients,\r\n        uint32[] memory _feePercentages\r\n    )\r\n        internal\r\n        correctFeeRecipientsAndPercentages(\r\n            _feeRecipients.length,\r\n            _feePercentages.length\r\n        )\r\n        isFeePercentagesLessThanMaximum(_feePercentages)\r\n    {\r\n        if (_erc20Token != address(0)) {\r\n            nftContractAuctions[_tokenId].ERC20Token = _erc20Token;\r\n        }\r\n        nftContractAuctions[_tokenId].feeRecipients = _feeRecipients;\r\n        nftContractAuctions[_tokenId].feePercentages = _feePercentages;\r\n        nftContractAuctions[_tokenId].buyNowPrice = _buyNowPrice;\r\n        nftContractAuctions[_tokenId].nftSeller = msg.sender;\r\n    }\r\n\r\n    function createSale(\r\n        uint256 _tokenId,\r\n        address _erc20Token,\r\n        uint128 _buyNowPrice,\r\n        address _whitelistedBuyer,\r\n        address[] memory _feeRecipients,\r\n        uint32[] memory _feePercentages\r\n    )\r\n        external\r\n        isAuctionNotStartedByOwner(_tokenId)\r\n        priceGreaterThanZero(_buyNowPrice)\r\n    {\r\n        //min price = 0\r\n        _setupSale(\r\n            _tokenId,\r\n            _erc20Token,\r\n            _buyNowPrice,\r\n            _whitelistedBuyer,\r\n            _feeRecipients,\r\n            _feePercentages\r\n        );\r\n\r\n        emit SaleCreated(\r\n            _tokenId,\r\n            msg.sender,\r\n            _erc20Token,\r\n            _buyNowPrice,\r\n            _whitelistedBuyer,\r\n            _feeRecipients,\r\n            _feePercentages\r\n        );\r\n        //check if buyNowPrice is meet and conclude sale, otherwise reverse the early bid\r\n        if (_isABidMade(_tokenId)) {\r\n            if (_isBuyNowPriceMet(_tokenId)) {\r\n                _transferNftToAuctionContract(_tokenId);\r\n                _transferNftAndPaySeller(_tokenId);\r\n            }\r\n        }\r\n    }\r\n\r\n    /**********************************/\r\n    /*\r\n                   END              \r\n                  SALES             \r\n      */\r\n    /**********************************/\r\n\r\n    /*\r\n              BID FUNCTIONS        \r\n      */\r\n\r\n    /********************************************************************\r\n     * Make bids with ETH or an ERC20 Token specified by the NFT seller.*\r\n     * Additionally, a buyer can pay the asking price to conclude a sale*\r\n     * of an NFT.                                                      *\r\n     ********************************************************************/\r\n\r\n    function _makeBid(\r\n        uint256 _tokenId,\r\n        address _erc20Token,\r\n        uint128 _tokenAmount\r\n    )\r\n        internal\r\n        notNftSeller(_tokenId)\r\n        paymentAccepted(_tokenId, _erc20Token, _tokenAmount)\r\n        bidAmountMeetsBidRequirements(_tokenId, _tokenAmount)\r\n    {\r\n        _reversePreviousBidAndUpdateHighestBid(_tokenId, _tokenAmount);\r\n        emit BidMade(\r\n            _tokenId,\r\n            msg.sender,\r\n            msg.value,\r\n            _erc20Token,\r\n            _tokenAmount\r\n        );\r\n        _updateOngoingAuction(_tokenId);\r\n    }\r\n\r\n    function makeCustomBid(\r\n        uint256 _tokenId,\r\n        address _erc20Token,\r\n        uint128 _tokenAmount,\r\n        address _nftRecipient\r\n    ) external payable auctionOngoing(_tokenId) notZeroAddress(_nftRecipient) {\r\n        nftContractAuctions[_tokenId].nftRecipient = _nftRecipient;\r\n        _makeBid(_tokenId, _erc20Token, _tokenAmount);\r\n    }\r\n\r\n    /**********************************/\r\n    /*\r\n                   END              \r\n              BID FUNCTIONS         \r\n      */\r\n    /**********************************/\r\n\r\n    /*\r\n             UPDATE AUCTION         \r\n      */\r\n\r\n    /***************************************************************\r\n     * Settle an auction or sale if the buyNowPrice is met or set  *\r\n     *  auction period to begin if the minimum price has been met. *\r\n     ***************************************************************/\r\n    function _updateOngoingAuction(uint256 _tokenId) internal {\r\n        if (_isBuyNowPriceMet(_tokenId)) {\r\n            _transferNftToAuctionContract(_tokenId);\r\n            _transferNftAndPaySeller(_tokenId);\r\n            return;\r\n        }\r\n        //min price not set, nft not up for auction yet\r\n        if (_isMinimumBidMade(_tokenId)) {\r\n            _transferNftToAuctionContract(_tokenId);\r\n            _updateAuctionEnd(_tokenId);\r\n        }\r\n    }\r\n\r\n    function _updateAuctionEnd(uint256 _tokenId) internal {\r\n        //the auction end is always set to now + the bid period\r\n        nftContractAuctions[_tokenId].auctionEnd =\r\n            _getAuctionBidPeriod(_tokenId) +\r\n            uint64(block.timestamp);\r\n        emit AuctionPeriodUpdated(\r\n            _tokenId,\r\n            nftContractAuctions[_tokenId].auctionEnd\r\n        );\r\n    }\r\n\r\n    /**********************************/\r\n    /*\r\n                   END              \r\n             UPDATE AUCTION         \r\n      */\r\n    /**********************************/\r\n\r\n    /*\r\n             RESET FUNCTIONS        \r\n      */\r\n\r\n    /*\r\n     * Reset all auction related parameters for an NFT.\r\n     * This effectively removes an EFT as an item up for auction\r\n     */\r\n    function _resetAuction(uint256 _tokenId) internal {\r\n        nftContractAuctions[_tokenId].minPrice = 0;\r\n        nftContractAuctions[_tokenId].buyNowPrice = 0;\r\n        nftContractAuctions[_tokenId].auctionEnd = 0;\r\n        nftContractAuctions[_tokenId].auctionBidPeriod = 0;\r\n        nftContractAuctions[_tokenId].bidIncreasePercentage = 0;\r\n        nftContractAuctions[_tokenId].nftSeller = address(0);\r\n        nftContractAuctions[_tokenId].ERC20Token = address(0);\r\n    }\r\n\r\n    function _resetBids(uint256 _tokenId) internal {\r\n        nftContractAuctions[_tokenId].nftHighestBidder = address(0);\r\n        nftContractAuctions[_tokenId].nftHighestBid = 0;\r\n        nftContractAuctions[_tokenId].nftRecipient = address(0);\r\n    }\r\n\r\n    /**********************************/\r\n    /*\r\n                   END              \r\n             RESET FUNCTIONS        \r\n      */\r\n    /**********************************/\r\n\r\n    /*\r\n               UPDATE BIDS          \r\n      */\r\n    /******************************************************************\r\n     * Internal functions that update bid parameters and reverse bids *\r\n     * to ensure contract only holds the highest bid.                 *\r\n     ******************************************************************/\r\n    function _updateHighestBid(uint256 _tokenId, uint128 _tokenAmount)\r\n        internal\r\n    {\r\n        address auctionERC20Token = nftContractAuctions[_tokenId].ERC20Token;\r\n        if (_isERC20Auction(auctionERC20Token)) {\r\n            IERC20(auctionERC20Token).transferFrom(\r\n                msg.sender,\r\n                address(this),\r\n                _tokenAmount\r\n            );\r\n            nftContractAuctions[_tokenId].nftHighestBid = _tokenAmount;\r\n        } else {\r\n            nftContractAuctions[_tokenId].nftHighestBid = uint128(msg.value);\r\n        }\r\n        nftContractAuctions[_tokenId].nftHighestBidder = msg.sender;\r\n    }\r\n\r\n    function _reversePreviousBidAndUpdateHighestBid(\r\n        uint256 _tokenId,\r\n        uint128 _tokenAmount\r\n    ) internal {\r\n        address prevNftHighestBidder = nftContractAuctions[_tokenId]\r\n            .nftHighestBidder;\r\n\r\n        uint256 prevNftHighestBid = nftContractAuctions[_tokenId].nftHighestBid;\r\n        _updateHighestBid(_tokenId, _tokenAmount);\r\n\r\n        if (prevNftHighestBidder != address(0)) {\r\n            _payout(_tokenId, prevNftHighestBidder, prevNftHighestBid);\r\n        }\r\n    }\r\n\r\n    /**********************************/\r\n    /*\r\n                   END              \r\n               UPDATE BIDS          \r\n      */\r\n    /**********************************/\r\n\r\n    /*\r\n        TRANSFER NFT & PAY SELLER   \r\n      */\r\n    function _transferNftAndPaySeller(uint256 _tokenId) internal {\r\n        address _nftSeller = nftContractAuctions[_tokenId].nftSeller;\r\n        address _nftHighestBidder = nftContractAuctions[_tokenId]\r\n            .nftHighestBidder;\r\n        address _nftRecipient = _getNftRecipient(_tokenId);\r\n        uint128 _nftHighestBid = nftContractAuctions[_tokenId].nftHighestBid;\r\n        _resetBids(_tokenId);\r\n\r\n        _payFeesAndSeller(_tokenId, _nftSeller, _nftHighestBid);\r\n        IERC721(_nftContractAddress).transferFrom(\r\n            address(this),\r\n            _nftRecipient,\r\n            _tokenId\r\n        );\r\n\r\n        _resetAuction(_tokenId);\r\n        emit NFTTransferredAndSellerPaid(\r\n            _tokenId,\r\n            _nftSeller,\r\n            _nftHighestBid,\r\n            _nftHighestBidder,\r\n            _nftRecipient\r\n        );\r\n    }\r\n\r\n    function _payFeesAndSeller(\r\n        uint256 _tokenId,\r\n        address _nftSeller,\r\n        uint256 _highestBid\r\n    ) internal {\r\n        uint256 feesPaid;\r\n        for (\r\n            uint256 i = 0;\r\n            i < nftContractAuctions[_tokenId].feeRecipients.length;\r\n            i++\r\n        ) {\r\n            uint256 fee = _getPortionOfBid(\r\n                _highestBid,\r\n                nftContractAuctions[_tokenId].feePercentages[i]\r\n            );\r\n            feesPaid = feesPaid + fee;\r\n            _payout(\r\n                _tokenId,\r\n                nftContractAuctions[_tokenId].feeRecipients[i],\r\n                fee\r\n            );\r\n        }\r\n        _payout(_tokenId, _nftSeller, (_highestBid - feesPaid));\r\n    }\r\n\r\n    function _payout(\r\n        uint256 _tokenId,\r\n        address _recipient,\r\n        uint256 _amount\r\n    ) internal {\r\n        address auctionERC20Token = nftContractAuctions[_tokenId].ERC20Token;\r\n        if (_isERC20Auction(auctionERC20Token)) {\r\n            IERC20(auctionERC20Token).transfer(_recipient, _amount);\r\n        } else {\r\n            // attempt to send the funds to the recipient\r\n            (bool success, ) = payable(_recipient).call{\r\n                value: _amount,\r\n                gas: 20000\r\n            }(\"\");\r\n            // if it failed, update their credit balance so they can pull it later\r\n            if (!success) {\r\n                failedTransferCredits[_recipient] =\r\n                    failedTransferCredits[_recipient] +\r\n                    _amount;\r\n            }\r\n        }\r\n    }\r\n\r\n    /**********************************/\r\n    /*\r\n                   END              \r\n        TRANSFER NFT & PAY SELLER   \r\n      */\r\n    /**********************************/\r\n\r\n    /*\r\n            SETTLE & WITHDRAW       \r\n      */\r\n\r\n    function settleAuction(uint256 _tokenId) external isAuctionOver(_tokenId) {\r\n        _transferNftAndPaySeller(_tokenId);\r\n        emit AuctionSettled(_tokenId, msg.sender);\r\n    }\r\n\r\n    function withdrawAuction(uint256 _tokenId) external {\r\n        //only the NFT owner can prematurely close and auction\r\n        require(\r\n            IERC721(_nftContractAddress).ownerOf(_tokenId) == msg.sender,\r\n            \"Not NFT owner\"\r\n        );\r\n        _resetAuction(_tokenId);\r\n        emit AuctionWithdrawn(_tokenId, msg.sender);\r\n    }\r\n\r\n    function withdrawBid(uint256 _tokenId)\r\n        external\r\n        minimumBidNotMade(_tokenId)\r\n    {\r\n        address nftHighestBidder = nftContractAuctions[_tokenId]\r\n            .nftHighestBidder;\r\n        require(msg.sender == nftHighestBidder, \"Cannot withdraw funds\");\r\n\r\n        uint128 nftHighestBid = nftContractAuctions[_tokenId].nftHighestBid;\r\n        _resetBids(_tokenId);\r\n\r\n        _payout(_tokenId, nftHighestBidder, nftHighestBid);\r\n\r\n        emit BidWithdrawn(_tokenId, msg.sender);\r\n    }\r\n\r\n    /**********************************/\r\n    /*\r\n                   END              \r\n            SETTLE & WITHDRAW       \r\n      */\r\n    /**********************************/\r\n\r\n    /*\r\n             UPDATE AUCTION         \r\n      */\r\n\r\n    /*\r\n     * The NFT seller can opt to end an auction by taking the current highest bid.\r\n     */\r\n    function takeHighestBid(uint256 _tokenId) external onlyNftSeller(_tokenId) {\r\n        require(_isABidMade(_tokenId), \"cannot payout 0 bid\");\r\n        _transferNftToAuctionContract(_tokenId);\r\n        _transferNftAndPaySeller(_tokenId);\r\n        emit HighestBidTaken(_tokenId);\r\n    }\r\n\r\n    /*\r\n     * Query the owner of an NFT deposited for auction\r\n     */\r\n    function ownerOfNFT(uint256 _tokenId) external view returns (address) {\r\n        address nftSeller = nftContractAuctions[_tokenId].nftSeller;\r\n        require(nftSeller != address(0), \"NFT not deposited\");\r\n\r\n        return nftSeller;\r\n    }\r\n\r\n    /*\r\n     * If the transfer of a bid has failed, allow the recipient to reclaim their amount later.\r\n     */\r\n    function withdrawAllFailedCredits() external {\r\n        uint256 amount = failedTransferCredits[msg.sender];\r\n\r\n        require(amount != 0, \"no credits to withdraw\");\r\n\r\n        failedTransferCredits[msg.sender] = 0;\r\n\r\n        (bool successfulWithdraw, ) = msg.sender.call{\r\n            value: amount,\r\n            gas: 20000\r\n        }(\"\");\r\n        require(successfulWithdraw, \"withdraw failed\");\r\n    }\r\n\r\n    /**********************************/\r\n    /*\r\n                   END              \r\n             UPDATE AUCTION         \r\n      */\r\n    /**********************************/\r\n\r\n    /*\r\n                 Get Info           \r\n      */\r\n      function getAuctionInfo(uint256 tokenId)\r\n        public\r\n        view\r\n        returns (Auction memory)\r\n    {\r\n        return nftContractAuctions[tokenId];\r\n    }\r\n}\r\n",
  "sourcePath": "D:\\job\\NFT\\test\\new-contract\\contracts\\Auction.sol",
  "compiler": {
    "name": "solc",
    "version": "0.7.6+commit.7338295f.Emscripten.clang"
  },
  "schemaVersion": "3.4.3",
  "updatedAt": "2022-03-01T15:20:33.520Z",
  "devdoc": {
    "kind": "dev",
    "methods": {},
    "version": 1
  },
  "userdoc": {
    "kind": "user",
    "methods": {},
    "version": 1
  }
}