{
  "contractName": "NFTAuction",
  "abi": [
    {
      "inputs": [
        {
          "internalType": "address",
          "name": "nftContractAddress",
          "type": "address"
        }
      ],
      "stateMutability": "nonpayable",
      "type": "constructor"
    },
    {
      "anonymous": false,
      "inputs": [
        {
          "indexed": false,
          "internalType": "uint256",
          "name": "tokenId",
          "type": "uint256"
        },
        {
          "indexed": false,
          "internalType": "uint64",
          "name": "auctionEndPeriod",
          "type": "uint64"
        }
      ],
      "name": "AuctionPeriodUpdated",
      "type": "event"
    },
    {
      "anonymous": false,
      "inputs": [
        {
          "indexed": false,
          "internalType": "uint256",
          "name": "tokenId",
          "type": "uint256"
        },
        {
          "indexed": false,
          "internalType": "address",
          "name": "auctionSettler",
          "type": "address"
        }
      ],
      "name": "AuctionSettled",
      "type": "event"
    },
    {
      "anonymous": false,
      "inputs": [
        {
          "indexed": false,
          "internalType": "uint256",
          "name": "tokenId",
          "type": "uint256"
        },
        {
          "indexed": false,
          "internalType": "address",
          "name": "nftOwner",
          "type": "address"
        }
      ],
      "name": "AuctionWithdrawn",
      "type": "event"
    },
    {
      "anonymous": false,
      "inputs": [
        {
          "indexed": false,
          "internalType": "uint256",
          "name": "tokenId",
          "type": "uint256"
        },
        {
          "indexed": false,
          "internalType": "address",
          "name": "bidder",
          "type": "address"
        },
        {
          "indexed": false,
          "internalType": "uint256",
          "name": "ethAmount",
          "type": "uint256"
        },
        {
          "indexed": false,
          "internalType": "address",
          "name": "erc20Token",
          "type": "address"
        },
        {
          "indexed": false,
          "internalType": "uint256",
          "name": "tokenAmount",
          "type": "uint256"
        }
      ],
      "name": "BidMade",
      "type": "event"
    },
    {
      "anonymous": false,
      "inputs": [
        {
          "indexed": false,
          "internalType": "uint256",
          "name": "tokenId",
          "type": "uint256"
        },
        {
          "indexed": false,
          "internalType": "address",
          "name": "highestBidder",
          "type": "address"
        }
      ],
      "name": "BidWithdrawn",
      "type": "event"
    },
    {
      "anonymous": false,
      "inputs": [
        {
          "indexed": false,
          "internalType": "uint256",
          "name": "tokenId",
          "type": "uint256"
        }
      ],
      "name": "HighestBidTaken",
      "type": "event"
    },
    {
      "anonymous": false,
      "inputs": [
        {
          "indexed": false,
          "internalType": "uint256",
          "name": "tokenId",
          "type": "uint256"
        },
        {
          "indexed": false,
          "internalType": "address",
          "name": "nftSeller",
          "type": "address"
        },
        {
          "indexed": false,
          "internalType": "uint128",
          "name": "nftHighestBid",
          "type": "uint128"
        },
        {
          "indexed": false,
          "internalType": "address",
          "name": "nftHighestBidder",
          "type": "address"
        },
        {
          "indexed": false,
          "internalType": "address",
          "name": "nftRecipient",
          "type": "address"
        }
      ],
      "name": "NFTTransferredAndSellerPaid",
      "type": "event"
    },
    {
      "anonymous": false,
      "inputs": [
        {
          "indexed": false,
          "internalType": "uint256",
          "name": "tokenId",
          "type": "uint256"
        },
        {
          "indexed": false,
          "internalType": "address",
          "name": "nftSeller",
          "type": "address"
        },
        {
          "indexed": false,
          "internalType": "address",
          "name": "erc20Token",
          "type": "address"
        },
        {
          "indexed": false,
          "internalType": "uint128",
          "name": "minPrice",
          "type": "uint128"
        },
        {
          "indexed": false,
          "internalType": "uint128",
          "name": "buyNowPrice",
          "type": "uint128"
        },
        {
          "indexed": false,
          "internalType": "uint32",
          "name": "auctionBidPeriod",
          "type": "uint32"
        },
        {
          "indexed": false,
          "internalType": "uint32",
          "name": "bidIncreasePercentage",
          "type": "uint32"
        },
        {
          "indexed": false,
          "internalType": "address[]",
          "name": "feeRecipients",
          "type": "address[]"
        },
        {
          "indexed": false,
          "internalType": "uint32[]",
          "name": "feePercentages",
          "type": "uint32[]"
        }
      ],
      "name": "NftAuctionCreated",
      "type": "event"
    },
    {
      "anonymous": false,
      "inputs": [
        {
          "indexed": false,
          "internalType": "uint256",
          "name": "tokenId",
          "type": "uint256"
        },
        {
          "indexed": false,
          "internalType": "address",
          "name": "nftSeller",
          "type": "address"
        },
        {
          "indexed": false,
          "internalType": "address",
          "name": "erc20Token",
          "type": "address"
        },
        {
          "indexed": false,
          "internalType": "uint128",
          "name": "buyNowPrice",
          "type": "uint128"
        },
        {
          "indexed": false,
          "internalType": "address",
          "name": "whitelistedBuyer",
          "type": "address"
        },
        {
          "indexed": false,
          "internalType": "address[]",
          "name": "feeRecipients",
          "type": "address[]"
        },
        {
          "indexed": false,
          "internalType": "uint32[]",
          "name": "feePercentages",
          "type": "uint32[]"
        }
      ],
      "name": "SaleCreated",
      "type": "event"
    },
    {
      "inputs": [],
      "name": "_nftContractAddress",
      "outputs": [
        {
          "internalType": "address",
          "name": "",
          "type": "address"
        }
      ],
      "stateMutability": "view",
      "type": "function"
    },
    {
      "inputs": [],
      "name": "defaultAuctionBidPeriod",
      "outputs": [
        {
          "internalType": "uint32",
          "name": "",
          "type": "uint32"
        }
      ],
      "stateMutability": "view",
      "type": "function"
    },
    {
      "inputs": [],
      "name": "defaultBidIncreasePercentage",
      "outputs": [
        {
          "internalType": "uint32",
          "name": "",
          "type": "uint32"
        }
      ],
      "stateMutability": "view",
      "type": "function"
    },
    {
      "inputs": [],
      "name": "minimumSettableIncreasePercentage",
      "outputs": [
        {
          "internalType": "uint32",
          "name": "",
          "type": "uint32"
        }
      ],
      "stateMutability": "view",
      "type": "function"
    },
    {
      "inputs": [
        {
          "internalType": "uint256",
          "name": "",
          "type": "uint256"
        }
      ],
      "name": "nftContractAuctions",
      "outputs": [
        {
          "internalType": "uint32",
          "name": "bidIncreasePercentage",
          "type": "uint32"
        },
        {
          "internalType": "uint32",
          "name": "auctionBidPeriod",
          "type": "uint32"
        },
        {
          "internalType": "uint64",
          "name": "auctionEnd",
          "type": "uint64"
        },
        {
          "internalType": "uint128",
          "name": "minPrice",
          "type": "uint128"
        },
        {
          "internalType": "uint128",
          "name": "buyNowPrice",
          "type": "uint128"
        },
        {
          "internalType": "uint128",
          "name": "nftHighestBid",
          "type": "uint128"
        },
        {
          "internalType": "address",
          "name": "nftHighestBidder",
          "type": "address"
        },
        {
          "internalType": "address",
          "name": "nftSeller",
          "type": "address"
        },
        {
          "internalType": "address",
          "name": "nftRecipient",
          "type": "address"
        },
        {
          "internalType": "address",
          "name": "ERC20Token",
          "type": "address"
        }
      ],
      "stateMutability": "view",
      "type": "function"
    },
    {
      "inputs": [
        {
          "internalType": "uint256",
          "name": "_tokenId",
          "type": "uint256"
        },
        {
          "internalType": "address",
          "name": "_erc20Token",
          "type": "address"
        },
        {
          "internalType": "uint128",
          "name": "_minPrice",
          "type": "uint128"
        },
        {
          "internalType": "uint128",
          "name": "_buyNowPrice",
          "type": "uint128"
        },
        {
          "internalType": "uint32",
          "name": "_auctionBidPeriod",
          "type": "uint32"
        },
        {
          "internalType": "uint32",
          "name": "_bidIncreasePercentage",
          "type": "uint32"
        },
        {
          "internalType": "address[]",
          "name": "_feeRecipients",
          "type": "address[]"
        },
        {
          "internalType": "uint32[]",
          "name": "_feePercentages",
          "type": "uint32[]"
        }
      ],
      "name": "createNewNftAuction",
      "outputs": [],
      "stateMutability": "nonpayable",
      "type": "function"
    },
    {
      "inputs": [
        {
          "internalType": "uint256",
          "name": "_tokenId",
          "type": "uint256"
        },
        {
          "internalType": "address",
          "name": "_erc20Token",
          "type": "address"
        },
        {
          "internalType": "uint128",
          "name": "_buyNowPrice",
          "type": "uint128"
        },
        {
          "internalType": "address",
          "name": "_whitelistedBuyer",
          "type": "address"
        },
        {
          "internalType": "address[]",
          "name": "_feeRecipients",
          "type": "address[]"
        },
        {
          "internalType": "uint32[]",
          "name": "_feePercentages",
          "type": "uint32[]"
        }
      ],
      "name": "createSale",
      "outputs": [],
      "stateMutability": "nonpayable",
      "type": "function"
    },
    {
      "inputs": [
        {
          "internalType": "uint256",
          "name": "_tokenId",
          "type": "uint256"
        },
        {
          "internalType": "address",
          "name": "_erc20Token",
          "type": "address"
        },
        {
          "internalType": "uint128",
          "name": "_tokenAmount",
          "type": "uint128"
        },
        {
          "internalType": "address",
          "name": "_nftRecipient",
          "type": "address"
        }
      ],
      "name": "makeCustomBid",
      "outputs": [],
      "stateMutability": "payable",
      "type": "function"
    },
    {
      "inputs": [
        {
          "internalType": "uint256",
          "name": "_tokenId",
          "type": "uint256"
        }
      ],
      "name": "settleAuction",
      "outputs": [],
      "stateMutability": "nonpayable",
      "type": "function"
    },
    {
      "inputs": [
        {
          "internalType": "uint256",
          "name": "_tokenId",
          "type": "uint256"
        }
      ],
      "name": "withdrawAuction",
      "outputs": [],
      "stateMutability": "nonpayable",
      "type": "function"
    },
    {
      "inputs": [
        {
          "internalType": "uint256",
          "name": "_tokenId",
          "type": "uint256"
        }
      ],
      "name": "withdrawBid",
      "outputs": [],
      "stateMutability": "nonpayable",
      "type": "function"
    },
    {
      "inputs": [
        {
          "internalType": "uint256",
          "name": "_tokenId",
          "type": "uint256"
        }
      ],
      "name": "takeHighestBid",
      "outputs": [],
      "stateMutability": "nonpayable",
      "type": "function"
    },
    {
      "inputs": [
        {
          "internalType": "uint256",
          "name": "_tokenId",
          "type": "uint256"
        }
      ],
      "name": "ownerOfNFT",
      "outputs": [
        {
          "internalType": "address",
          "name": "",
          "type": "address"
        }
      ],
      "stateMutability": "view",
      "type": "function"
    },
    {
      "inputs": [],
      "name": "withdrawAllFailedCredits",
      "outputs": [],
      "stateMutability": "nonpayable",
      "type": "function"
    }
  ],
  "bytecode": "0x608060405234801561001057600080fd5b506040516127133803806127138339818101604052602081101561003357600080fd5b505160028054606463ffffffff199091161763ffffffff60401b19166a01518000000000000000001763ffffffff60201b1916646400000000176001600160601b03166c010000000000000000000000006001600160a01b039093169290920291909117905561266b806100a86000396000f3fe6080604052600436106100dc5760003560e01c806345a977151161007f578063b5fc983311610059578063b5fc983314610449578063b6ad691414610473578063c1278a7214610488578063d15758dd146104b2576100dc565b806345a977151461021a578063989445be146102bf5780639c0b996614610434576100dc565b8063190efb6b116100bb578063190efb6b146101805780632d8a746e146101b15780632e993611146101db5780633d87d5fb14610205576100dc565b8062626430146100e15780630eaaf4c814610128578063186779d514610152575b600080fd5b610126600480360360808110156100f757600080fd5b508035906001600160a01b0360208201358116916001600160801b036040820135169160609091013516610611565b005b34801561013457600080fd5b506101266004803603602081101561014b57600080fd5b50356106f9565b34801561015e57600080fd5b5061016761083b565b6040805163ffffffff9092168252519081900360200190f35b34801561018c57600080fd5b5061019561084e565b604080516001600160a01b039092168252519081900360200190f35b3480156101bd57600080fd5b50610195600480360360208110156101d457600080fd5b5035610864565b3480156101e757600080fd5b50610126600480360360208110156101fe57600080fd5b50356108cd565b34801561021157600080fd5b50610167610970565b34801561022657600080fd5b506102446004803603602081101561023d57600080fd5b5035610983565b6040805163ffffffff9b8c16815299909a1660208a015267ffffffffffffffff909716888a01526001600160801b03958616606089015293851660808801529190931660a08601526001600160a01b0392831660c0860152821660e08501528116610100840152166101208201529051908190036101400190f35b3480156102cb57600080fd5b5061012660048036036101008110156102e357600080fd5b8135916001600160a01b03602082013516916001600160801b03604083013581169260608101359091169163ffffffff608083013581169260a08101359091169181019060e0810160c0820135600160201b81111561034157600080fd5b82018360208201111561035357600080fd5b803590602001918460208302840111600160201b8311171561037457600080fd5b9190808060200260200160405190810160405280939291908181526020018383602002808284376000920191909152509295949360208101935035915050600160201b8111156103c357600080fd5b8201836020820111156103d557600080fd5b803590602001918460208302840111600160201b831117156103f657600080fd5b919080806020026020016040519081016040528093929190818152602001838360200280828437600092019190915250929550610a08945050505050565b34801561044057600080fd5b50610167610c25565b34801561045557600080fd5b506101266004803603602081101561046c57600080fd5b5035610c31565b34801561047f57600080fd5b50610126610d40565b34801561049457600080fd5b50610126600480360360208110156104ab57600080fd5b5035610e42565b3480156104be57600080fd5b50610126600480360360c08110156104d557600080fd5b8135916001600160a01b0360208201358116926001600160801b03604084013516926060810135909216919081019060a081016080820135600160201b81111561051e57600080fd5b82018360208201111561053057600080fd5b803590602001918460208302840111600160201b8311171561055157600080fd5b9190808060200260200160405190810160405280939291908181526020018383602002808284376000920191909152509295949360208101935035915050600160201b8111156105a057600080fd5b8201836020820111156105b257600080fd5b803590602001918460208302840111600160201b831117156105d357600080fd5b919080806020026020016040519081016040528093929190818152602001838360200280828437600092019190915250929550610f3d945050505050565b8361061b81611251565b610660576040805162461bcd60e51b8152602060048201526011602482015270105d58dd1a5bdb881a185cc8195b991959607a1b604482015290519081900360640190fd5b816001600160a01b0381166106bc576040805162461bcd60e51b815260206004820152601860248201527f43616e6e6f742073706563696679203020616464726573730000000000000000604482015290519081900360640190fd5b600086815260208190526040902060040180546001600160a01b0319166001600160a01b0385161790556106f186868661128e565b505050505050565b8061070381611435565b15610755576040805162461bcd60e51b815260206004820181905260248201527f5468652061756374696f6e2068617320612076616c696420626964206d616465604482015290519081900360640190fd5b6000828152602081905260409020600201546001600160a01b03163381146107bc576040805162461bcd60e51b815260206004820152601560248201527443616e6e6f742077697468647261772066756e647360581b604482015290519081900360640190fd5b600083815260208190526040902060010154600160801b90046001600160801b03166107e78461148e565b6107fb8483836001600160801b03166114d0565b6040805185815233602082015281517f5e9c7ae3229b2cda5065d7058fcc05765c695c29ce05313fbe96cb2ca639231a929181900390910190a150505050565b600254600160401b900463ffffffff1681565b600254600160601b90046001600160a01b031681565b6000818152602081905260408120600301546001600160a01b0316806108c5576040805162461bcd60e51b8152602060048201526011602482015270139195081b9bdd0819195c1bdcda5d1959607a1b604482015290519081900360640190fd5b90505b919050565b806108d781611251565b15610929576040805162461bcd60e51b815260206004820152601760248201527f41756374696f6e206973206e6f7420796574206f766572000000000000000000604482015290519081900360640190fd5b61093282611607565b6040805183815233602082015281517f3cb6ab80f3d78a04ca009e9869c4d9f4e27be13d3c443861e450ff1e40fc5bbb929181900390910190a15050565b600254600160201b900463ffffffff1681565b60006020819052908152604090208054600182015460028301546003840154600485015460059095015463ffffffff80861696600160201b87049091169567ffffffffffffffff600160401b820416956001600160801b03600160801b92839004811696828216969390920416936001600160a01b039182169392821692821691168a565b60008881526020819052604090206003015488906001600160a01b0316331415610a79576040805162461bcd60e51b815260206004820181905260248201527f41756374696f6e20616c72656164792073746172746564206279206f776e6572604482015290519081900360640190fd5b6000818152602081905260409020600301546001600160a01b031615610b7c576002600c9054906101000a90046001600160a01b03166001600160a01b0316636352211e826040518263ffffffff1660e01b81526004018082815260200191505060206040518083038186803b158015610af257600080fd5b505afa158015610b06573d6000803e3d6000fd5b505050506040513d6020811015610b1c57600080fd5b50516001600160a01b03163314610b73576040805162461bcd60e51b815260206004820152601660248201527514d95b99195c88191bd95cdb89dd081bdddb8813919560521b604482015290519081900360640190fd5b610b7c81611765565b866001600160801b031660008111610bcf576040805162461bcd60e51b8152602060048201526011602482015270050726963652063616e6e6f74206265203607c1b604482015290519081900360640190fd5b60008a8152602081905260409020805463ffffffff87811663ffffffff19918a16600160201b0267ffffffff00000000199093169290921716179055610c198a8a8a8a88886117ab565b50505050505050505050565b60025463ffffffff1681565b600254604080516331a9108f60e11b81526004810184905290513392600160601b90046001600160a01b031691636352211e916024808301926020929190829003018186803b158015610c8357600080fd5b505afa158015610c97573d6000803e3d6000fd5b505050506040513d6020811015610cad57600080fd5b50516001600160a01b031614610cfa576040805162461bcd60e51b815260206004820152600d60248201526c2737ba1027232a1037bbb732b960991b604482015290519081900360640190fd5b610d0381611765565b6040805182815233602082015281517f8bac68995ade0fea3fbfce99e614e2ca91bcbd46732ea234ea30a3246bcbb12c929181900390910190a150565b3360009081526001602052604090205480610d9b576040805162461bcd60e51b81526020600482015260166024820152756e6f206372656469747320746f20776974686472617760501b604482015290519081900360640190fd5b3360008181526001602052604080822082905551909190614e2090849084818181858888f193505050503d8060008114610df1576040519150601f19603f3d011682016040523d82523d6000602084013e610df6565b606091505b5050905080610e3e576040805162461bcd60e51b815260206004820152600f60248201526e1dda5d1a191c985dc819985a5b1959608a1b604482015290519081900360640190fd5b5050565b60008181526020819052604090206003015481906001600160a01b03163314610ea4576040805162461bcd60e51b815260206004820152600f60248201526e27b7363c9037333a1039b2b63632b960891b604482015290519081900360640190fd5b610ead826118f5565b610ef4576040805162461bcd60e51b815260206004820152601360248201527218d85b9b9bdd081c185e5bdd5d080c08189a59606a1b604482015290519081900360640190fd5b610efd8261191c565b610f0682611607565b6040805183815290517f951998909c69503759ab614fef092cad84e66b38279d4274a4951aaa2bfbc14b9181900360200190a15050565b60008681526020819052604090206003015486906001600160a01b0316331415610fae576040805162461bcd60e51b815260206004820181905260248201527f41756374696f6e20616c72656164792073746172746564206279206f776e6572604482015290519081900360640190fd5b6000818152602081905260409020600301546001600160a01b0316156110b1576002600c9054906101000a90046001600160a01b03166001600160a01b0316636352211e826040518263ffffffff1660e01b81526004018082815260200191505060206040518083038186803b15801561102757600080fd5b505afa15801561103b573d6000803e3d6000fd5b505050506040513d602081101561105157600080fd5b50516001600160a01b031633146110a8576040805162461bcd60e51b815260206004820152601660248201527514d95b99195c88191bd95cdb89dd081bdddb8813919560521b604482015290519081900360640190fd5b6110b181611765565b846001600160801b031660008111611104576040805162461bcd60e51b8152602060048201526011602482015270050726963652063616e6e6f74206265203607c1b604482015290519081900360640190fd5b611112888888888888611be1565b7fb117f9ced7ae20459ab9712f91e4695f166dddc437bfceb5fbf81474430189ff8833898989898960405180888152602001876001600160a01b03168152602001866001600160a01b03168152602001856001600160801b03168152602001846001600160a01b031681526020018060200180602001838103835285818151815260200191508051906020019060200280838360005b838110156111c05781810151838201526020016111a8565b50505050905001838103825284818151815260200191508051906020019060200280838360005b838110156111ff5781810151838201526020016111e7565b50505050905001995050505050505050505060405180910390a1611222886118f5565b156112475761123088611d98565b156112475761123e8861191c565b61124788611607565b5050505050505050565b600081815260208190526040812054600160401b900467ffffffffffffffff1680158061128757508067ffffffffffffffff1642105b9392505050565b60008381526020819052604090206003015483906001600160a01b03163314156112ff576040805162461bcd60e51b815260206004820152601b60248201527f4f776e65722063616e6e6f7420626964206f6e206f776e204e46540000000000604482015290519081900360640190fd5b83838361130d838383611ded565b61135e576040805162461bcd60e51b815260206004820181905260248201527f42696420746f20626520696e207370656369666965642045524332302f457468604482015290519081900360640190fd5b868561136a8282611e81565b6113bb576040805162461bcd60e51b815260206004820152601e60248201527f4e6f7420656e6f7567682066756e647320746f20626964206f6e204e46540000604482015290519081900360640190fd5b6113c58988611f60565b604080518a815233602082015234818301526001600160a01b038a1660608201526001600160801b038916608082015290517f589906d28d13d8aff8ab40eccde1d74a4434aca34bdac9812e0589fcfc6490449181900360a00190a161142a89611fb9565b505050505050505050565b600081815260208190526040812054600160801b90046001600160801b0316801580159061128757506000838152602081905260409020600101546001600160801b03808316600160801b909204161015915050919050565b60009081526020819052604090206002810180546001600160a01b03199081169091556001820180546001600160801b03169055600490910180549091169055565b6000838152602081905260409020600501546001600160a01b03166114f481612001565b1561158257806001600160a01b031663a9059cbb84846040518363ffffffff1660e01b815260040180836001600160a01b0316815260200182815260200192505050602060405180830381600087803b15801561155057600080fd5b505af1158015611564573d6000803e3d6000fd5b505050506040513d602081101561157a57600080fd5b506116019050565b6040516000906001600160a01b03851690614e2090859084818181858888f193505050503d80600081146115d2576040519150601f19603f3d011682016040523d82523d6000602084013e6115d7565b606091505b50509050806115ff576001600160a01b03841660009081526001602052604090208054840190555b505b50505050565b600081815260208190526040812060038101546002909101546001600160a01b03918216929116906116388461200f565b600085815260208190526040902060010154909150600160801b90046001600160801b03166116668561148e565b61167a8585836001600160801b0316612058565b600254604080516323b872dd60e01b81523060048201526001600160a01b038581166024830152604482018990529151600160601b909304909116916323b872dd9160648082019260009290919082900301818387803b1580156116dd57600080fd5b505af11580156116f1573d6000803e3d6000fd5b505050506116fe85611765565b604080518681526001600160a01b0380871660208301526001600160801b0384168284015280861660608301528416608082015290517f897add4c43e2c053508f485324f74ccff203150b27bf0c5ebe137849ac92d6f89181900360a00190a15050505050565b60009081526020819052604081206001810180546001600160801b03191690559081556003810180546001600160a01b0319908116909155600590910180549091169055565b6117b986868686868661211e565b7f889326f337fa9616608e11f378f7ad305556626b89289e15efc1be1412f8580d86338787876117e88c6122e2565b6117f18d61231a565b8989604051808a8152602001896001600160a01b03168152602001886001600160a01b03168152602001876001600160801b03168152602001866001600160801b031681526020018563ffffffff1681526020018463ffffffff1681526020018060200180602001838103835285818151815260200191508051906020019060200280838360005b83811015611891578181015183820152602001611879565b50505050905001838103825284818151815260200191508051906020019060200280838360005b838110156118d05781810151838201526020016118b8565b505050509050019b50505050505050505050505060405180910390a16106f186611fb9565b600090815260208190526040902060010154600160801b90046001600160801b0316151590565b600081815260208181526040918290206003015460025483516331a9108f60e11b81526004810186905293516001600160a01b03928316948594600160601b90930490931692636352211e926024808301939192829003018186803b15801561198457600080fd5b505afa158015611998573d6000803e3d6000fd5b505050506040513d60208110156119ae57600080fd5b50516001600160a01b03161415611b0f57600254604080516323b872dd60e01b81526001600160a01b038481166004830152306024830152604482018690529151600160601b909304909116916323b872dd9160648082019260009290919082900301818387803b158015611a2257600080fd5b505af1158015611a36573d6000803e3d6000fd5b5050600254604080516331a9108f60e11b8152600481018790529051309450600160601b9092046001600160a01b03169250636352211e916024808301926020929190829003018186803b158015611a8d57600080fd5b505afa158015611aa1573d6000803e3d6000fd5b505050506040513d6020811015611ab757600080fd5b50516001600160a01b031614611b0a576040805162461bcd60e51b81526020600482015260136024820152721b999d081d1c985b9cd9995c8819985a5b1959606a1b604482015290519081900360640190fd5b610e3e565b600254604080516331a9108f60e11b81526004810185905290513092600160601b90046001600160a01b031691636352211e916024808301926020929190829003018186803b158015611b6157600080fd5b505afa158015611b75573d6000803e3d6000fd5b505050506040513d6020811015611b8b57600080fd5b50516001600160a01b031614610e3e576040805162461bcd60e51b815260206004820152601660248201527514d95b1b195c88191bd95cdb89dd081bdddb8813919560521b604482015290519081900360640190fd5b81518151808214611c35576040805162461bcd60e51b8152602060048201526019602482015278526563697069656e747320213d2070657263656e746167657360381b604482015290519081900360640190fd5b826000805b8251811015611c6857828181518110611c4f57fe5b6020026020010151820191508080600101915050611c3a565b506127108163ffffffff161115611cc6576040805162461bcd60e51b815260206004820152601e60248201527f4665652070657263656e746167657320657863656564206d6178696d756d0000604482015290519081900360640190fd5b6001600160a01b03891615611d005760008a815260208190526040902060050180546001600160a01b0319166001600160a01b038b161790555b60008a8152602081815260409091208751611d2392600690920191890190612515565b5060008a8152602081815260409091208651611d479260079092019188019061257a565b50505060009788525050506020859052505060409092206001810180546001600160801b039094166001600160801b0319909416939093179092555060030180546001600160a01b03191633179055565b6000818152602081905260408120600101546001600160801b0316801580159061128757506000838152602081905260409020600101546001600160801b03808316600160801b909204161015915050919050565b6000838152602081905260408120600501546001600160a01b0316611e1181612001565b15611e525734158015611e355750836001600160a01b0316816001600160a01b0316145b8015611e4a57506000836001600160801b0316115b915050611287565b3415801590611e6857506001600160a01b038416155b8015611e4a575050506001600160801b03161592915050565b6000828152602081905260408120600101546001600160801b03168015801590611ed05750806001600160801b031634101580611ed05750806001600160801b0316836001600160801b031610155b15611edf576001915050611f5a565b6000612710611eed8661231a565b6127100163ffffffff1660008088815260200190815260200160002060010160109054906101000a90046001600160801b0316026001600160801b031681611f3157fe5b046001600160801b031690508034101580611f55575080846001600160801b031610155b925050505b92915050565b600082815260208190526040902060028101546001909101546001600160a01b0390911690600160801b90046001600160801b0316611f9f8484612344565b6001600160a01b03821615611601576116018483836114d0565b611fc281611d98565b15611fde57611fd08161191c565b611fd981611607565b611ffe565b611fe781611435565b15611ffe57611ff58161191c565b611ffe81612473565b50565b6001600160a01b0316151590565b6000818152602081905260408120600401546001600160a01b0316806120515750506000818152602081905260409020600201546001600160a01b03166108c8565b90506108c8565b6000805b60008581526020819052604090206006015481101561211057600085815260208190526040812060070180546120c19186918590811061209857fe5b6000918252602090912060088204015460079091166004026101000a900463ffffffff1661250c565b905080830192506121078660008089815260200190815260200160002060060184815481106120ec57fe5b6000918252602090912001546001600160a01b0316836114d0565b5060010161205c565b5061160184848385036114d0565b81518151808214612172576040805162461bcd60e51b8152602060048201526019602482015278526563697069656e747320213d2070657263656e746167657360381b604482015290519081900360640190fd5b826000805b82518110156121a55782818151811061218c57fe5b6020026020010151820191508080600101915050612177565b506127108163ffffffff161115612203576040805162461bcd60e51b815260206004820152601e60248201527f4665652070657263656e746167657320657863656564206d6178696d756d0000604482015290519081900360640190fd5b6001600160a01b0389161561223d5760008a815260208190526040902060050180546001600160a01b0319166001600160a01b038b161790555b60008a815260208181526040909120875161226092600690920191890190612515565b5060008a81526020818152604090912086516122849260079092019188019061257a565b505050600097885250505060208590525060409093206001810180546001600160801b039586166001600160801b03199091161790558054918416600160801b02919093161782555060030180546001600160a01b03191633179055565b600081815260208190526040812054600160201b900463ffffffff1680612051575050600254600160401b900463ffffffff166108c8565b60008181526020819052604081205463ffffffff168061205157505060025463ffffffff166108c8565b6000828152602081905260409020600501546001600160a01b031661236881612001565b1561242457604080516323b872dd60e01b81523360048201523060248201526001600160801b038416604482015290516001600160a01b038316916323b872dd9160648083019260209291908290030181600087803b1580156123ca57600080fd5b505af11580156123de573d6000803e3d6000fd5b505050506040513d60208110156123f457600080fd5b5050600083815260208190526040902060010180546001600160801b03808516600160801b02911617905561244e565b600083815260208190526040902060010180546001600160801b03348116600160801b0291161790555b5050600090815260208190526040902060020180546001600160a01b03191633179055565b4261247d826122e2565b6000838152602081815260409182902080546fffffffffffffffff00000000000000001916600160401b63ffffffff959095169590950167ffffffffffffffff9081168502959095179081905582518681529390049093169282019290925281517f2c022afa2469f5dfea36bb416f03a9972a290b5572a34a4fdfe6b0048fb6b7e8929181900390910190a150565b61271091020490565b82805482825590600052602060002090810192821561256a579160200282015b8281111561256a57825182546001600160a01b0319166001600160a01b03909116178255602090920191600190910190612535565b50612576929150612620565b5090565b8280548282559060005260206000209060070160089004810192821561256a5791602002820160005b838211156125e757835183826101000a81548163ffffffff021916908363ffffffff16021790555092602001926004016020816003010492830192600103026125a3565b80156126175782816101000a81549063ffffffff02191690556004016020816003010492830192600103026125e7565b50506125769291505b5b80821115612576576000815560010161262156fea26469706673582212201cc16084458174cb892ba9c12ca8a81dc5d007a7d10230a1f05071e11ca5ea3664736f6c63430007060033",
  "immutableReferences": {},
  "source": "pragma solidity ^0.7.6;\r\n\r\nimport \"@openzeppelin/contracts/token/ERC721/IERC721.sol\";\r\nimport \"@openzeppelin/contracts/token/ERC721/IERC721Receiver.sol\";\r\nimport \"@openzeppelin/contracts/token/ERC20/IERC20.sol\";\r\n\r\ncontract NFTAuction {\r\n    mapping(uint256 => Auction) public nftContractAuctions;\r\n    mapping(address => uint256) failedTransferCredits; //return the money to bidders\r\n\r\n    struct Auction {\r\n        //map token ID to\r\n        uint32 bidIncreasePercentage;\r\n        uint32 auctionBidPeriod; //Increments the length of time the auction is open in which a new bid can be made after each bid.\r\n        uint64 auctionEnd;\r\n        uint128 minPrice;\r\n        uint128 buyNowPrice;\r\n        uint128 nftHighestBid;\r\n        address nftHighestBidder;\r\n        address nftSeller;\r\n        address nftRecipient; //The bidder can specify a recipient for the NFT if their bid is successful.\r\n        address ERC20Token; // The seller can specify an ERC20 token that can be used to bid or purchase the NFT.\r\n        address[] feeRecipients;\r\n        uint32[] feePercentages;\r\n    }\r\n\r\n    //Default values that are used if not specified by the NFT seller.\r\n    uint32 public defaultBidIncreasePercentage;\r\n    uint32 public minimumSettableIncreasePercentage;\r\n    uint32 public defaultAuctionBidPeriod;\r\n\r\n    //NFT token contract address\r\n    address public _nftContractAddress;\r\n\r\n    /*\r\n                 EVENTS            \r\n      */\r\n    event NftAuctionCreated(\r\n        uint256 tokenId,\r\n        address nftSeller,\r\n        address erc20Token,\r\n        uint128 minPrice,\r\n        uint128 buyNowPrice,\r\n        uint32 auctionBidPeriod,\r\n        uint32 bidIncreasePercentage,\r\n        address[] feeRecipients,\r\n        uint32[] feePercentages\r\n    );\r\n\r\n    event NFTTransferredAndSellerPaid(\r\n        uint256 tokenId,\r\n        address nftSeller,\r\n        uint128 nftHighestBid,\r\n        address nftHighestBidder,\r\n        address nftRecipient\r\n    );\r\n\r\n    event AuctionPeriodUpdated(uint256 tokenId, uint64 auctionEndPeriod);\r\n\r\n    event SaleCreated(\r\n        uint256 tokenId,\r\n        address nftSeller,\r\n        address erc20Token,\r\n        uint128 buyNowPrice,\r\n        address whitelistedBuyer,\r\n        address[] feeRecipients,\r\n        uint32[] feePercentages\r\n    );\r\n\r\n    event BidMade(\r\n        uint256 tokenId,\r\n        address bidder,\r\n        uint256 ethAmount,\r\n        address erc20Token,\r\n        uint256 tokenAmount\r\n    );\r\n\r\n    event AuctionSettled(uint256 tokenId, address auctionSettler);\r\n\r\n    event AuctionWithdrawn(uint256 tokenId, address nftOwner);\r\n\r\n    event BidWithdrawn(uint256 tokenId, address highestBidder);\r\n\r\n    event HighestBidTaken(uint256 tokenId);\r\n\r\n    /**********************************/\r\n    /*\r\n                   END             \r\n                  EVENTS           \r\n      */\r\n    /**********************************/\r\n\r\n    /*\r\n                MODIFIERS          \r\n      */\r\n    modifier isAuctionNotStartedByOwner(uint256 _tokenId) {\r\n        require(\r\n            nftContractAuctions[_tokenId].nftSeller != msg.sender,\r\n            \"Auction already started by owner\"\r\n        );\r\n\r\n        if (nftContractAuctions[_tokenId].nftSeller != address(0)) {\r\n            require(\r\n                msg.sender == IERC721(_nftContractAddress).ownerOf(_tokenId),\r\n                \"Sender doesn't own NFT\"\r\n            );\r\n\r\n            _resetAuction(_tokenId);\r\n        }\r\n        _;\r\n    }\r\n\r\n    modifier auctionOngoing(uint256 _tokenId) {\r\n        require(_isAuctionOngoing(_tokenId), \"Auction has ended\");\r\n        _;\r\n    }\r\n\r\n    modifier priceGreaterThanZero(uint256 _price) {\r\n        require(_price > 0, \"Price cannot be 0\");\r\n        _;\r\n    }\r\n\r\n    modifier notNftSeller(uint256 _tokenId) {\r\n        require(\r\n            msg.sender != nftContractAuctions[_tokenId].nftSeller,\r\n            \"Owner cannot bid on own NFT\"\r\n        );\r\n        _;\r\n    }\r\n\r\n    modifier onlyNftSeller(uint256 _tokenId) {\r\n        require(\r\n            msg.sender == nftContractAuctions[_tokenId].nftSeller,\r\n            \"Only nft seller\"\r\n        );\r\n        _;\r\n    }\r\n\r\n    modifier bidAmountMeetsBidRequirements(\r\n        uint256 _tokenId,\r\n        uint128 _tokenAmount\r\n    ) {\r\n        require(\r\n            _doesBidMeetBidRequirements(_tokenId, _tokenAmount),\r\n            \"Not enough funds to bid on NFT\"\r\n        );\r\n        _;\r\n    }\r\n\r\n    /*\r\n     * Payment is accepted if the payment is made in the ERC20 token or ETH specified by the seller.\r\n     * Early bids on NFTs not yet up for auction must be made in ETH.\r\n     */\r\n    modifier paymentAccepted(\r\n        uint256 _tokenId,\r\n        address _erc20Token,\r\n        uint128 _tokenAmount\r\n    ) {\r\n        require(\r\n            _isPaymentAccepted(_tokenId, _erc20Token, _tokenAmount),\r\n            \"Bid to be in specified ERC20/Eth\"\r\n        );\r\n        _;\r\n    }\r\n\r\n    modifier isAuctionOver(uint256 _tokenId) {\r\n        require(!_isAuctionOngoing(_tokenId), \"Auction is not yet over\");\r\n        _;\r\n    }\r\n\r\n    modifier notZeroAddress(address _address) {\r\n        require(_address != address(0), \"Cannot specify 0 address\");\r\n        _;\r\n    }\r\n\r\n    modifier isFeePercentagesLessThanMaximum(uint32[] memory _feePercentages) {\r\n        uint32 totalPercent;\r\n        for (uint256 i = 0; i < _feePercentages.length; i++) {\r\n            totalPercent = totalPercent + _feePercentages[i];\r\n        }\r\n        require(totalPercent <= 10000, \"Fee percentages exceed maximum\");\r\n        _;\r\n    }\r\n\r\n    modifier correctFeeRecipientsAndPercentages(\r\n        uint256 _recipientsLength,\r\n        uint256 _percentagesLength\r\n    ) {\r\n        require(\r\n            _recipientsLength == _percentagesLength,\r\n            \"Recipients != percentages\"\r\n        );\r\n        _;\r\n    }\r\n\r\n    modifier isNotASale(uint256 _tokenId) {\r\n        require(!_isASale(_tokenId), \"Not applicable for a sale\");\r\n        _;\r\n    }\r\n\r\n    modifier minimumBidNotMade(uint256 _tokenId) {\r\n        require(\r\n            !_isMinimumBidMade(_tokenId),\r\n            \"The auction has a valid bid made\"\r\n        );\r\n        _;\r\n    }\r\n\r\n    // constructor\r\n    constructor(address nftContractAddress) {\r\n        defaultBidIncreasePercentage = 100;\r\n        defaultAuctionBidPeriod = 86400; //1 day\r\n        minimumSettableIncreasePercentage = 100;\r\n        _nftContractAddress = nftContractAddress;\r\n    }\r\n\r\n    /*\r\n          AUCTION CHECK FUNCTIONS   \r\n      */\r\n    function _isAuctionOngoing(uint256 _tokenId) internal view returns (bool) {\r\n        uint64 auctionEndTimestamp = nftContractAuctions[_tokenId].auctionEnd;\r\n        //if the auctionEnd is set to 0, the auction is technically on-going, however\r\n        //the minimum bid price (minPrice) has not yet been met.\r\n        return (auctionEndTimestamp == 0 ||\r\n            block.timestamp < auctionEndTimestamp);\r\n    }\r\n\r\n    /*\r\n     * Check that a bid is applicable for the purchase of the NFT.\r\n     * In the case of a sale: the bid needs to meet the buyNowPrice.\r\n     * In the case of an auction: the bid needs to be a % higher than the previous bid.\r\n     */\r\n    function _doesBidMeetBidRequirements(uint256 _tokenId, uint128 _tokenAmount)\r\n        internal\r\n        view\r\n        returns (bool)\r\n    {\r\n        uint128 buyNowPrice = nftContractAuctions[_tokenId].buyNowPrice;\r\n        //if buyNowPrice is met, ignore increase percentage\r\n        if (\r\n            buyNowPrice > 0 &&\r\n            (msg.value >= buyNowPrice || _tokenAmount >= buyNowPrice)\r\n        ) {\r\n            return true;\r\n        }\r\n        //if the NFT is up for auction, the bid needs to be a % higher than the previous bid\r\n        uint256 bidIncreaseAmount = (nftContractAuctions[_tokenId]\r\n            .nftHighestBid * (10000 + _getBidIncreasePercentage(_tokenId))) /\r\n            10000;\r\n        return (msg.value >= bidIncreaseAmount ||\r\n            _tokenAmount >= bidIncreaseAmount);\r\n    }\r\n\r\n    /**\r\n     * Payment is accepted in the following scenarios:\r\n     * (1) Auction already created - can accept ETH or Specified Token\r\n     *  --------> Cannot bid with ETH & an ERC20 Token together in any circumstance<------\r\n     * (2) Auction not created - only ETH accepted (cannot early bid with an ERC20 Token\r\n     * (3) Cannot make a zero bid (no ETH or Token amount)\r\n     */\r\n    function _isPaymentAccepted(\r\n        uint256 _tokenId,\r\n        address _bidERC20Token,\r\n        uint128 _tokenAmount\r\n    ) internal view returns (bool) {\r\n        address auctionERC20Token = nftContractAuctions[_tokenId].ERC20Token;\r\n        if (_isERC20Auction(auctionERC20Token)) {\r\n            return\r\n                msg.value == 0 &&\r\n                auctionERC20Token == _bidERC20Token &&\r\n                _tokenAmount > 0;\r\n        } else {\r\n            return\r\n                msg.value != 0 &&\r\n                _bidERC20Token == address(0) &&\r\n                _tokenAmount == 0;\r\n        }\r\n    }\r\n\r\n    function _isERC20Auction(address _auctionERC20Token)\r\n        internal\r\n        pure\r\n        returns (bool)\r\n    {\r\n        return _auctionERC20Token != address(0);\r\n    }\r\n\r\n    /*\r\n     * An NFT is up for sale if the buyNowPrice is set, but the minPrice is not set.\r\n     * Therefore the only way to conclude the NFT sale is to meet the buyNowPrice.\r\n     */\r\n    function _isASale(uint256 _tokenId) internal view returns (bool) {\r\n        return (nftContractAuctions[_tokenId].buyNowPrice > 0 &&\r\n            nftContractAuctions[_tokenId].minPrice == 0);\r\n    }\r\n\r\n    /*\r\n     * If the buy now price is set by the seller, check that the highest bid meets that price.\r\n     */\r\n    function _isBuyNowPriceMet(uint256 _tokenId) internal view returns (bool) {\r\n        uint128 buyNowPrice = nftContractAuctions[_tokenId].buyNowPrice;\r\n        return\r\n            buyNowPrice > 0 &&\r\n            nftContractAuctions[_tokenId].nftHighestBid >= buyNowPrice;\r\n    }\r\n\r\n    /*\r\n     * Returns the percentage of the total bid (used to calculate fee payments)\r\n     */\r\n    function _getPortionOfBid(uint256 _totalBid, uint256 _percentage)\r\n        internal\r\n        pure\r\n        returns (uint256)\r\n    {\r\n        return (_totalBid * (_percentage)) / 10000;\r\n    }\r\n\r\n    /*\r\n     *if the minPrice is set by the seller, check that the highest bid meets or exceeds that price.\r\n     */\r\n    function _isMinimumBidMade(uint256 _tokenId) internal view returns (bool) {\r\n        uint128 minPrice = nftContractAuctions[_tokenId].minPrice;\r\n        return\r\n            minPrice > 0 &&\r\n            (nftContractAuctions[_tokenId].nftHighestBid >= minPrice);\r\n    }\r\n\r\n    /*\r\n     * Check if a bid has been made. This is applicable in the early bid scenario\r\n     * to ensure that if an auction is created after an early bid, the auction\r\n     * begins appropriately or is settled if the buy now price is met.\r\n     */\r\n    function _isABidMade(uint256 _tokenId) internal view returns (bool) {\r\n        return (nftContractAuctions[_tokenId].nftHighestBid > 0);\r\n    }\r\n\r\n    /**********************************/\r\n    /*\r\n                   END              \r\n          AUCTION CHECK FUNCTIONS   \r\n      */\r\n    /**********************************/\r\n    /*\r\n          DEFAULT GETTER FUNCTIONS  \r\n      */\r\n    /*****************************************************************\r\n     * These functions check if the applicable auction parameter has *\r\n     * been set by the NFT seller. If not, return the default value. *\r\n     *****************************************************************/\r\n\r\n    function _getBidIncreasePercentage(uint256 _tokenId)\r\n        internal\r\n        view\r\n        returns (uint32)\r\n    {\r\n        uint32 bidIncreasePercentage = nftContractAuctions[_tokenId]\r\n            .bidIncreasePercentage;\r\n\r\n        if (bidIncreasePercentage == 0) {\r\n            return defaultBidIncreasePercentage;\r\n        } else {\r\n            return bidIncreasePercentage;\r\n        }\r\n    }\r\n\r\n    function _getAuctionBidPeriod(uint256 _tokenId)\r\n        internal\r\n        view\r\n        returns (uint32)\r\n    {\r\n        uint32 auctionBidPeriod = nftContractAuctions[_tokenId]\r\n            .auctionBidPeriod;\r\n\r\n        if (auctionBidPeriod == 0) {\r\n            return defaultAuctionBidPeriod;\r\n        } else {\r\n            return auctionBidPeriod;\r\n        }\r\n    }\r\n\r\n    /*\r\n     * The default value for the NFT recipient is the highest bidder\r\n     */\r\n    function _getNftRecipient(uint256 _tokenId)\r\n        internal\r\n        view\r\n        returns (address)\r\n    {\r\n        address nftRecipient = nftContractAuctions[_tokenId].nftRecipient;\r\n\r\n        if (nftRecipient == address(0)) {\r\n            return nftContractAuctions[_tokenId].nftHighestBidder;\r\n        } else {\r\n            return nftRecipient;\r\n        }\r\n    }\r\n\r\n    /**********************************/\r\n    /*\r\n                   END              \r\n          DEFAULT GETTER FUNCTIONS  \r\n      */\r\n    /**********************************/\r\n\r\n    /*\r\n        TRANSFER NFTS TO CONTRACT   \r\n      */\r\n\r\n    function _transferNftToAuctionContract(uint256 _tokenId) internal {\r\n        address _nftSeller = nftContractAuctions[_tokenId].nftSeller;\r\n        if (IERC721(_nftContractAddress).ownerOf(_tokenId) == _nftSeller) {\r\n            IERC721(_nftContractAddress).transferFrom(\r\n                _nftSeller,\r\n                address(this),\r\n                _tokenId\r\n            );\r\n            require(\r\n                IERC721(_nftContractAddress).ownerOf(_tokenId) == address(this),\r\n                \"nft transfer failed\"\r\n            );\r\n        } else {\r\n            require(\r\n                IERC721(_nftContractAddress).ownerOf(_tokenId) == address(this),\r\n                \"Seller doesn't own NFT\"\r\n            );\r\n        }\r\n    }\r\n\r\n    /**********************************/\r\n    /*\r\n                   END              \r\n        TRANSFER NFTS TO CONTRACT   \r\n      */\r\n    /**********************************/\r\n\r\n    /*\r\n             AUCTION CREATION       \r\n      */\r\n\r\n    /**\r\n     * Setup parameters applicable to all auctions and whitelised sales:\r\n     * -> ERC20 Token for payment (if specified by the seller) : _erc20Token\r\n     * -> minimum price : _minPrice\r\n     * -> buy now price : _buyNowPrice\r\n     * -> the nft seller: msg.sender\r\n     * -> The fee recipients & their respective percentages for a sucessful auction/sale\r\n     */\r\n    function _setupAuction(\r\n        uint256 _tokenId,\r\n        address _erc20Token,\r\n        uint128 _minPrice,\r\n        uint128 _buyNowPrice,\r\n        address[] memory _feeRecipients,\r\n        uint32[] memory _feePercentages\r\n    )\r\n        internal\r\n        correctFeeRecipientsAndPercentages(\r\n            _feeRecipients.length,\r\n            _feePercentages.length\r\n        )\r\n        isFeePercentagesLessThanMaximum(_feePercentages)\r\n    {\r\n        if (_erc20Token != address(0)) {\r\n            nftContractAuctions[_tokenId].ERC20Token = _erc20Token;\r\n        }\r\n        nftContractAuctions[_tokenId].feeRecipients = _feeRecipients;\r\n        nftContractAuctions[_tokenId].feePercentages = _feePercentages;\r\n        nftContractAuctions[_tokenId].buyNowPrice = _buyNowPrice;\r\n        nftContractAuctions[_tokenId].minPrice = _minPrice;\r\n        nftContractAuctions[_tokenId].nftSeller = msg.sender;\r\n    }\r\n\r\n    function _createNewNftAuction(\r\n        uint256 _tokenId,\r\n        address _erc20Token,\r\n        uint128 _minPrice,\r\n        uint128 _buyNowPrice,\r\n        address[] memory _feeRecipients,\r\n        uint32[] memory _feePercentages\r\n    ) internal {\r\n        // Sending the NFT to this contract\r\n        _setupAuction(\r\n            _tokenId,\r\n            _erc20Token,\r\n            _minPrice,\r\n            _buyNowPrice,\r\n            _feeRecipients,\r\n            _feePercentages\r\n        );\r\n        emit NftAuctionCreated(\r\n            _tokenId,\r\n            msg.sender,\r\n            _erc20Token,\r\n            _minPrice,\r\n            _buyNowPrice,\r\n            _getAuctionBidPeriod(_tokenId),\r\n            _getBidIncreasePercentage(_tokenId),\r\n            _feeRecipients,\r\n            _feePercentages\r\n        );\r\n        _updateOngoingAuction(_tokenId);\r\n    }\r\n\r\n    function createNewNftAuction(\r\n        uint256 _tokenId,\r\n        address _erc20Token,\r\n        uint128 _minPrice,\r\n        uint128 _buyNowPrice,\r\n        uint32 _auctionBidPeriod, //this is the time that the auction lasts until another bid occurs\r\n        uint32 _bidIncreasePercentage,\r\n        address[] memory _feeRecipients,\r\n        uint32[] memory _feePercentages\r\n    )\r\n        external\r\n        isAuctionNotStartedByOwner(_tokenId)\r\n        priceGreaterThanZero(_minPrice)\r\n    {\r\n        nftContractAuctions[_tokenId].auctionBidPeriod = _auctionBidPeriod;\r\n        nftContractAuctions[_tokenId]\r\n            .bidIncreasePercentage = _bidIncreasePercentage;\r\n        _createNewNftAuction(\r\n            _tokenId,\r\n            _erc20Token,\r\n            _minPrice,\r\n            _buyNowPrice,\r\n            _feeRecipients,\r\n            _feePercentages\r\n        );\r\n    }\r\n\r\n    /**********************************/\r\n    /*\r\n                   END              \r\n             AUCTION CREATION       \r\n      */\r\n    /**********************************/\r\n\r\n    /*\r\n                  SALES             \r\n      */\r\n\r\n    /********************************************************************\r\n     * Allows for a standard sale mechanism where the NFT seller can    *\r\n     * can select an address to be whitelisted. This address is then    *\r\n     * allowed to make a bid on the NFT. No other address can bid on    *\r\n     * the NFT.                                                         *\r\n     ********************************************************************/\r\n    function _setupSale(\r\n        uint256 _tokenId,\r\n        address _erc20Token,\r\n        uint128 _buyNowPrice,\r\n        address _whitelistedBuyer,\r\n        address[] memory _feeRecipients,\r\n        uint32[] memory _feePercentages\r\n    )\r\n        internal\r\n        correctFeeRecipientsAndPercentages(\r\n            _feeRecipients.length,\r\n            _feePercentages.length\r\n        )\r\n        isFeePercentagesLessThanMaximum(_feePercentages)\r\n    {\r\n        if (_erc20Token != address(0)) {\r\n            nftContractAuctions[_tokenId].ERC20Token = _erc20Token;\r\n        }\r\n        nftContractAuctions[_tokenId].feeRecipients = _feeRecipients;\r\n        nftContractAuctions[_tokenId].feePercentages = _feePercentages;\r\n        nftContractAuctions[_tokenId].buyNowPrice = _buyNowPrice;\r\n        nftContractAuctions[_tokenId].nftSeller = msg.sender;\r\n    }\r\n\r\n    function createSale(\r\n        uint256 _tokenId,\r\n        address _erc20Token,\r\n        uint128 _buyNowPrice,\r\n        address _whitelistedBuyer,\r\n        address[] memory _feeRecipients,\r\n        uint32[] memory _feePercentages\r\n    )\r\n        external\r\n        isAuctionNotStartedByOwner(_tokenId)\r\n        priceGreaterThanZero(_buyNowPrice)\r\n    {\r\n        //min price = 0\r\n        _setupSale(\r\n            _tokenId,\r\n            _erc20Token,\r\n            _buyNowPrice,\r\n            _whitelistedBuyer,\r\n            _feeRecipients,\r\n            _feePercentages\r\n        );\r\n\r\n        emit SaleCreated(\r\n            _tokenId,\r\n            msg.sender,\r\n            _erc20Token,\r\n            _buyNowPrice,\r\n            _whitelistedBuyer,\r\n            _feeRecipients,\r\n            _feePercentages\r\n        );\r\n        //check if buyNowPrice is meet and conclude sale, otherwise reverse the early bid\r\n        if (_isABidMade(_tokenId)) {\r\n            if (_isBuyNowPriceMet(_tokenId)) {\r\n                _transferNftToAuctionContract(_tokenId);\r\n                _transferNftAndPaySeller(_tokenId);\r\n            }\r\n        }\r\n    }\r\n\r\n    /**********************************/\r\n    /*\r\n                   END              \r\n                  SALES             \r\n      */\r\n    /**********************************/\r\n\r\n    /*\r\n              BID FUNCTIONS        \r\n      */\r\n\r\n    /********************************************************************\r\n     * Make bids with ETH or an ERC20 Token specified by the NFT seller.*\r\n     * Additionally, a buyer can pay the asking price to conclude a sale*\r\n     * of an NFT.                                                      *\r\n     ********************************************************************/\r\n\r\n    function _makeBid(\r\n        uint256 _tokenId,\r\n        address _erc20Token,\r\n        uint128 _tokenAmount\r\n    )\r\n        internal\r\n        notNftSeller(_tokenId)\r\n        paymentAccepted(_tokenId, _erc20Token, _tokenAmount)\r\n        bidAmountMeetsBidRequirements(_tokenId, _tokenAmount)\r\n    {\r\n        _reversePreviousBidAndUpdateHighestBid(_tokenId, _tokenAmount);\r\n        emit BidMade(\r\n            _tokenId,\r\n            msg.sender,\r\n            msg.value,\r\n            _erc20Token,\r\n            _tokenAmount\r\n        );\r\n        _updateOngoingAuction(_tokenId);\r\n    }\r\n\r\n    function makeCustomBid(\r\n        uint256 _tokenId,\r\n        address _erc20Token,\r\n        uint128 _tokenAmount,\r\n        address _nftRecipient\r\n    ) external payable auctionOngoing(_tokenId) notZeroAddress(_nftRecipient) {\r\n        nftContractAuctions[_tokenId].nftRecipient = _nftRecipient;\r\n        _makeBid(_tokenId, _erc20Token, _tokenAmount);\r\n    }\r\n\r\n    /**********************************/\r\n    /*\r\n                   END              \r\n              BID FUNCTIONS         \r\n      */\r\n    /**********************************/\r\n\r\n    /*\r\n             UPDATE AUCTION         \r\n      */\r\n\r\n    /***************************************************************\r\n     * Settle an auction or sale if the buyNowPrice is met or set  *\r\n     *  auction period to begin if the minimum price has been met. *\r\n     ***************************************************************/\r\n    function _updateOngoingAuction(uint256 _tokenId) internal {\r\n        if (_isBuyNowPriceMet(_tokenId)) {\r\n            _transferNftToAuctionContract(_tokenId);\r\n            _transferNftAndPaySeller(_tokenId);\r\n            return;\r\n        }\r\n        //min price not set, nft not up for auction yet\r\n        if (_isMinimumBidMade(_tokenId)) {\r\n            _transferNftToAuctionContract(_tokenId);\r\n            _updateAuctionEnd(_tokenId);\r\n        }\r\n    }\r\n\r\n    function _updateAuctionEnd(uint256 _tokenId) internal {\r\n        //the auction end is always set to now + the bid period\r\n        nftContractAuctions[_tokenId].auctionEnd =\r\n            _getAuctionBidPeriod(_tokenId) +\r\n            uint64(block.timestamp);\r\n        emit AuctionPeriodUpdated(\r\n            _tokenId,\r\n            nftContractAuctions[_tokenId].auctionEnd\r\n        );\r\n    }\r\n\r\n    /**********************************/\r\n    /*\r\n                   END              \r\n             UPDATE AUCTION         \r\n      */\r\n    /**********************************/\r\n\r\n    /*\r\n             RESET FUNCTIONS        \r\n      */\r\n\r\n    /*\r\n     * Reset all auction related parameters for an NFT.\r\n     * This effectively removes an EFT as an item up for auction\r\n     */\r\n    function _resetAuction(uint256 _tokenId) internal {\r\n        nftContractAuctions[_tokenId].minPrice = 0;\r\n        nftContractAuctions[_tokenId].buyNowPrice = 0;\r\n        nftContractAuctions[_tokenId].auctionEnd = 0;\r\n        nftContractAuctions[_tokenId].auctionBidPeriod = 0;\r\n        nftContractAuctions[_tokenId].bidIncreasePercentage = 0;\r\n        nftContractAuctions[_tokenId].nftSeller = address(0);\r\n        nftContractAuctions[_tokenId].ERC20Token = address(0);\r\n    }\r\n\r\n    function _resetBids(uint256 _tokenId) internal {\r\n        nftContractAuctions[_tokenId].nftHighestBidder = address(0);\r\n        nftContractAuctions[_tokenId].nftHighestBid = 0;\r\n        nftContractAuctions[_tokenId].nftRecipient = address(0);\r\n    }\r\n\r\n    /**********************************/\r\n    /*\r\n                   END              \r\n             RESET FUNCTIONS        \r\n      */\r\n    /**********************************/\r\n\r\n    /*\r\n               UPDATE BIDS          \r\n      */\r\n    /******************************************************************\r\n     * Internal functions that update bid parameters and reverse bids *\r\n     * to ensure contract only holds the highest bid.                 *\r\n     ******************************************************************/\r\n    function _updateHighestBid(uint256 _tokenId, uint128 _tokenAmount)\r\n        internal\r\n    {\r\n        address auctionERC20Token = nftContractAuctions[_tokenId].ERC20Token;\r\n        if (_isERC20Auction(auctionERC20Token)) {\r\n            IERC20(auctionERC20Token).transferFrom(\r\n                msg.sender,\r\n                address(this),\r\n                _tokenAmount\r\n            );\r\n            nftContractAuctions[_tokenId].nftHighestBid = _tokenAmount;\r\n        } else {\r\n            nftContractAuctions[_tokenId].nftHighestBid = uint128(msg.value);\r\n        }\r\n        nftContractAuctions[_tokenId].nftHighestBidder = msg.sender;\r\n    }\r\n\r\n    function _reversePreviousBidAndUpdateHighestBid(\r\n        uint256 _tokenId,\r\n        uint128 _tokenAmount\r\n    ) internal {\r\n        address prevNftHighestBidder = nftContractAuctions[_tokenId]\r\n            .nftHighestBidder;\r\n\r\n        uint256 prevNftHighestBid = nftContractAuctions[_tokenId].nftHighestBid;\r\n        _updateHighestBid(_tokenId, _tokenAmount);\r\n\r\n        if (prevNftHighestBidder != address(0)) {\r\n            _payout(_tokenId, prevNftHighestBidder, prevNftHighestBid);\r\n        }\r\n    }\r\n\r\n    /**********************************/\r\n    /*\r\n                   END              \r\n               UPDATE BIDS          \r\n      */\r\n    /**********************************/\r\n\r\n    /*\r\n        TRANSFER NFT & PAY SELLER   \r\n      */\r\n    function _transferNftAndPaySeller(uint256 _tokenId) internal {\r\n        address _nftSeller = nftContractAuctions[_tokenId].nftSeller;\r\n        address _nftHighestBidder = nftContractAuctions[_tokenId]\r\n            .nftHighestBidder;\r\n        address _nftRecipient = _getNftRecipient(_tokenId);\r\n        uint128 _nftHighestBid = nftContractAuctions[_tokenId].nftHighestBid;\r\n        _resetBids(_tokenId);\r\n\r\n        _payFeesAndSeller(_tokenId, _nftSeller, _nftHighestBid);\r\n        IERC721(_nftContractAddress).transferFrom(\r\n            address(this),\r\n            _nftRecipient,\r\n            _tokenId\r\n        );\r\n\r\n        _resetAuction(_tokenId);\r\n        emit NFTTransferredAndSellerPaid(\r\n            _tokenId,\r\n            _nftSeller,\r\n            _nftHighestBid,\r\n            _nftHighestBidder,\r\n            _nftRecipient\r\n        );\r\n    }\r\n\r\n    function _payFeesAndSeller(\r\n        uint256 _tokenId,\r\n        address _nftSeller,\r\n        uint256 _highestBid\r\n    ) internal {\r\n        uint256 feesPaid;\r\n        for (\r\n            uint256 i = 0;\r\n            i < nftContractAuctions[_tokenId].feeRecipients.length;\r\n            i++\r\n        ) {\r\n            uint256 fee = _getPortionOfBid(\r\n                _highestBid,\r\n                nftContractAuctions[_tokenId].feePercentages[i]\r\n            );\r\n            feesPaid = feesPaid + fee;\r\n            _payout(\r\n                _tokenId,\r\n                nftContractAuctions[_tokenId].feeRecipients[i],\r\n                fee\r\n            );\r\n        }\r\n        _payout(_tokenId, _nftSeller, (_highestBid - feesPaid));\r\n    }\r\n\r\n    function _payout(\r\n        uint256 _tokenId,\r\n        address _recipient,\r\n        uint256 _amount\r\n    ) internal {\r\n        address auctionERC20Token = nftContractAuctions[_tokenId].ERC20Token;\r\n        if (_isERC20Auction(auctionERC20Token)) {\r\n            IERC20(auctionERC20Token).transfer(_recipient, _amount);\r\n        } else {\r\n            // attempt to send the funds to the recipient\r\n            (bool success, ) = payable(_recipient).call{\r\n                value: _amount,\r\n                gas: 20000\r\n            }(\"\");\r\n            // if it failed, update their credit balance so they can pull it later\r\n            if (!success) {\r\n                failedTransferCredits[_recipient] =\r\n                    failedTransferCredits[_recipient] +\r\n                    _amount;\r\n            }\r\n        }\r\n    }\r\n\r\n    /**********************************/\r\n    /*\r\n                   END              \r\n        TRANSFER NFT & PAY SELLER   \r\n      */\r\n    /**********************************/\r\n\r\n    /*\r\n            SETTLE & WITHDRAW       \r\n      */\r\n\r\n    function settleAuction(uint256 _tokenId) external isAuctionOver(_tokenId) {\r\n        _transferNftAndPaySeller(_tokenId);\r\n        emit AuctionSettled(_tokenId, msg.sender);\r\n    }\r\n\r\n    function withdrawAuction(uint256 _tokenId) external {\r\n        //only the NFT owner can prematurely close and auction\r\n        require(\r\n            IERC721(_nftContractAddress).ownerOf(_tokenId) == msg.sender,\r\n            \"Not NFT owner\"\r\n        );\r\n        _resetAuction(_tokenId);\r\n        emit AuctionWithdrawn(_tokenId, msg.sender);\r\n    }\r\n\r\n    function withdrawBid(uint256 _tokenId)\r\n        external\r\n        minimumBidNotMade(_tokenId)\r\n    {\r\n        address nftHighestBidder = nftContractAuctions[_tokenId]\r\n            .nftHighestBidder;\r\n        require(msg.sender == nftHighestBidder, \"Cannot withdraw funds\");\r\n\r\n        uint128 nftHighestBid = nftContractAuctions[_tokenId].nftHighestBid;\r\n        _resetBids(_tokenId);\r\n\r\n        _payout(_tokenId, nftHighestBidder, nftHighestBid);\r\n\r\n        emit BidWithdrawn(_tokenId, msg.sender);\r\n    }\r\n\r\n    /**********************************/\r\n    /*\r\n                   END              \r\n            SETTLE & WITHDRAW       \r\n      */\r\n    /**********************************/\r\n\r\n    /*\r\n             UPDATE AUCTION         \r\n      */\r\n\r\n    /*\r\n     * The NFT seller can opt to end an auction by taking the current highest bid.\r\n     */\r\n    function takeHighestBid(uint256 _tokenId) external onlyNftSeller(_tokenId) {\r\n        require(_isABidMade(_tokenId), \"cannot payout 0 bid\");\r\n        _transferNftToAuctionContract(_tokenId);\r\n        _transferNftAndPaySeller(_tokenId);\r\n        emit HighestBidTaken(_tokenId);\r\n    }\r\n\r\n    /*\r\n     * Query the owner of an NFT deposited for auction\r\n     */\r\n    function ownerOfNFT(uint256 _tokenId) external view returns (address) {\r\n        address nftSeller = nftContractAuctions[_tokenId].nftSeller;\r\n        require(nftSeller != address(0), \"NFT not deposited\");\r\n\r\n        return nftSeller;\r\n    }\r\n\r\n    /*\r\n     * If the transfer of a bid has failed, allow the recipient to reclaim their amount later.\r\n     */\r\n    function withdrawAllFailedCredits() external {\r\n        uint256 amount = failedTransferCredits[msg.sender];\r\n\r\n        require(amount != 0, \"no credits to withdraw\");\r\n\r\n        failedTransferCredits[msg.sender] = 0;\r\n\r\n        (bool successfulWithdraw, ) = msg.sender.call{\r\n            value: amount,\r\n            gas: 20000\r\n        }(\"\");\r\n        require(successfulWithdraw, \"withdraw failed\");\r\n    }\r\n\r\n    /**********************************/\r\n    /*\r\n                   END              \r\n             UPDATE AUCTION         \r\n      */\r\n    /**********************************/\r\n}\r\n",
  "sourcePath": "D:\\job\\NFT\\test\\new-contract\\contracts\\Auction.sol",
  "compiler": {
    "name": "solc",
    "version": "0.7.6+commit.7338295f.Emscripten.clang"
  },
  "schemaVersion": "3.4.3",
  "updatedAt": "2022-03-01T12:56:33.653Z",
  "devdoc": {
    "kind": "dev",
    "methods": {},
    "version": 1
  },
  "userdoc": {
    "kind": "user",
    "methods": {},
    "version": 1
  }
}