{
  "contractName": "NFTAuction",
  "abi": [
    {
      "inputs": [
        {
          "internalType": "address",
          "name": "nftContractAddress",
          "type": "address"
        },
        {
          "internalType": "address",
          "name": "_manager",
          "type": "address"
        }
      ],
      "stateMutability": "nonpayable",
      "type": "constructor"
    },
    {
      "anonymous": false,
      "inputs": [
        {
          "indexed": false,
          "internalType": "uint256",
          "name": "tokenId",
          "type": "uint256"
        },
        {
          "indexed": false,
          "internalType": "uint64",
          "name": "auctionEndPeriod",
          "type": "uint64"
        }
      ],
      "name": "AuctionPeriodUpdated",
      "type": "event"
    },
    {
      "anonymous": false,
      "inputs": [
        {
          "indexed": false,
          "internalType": "uint256",
          "name": "tokenId",
          "type": "uint256"
        },
        {
          "indexed": false,
          "internalType": "address",
          "name": "auctionSettler",
          "type": "address"
        }
      ],
      "name": "AuctionSettled",
      "type": "event"
    },
    {
      "anonymous": false,
      "inputs": [
        {
          "indexed": false,
          "internalType": "uint256",
          "name": "tokenId",
          "type": "uint256"
        },
        {
          "indexed": false,
          "internalType": "address",
          "name": "nftOwner",
          "type": "address"
        }
      ],
      "name": "AuctionWithdrawn",
      "type": "event"
    },
    {
      "anonymous": false,
      "inputs": [
        {
          "indexed": false,
          "internalType": "uint256",
          "name": "tokenId",
          "type": "uint256"
        },
        {
          "indexed": false,
          "internalType": "address",
          "name": "bidder",
          "type": "address"
        },
        {
          "indexed": false,
          "internalType": "uint256",
          "name": "ethAmount",
          "type": "uint256"
        },
        {
          "indexed": false,
          "internalType": "address",
          "name": "erc20Token",
          "type": "address"
        },
        {
          "indexed": false,
          "internalType": "uint256",
          "name": "tokenAmount",
          "type": "uint256"
        }
      ],
      "name": "BidMade",
      "type": "event"
    },
    {
      "anonymous": false,
      "inputs": [
        {
          "indexed": false,
          "internalType": "uint256",
          "name": "tokenId",
          "type": "uint256"
        },
        {
          "indexed": false,
          "internalType": "address",
          "name": "highestBidder",
          "type": "address"
        }
      ],
      "name": "BidWithdrawn",
      "type": "event"
    },
    {
      "anonymous": false,
      "inputs": [
        {
          "indexed": false,
          "internalType": "uint32",
          "name": "fee",
          "type": "uint32"
        }
      ],
      "name": "FeeSet",
      "type": "event"
    },
    {
      "anonymous": false,
      "inputs": [
        {
          "indexed": false,
          "internalType": "uint256",
          "name": "tokenId",
          "type": "uint256"
        }
      ],
      "name": "HighestBidTaken",
      "type": "event"
    },
    {
      "anonymous": false,
      "inputs": [
        {
          "indexed": false,
          "internalType": "uint256",
          "name": "tokenId",
          "type": "uint256"
        },
        {
          "indexed": false,
          "internalType": "address",
          "name": "nftSeller",
          "type": "address"
        },
        {
          "indexed": false,
          "internalType": "uint128",
          "name": "nftHighestBid",
          "type": "uint128"
        },
        {
          "indexed": false,
          "internalType": "address",
          "name": "nftHighestBidder",
          "type": "address"
        },
        {
          "indexed": false,
          "internalType": "address",
          "name": "nftRecipient",
          "type": "address"
        }
      ],
      "name": "NFTTransferredAndSellerPaid",
      "type": "event"
    },
    {
      "anonymous": false,
      "inputs": [
        {
          "indexed": false,
          "internalType": "uint256",
          "name": "tokenId",
          "type": "uint256"
        },
        {
          "indexed": false,
          "internalType": "address",
          "name": "nftSeller",
          "type": "address"
        },
        {
          "indexed": false,
          "internalType": "address",
          "name": "erc20Token",
          "type": "address"
        },
        {
          "indexed": false,
          "internalType": "uint128",
          "name": "minPrice",
          "type": "uint128"
        },
        {
          "indexed": false,
          "internalType": "uint128",
          "name": "buyNowPrice",
          "type": "uint128"
        },
        {
          "indexed": false,
          "internalType": "uint32",
          "name": "auctionBidPeriod",
          "type": "uint32"
        },
        {
          "indexed": false,
          "internalType": "uint32",
          "name": "bidIncreasePercentage",
          "type": "uint32"
        },
        {
          "indexed": false,
          "internalType": "address[]",
          "name": "feeRecipients",
          "type": "address[]"
        },
        {
          "indexed": false,
          "internalType": "uint32[]",
          "name": "feePercentages",
          "type": "uint32[]"
        }
      ],
      "name": "NftAuctionCreated",
      "type": "event"
    },
    {
      "anonymous": false,
      "inputs": [
        {
          "indexed": false,
          "internalType": "address",
          "name": "_seller",
          "type": "address"
        },
        {
          "indexed": false,
          "internalType": "address",
          "name": "_buyer",
          "type": "address"
        },
        {
          "indexed": false,
          "internalType": "uint256",
          "name": "_price",
          "type": "uint256"
        }
      ],
      "name": "NftBorrow",
      "type": "event"
    },
    {
      "anonymous": false,
      "inputs": [
        {
          "indexed": false,
          "internalType": "uint256",
          "name": "tokenId",
          "type": "uint256"
        },
        {
          "indexed": false,
          "internalType": "uint256",
          "name": "price",
          "type": "uint256"
        }
      ],
      "name": "NftPriceChanged",
      "type": "event"
    },
    {
      "anonymous": false,
      "inputs": [
        {
          "indexed": false,
          "internalType": "address",
          "name": "lender",
          "type": "address"
        },
        {
          "indexed": false,
          "internalType": "uint256",
          "name": "tokenId",
          "type": "uint256"
        },
        {
          "indexed": false,
          "internalType": "uint32",
          "name": "period",
          "type": "uint32"
        },
        {
          "indexed": false,
          "internalType": "uint128",
          "name": "price",
          "type": "uint128"
        },
        {
          "indexed": false,
          "internalType": "uint128",
          "name": "_extraPay",
          "type": "uint128"
        },
        {
          "indexed": false,
          "internalType": "uint128",
          "name": "_collateral",
          "type": "uint128"
        }
      ],
      "name": "NftToLend",
      "type": "event"
    },
    {
      "anonymous": false,
      "inputs": [
        {
          "indexed": false,
          "internalType": "address",
          "name": "lender",
          "type": "address"
        },
        {
          "indexed": false,
          "internalType": "address",
          "name": "borrower",
          "type": "address"
        },
        {
          "indexed": false,
          "internalType": "uint256",
          "name": "_tokenId",
          "type": "uint256"
        }
      ],
      "name": "ReturnNftToLender",
      "type": "event"
    },
    {
      "anonymous": false,
      "inputs": [
        {
          "indexed": false,
          "internalType": "uint256",
          "name": "tokenId",
          "type": "uint256"
        },
        {
          "indexed": false,
          "internalType": "address",
          "name": "nftSeller",
          "type": "address"
        },
        {
          "indexed": false,
          "internalType": "address",
          "name": "erc20Token",
          "type": "address"
        },
        {
          "indexed": false,
          "internalType": "uint128",
          "name": "buyNowPrice",
          "type": "uint128"
        },
        {
          "indexed": false,
          "internalType": "address[]",
          "name": "feeRecipients",
          "type": "address[]"
        },
        {
          "indexed": false,
          "internalType": "uint32[]",
          "name": "feePercentages",
          "type": "uint32[]"
        }
      ],
      "name": "SaleCreated",
      "type": "event"
    },
    {
      "inputs": [],
      "name": "_nftContractAddress",
      "outputs": [
        {
          "internalType": "address",
          "name": "",
          "type": "address"
        }
      ],
      "stateMutability": "view",
      "type": "function"
    },
    {
      "inputs": [],
      "name": "defaultAuctionBidPeriod",
      "outputs": [
        {
          "internalType": "uint32",
          "name": "",
          "type": "uint32"
        }
      ],
      "stateMutability": "view",
      "type": "function"
    },
    {
      "inputs": [],
      "name": "defaultBidIncreasePercentage",
      "outputs": [
        {
          "internalType": "uint32",
          "name": "",
          "type": "uint32"
        }
      ],
      "stateMutability": "view",
      "type": "function"
    },
    {
      "inputs": [],
      "name": "managerFee",
      "outputs": [
        {
          "internalType": "uint32",
          "name": "",
          "type": "uint32"
        }
      ],
      "stateMutability": "view",
      "type": "function"
    },
    {
      "inputs": [
        {
          "internalType": "uint256",
          "name": "",
          "type": "uint256"
        }
      ],
      "name": "nftContractAuctions",
      "outputs": [
        {
          "internalType": "uint32",
          "name": "bidIncreasePercentage",
          "type": "uint32"
        },
        {
          "internalType": "uint32",
          "name": "auctionBidPeriod",
          "type": "uint32"
        },
        {
          "internalType": "uint64",
          "name": "auctionEnd",
          "type": "uint64"
        },
        {
          "internalType": "uint128",
          "name": "minPrice",
          "type": "uint128"
        },
        {
          "internalType": "uint128",
          "name": "buyNowPrice",
          "type": "uint128"
        },
        {
          "internalType": "uint128",
          "name": "nftHighestBid",
          "type": "uint128"
        },
        {
          "internalType": "address",
          "name": "nftHighestBidder",
          "type": "address"
        },
        {
          "internalType": "address",
          "name": "nftSeller",
          "type": "address"
        },
        {
          "internalType": "address",
          "name": "nftRecipient",
          "type": "address"
        },
        {
          "internalType": "address",
          "name": "ERC20Token",
          "type": "address"
        }
      ],
      "stateMutability": "view",
      "type": "function"
    },
    {
      "inputs": [
        {
          "internalType": "uint256",
          "name": "",
          "type": "uint256"
        }
      ],
      "name": "rentNfts",
      "outputs": [
        {
          "internalType": "address",
          "name": "lender",
          "type": "address"
        },
        {
          "internalType": "address",
          "name": "borrower",
          "type": "address"
        },
        {
          "internalType": "uint32",
          "name": "period",
          "type": "uint32"
        },
        {
          "internalType": "uint128",
          "name": "price",
          "type": "uint128"
        },
        {
          "internalType": "uint128",
          "name": "collateral",
          "type": "uint128"
        },
        {
          "internalType": "uint128",
          "name": "extraPay",
          "type": "uint128"
        },
        {
          "internalType": "uint64",
          "name": "rentEnd",
          "type": "uint64"
        }
      ],
      "stateMutability": "view",
      "type": "function"
    },
    {
      "inputs": [
        {
          "internalType": "uint256",
          "name": "_tokenId",
          "type": "uint256"
        },
        {
          "internalType": "address",
          "name": "_erc20Token",
          "type": "address"
        },
        {
          "internalType": "uint128",
          "name": "_minPrice",
          "type": "uint128"
        },
        {
          "internalType": "uint128",
          "name": "_buyNowPrice",
          "type": "uint128"
        },
        {
          "internalType": "uint32",
          "name": "_auctionBidPeriod",
          "type": "uint32"
        },
        {
          "internalType": "uint32",
          "name": "_bidIncreasePercentage",
          "type": "uint32"
        },
        {
          "internalType": "address[]",
          "name": "_feeRecipients",
          "type": "address[]"
        },
        {
          "internalType": "uint32[]",
          "name": "_feePercentages",
          "type": "uint32[]"
        }
      ],
      "name": "createNewNftAuction",
      "outputs": [],
      "stateMutability": "nonpayable",
      "type": "function"
    },
    {
      "inputs": [
        {
          "internalType": "uint256",
          "name": "_tokenId",
          "type": "uint256"
        },
        {
          "internalType": "address",
          "name": "_erc20Token",
          "type": "address"
        },
        {
          "internalType": "uint128",
          "name": "_buyNowPrice",
          "type": "uint128"
        },
        {
          "internalType": "address[]",
          "name": "_feeRecipients",
          "type": "address[]"
        },
        {
          "internalType": "uint32[]",
          "name": "_feePercentages",
          "type": "uint32[]"
        }
      ],
      "name": "createSale",
      "outputs": [],
      "stateMutability": "nonpayable",
      "type": "function"
    },
    {
      "inputs": [
        {
          "internalType": "uint256",
          "name": "_tokenId",
          "type": "uint256"
        },
        {
          "internalType": "address",
          "name": "_erc20Token",
          "type": "address"
        },
        {
          "internalType": "uint128",
          "name": "_tokenAmount",
          "type": "uint128"
        },
        {
          "internalType": "address",
          "name": "_nftRecipient",
          "type": "address"
        }
      ],
      "name": "makeCustomBid",
      "outputs": [],
      "stateMutability": "payable",
      "type": "function"
    },
    {
      "inputs": [
        {
          "internalType": "uint256",
          "name": "_tokenId",
          "type": "uint256"
        }
      ],
      "name": "settleAuction",
      "outputs": [],
      "stateMutability": "nonpayable",
      "type": "function"
    },
    {
      "inputs": [
        {
          "internalType": "uint256",
          "name": "_tokenId",
          "type": "uint256"
        }
      ],
      "name": "withdrawAuction",
      "outputs": [],
      "stateMutability": "nonpayable",
      "type": "function"
    },
    {
      "inputs": [
        {
          "internalType": "uint256",
          "name": "_tokenId",
          "type": "uint256"
        }
      ],
      "name": "withdrawBid",
      "outputs": [],
      "stateMutability": "nonpayable",
      "type": "function"
    },
    {
      "inputs": [
        {
          "internalType": "uint256",
          "name": "_tokenId",
          "type": "uint256"
        }
      ],
      "name": "takeHighestBid",
      "outputs": [],
      "stateMutability": "nonpayable",
      "type": "function"
    },
    {
      "inputs": [
        {
          "internalType": "uint256",
          "name": "_tokenId",
          "type": "uint256"
        }
      ],
      "name": "ownerOfNFT",
      "outputs": [
        {
          "internalType": "address",
          "name": "",
          "type": "address"
        }
      ],
      "stateMutability": "view",
      "type": "function"
    },
    {
      "inputs": [],
      "name": "withdrawAllFailedCredits",
      "outputs": [],
      "stateMutability": "nonpayable",
      "type": "function"
    },
    {
      "inputs": [
        {
          "internalType": "uint256",
          "name": "_tokenId",
          "type": "uint256"
        }
      ],
      "name": "getAuctionInfo",
      "outputs": [
        {
          "components": [
            {
              "internalType": "uint32",
              "name": "bidIncreasePercentage",
              "type": "uint32"
            },
            {
              "internalType": "uint32",
              "name": "auctionBidPeriod",
              "type": "uint32"
            },
            {
              "internalType": "uint64",
              "name": "auctionEnd",
              "type": "uint64"
            },
            {
              "internalType": "uint128",
              "name": "minPrice",
              "type": "uint128"
            },
            {
              "internalType": "uint128",
              "name": "buyNowPrice",
              "type": "uint128"
            },
            {
              "internalType": "uint128",
              "name": "nftHighestBid",
              "type": "uint128"
            },
            {
              "internalType": "address",
              "name": "nftHighestBidder",
              "type": "address"
            },
            {
              "internalType": "address",
              "name": "nftSeller",
              "type": "address"
            },
            {
              "internalType": "address",
              "name": "nftRecipient",
              "type": "address"
            },
            {
              "internalType": "address",
              "name": "ERC20Token",
              "type": "address"
            },
            {
              "internalType": "address[]",
              "name": "feeRecipients",
              "type": "address[]"
            },
            {
              "internalType": "uint32[]",
              "name": "feePercentages",
              "type": "uint32[]"
            }
          ],
          "internalType": "struct NFTAuction.Auction",
          "name": "",
          "type": "tuple"
        }
      ],
      "stateMutability": "view",
      "type": "function"
    },
    {
      "inputs": [
        {
          "internalType": "uint256",
          "name": "_tokenId",
          "type": "uint256"
        },
        {
          "internalType": "string",
          "name": "latitude",
          "type": "string"
        },
        {
          "internalType": "string",
          "name": "longitude",
          "type": "string"
        },
        {
          "internalType": "string",
          "name": "name",
          "type": "string"
        }
      ],
      "name": "getSVG",
      "outputs": [
        {
          "internalType": "string",
          "name": "",
          "type": "string"
        }
      ],
      "stateMutability": "view",
      "type": "function"
    },
    {
      "inputs": [
        {
          "internalType": "uint256",
          "name": "_tokenId",
          "type": "uint256"
        },
        {
          "internalType": "uint32",
          "name": "_period",
          "type": "uint32"
        },
        {
          "internalType": "uint128",
          "name": "_collateral",
          "type": "uint128"
        },
        {
          "internalType": "uint128",
          "name": "_price",
          "type": "uint128"
        },
        {
          "internalType": "uint128",
          "name": "_extraPay",
          "type": "uint128"
        }
      ],
      "name": "lend",
      "outputs": [],
      "stateMutability": "nonpayable",
      "type": "function"
    },
    {
      "inputs": [
        {
          "internalType": "uint256",
          "name": "_tokenId",
          "type": "uint256"
        }
      ],
      "name": "borrow",
      "outputs": [],
      "stateMutability": "payable",
      "type": "function"
    },
    {
      "inputs": [
        {
          "internalType": "uint256",
          "name": "_tokenId",
          "type": "uint256"
        }
      ],
      "name": "returnNft",
      "outputs": [],
      "stateMutability": "nonpayable",
      "type": "function"
    },
    {
      "inputs": [
        {
          "internalType": "uint32",
          "name": "fee",
          "type": "uint32"
        }
      ],
      "name": "setManagerFee",
      "outputs": [],
      "stateMutability": "nonpayable",
      "type": "function"
    }
  ],
  "bytecode": "0x60806040523480156200001157600080fd5b50604051620039c2380380620039c28339810160408190526200003491620000c7565b60038054600480546001600160a01b0319166001600160a01b03948516179055606463ffffffff199091161763ffffffff60201b1916660151800000000017600160401b600160e01b031916680100000000000000009390921692909202176001600160e01b0316600b60e01b179055620000fe565b80516001600160a01b0381168114620000c257600080fd5b919050565b60008060408385031215620000da578182fd5b620000e583620000aa565b9150620000f560208401620000aa565b90509250929050565b6138b4806200010e6000396000f3fe6080604052600436106101295760003560e01c8063989445be116100ab578063b6ad69141161006f578063b6ad69141461031d578063c1278a7214610332578063c5ebeaec14610352578063fa70eb3c14610365578063fc3fc4ed14610398578063fe028497146103c557610129565b8063989445be146102865780639c0b9966146102a65780639c7632fc146102bb578063a3216158146102d0578063b5fc9833146102fd57610129565b80632d8a746e116100f25780632d8a746e146101d05780632e993611146101f057806345a977151461021057806354e538d6146102465780636724637a1461026657610129565b80626264301461012e57806309d77f0e146101435780630eaaf4c814610163578063186779d514610183578063190efb6b146101ae575b600080fd5b61014161013c366004612a75565b6103e5565b005b34801561014f57600080fd5b5061014161015e366004612a5d565b610478565b34801561016f57600080fd5b5061014161017e366004612a5d565b6105e8565b34801561018f57600080fd5b506101986106c7565b6040516101a59190613758565b60405180910390f35b3480156101ba57600080fd5b506101c36106db565b6040516101a59190612ded565b3480156101dc57600080fd5b506101c36101eb366004612a5d565b6106f1565b3480156101fc57600080fd5b5061014161020b366004612a5d565b610731565b34801561021c57600080fd5b5061023061022b366004612a5d565b61079e565b6040516101a59a99989796959493929190613769565b34801561025257600080fd5b50610141610261366004612cfb565b610823565b34801561027257600080fd5b50610141610281366004612ac5565b6108a5565b34801561029257600080fd5b506101416102a1366004612b52565b610aa7565b3480156102b257600080fd5b50610198610c7b565b3480156102c757600080fd5b50610198610c87565b3480156102dc57600080fd5b506102f06102eb366004612c11565b610c9a565b6040516101a59190612f09565b34801561030957600080fd5b50610141610318366004612a5d565b610d56565b34801561032957600080fd5b50610141610e3d565b34801561033e57600080fd5b5061014161034d366004612a5d565b610ef8565b610141610360366004612a5d565b610f99565b34801561037157600080fd5b50610385610380366004612a5d565b6111fb565b6040516101a59796959493929190612e99565b3480156103a457600080fd5b506103b86103b3366004612a5d565b611266565b6040516101a5919061345c565b3480156103d157600080fd5b506101416103e0366004612c9e565b61140b565b836103ef816116c9565b6104145760405162461bcd60e51b815260040161040b90613096565b60405180910390fd5b816001600160a01b03811661043b5760405162461bcd60e51b815260040161040b906133d5565b600086815260208190526040902060040180546001600160a01b0319166001600160a01b038516179055610470868686611704565b505050505050565b600081815260026020526040902060030154600160801b90046001600160401b031642116104b85760405162461bcd60e51b815260040161040b90612f7c565b6000818152600260205260409020600101546001600160a01b03163314806104f657506000818152600260205260409020546001600160a01b031633145b6105125760405162461bcd60e51b815260040161040b90613334565b60008181526002602052604090819020805460019091015460035492516323b872dd60e01b81526001600160a01b039283169391831692600160401b909204909116906323b872dd9061056d90849086908890600401612e75565b600060405180830381600087803b15801561058757600080fd5b505af115801561059b573d6000803e3d6000fd5b505050507f3559d7fad99b6819dc6714e8bbbc188935f449cfe629387b3a83a225e2cb0a858282856040516105d293929190612e75565b60405180910390a16105e3836117e4565b505050565b806105f281611835565b1561060f5760405162461bcd60e51b815260040161040b90612f1c565b6000828152602081905260409020600201546001600160a01b03163381146106495760405162461bcd60e51b815260040161040b9061317d565b600083815260208190526040902060010154600160801b90046001600160801b03166106748461188e565b6106888483836001600160801b03166118d0565b7f5e9c7ae3229b2cda5065d7058fcc05765c695c29ce05313fbe96cb2ca639231a84336040516106b99291906135d9565b60405180910390a150505050565b600354640100000000900463ffffffff1681565b600354600160401b90046001600160a01b031681565b6000818152602081905260408120600301546001600160a01b0316806107295760405162461bcd60e51b815260040161040b90612fde565b90505b919050565b8061073b816116c9565b156107585760405162461bcd60e51b815260040161040b9061323c565b61076182611a0f565b7f3cb6ab80f3d78a04ca009e9869c4d9f4e27be13d3c443861e450ff1e40fc5bbb82336040516107929291906135d9565b60405180910390a15050565b60006020819052908152604090208054600182015460028301546003840154600485015460059095015463ffffffff808616966401000000008704909116956001600160401b03600160401b820416956001600160801b03600160801b92839004811696828216969390920416936001600160a01b039182169392821692821691168a565b6004546001600160a01b0316331461084d5760405162461bcd60e51b815260040161040b90613156565b600380546001600160e01b0316600160e01b63ffffffff8416021790556040517ff489d8b93b3874572cc94319f109187d1ea814b9de5a3d9e54c48c1ac0d57cad9061089a908390613758565b60405180910390a150565b60008581526020819052604090206003015485906001600160a01b03163314156108e15760405162461bcd60e51b815260040161040b90613121565b6000818152602081905260409020600301546001600160a01b0316156109c0576003546040516331a9108f60e11b8152600160401b9091046001600160a01b031690636352211e906109379084906004016135d0565b60206040518083038186803b15801561094f57600080fd5b505afa158015610963573d6000803e3d6000fd5b505050506040513d601f19601f8201168201806040525081019061098791906129b8565b6001600160a01b0316336001600160a01b0316146109b75760405162461bcd60e51b815260040161040b906130c1565b6109c081611b3d565b836001600160801b0316600081116109ea5760405162461bcd60e51b815260040161040b90612f51565b60008781526002602052604090205487906001600160a01b031615610a215760405162461bcd60e51b815260040161040b906132a0565b610a2e8888888888611b83565b7fd616c394f076d4784a2536d1ff9bd5df88e1be198cfb67ead2e7b22a798576b2883389898989604051610a67969594939291906135f0565b60405180910390a1610a7888611cd3565b15610a9d57610a8688611cfa565b15610a9d57610a9488611d4f565b610a9d88611a0f565b5050505050505050565b60008881526020819052604090206003015488906001600160a01b0316331415610ae35760405162461bcd60e51b815260040161040b90613121565b6000818152602081905260409020600301546001600160a01b031615610bc2576003546040516331a9108f60e11b8152600160401b9091046001600160a01b031690636352211e90610b399084906004016135d0565b60206040518083038186803b158015610b5157600080fd5b505afa158015610b65573d6000803e3d6000fd5b505050506040513d601f19601f82011682018060405250810190610b8991906129b8565b6001600160a01b0316336001600160a01b031614610bb95760405162461bcd60e51b815260040161040b906130c1565b610bc281611b3d565b866001600160801b031660008111610bec5760405162461bcd60e51b815260040161040b90612f51565b60008a8152600260205260409020548a906001600160a01b031615610c235760405162461bcd60e51b815260040161040b906132a0565b60008b8152602081905260409020805463ffffffff88811663ffffffff19918b166401000000000267ffffffff00000000199093169290921716179055610c6e8b8b8b8b8989611fca565b5050505050505050505050565b60035463ffffffff1681565b600354600160e01b900463ffffffff1681565b606073__NFTDescriptor_________________________630e1d809e6040518060a00160405280888152602001438152602001878152602001868152602001858152506040518263ffffffff1660e01b8152600401610cf99190613564565b60006040518083038186803b158015610d1157600080fd5b505af4158015610d25573d6000803e3d6000fd5b505050506040513d6000823e601f3d908101601f19168201604052610d4d91908101906129f4565b95945050505050565b6003546040516331a9108f60e11b81523391600160401b90046001600160a01b031690636352211e90610d8d9085906004016135d0565b60206040518083038186803b158015610da557600080fd5b505afa158015610db9573d6000803e3d6000fd5b505050506040513d601f19601f82011682018060405250810190610ddd91906129b8565b6001600160a01b031614610e035760405162461bcd60e51b815260040161040b90613435565b610e0c81611b3d565b7f8bac68995ade0fea3fbfce99e614e2ca91bcbd46732ea234ea30a3246bcbb12c813360405161089a9291906135d9565b3360009081526001602052604090205480610e6a5760405162461bcd60e51b815260040161040b906130f1565b3360008181526001602052604080822082905551909190614e20908490610e9090612dea565b600060405180830381858888f193505050503d8060008114610ece576040519150601f19603f3d011682016040523d82523d6000602084013e610ed3565b606091505b5050905080610ef45760405162461bcd60e51b815260040161040b9061340c565b5050565b60008181526020819052604090206003015481906001600160a01b03163314610f335760405162461bcd60e51b815260040161040b90613040565b610f3c82611cd3565b610f585760405162461bcd60e51b815260040161040b90613273565b610f6182611d4f565b610f6a82611a0f565b7f951998909c69503759ab614fef092cad84e66b38279d4274a4951aaa2bfbc14b8260405161079291906135d0565b33610fa357600080fd5b600081815260026020819052604090912001546001600160801b031680610fdc5760405162461bcd60e51b815260040161040b906132d7565b60008281526002602081905260409091200154600160801b90046001600160801b0390811690821634146110225760405162461bcd60e51b815260040161040b906131ac565b600083815260026020526040908190205460035491516323b872dd60e01b81526001600160a01b0391821692600160401b9004909116906323b872dd9061107190849033908990600401612e75565b600060405180830381600087803b15801561108b57600080fd5b505af115801561109f573d6000803e3d6000fd5b505050600085815260026020819052604080832091820180546001600160801b03191690556001820180546001600160a01b031916331790819055600390920180546001600160401b034263ffffffff600160a01b9096049590951694850116600160801b0267ffffffffffffffff60801b19909116179055519092506001600160a01b038416913480156108fc02929091818181858888f1935050505015801561114e573d6000803e3d6000fd5b507fdc05ece63515076f5d93439cbba890fcbb9664934a257dbfbe6ecf58ca4759ce82333460405161118293929190612e75565b60405180910390a160035460405163095ea7b360e01b8152600160401b9091046001600160a01b03169063095ea7b3906111c29085908990600401612ef0565b600060405180830381600087803b1580156111dc57600080fd5b505af11580156111f0573d6000803e3d6000fd5b505050505050505050565b600260208190526000918252604090912080546001820154928201546003909201546001600160a01b039182169391821692600160a01b90920463ffffffff16916001600160801b0380821692600160801b928390048216929181169190046001600160401b031687565b61126e6126e5565b60008281526020818152604091829020825161018081018452815463ffffffff8082168352640100000000820416828501526001600160401b03600160401b820416828601526001600160801b03600160801b918290048116606084015260018401548082166080850152919091041660a082015260028201546001600160a01b0390811660c08301526003830154811660e08301526004830154811661010083015260058301541661012082015260068201805485518186028101860190965280865291949293610140860193929083018282801561137757602002820191906000526020600020905b81546001600160a01b03168152600190910190602001808311611359575b50505050508152602001600782018054806020026020016040519081016040528092919081815260200182805480156113fb57602002820191906000526020600020906000905b82829054906101000a900463ffffffff1663ffffffff16815260200190600401906020826003010492830192600103820291508084116113be5790505b5050505050815250509050919050565b60008581526020819052604090206003015485906001600160a01b03163314156114475760405162461bcd60e51b815260040161040b90613121565b6000818152602081905260409020600301546001600160a01b031615611526576003546040516331a9108f60e11b8152600160401b9091046001600160a01b031690636352211e9061149d9084906004016135d0565b60206040518083038186803b1580156114b557600080fd5b505afa1580156114c9573d6000803e3d6000fd5b505050506040513d601f19601f820116820180604052508101906114ed91906129b8565b6001600160a01b0316336001600160a01b03161461151d5760405162461bcd60e51b815260040161040b906130c1565b61152681611b3d565b826001600160801b0316600081116115505760405162461bcd60e51b815260040161040b90612f51565b6003546040516331a9108f60e11b81523391600160401b90046001600160a01b031690636352211e90611587908b906004016135d0565b60206040518083038186803b15801561159f57600080fd5b505afa1580156115b3573d6000803e3d6000fd5b505050506040513d601f19601f820116820180604052508101906115d791906129b8565b6001600160a01b0316146115fd5760405162461bcd60e51b815260040161040b90613009565b6000878152600260208190526040918290208054336001600160a01b03199091168117825560018201805463ffffffff60a01b1916600160a01b63ffffffff8d160217905591810180546001600160801b03196001600160801b03918216600160801b8c8416021781168a8316179092556003909201805490911691871691909117905590517ffed4b81d8a530701cbf2ccb6545cad65a111a1a5089c821251fde6dce422390f916116b8918a908a90899089908c90612e2d565b60405180910390a150505050505050565b600081815260208190526040812054600160401b90046001600160401b03168015806116fd5750806001600160401b031642105b9392505050565b60008381526020819052604090206003015483906001600160a01b03163314156117405760405162461bcd60e51b815260040161040b9061339e565b83838361174e838383612038565b61176a5760405162461bcd60e51b815260040161040b90613369565b868561177682826120cc565b6117925760405162461bcd60e51b815260040161040b90612fa7565b61179c89886121ab565b7f589906d28d13d8aff8ab40eccde1d74a4434aca34bdac9812e0589fcfc6490448933348b8b6040516117d39594939291906136d3565b60405180910390a16111f089612204565b600090815260026020819052604090912080546001600160a01b03191681556001810180546001600160c01b031990811690915591810180546001600160801b031916905560030180549091169055565b600081815260208190526040812054600160801b90046001600160801b031680158015906116fd57506000838152602081905260409020600101546001600160801b03808316600160801b909204161015915050919050565b60009081526020819052604090206002810180546001600160a01b03199081169091556001820180546001600160801b03169055600490910180549091169055565b6000838152602081905260409020600501546001600160a01b03166118f48161224c565b1561197f5760405163a9059cbb60e01b81526001600160a01b0382169063a9059cbb906119279086908690600401612ef0565b602060405180830381600087803b15801561194157600080fd5b505af1158015611955573d6000803e3d6000fd5b505050506040513d601f19601f8201168201806040525081019061197991906129d4565b50611a09565b6000836001600160a01b031683614e209060405161199c90612dea565b600060405180830381858888f193505050503d80600081146119da576040519150601f19603f3d011682016040523d82523d6000602084013e6119df565b606091505b5050905080611a07576001600160a01b03841660009081526001602052604090208054840190555b505b50505050565b600081815260208190526040812060038101546002909101546001600160a01b0391821692911690611a408461225a565b600085815260208190526040902060010154909150600160801b90046001600160801b0316611a6e8561188e565b611a828585836001600160801b03166122a3565b6003546040516323b872dd60e01b8152600160401b9091046001600160a01b0316906323b872dd90611abc90309086908a90600401612e75565b600060405180830381600087803b158015611ad657600080fd5b505af1158015611aea573d6000803e3d6000fd5b50505050611af785611b3d565b7f897add4c43e2c053508f485324f74ccff203150b27bf0c5ebe137849ac92d6f88585838686604051611b2e95949392919061370a565b60405180910390a15050505050565b60009081526020819052604081206001810180546001600160801b03191690559081556003810180546001600160a01b0319908116909155600590910180549091169055565b81518151808214611ba65760405162461bcd60e51b815260040161040b906132fd565b826000805b8251811015611bd957828181518110611bc057fe5b6020026020010151820191508080600101915050611bab565b506127108163ffffffff161115611c025760405162461bcd60e51b815260040161040b906131d5565b6001600160a01b03881615611c3c57600089815260208190526040902060050180546001600160a01b0319166001600160a01b038a161790555b6000898152602081815260409091208751611c5f9260069092019189019061274b565b506000898152602081815260409091208651611c83926007909201918801906127b0565b505050600096875250505060208490525060409092206001810180546001600160801b039094166001600160801b0319909416939093179092555060030180546001600160a01b03191633179055565b600090815260208190526040902060010154600160801b90046001600160801b0316151590565b6000818152602081905260408120600101546001600160801b031680158015906116fd57506000838152602081905260409020600101546001600160801b03808316600160801b909204161015915050919050565b60008181526020819052604090819020600390810154905491516331a9108f60e11b81526001600160a01b03918216928392600160401b9091041690636352211e90611d9f9086906004016135d0565b60206040518083038186803b158015611db757600080fd5b505afa158015611dcb573d6000803e3d6000fd5b505050506040513d601f19601f82011682018060405250810190611def91906129b8565b6001600160a01b03161415611f1d576003546040516323b872dd60e01b8152600160401b9091046001600160a01b0316906323b872dd90611e3890849030908790600401612e75565b600060405180830381600087803b158015611e5257600080fd5b505af1158015611e66573d6000803e3d6000fd5b50506003546040516331a9108f60e11b8152309350600160401b9091046001600160a01b03169150636352211e90611ea29086906004016135d0565b60206040518083038186803b158015611eba57600080fd5b505afa158015611ece573d6000803e3d6000fd5b505050506040513d601f19601f82011682018060405250810190611ef291906129b8565b6001600160a01b031614611f185760405162461bcd60e51b815260040161040b90613069565b610ef4565b6003546040516331a9108f60e11b81523091600160401b90046001600160a01b031690636352211e90611f549086906004016135d0565b60206040518083038186803b158015611f6c57600080fd5b505afa158015611f80573d6000803e3d6000fd5b505050506040513d601f19601f82011682018060405250810190611fa491906129b8565b6001600160a01b031614610ef45760405162461bcd60e51b815260040161040b9061320c565b611fd8868686868686612369565b7f889326f337fa9616608e11f378f7ad305556626b89289e15efc1be1412f8580d86338787876120078c6124c7565b6120108d612501565b898960405161202799989796959493929190613650565b60405180910390a161047086612204565b6000838152602081905260408120600501546001600160a01b031661205c8161224c565b1561209d57341580156120805750836001600160a01b0316816001600160a01b0316145b801561209557506000836001600160801b0316115b9150506116fd565b34158015906120b357506001600160a01b038416155b8015612095575050506001600160801b03161592915050565b6000828152602081905260408120600101546001600160801b0316801580159061211b5750806001600160801b03163410158061211b5750806001600160801b0316836001600160801b031610155b1561212a5760019150506121a5565b600061271061213886612501565b6127100163ffffffff1660008088815260200190815260200160002060010160109054906101000a90046001600160801b0316026001600160801b03168161217c57fe5b046001600160801b0316905080341015806121a0575080846001600160801b031610155b925050505b92915050565b600082815260208190526040902060028101546001909101546001600160a01b0390911690600160801b90046001600160801b03166121ea848461252b565b6001600160a01b03821615611a0957611a098483836118d0565b61220d81611cfa565b156122295761221b81611d4f565b61222481611a0f565b612249565b61223281611835565b156122495761224081611d4f565b61224981612654565b50565b6001600160a01b0316151590565b6000818152602081905260408120600401546001600160a01b03168061229c5750506000818152602081905260409020600201546001600160a01b031661072c565b905061072c565b6000805b60008581526020819052604090206006015481101561235b576000858152602081905260408120600701805461230c918691859081106122e357fe5b6000918252602090912060088204015460079091166004026101000a900463ffffffff166126dc565b9050808301925061235286600080898152602001908152602001600020600601848154811061233757fe5b6000918252602090912001546001600160a01b0316836118d0565b506001016122a7565b50611a0984848385036118d0565b8151815180821461238c5760405162461bcd60e51b815260040161040b906132fd565b826000805b82518110156123bf578281815181106123a657fe5b6020026020010151820191508080600101915050612391565b506127108163ffffffff1611156123e85760405162461bcd60e51b815260040161040b906131d5565b6001600160a01b038916156124225760008a815260208190526040902060050180546001600160a01b0319166001600160a01b038b161790555b60008a81526020818152604090912087516124459260069092019189019061274b565b5060008a8152602081815260409091208651612469926007909201918801906127b0565b505050600097885250505060208590525060409093206001810180546001600160801b039586166001600160801b03199091161790558054918416600160801b02919093161782555060030180546001600160a01b03191633179055565b600081815260208190526040812054640100000000900463ffffffff168061229c575050600354640100000000900463ffffffff1661072c565b60008181526020819052604081205463ffffffff168061229c57505060035463ffffffff1661072c565b6000828152602081905260409020600501546001600160a01b031661254f8161224c565b15612605576040516323b872dd60e01b81526001600160a01b038216906323b872dd9061258490339030908790600401612e01565b602060405180830381600087803b15801561259e57600080fd5b505af11580156125b2573d6000803e3d6000fd5b505050506040513d601f19601f820116820180604052508101906125d691906129d4565b50600083815260208190526040902060010180546001600160801b03808516600160801b02911617905561262f565b600083815260208190526040902060010180546001600160801b03348116600160801b0291161790555b5050600090815260208190526040902060020180546001600160a01b03191633179055565b4261265e826124c7565b6000838152602081905260409081902080546fffffffffffffffff00000000000000001916600160401b63ffffffff94909416949094016001600160401b039081168402949094179081905590517f2c022afa2469f5dfea36bb416f03a9972a290b5572a34a4fdfe6b0048fb6b7e89361089a938693041690613741565b61271091020490565b604080516101808101825260008082526020820181905291810182905260608082018390526080820183905260a0820183905260c0820183905260e082018390526101008201839052610120820192909252610140810182905261016081019190915290565b8280548282559060005260206000209081019282156127a0579160200282015b828111156127a057825182546001600160a01b0319166001600160a01b0390911617825560209092019160019091019061276b565b506127ac929150612856565b5090565b828054828255906000526020600020906007016008900481019282156127a05791602002820160005b8382111561281d57835183826101000a81548163ffffffff021916908363ffffffff16021790555092602001926004016020816003010492830192600103026127d9565b801561284d5782816101000a81549063ffffffff021916905560040160208160030104928301926001030261281d565b50506127ac9291505b5b808211156127ac5760008155600101612857565b600082601f83011261287b578081fd5b8135602061289061288b836137ff565b6137dc565b82815281810190858301838502870184018810156128ac578586fd5b855b858110156128d35781356128c181613869565b845292840192908401906001016128ae565b5090979650505050505050565b600082601f8301126128f0578081fd5b8135602061290061288b836137ff565b828152818101908583018385028701840188101561291c578586fd5b855b858110156128d35761292f826129a4565b8452928401929084019060010161291e565b600082601f830112612951578081fd5b813561295f61288b8261381c565b818152846020838601011115612973578283fd5b816020850160208301379081016020019190915292915050565b80356001600160801b038116811461072c57600080fd5b803563ffffffff8116811461072c57600080fd5b6000602082840312156129c9578081fd5b81516116fd81613869565b6000602082840312156129e5578081fd5b815180151581146116fd578182fd5b600060208284031215612a05578081fd5b81516001600160401b03811115612a1a578182fd5b8201601f81018413612a2a578182fd5b8051612a3861288b8261381c565b818152856020838501011115612a4c578384fd5b610d4d82602083016020860161383d565b600060208284031215612a6e578081fd5b5035919050565b60008060008060808587031215612a8a578283fd5b843593506020850135612a9c81613869565b9250612aaa6040860161298d565b91506060850135612aba81613869565b939692955090935050565b600080600080600060a08688031215612adc578081fd5b853594506020860135612aee81613869565b9350612afc6040870161298d565b925060608601356001600160401b0380821115612b17578283fd5b612b2389838a0161286b565b93506080880135915080821115612b38578283fd5b50612b45888289016128e0565b9150509295509295909350565b600080600080600080600080610100898b031215612b6e578283fd5b883597506020890135612b8081613869565b9650612b8e60408a0161298d565b9550612b9c60608a0161298d565b9450612baa60808a016129a4565b9350612bb860a08a016129a4565b925060c08901356001600160401b0380821115612bd3578384fd5b612bdf8c838d0161286b565b935060e08b0135915080821115612bf4578283fd5b50612c018b828c016128e0565b9150509295985092959890939650565b60008060008060808587031215612c26578182fd5b8435935060208501356001600160401b0380821115612c43578384fd5b612c4f88838901612941565b94506040870135915080821115612c64578384fd5b612c7088838901612941565b93506060870135915080821115612c85578283fd5b50612c9287828801612941565b91505092959194509250565b600080600080600060a08688031215612cb5578283fd5b85359450612cc5602087016129a4565b9350612cd36040870161298d565b9250612ce16060870161298d565b9150612cef6080870161298d565b90509295509295909350565b600060208284031215612d0c578081fd5b6116fd826129a4565b6001600160a01b03169052565b6000815180845260208085019450808401835b83811015612d5a5781516001600160a01b031687529582019590820190600101612d35565b509495945050505050565b6000815180845260208085019450808401835b83811015612d5a57815163ffffffff1687529582019590820190600101612d78565b60008151808452612db281602086016020860161383d565b601f01601f19169290920160200192915050565b6001600160801b03169052565b63ffffffff169052565b6001600160401b03169052565b90565b6001600160a01b0391909116815260200190565b6001600160a01b0393841681529190921660208201526001600160801b03909116604082015260600190565b6001600160a01b03969096168652602086019490945263ffffffff9290921660408501526001600160801b03908116606085015290811660808401521660a082015260c00190565b6001600160a01b039384168152919092166020820152604081019190915260600190565b6001600160a01b03978816815295909616602086015263ffffffff9390931660408501526001600160801b039182166060850152811660808401521660a08201526001600160401b0390911660c082015260e00190565b6001600160a01b03929092168252602082015260400190565b6000602082526116fd6020830184612d9a565b6020808252818101527f5468652061756374696f6e2068617320612076616c696420626964206d616465604082015260600190565b602080825260119082015270050726963652063616e6e6f74206265203607c1b604082015260600190565b60208082526011908201527014995b9d081a5cc81b9bdd08195b991959607a1b604082015260600190565b6020808252601e908201527f4e6f7420656e6f7567682066756e647320746f20626964206f6e204e46540000604082015260600190565b602080825260119082015270139195081b9bdd0819195c1bdcda5d1959607a1b604082015260600190565b6020808252601c908201527f4f6e6c79206f776e65722063616e206c656e642074686973204e465400000000604082015260600190565b6020808252600f908201526e27b7363c9037333a1039b2b63632b960891b604082015260600190565b6020808252601390820152721b999d081d1c985b9cd9995c8819985a5b1959606a1b604082015260600190565b602080825260119082015270105d58dd1a5bdb881a185cc8195b991959607a1b604082015260600190565b60208082526016908201527514d95b99195c88191bd95cdb89dd081bdddb8813919560521b604082015260600190565b6020808252601690820152756e6f206372656469747320746f20776974686472617760501b604082015260600190565b6020808252818101527f41756374696f6e20616c72656164792073746172746564206279206f776e6572604082015260600190565b6020808252600d908201526c2737ba10309036b0b730b3b2b960991b604082015260600190565b60208082526015908201527443616e6e6f742077697468647261772066756e647360581b604082015260600190565b6020808252600f908201526e496e636f72726563742076616c756560881b604082015260600190565b6020808252601e908201527f4665652070657263656e746167657320657863656564206d6178696d756d0000604082015260600190565b60208082526016908201527514d95b1b195c88191bd95cdb89dd081bdddb8813919560521b604082015260600190565b60208082526017908201527f41756374696f6e206973206e6f7420796574206f766572000000000000000000604082015260600190565b60208082526013908201527218d85b9b9bdd081c185e5bdd5d080c08189a59606a1b604082015260600190565b6020808252601d908201527f447572696e672072656e7420796f752063616e27742061756374696f6e000000604082015260600190565b6020808252600c908201526b139bdd08199bdc881c995b9d60a21b604082015260600190565b60208082526019908201527f526563697069656e747320213d2070657263656e746167657300000000000000604082015260600190565b6020808252818101527f596f7520617265206e6f74206120626f72726f776572206f72206c656e646572604082015260600190565b6020808252818101527f42696420746f20626520696e207370656369666965642045524332302f457468604082015260600190565b6020808252601b908201527f4f776e65722063616e6e6f7420626964206f6e206f776e204e46540000000000604082015260600190565b60208082526018908201527f43616e6e6f742073706563696679203020616464726573730000000000000000604082015260600190565b6020808252600f908201526e1dda5d1a191c985dc819985a5b1959608a1b604082015260600190565b6020808252600d908201526c2737ba1027232a1037bbb732b960991b604082015260600190565b600060208252613470602083018451612dd3565b60208301516134826040840182612dd3565b5060408301516134956060840182612ddd565b5060608301516134a86080840182612dc6565b5060808301516134bb60a0840182612dc6565b5060a08301516134ce60c0840182612dc6565b5060c08301516134e160e0840182612d15565b5060e08301516101006134f681850183612d15565b840151905061012061350a84820183612d15565b840151905061014061351e84820183612d15565b80850151915050610180610160818186015261353e6101a0860184612d22565b90860151858203601f19018387015290925061355a8382612d65565b9695505050505050565b6000602082528251602083015260208301516040830152604083015160a0606084015261359460c0840182612d9a565b90506060840151601f19808584030160808601526135b28383612d9a565b925060808601519150808584030160a0860152506121a08282612d9a565b90815260200190565b9182526001600160a01b0316602082015260400190565b8681526001600160a01b038681166020830152851660408201526001600160801b038416606082015260c06080820181905260009061363190830185612d22565b82810360a08401526136438185612d65565b9998505050505050505050565b8981526001600160a01b038981166020830152881660408201526001600160801b0387811660608301528616608082015263ffffffff85811660a0830152841660c082015261012060e082018190526000906136ae83820186612d22565b90508281036101008401526136c38185612d65565b9c9b505050505050505050505050565b9485526001600160a01b039384166020860152604085019290925290911660608301526001600160801b0316608082015260a00190565b9485526001600160a01b0393841660208601526001600160801b039290921660408501528216606084015216608082015260a00190565b9182526001600160401b0316602082015260400190565b63ffffffff91909116815260200190565b63ffffffff9a8b1681529890991660208901526001600160401b039690961660408801526001600160801b0394851660608801529284166080870152921660a08501526001600160a01b0391821660c0850152811660e08401529081166101008301529091166101208201526101400190565b6040518181016001600160401b03811182821017156137f757fe5b604052919050565b60006001600160401b0382111561381257fe5b5060209081020190565b60006001600160401b0382111561382f57fe5b50601f01601f191660200190565b60005b83811015613858578181015183820152602001613840565b83811115611a095750506000910152565b6001600160a01b038116811461224957600080fdfea26469706673582212206b89d1149fa7ca4c56531795a2fa54d934f5c7d918a81a62836ca8f9f18c981364736f6c63430007060033",
  "immutableReferences": {},
  "source": "// SPDX-License-Identifier: UNLICENSED\r\n\r\npragma solidity ^0.7.6;\r\npragma experimental ABIEncoderV2;\r\n\r\nimport \"@openzeppelin/contracts/token/ERC721/IERC721.sol\";\r\nimport \"@openzeppelin/contracts/token/ERC721/IERC721Receiver.sol\";\r\nimport \"@openzeppelin/contracts/token/ERC20/IERC20.sol\";\r\n\r\nimport \"./lib/GenerativeNFT.sol\";\r\n\r\ncontract NFTAuction {\r\n    mapping(uint256 => Auction) public nftContractAuctions;\r\n    mapping(address => uint256) failedTransferCredits; //return the money to bidders\r\n    // mapping(uint256 => uint256) public tokenIdToPrice;\r\n    // mapping(uint256 => bool) public isRent;\r\n    mapping(uint256 => Rent) public rentNfts;\r\n\r\n    struct Rent {\r\n        address lender;\r\n        address borrower;\r\n        uint32 period;\r\n        uint128 price;\r\n        uint128 collateral;\r\n        uint128 extraPay; //is used when the borrower didn't return NFT at definite time.\r\n        uint64 rentEnd;\r\n        // address[] feeRecipients;\r\n        // uint32[] feePercentages;\r\n    }\r\n\r\n    struct Auction {\r\n        //map token ID to\r\n        uint32 bidIncreasePercentage;\r\n        uint32 auctionBidPeriod; //Increments the length of time the auction is open in which a new bid can be made after each bid.\r\n        uint64 auctionEnd;\r\n        uint128 minPrice;\r\n        uint128 buyNowPrice;\r\n        uint128 nftHighestBid;\r\n        address nftHighestBidder;\r\n        address nftSeller;\r\n        address nftRecipient; //The bidder can specify a recipient for the NFT if their bid is successful.\r\n        address ERC20Token; // The seller can specify an ERC20 token that can be used to bid or purchase the NFT.\r\n        address[] feeRecipients;\r\n        uint32[] feePercentages;\r\n    }\r\n\r\n    //Default values that are used if not specified by the NFT seller.\r\n    uint32 public defaultBidIncreasePercentage;\r\n    // uint32 public minimumSettableIncreasePercentage;\r\n    uint32 public defaultAuctionBidPeriod;\r\n\r\n    //NFT token contract address\r\n    address public _nftContractAddress;\r\n\r\n    uint32 public managerFee;\r\n    address manager;\r\n\r\n    /*\r\n                 EVENTS            \r\n      */\r\n    event NftAuctionCreated(\r\n        uint256 tokenId,\r\n        address nftSeller,\r\n        address erc20Token,\r\n        uint128 minPrice,\r\n        uint128 buyNowPrice,\r\n        uint32 auctionBidPeriod,\r\n        uint32 bidIncreasePercentage,\r\n        address[] feeRecipients,\r\n        uint32[] feePercentages\r\n    );\r\n\r\n    event NFTTransferredAndSellerPaid(\r\n        uint256 tokenId,\r\n        address nftSeller,\r\n        uint128 nftHighestBid,\r\n        address nftHighestBidder,\r\n        address nftRecipient\r\n    );\r\n\r\n    event AuctionPeriodUpdated(uint256 tokenId, uint64 auctionEndPeriod);\r\n\r\n    event SaleCreated(\r\n        uint256 tokenId,\r\n        address nftSeller,\r\n        address erc20Token,\r\n        uint128 buyNowPrice,\r\n        address[] feeRecipients,\r\n        uint32[] feePercentages\r\n    );\r\n\r\n    event BidMade(\r\n        uint256 tokenId,\r\n        address bidder,\r\n        uint256 ethAmount,\r\n        address erc20Token,\r\n        uint256 tokenAmount\r\n    );\r\n\r\n    event AuctionSettled(uint256 tokenId, address auctionSettler);\r\n\r\n    event AuctionWithdrawn(uint256 tokenId, address nftOwner);\r\n\r\n    event BidWithdrawn(uint256 tokenId, address highestBidder);\r\n\r\n    event HighestBidTaken(uint256 tokenId);\r\n\r\n    event NftPriceChanged(uint256 tokenId, uint256 price);\r\n\r\n    event NftBorrow(address _seller, address _buyer, uint256 _price);\r\n\r\n    event NftToLend(address lender, uint256 tokenId, uint32 period, uint128 price, uint128 _extraPay, uint128 _collateral);\r\n\r\n    event ReturnNftToLender(address lender, address borrower, uint256 _tokenId);\r\n\r\n    event FeeSet(uint32 fee);\r\n\r\n    /**********************************/\r\n    /*\r\n                   END             \r\n                  EVENTS           \r\n      */\r\n    /**********************************/\r\n\r\n    /*\r\n                MODIFIERS          \r\n      */\r\n    modifier isAuctionNotStartedByOwner(uint256 _tokenId) {\r\n        require(\r\n            nftContractAuctions[_tokenId].nftSeller != msg.sender,\r\n            \"Auction already started by owner\"\r\n        );\r\n\r\n        if (nftContractAuctions[_tokenId].nftSeller != address(0)) {\r\n            require(\r\n                msg.sender == IERC721(_nftContractAddress).ownerOf(_tokenId),\r\n                \"Sender doesn't own NFT\"\r\n            );\r\n\r\n            _resetAuction(_tokenId);\r\n        }\r\n        _;\r\n    }\r\n\r\n    modifier isRentNotStartedByOwner(uint256 _tokenId) {\r\n        require(rentNfts[_tokenId].lender==address(0),\"During rent you can't auction\");\r\n        _;\r\n    }\r\n\r\n    modifier auctionOngoing(uint256 _tokenId) {\r\n        require(_isAuctionOngoing(_tokenId), \"Auction has ended\");\r\n        _;\r\n    }\r\n\r\n    modifier priceGreaterThanZero(uint256 _price) {\r\n        require(_price > 0, \"Price cannot be 0\");\r\n        _;\r\n    }\r\n\r\n    modifier notNftSeller(uint256 _tokenId) {\r\n        require(\r\n            msg.sender != nftContractAuctions[_tokenId].nftSeller,\r\n            \"Owner cannot bid on own NFT\"\r\n        );\r\n        _;\r\n    }\r\n\r\n    modifier onlyNftSeller(uint256 _tokenId) {\r\n        require(\r\n            msg.sender == nftContractAuctions[_tokenId].nftSeller,\r\n            \"Only nft seller\"\r\n        );\r\n        _;\r\n    }\r\n\r\n    modifier bidAmountMeetsBidRequirements(\r\n        uint256 _tokenId,\r\n        uint128 _tokenAmount\r\n    ) {\r\n        require(\r\n            _doesBidMeetBidRequirements(_tokenId, _tokenAmount),\r\n            \"Not enough funds to bid on NFT\"\r\n        );\r\n        _;\r\n    }\r\n\r\n    /*\r\n     * Payment is accepted if the payment is made in the ERC20 token or ETH specified by the seller.\r\n     * Early bids on NFTs not yet up for auction must be made in ETH.\r\n     */\r\n    modifier paymentAccepted(\r\n        uint256 _tokenId,\r\n        address _erc20Token,\r\n        uint128 _tokenAmount\r\n    ) {\r\n        require(\r\n            _isPaymentAccepted(_tokenId, _erc20Token, _tokenAmount),\r\n            \"Bid to be in specified ERC20/Eth\"\r\n        );\r\n        _;\r\n    }\r\n\r\n    modifier isAuctionOver(uint256 _tokenId) {\r\n        require(!_isAuctionOngoing(_tokenId), \"Auction is not yet over\");\r\n        _;\r\n    }\r\n\r\n    modifier notZeroAddress(address _address) {\r\n        require(_address != address(0), \"Cannot specify 0 address\");\r\n        _;\r\n    }\r\n\r\n    modifier isFeePercentagesLessThanMaximum(uint32[] memory _feePercentages) {\r\n        uint32 totalPercent;\r\n        for (uint256 i = 0; i < _feePercentages.length; i++) {\r\n            totalPercent = totalPercent + _feePercentages[i];\r\n        }\r\n        require(totalPercent <= 10000, \"Fee percentages exceed maximum\");\r\n        _;\r\n    }\r\n\r\n    modifier correctFeeRecipientsAndPercentages(\r\n        uint256 _recipientsLength,\r\n        uint256 _percentagesLength\r\n    ) {\r\n        require(\r\n            _recipientsLength == _percentagesLength,\r\n            \"Recipients != percentages\"\r\n        );\r\n        _;\r\n    }\r\n\r\n    modifier isNotASale(uint256 _tokenId) {\r\n        require(!_isASale(_tokenId), \"Not applicable for a sale\");\r\n        _;\r\n    }\r\n\r\n    modifier minimumBidNotMade(uint256 _tokenId) {\r\n        require(\r\n            !_isMinimumBidMade(_tokenId),\r\n            \"The auction has a valid bid made\"\r\n        );\r\n        _;\r\n    }\r\n\r\n    // constructor\r\n    constructor(address nftContractAddress, address _manager) {\r\n        defaultBidIncreasePercentage = 100;\r\n        defaultAuctionBidPeriod = 86400; //1 day\r\n        // minimumSettableIncreasePercentage = 100;\r\n        _nftContractAddress = nftContractAddress;\r\n        manager=_manager;\r\n        managerFee=11;\r\n    }\r\n\r\n    /*\r\n          AUCTION CHECK FUNCTIONS   \r\n      */\r\n    function _isAuctionOngoing(uint256 _tokenId) internal view returns (bool) {\r\n        uint64 auctionEndTimestamp = nftContractAuctions[_tokenId].auctionEnd;\r\n        //if the auctionEnd is set to 0, the auction is technically on-going, however\r\n        //the minimum bid price (minPrice) has not yet been met.\r\n        return (auctionEndTimestamp == 0 ||\r\n            block.timestamp < auctionEndTimestamp);\r\n    }\r\n\r\n    /*\r\n     * Check that a bid is applicable for the purchase of the NFT.\r\n     * In the case of a sale: the bid needs to meet the buyNowPrice.\r\n     * In the case of an auction: the bid needs to be a % higher than the previous bid.\r\n     */\r\n    function _doesBidMeetBidRequirements(uint256 _tokenId, uint128 _tokenAmount)\r\n        internal\r\n        view\r\n        returns (bool)\r\n    {\r\n        uint128 buyNowPrice = nftContractAuctions[_tokenId].buyNowPrice;\r\n        //if buyNowPrice is met, ignore increase percentage\r\n        if (\r\n            buyNowPrice > 0 &&\r\n            (msg.value >= buyNowPrice || _tokenAmount >= buyNowPrice)\r\n        ) {\r\n            return true;\r\n        }\r\n        //if the NFT is up for auction, the bid needs to be a % higher than the previous bid\r\n        uint256 bidIncreaseAmount = (nftContractAuctions[_tokenId]\r\n            .nftHighestBid * (10000 + _getBidIncreasePercentage(_tokenId))) /\r\n            10000;\r\n        return (msg.value >= bidIncreaseAmount ||\r\n            _tokenAmount >= bidIncreaseAmount);\r\n    }\r\n\r\n    /**\r\n     * Payment is accepted in the following scenarios:\r\n     * (1) Auction already created - can accept ETH or Specified Token\r\n     *  --------> Cannot bid with ETH & an ERC20 Token together in any circumstance<------\r\n     * (2) Auction not created - only ETH accepted (cannot early bid with an ERC20 Token\r\n     * (3) Cannot make a zero bid (no ETH or Token amount)\r\n     */\r\n    function _isPaymentAccepted(\r\n        uint256 _tokenId,\r\n        address _bidERC20Token,\r\n        uint128 _tokenAmount\r\n    ) internal view returns (bool) {\r\n        address auctionERC20Token = nftContractAuctions[_tokenId].ERC20Token;\r\n        if (_isERC20Auction(auctionERC20Token)) {\r\n            return\r\n                msg.value == 0 &&\r\n                auctionERC20Token == _bidERC20Token &&\r\n                _tokenAmount > 0;\r\n        } else {\r\n            return\r\n                msg.value != 0 &&\r\n                _bidERC20Token == address(0) &&\r\n                _tokenAmount == 0;\r\n        }\r\n    }\r\n\r\n    function _isERC20Auction(address _auctionERC20Token)\r\n        internal\r\n        pure\r\n        returns (bool)\r\n    {\r\n        return _auctionERC20Token != address(0);\r\n    }\r\n\r\n    /*\r\n     * An NFT is up for sale if the buyNowPrice is set, but the minPrice is not set.\r\n     * Therefore the only way to conclude the NFT sale is to meet the buyNowPrice.\r\n     */\r\n    function _isASale(uint256 _tokenId) internal view returns (bool) {\r\n        return (nftContractAuctions[_tokenId].buyNowPrice > 0 &&\r\n            nftContractAuctions[_tokenId].minPrice == 0);\r\n    }\r\n\r\n    /*\r\n     * If the buy now price is set by the seller, check that the highest bid meets that price.\r\n     */\r\n    function _isBuyNowPriceMet(uint256 _tokenId) internal view returns (bool) {\r\n        uint128 buyNowPrice = nftContractAuctions[_tokenId].buyNowPrice;\r\n        return\r\n            buyNowPrice > 0 &&\r\n            nftContractAuctions[_tokenId].nftHighestBid >= buyNowPrice;\r\n    }\r\n\r\n    /*\r\n     * Returns the percentage of the total bid (used to calculate fee payments)\r\n     */\r\n    function _getPortionOfBid(uint256 _totalBid, uint256 _percentage)\r\n        internal\r\n        pure\r\n        returns (uint256)\r\n    {\r\n        return (_totalBid * (_percentage)) / 10000;\r\n    }\r\n\r\n    /*\r\n     *if the minPrice is set by the seller, check that the highest bid meets or exceeds that price.\r\n     */\r\n    function _isMinimumBidMade(uint256 _tokenId) internal view returns (bool) {\r\n        uint128 minPrice = nftContractAuctions[_tokenId].minPrice;\r\n        return\r\n            minPrice > 0 &&\r\n            (nftContractAuctions[_tokenId].nftHighestBid >= minPrice);\r\n    }\r\n\r\n    /*\r\n     * Check if a bid has been made. This is applicable in the early bid scenario\r\n     * to ensure that if an auction is created after an early bid, the auction\r\n     * begins appropriately or is settled if the buy now price is met.\r\n     */\r\n    function _isABidMade(uint256 _tokenId) internal view returns (bool) {\r\n        return (nftContractAuctions[_tokenId].nftHighestBid > 0);\r\n    }\r\n\r\n    /**********************************/\r\n    /*\r\n                   END              \r\n          AUCTION CHECK FUNCTIONS   \r\n      */\r\n    /**********************************/\r\n    /*\r\n          DEFAULT GETTER FUNCTIONS  \r\n      */\r\n    /*****************************************************************\r\n     * These functions check if the applicable auction parameter has *\r\n     * been set by the NFT seller. If not, return the default value. *\r\n     *****************************************************************/\r\n\r\n    function _getBidIncreasePercentage(uint256 _tokenId)\r\n        internal\r\n        view\r\n        returns (uint32)\r\n    {\r\n        uint32 bidIncreasePercentage = nftContractAuctions[_tokenId]\r\n            .bidIncreasePercentage;\r\n\r\n        if (bidIncreasePercentage == 0) {\r\n            return defaultBidIncreasePercentage;\r\n        } else {\r\n            return bidIncreasePercentage;\r\n        }\r\n    }\r\n\r\n    function _getAuctionBidPeriod(uint256 _tokenId)\r\n        internal\r\n        view\r\n        returns (uint32)\r\n    {\r\n        uint32 auctionBidPeriod = nftContractAuctions[_tokenId]\r\n            .auctionBidPeriod;\r\n\r\n        if (auctionBidPeriod == 0) {\r\n            return defaultAuctionBidPeriod;\r\n        } else {\r\n            return auctionBidPeriod;\r\n        }\r\n    }\r\n\r\n    /*\r\n     * The default value for the NFT recipient is the highest bidder\r\n     */\r\n    function _getNftRecipient(uint256 _tokenId)\r\n        internal\r\n        view\r\n        returns (address)\r\n    {\r\n        address nftRecipient = nftContractAuctions[_tokenId].nftRecipient;\r\n\r\n        if (nftRecipient == address(0)) {\r\n            return nftContractAuctions[_tokenId].nftHighestBidder;\r\n        } else {\r\n            return nftRecipient;\r\n        }\r\n    }\r\n\r\n    /**********************************/\r\n    /*\r\n                   END              \r\n          DEFAULT GETTER FUNCTIONS  \r\n      */\r\n    /**********************************/\r\n\r\n    /*\r\n        TRANSFER NFTS TO CONTRACT   \r\n      */\r\n\r\n    function _transferNftToAuctionContract(uint256 _tokenId) internal {\r\n        address _nftSeller = nftContractAuctions[_tokenId].nftSeller;\r\n        if (IERC721(_nftContractAddress).ownerOf(_tokenId) == _nftSeller) {\r\n            IERC721(_nftContractAddress).transferFrom(\r\n                _nftSeller,\r\n                address(this),\r\n                _tokenId\r\n            );\r\n            require(\r\n                IERC721(_nftContractAddress).ownerOf(_tokenId) == address(this),\r\n                \"nft transfer failed\"\r\n            );\r\n        } else {\r\n            require(\r\n                IERC721(_nftContractAddress).ownerOf(_tokenId) == address(this),\r\n                \"Seller doesn't own NFT\"\r\n            );\r\n        }\r\n    }\r\n\r\n    /**********************************/\r\n    /*\r\n                   END              \r\n        TRANSFER NFTS TO CONTRACT   \r\n      */\r\n    /**********************************/\r\n\r\n    /*\r\n             AUCTION CREATION       \r\n      */\r\n\r\n    /**\r\n     * Setup parameters applicable to all auctions and whitelised sales:\r\n     * -> ERC20 Token for payment (if specified by the seller) : _erc20Token\r\n     * -> minimum price : _minPrice\r\n     * -> buy now price : _buyNowPrice\r\n     * -> the nft seller: msg.sender\r\n     * -> The fee recipients & their respective percentages for a sucessful auction/sale\r\n     */\r\n    function _setupAuction(\r\n        uint256 _tokenId,\r\n        address _erc20Token,\r\n        uint128 _minPrice,\r\n        uint128 _buyNowPrice,\r\n        address[] memory _feeRecipients,\r\n        uint32[] memory _feePercentages\r\n    )\r\n        internal\r\n        correctFeeRecipientsAndPercentages(\r\n            _feeRecipients.length,\r\n            _feePercentages.length\r\n        )\r\n        isFeePercentagesLessThanMaximum(_feePercentages)\r\n    {\r\n        if (_erc20Token != address(0)) {\r\n            nftContractAuctions[_tokenId].ERC20Token = _erc20Token;\r\n        }\r\n        nftContractAuctions[_tokenId].feeRecipients = _feeRecipients;\r\n        nftContractAuctions[_tokenId].feePercentages = _feePercentages;\r\n        nftContractAuctions[_tokenId].buyNowPrice = _buyNowPrice;\r\n        nftContractAuctions[_tokenId].minPrice = _minPrice;\r\n        nftContractAuctions[_tokenId].nftSeller = msg.sender;\r\n    }\r\n\r\n    function _createNewNftAuction(\r\n        uint256 _tokenId,\r\n        address _erc20Token,\r\n        uint128 _minPrice,\r\n        uint128 _buyNowPrice,\r\n        address[] memory _feeRecipients,\r\n        uint32[] memory _feePercentages\r\n    ) internal {\r\n        // Sending the NFT to this contract\r\n        _setupAuction(\r\n            _tokenId,\r\n            _erc20Token,\r\n            _minPrice,\r\n            _buyNowPrice,\r\n            _feeRecipients,\r\n            _feePercentages\r\n        );\r\n        emit NftAuctionCreated(\r\n            _tokenId,\r\n            msg.sender,\r\n            _erc20Token,\r\n            _minPrice,\r\n            _buyNowPrice,\r\n            _getAuctionBidPeriod(_tokenId),\r\n            _getBidIncreasePercentage(_tokenId),\r\n            _feeRecipients,\r\n            _feePercentages\r\n        );\r\n        _updateOngoingAuction(_tokenId);\r\n    }\r\n\r\n    function createNewNftAuction(\r\n        uint256 _tokenId,\r\n        address _erc20Token,\r\n        uint128 _minPrice,\r\n        uint128 _buyNowPrice,\r\n        uint32 _auctionBidPeriod, //this is the time that the auction lasts until another bid occurs\r\n        uint32 _bidIncreasePercentage,\r\n        address[] memory _feeRecipients,\r\n        uint32[] memory _feePercentages\r\n    )\r\n        external\r\n        isAuctionNotStartedByOwner(_tokenId)\r\n        priceGreaterThanZero(_minPrice)\r\n        isRentNotStartedByOwner(_tokenId)\r\n    {\r\n        nftContractAuctions[_tokenId].auctionBidPeriod = _auctionBidPeriod;\r\n        nftContractAuctions[_tokenId]\r\n            .bidIncreasePercentage = _bidIncreasePercentage;\r\n        _createNewNftAuction(\r\n            _tokenId,\r\n            _erc20Token,\r\n            _minPrice,\r\n            _buyNowPrice,\r\n            _feeRecipients,\r\n            _feePercentages\r\n        );\r\n    }\r\n\r\n    /**********************************/\r\n    /*\r\n                   END              \r\n             AUCTION CREATION       \r\n      */\r\n    /**********************************/\r\n\r\n    /*\r\n                  SALES             \r\n      */\r\n\r\n    /********************************************************************\r\n     * Allows for a standard sale mechanism where the NFT seller can    *\r\n     * can select an address to be whitelisted. This address is then    *\r\n     * allowed to make a bid on the NFT. No other address can bid on    *\r\n     * the NFT.                                                         *\r\n     ********************************************************************/\r\n    function _setupSale(\r\n        uint256 _tokenId,\r\n        address _erc20Token,\r\n        uint128 _buyNowPrice,\r\n        address[] memory _feeRecipients,\r\n        uint32[] memory _feePercentages\r\n    )\r\n        internal\r\n        correctFeeRecipientsAndPercentages(\r\n            _feeRecipients.length,\r\n            _feePercentages.length\r\n        )\r\n        isFeePercentagesLessThanMaximum(_feePercentages)\r\n    {\r\n        if (_erc20Token != address(0)) {\r\n            nftContractAuctions[_tokenId].ERC20Token = _erc20Token;\r\n        }\r\n        nftContractAuctions[_tokenId].feeRecipients = _feeRecipients;\r\n        nftContractAuctions[_tokenId].feePercentages = _feePercentages;\r\n        nftContractAuctions[_tokenId].buyNowPrice = _buyNowPrice;\r\n        nftContractAuctions[_tokenId].nftSeller = msg.sender;\r\n    }\r\n\r\n    function createSale(\r\n        uint256 _tokenId,\r\n        address _erc20Token,\r\n        uint128 _buyNowPrice,\r\n        address[] memory _feeRecipients,\r\n        uint32[] memory _feePercentages\r\n    )\r\n        external\r\n        isAuctionNotStartedByOwner(_tokenId)\r\n        priceGreaterThanZero(_buyNowPrice)\r\n        isRentNotStartedByOwner(_tokenId)\r\n    {\r\n        //min price = 0\r\n        _setupSale(\r\n            _tokenId,\r\n            _erc20Token,\r\n            _buyNowPrice,\r\n            _feeRecipients,\r\n            _feePercentages\r\n        );\r\n\r\n        emit SaleCreated(\r\n            _tokenId,\r\n            msg.sender,\r\n            _erc20Token,\r\n            _buyNowPrice,\r\n            _feeRecipients,\r\n            _feePercentages\r\n        );\r\n        //check if buyNowPrice is meet and conclude sale, otherwise reverse the early bid\r\n        if (_isABidMade(_tokenId)) {\r\n            if (_isBuyNowPriceMet(_tokenId)) {\r\n                _transferNftToAuctionContract(_tokenId);\r\n                _transferNftAndPaySeller(_tokenId);\r\n            }\r\n        }\r\n    }\r\n\r\n    /**********************************/\r\n    /*\r\n                   END              \r\n                  SALES             \r\n      */\r\n    /**********************************/\r\n\r\n    /*\r\n              BID FUNCTIONS        \r\n      */\r\n\r\n    /********************************************************************\r\n     * Make bids with ETH or an ERC20 Token specified by the NFT seller.*\r\n     * Additionally, a buyer can pay the asking price to conclude a sale*\r\n     * of an NFT.                                                      *\r\n     ********************************************************************/\r\n\r\n    function _makeBid(\r\n        uint256 _tokenId,\r\n        address _erc20Token,\r\n        uint128 _tokenAmount\r\n    )\r\n        internal\r\n        notNftSeller(_tokenId)\r\n        paymentAccepted(_tokenId, _erc20Token, _tokenAmount)\r\n        bidAmountMeetsBidRequirements(_tokenId, _tokenAmount)\r\n    {\r\n        _reversePreviousBidAndUpdateHighestBid(_tokenId, _tokenAmount);\r\n        emit BidMade(\r\n            _tokenId,\r\n            msg.sender,\r\n            msg.value,\r\n            _erc20Token,\r\n            _tokenAmount\r\n        );\r\n        _updateOngoingAuction(_tokenId);\r\n    }\r\n\r\n    function makeCustomBid(\r\n        uint256 _tokenId,\r\n        address _erc20Token,\r\n        uint128 _tokenAmount,\r\n        address _nftRecipient\r\n    ) external payable auctionOngoing(_tokenId) notZeroAddress(_nftRecipient) {\r\n        nftContractAuctions[_tokenId].nftRecipient = _nftRecipient;\r\n        _makeBid(_tokenId, _erc20Token, _tokenAmount);\r\n    }\r\n\r\n    /**********************************/\r\n    /*\r\n                   END              \r\n              BID FUNCTIONS         \r\n      */\r\n    /**********************************/\r\n\r\n    /*\r\n             UPDATE AUCTION         \r\n      */\r\n\r\n    /***************************************************************\r\n     * Settle an auction or sale if the buyNowPrice is met or set  *\r\n     *  auction period to begin if the minimum price has been met. *\r\n     ***************************************************************/\r\n    function _updateOngoingAuction(uint256 _tokenId) internal {\r\n        if (_isBuyNowPriceMet(_tokenId)) {\r\n            _transferNftToAuctionContract(_tokenId);\r\n            _transferNftAndPaySeller(_tokenId);\r\n            return;\r\n        }\r\n        //min price not set, nft not up for auction yet\r\n        if (_isMinimumBidMade(_tokenId)) {\r\n            _transferNftToAuctionContract(_tokenId);\r\n            _updateAuctionEnd(_tokenId);\r\n        }\r\n    }\r\n\r\n    function _updateAuctionEnd(uint256 _tokenId) internal {\r\n        //the auction end is always set to now + the bid period\r\n        nftContractAuctions[_tokenId].auctionEnd =\r\n            _getAuctionBidPeriod(_tokenId) +\r\n            uint64(block.timestamp);\r\n        emit AuctionPeriodUpdated(\r\n            _tokenId,\r\n            nftContractAuctions[_tokenId].auctionEnd\r\n        );\r\n    }\r\n\r\n    /**********************************/\r\n    /*\r\n                   END              \r\n             UPDATE AUCTION         \r\n      */\r\n    /**********************************/\r\n\r\n    /*\r\n             RESET FUNCTIONS        \r\n      */\r\n\r\n    /*\r\n     * Reset all auction related parameters for an NFT.\r\n     * This effectively removes an EFT as an item up for auction\r\n     */\r\n    function _resetAuction(uint256 _tokenId) internal {\r\n        nftContractAuctions[_tokenId].minPrice = 0;\r\n        nftContractAuctions[_tokenId].buyNowPrice = 0;\r\n        nftContractAuctions[_tokenId].auctionEnd = 0;\r\n        nftContractAuctions[_tokenId].auctionBidPeriod = 0;\r\n        nftContractAuctions[_tokenId].bidIncreasePercentage = 0;\r\n        nftContractAuctions[_tokenId].nftSeller = address(0);\r\n        nftContractAuctions[_tokenId].ERC20Token = address(0);\r\n    }\r\n\r\n    function _resetBids(uint256 _tokenId) internal {\r\n        nftContractAuctions[_tokenId].nftHighestBidder = address(0);\r\n        nftContractAuctions[_tokenId].nftHighestBid = 0;\r\n        nftContractAuctions[_tokenId].nftRecipient = address(0);\r\n    }\r\n\r\n    /**********************************/\r\n    /*\r\n                   END              \r\n             RESET FUNCTIONS        \r\n      */\r\n    /**********************************/\r\n\r\n    /*\r\n               UPDATE BIDS          \r\n      */\r\n    /******************************************************************\r\n     * Internal functions that update bid parameters and reverse bids *\r\n     * to ensure contract only holds the highest bid.                 *\r\n     ******************************************************************/\r\n    function _updateHighestBid(uint256 _tokenId, uint128 _tokenAmount)\r\n        internal\r\n    {\r\n        address auctionERC20Token = nftContractAuctions[_tokenId].ERC20Token;\r\n        if (_isERC20Auction(auctionERC20Token)) {\r\n            IERC20(auctionERC20Token).transferFrom(\r\n                msg.sender,\r\n                address(this),\r\n                _tokenAmount\r\n            );\r\n            nftContractAuctions[_tokenId].nftHighestBid = _tokenAmount;\r\n        } else {\r\n            nftContractAuctions[_tokenId].nftHighestBid = uint128(msg.value);\r\n        }\r\n        nftContractAuctions[_tokenId].nftHighestBidder = msg.sender;\r\n    }\r\n\r\n    function _reversePreviousBidAndUpdateHighestBid(\r\n        uint256 _tokenId,\r\n        uint128 _tokenAmount\r\n    ) internal {\r\n        address prevNftHighestBidder = nftContractAuctions[_tokenId]\r\n            .nftHighestBidder;\r\n\r\n        uint256 prevNftHighestBid = nftContractAuctions[_tokenId].nftHighestBid;\r\n        _updateHighestBid(_tokenId, _tokenAmount);\r\n\r\n        if (prevNftHighestBidder != address(0)) {\r\n            _payout(_tokenId, prevNftHighestBidder, prevNftHighestBid);\r\n        }\r\n    }\r\n\r\n    /**********************************/\r\n    /*\r\n                   END              \r\n               UPDATE BIDS          \r\n      */\r\n    /**********************************/\r\n\r\n    /*\r\n        TRANSFER NFT & PAY SELLER   \r\n      */\r\n    function _transferNftAndPaySeller(uint256 _tokenId) internal {\r\n        address _nftSeller = nftContractAuctions[_tokenId].nftSeller;\r\n        address _nftHighestBidder = nftContractAuctions[_tokenId]\r\n            .nftHighestBidder;\r\n        address _nftRecipient = _getNftRecipient(_tokenId);\r\n        uint128 _nftHighestBid = nftContractAuctions[_tokenId].nftHighestBid;\r\n        _resetBids(_tokenId);\r\n\r\n        _payFeesAndSeller(_tokenId, _nftSeller, _nftHighestBid);\r\n        IERC721(_nftContractAddress).transferFrom(\r\n            address(this),\r\n            _nftRecipient,\r\n            _tokenId\r\n        );\r\n\r\n        _resetAuction(_tokenId);\r\n        emit NFTTransferredAndSellerPaid(\r\n            _tokenId,\r\n            _nftSeller,\r\n            _nftHighestBid,\r\n            _nftHighestBidder,\r\n            _nftRecipient\r\n        );\r\n    }\r\n\r\n    function _payFeesAndSeller(\r\n        uint256 _tokenId,\r\n        address _nftSeller,\r\n        uint256 _highestBid\r\n    ) internal {\r\n        uint256 feesPaid;\r\n        for (\r\n            uint256 i = 0;\r\n            i < nftContractAuctions[_tokenId].feeRecipients.length;\r\n            i++\r\n        ) {\r\n            uint256 fee = _getPortionOfBid(\r\n                _highestBid,\r\n                nftContractAuctions[_tokenId].feePercentages[i]\r\n            );\r\n            feesPaid = feesPaid + fee;\r\n            _payout(\r\n                _tokenId,\r\n                nftContractAuctions[_tokenId].feeRecipients[i],\r\n                fee\r\n            );\r\n        }\r\n        _payout(_tokenId, _nftSeller, (_highestBid - feesPaid));\r\n    }\r\n\r\n    function _payout(\r\n        uint256 _tokenId,\r\n        address _recipient,\r\n        uint256 _amount\r\n    ) internal {\r\n        address auctionERC20Token = nftContractAuctions[_tokenId].ERC20Token;\r\n        if (_isERC20Auction(auctionERC20Token)) {\r\n            IERC20(auctionERC20Token).transfer(_recipient, _amount);\r\n        } else {\r\n            // attempt to send the funds to the recipient\r\n            (bool success, ) = payable(_recipient).call{\r\n                value: _amount,\r\n                gas: 20000\r\n            }(\"\");\r\n            // if it failed, update their credit balance so they can pull it later\r\n            if (!success) {\r\n                failedTransferCredits[_recipient] =\r\n                    failedTransferCredits[_recipient] +\r\n                    _amount;\r\n            }\r\n        }\r\n    }\r\n\r\n    /**********************************/\r\n    /*\r\n                   END              \r\n        TRANSFER NFT & PAY SELLER   \r\n      */\r\n    /**********************************/\r\n\r\n    /*\r\n            SETTLE & WITHDRAW       \r\n      */\r\n\r\n    function settleAuction(uint256 _tokenId) external isAuctionOver(_tokenId) {\r\n        _transferNftAndPaySeller(_tokenId);\r\n        emit AuctionSettled(_tokenId, msg.sender);\r\n    }\r\n\r\n    function withdrawAuction(uint256 _tokenId) external {\r\n        //only the NFT owner can prematurely close and auction\r\n        require(\r\n            IERC721(_nftContractAddress).ownerOf(_tokenId) == msg.sender,\r\n            \"Not NFT owner\"\r\n        );\r\n        _resetAuction(_tokenId);\r\n        emit AuctionWithdrawn(_tokenId, msg.sender);\r\n    }\r\n\r\n    function withdrawBid(uint256 _tokenId)\r\n        external\r\n        minimumBidNotMade(_tokenId)\r\n    {\r\n        address nftHighestBidder = nftContractAuctions[_tokenId]\r\n            .nftHighestBidder;\r\n        require(msg.sender == nftHighestBidder, \"Cannot withdraw funds\");\r\n\r\n        uint128 nftHighestBid = nftContractAuctions[_tokenId].nftHighestBid;\r\n        _resetBids(_tokenId);\r\n\r\n        _payout(_tokenId, nftHighestBidder, nftHighestBid);\r\n\r\n        emit BidWithdrawn(_tokenId, msg.sender);\r\n    }\r\n\r\n    /**********************************/\r\n    /*\r\n                   END              \r\n            SETTLE & WITHDRAW       \r\n      */\r\n    /**********************************/\r\n\r\n    /*\r\n             UPDATE AUCTION         \r\n      */\r\n\r\n    /*\r\n     * The NFT seller can opt to end an auction by taking the current highest bid.\r\n     */\r\n    function takeHighestBid(uint256 _tokenId) external onlyNftSeller(_tokenId) {\r\n        require(_isABidMade(_tokenId), \"cannot payout 0 bid\");\r\n        _transferNftToAuctionContract(_tokenId);\r\n        _transferNftAndPaySeller(_tokenId);\r\n        emit HighestBidTaken(_tokenId);\r\n    }\r\n\r\n    /*\r\n     * Query the owner of an NFT deposited for auction\r\n     */\r\n    function ownerOfNFT(uint256 _tokenId) external view returns (address) {\r\n        address nftSeller = nftContractAuctions[_tokenId].nftSeller;\r\n        require(nftSeller != address(0), \"NFT not deposited\");\r\n\r\n        return nftSeller;\r\n    }\r\n\r\n    /*\r\n     * If the transfer of a bid has failed, allow the recipient to reclaim their amount later.\r\n     */\r\n    function withdrawAllFailedCredits() external {\r\n        uint256 amount = failedTransferCredits[msg.sender];\r\n\r\n        require(amount != 0, \"no credits to withdraw\");\r\n\r\n        failedTransferCredits[msg.sender] = 0;\r\n\r\n        (bool successfulWithdraw, ) = msg.sender.call{\r\n            value: amount,\r\n            gas: 20000\r\n        }(\"\");\r\n        require(successfulWithdraw, \"withdraw failed\");\r\n    }\r\n\r\n    /**********************************/\r\n    /*\r\n                   END              \r\n             UPDATE AUCTION         \r\n      */\r\n    /**********************************/\r\n\r\n    /*\r\n                 Get Info           \r\n      */\r\n    function getAuctionInfo(uint256 _tokenId)\r\n        public\r\n        view\r\n        returns (Auction memory)\r\n    {\r\n        return nftContractAuctions[_tokenId];\r\n    }\r\n\r\n    /*\r\n             create svg file        \r\n      */\r\n    //create svg file automatically.\r\n    function getSVG(\r\n        uint256 _tokenId,\r\n        string memory latitude,\r\n        string memory longitude,\r\n        string memory name\r\n    ) public view returns (string memory) {\r\n        return\r\n            NFTDescriptor.constructTokenURI(\r\n                NFTDescriptor.URIParams({\r\n                    tokenId: _tokenId,\r\n                    blockNumber: block.number,\r\n                    latitude: latitude,\r\n                    longitude: longitude,\r\n                    name: name\r\n                })\r\n            );\r\n    }\r\n\r\n    /*\r\n                create rent         \r\n      */\r\n\r\n    //users can't borrow NFT during auction\r\n    function lend(\r\n        uint256 _tokenId,\r\n        uint32 _period,\r\n        uint128 _collateral,\r\n        uint128 _price,\r\n        uint128 _extraPay\r\n        // address[] memory _feeRecipients,\r\n        // uint32[] memory _feePercentages\r\n    )\r\n        external\r\n        isAuctionNotStartedByOwner(_tokenId)\r\n        priceGreaterThanZero(_price)\r\n    {\r\n        require(IERC721(_nftContractAddress).ownerOf(_tokenId)==msg.sender,\"Only owner can lend this NFT\");\r\n        rentNfts[_tokenId].lender=msg.sender;\r\n        rentNfts[_tokenId].period=_period;\r\n        rentNfts[_tokenId].collateral=_collateral;//get extrapay from this\r\n        rentNfts[_tokenId].price=_price;\r\n        rentNfts[_tokenId].extraPay=_extraPay;\r\n        // rentNfts[_tokenId].feeRecipients=_feeRecipients;\r\n        // rentNfts[_tokenId].feePercentages=_feePercentages;\r\n        emit NftToLend(msg.sender, _tokenId, _period, _price, _extraPay, _collateral);\r\n    }\r\n\r\n    //users pay price + collateral(not implemented now)\r\n    function borrow(uint256 _tokenId) external payable {\r\n        require(msg.sender != address(0));\r\n        uint128 price = rentNfts[_tokenId].price;\r\n        require(price > 0, \"Not for rent\");\r\n        uint128 collateral = rentNfts[_tokenId].collateral;\r\n        require(msg.value == price, \"Incorrect value\");\r\n        // require(msg.value == (price+collateral), \"Incorrect value\");\r\n        address lender = rentNfts[_tokenId].lender;\r\n        IERC721(_nftContractAddress).transferFrom(lender, msg.sender, _tokenId);\r\n        rentNfts[_tokenId].price = 0;\r\n        rentNfts[_tokenId].borrower=msg.sender;\r\n        uint32 period=rentNfts[_tokenId].period;\r\n        rentNfts[_tokenId].rentEnd=period+uint64(block.timestamp);\r\n        payable(lender).transfer(msg.value);\r\n        emit NftBorrow(lender, msg.sender, msg.value);\r\n        IERC721(_nftContractAddress).approve(lender, _tokenId);//make lender can return NFT.\r\n    }\r\n\r\n    //users get collateral - extrapay * delaytime\r\n    function returnNft(uint256 _tokenId) public {\r\n        require(block.timestamp>rentNfts[_tokenId].rentEnd,\"Rent is not ended\");\r\n        require(rentNfts[_tokenId].borrower==msg.sender||rentNfts[_tokenId].lender==msg.sender,\"You are not a borrower or lender\");\r\n        address lender = rentNfts[_tokenId].lender;\r\n        address borrower = rentNfts[_tokenId].borrower;\r\n        IERC721(_nftContractAddress).transferFrom(borrower, lender,  _tokenId);\r\n        emit ReturnNftToLender(lender, borrower, _tokenId);\r\n        _resetRent(_tokenId);\r\n    }\r\n\r\n    function _resetRent(uint256 _tokenId) internal {\r\n        rentNfts[_tokenId].lender = address(0);\r\n        rentNfts[_tokenId].borrower = address(0);\r\n        rentNfts[_tokenId].period = 0;\r\n        rentNfts[_tokenId].price = 0;\r\n        rentNfts[_tokenId].extraPay = 0;\r\n        rentNfts[_tokenId].rentEnd = 0;\r\n    }\r\n\r\n    /*\r\n              set managerfee        \r\n      */\r\n\r\n    function setManagerFee(uint32 fee) public {\r\n        require(msg.sender==manager,\"Not a manager\");\r\n        managerFee=fee;\r\n        emit FeeSet(fee);\r\n    }\r\n}\r\n",
  "sourcePath": "D:\\job\\NFT\\test\\new-contract\\contracts\\Auction.sol",
  "compiler": {
    "name": "solc",
    "version": "0.7.6+commit.7338295f.Emscripten.clang"
  },
  "schemaVersion": "3.4.3",
  "updatedAt": "2022-03-02T12:44:57.366Z",
  "devdoc": {
    "kind": "dev",
    "methods": {},
    "version": 1
  },
  "userdoc": {
    "kind": "user",
    "methods": {},
    "version": 1
  }
}