{
  "contractName": "NFTDescriptor",
  "abi": [
    {
      "inputs": [
        {
          "components": [
            {
              "internalType": "uint256",
              "name": "tokenId",
              "type": "uint256"
            },
            {
              "internalType": "uint256",
              "name": "blockNumber",
              "type": "uint256"
            },
            {
              "internalType": "string",
              "name": "latitude",
              "type": "string"
            },
            {
              "internalType": "string",
              "name": "longitude",
              "type": "string"
            },
            {
              "internalType": "string",
              "name": "name",
              "type": "string"
            }
          ],
          "internalType": "struct NFTDescriptor.URIParams",
          "name": "params",
          "type": "tuple"
        }
      ],
      "name": "constructTokenURI",
      "outputs": [
        {
          "internalType": "string",
          "name": "",
          "type": "string"
        }
      ],
      "stateMutability": "view",
      "type": "function"
    }
  ],
  "bytecode": "0x610f49610026600b82828239805160001a60731461001957fe5b30600052607381538281f3fe73000000000000000000000000000000000000000030146080604052600436106100355760003560e01c80630e1d809e1461003a575b600080fd5b61004d6100483660046105f2565b610063565b60405161005a9190610e4c565b60405180910390f35b60606000826080015160405160200161007c919061075b565b60405160208183030381529060405290506000610097610104565b905060006100ac6100a786610129565b6101ff565b90506100da8383836040516020016100c693929190610783565b6040516020818303038152906040526101ff565b6040516020016100ea9190610e07565b60405160208183030381529060405293505050505b919050565b606060405160200161011590610a9b565b604051602081830303815290604052905090565b606060006040518060e0016040528084600001518152602001846020015181526020018460400151815260200184606001518152602001846080015181526020016101a8856040015186606001516040516020016101889291906106ec565b6040516020818303038152906040528051906020012060001c608861034b565b81526020016101eb856040015186606001516040516020016101cb9291906106ec565b6040516020818303038152906040528051906020012060001c600061034b565b905290506101f88161035c565b9392505050565b606081516000141561022057506040805160208101909152600081526100ff565b6000604051806060016040528060408152602001610ed46040913990506000600384516002018161024d57fe5b04600402905060008160200167ffffffffffffffff8111801561026f57600080fd5b506040519080825280601f01601f19166020018201604052801561029a576020820181803683370190505b509050818152600183018586518101602084015b81831015610306576003830192508251603f8160121c168501518253600182019150603f81600c1c168501518253600182019150603f8160061c168501518253600182019150603f81168501518253506001016102ae565b60038951066001811461032057600281146103315761033d565b613d3d60f01b60011983015261033d565b603d60f81b6000198301525b509398975050505050505050565b90811b9060606101f8836003610397565b606061036782610451565b61037083610476565b60405160200161038192919061071b565b6040516020818303038152906040529050919050565b606060008260020267ffffffffffffffff811180156103b557600080fd5b506040519080825280601f01601f1916602001820160405280156103e0576020820181803683370190505b5080519091505b8015610449576f181899199a1a9b1b9c1cb0b131b232b360811b85600f166010811061040f57fe5b1a60f81b82600183038151811061042257fe5b60200101906001600160f81b031916908160001a90535060049490941c93600019016103e7565b509392505050565b606061045c82610487565b61046583610516565b60405160200161038192919061084a565b606060405160200161038190610c24565b606060008260a001518360c001516040516020016104a6929190610dbc565b604051602081830303815290604052905060008360c001518460a001516040516020016104d4929190610dbc565b60405160208183030381529060405290508360a0015182826040516020016104fe93929190610ad8565b60405160208183030381529060405292505050919050565b606060008260a001518360c00151604051602001610535929190610dbc565b604051602081830303815290604052905060008360c001518460a00151604051602001610563929190610dbc565b60405160208183030381529060405290508360c0015181836040516020016104fe9392919061096f565b600082601f83011261059d578081fd5b813567ffffffffffffffff8111156105b157fe5b6105c4601f8201601f1916602001610e7f565b8181528460208386010111156105d8578283fd5b816020850160208301379081016020019190915292915050565b600060208284031215610603578081fd5b813567ffffffffffffffff8082111561061a578283fd5b9083019060a0828603121561062d578283fd5b61063760a0610e7f565b8235815260208301356020820152604083013582811115610656578485fd5b6106628782860161058d565b604083015250606083013582811115610679578485fd5b6106858782860161058d565b60608301525060808301358281111561069c578485fd5b6106a88782860161058d565b60808301525095945050505050565b7f2220626567696e3d2261332e656e6422206475723d22337322202f3e3c2f737481526237b81f60e91b602082015260230190565b600083516106fe818460208801610ea3565b835190830190610712818360208801610ea3565b01949350505050565b6000835161072d818460208801610ea3565b835190830190610741818360208801610ea3565b651e17b9bb339f60d11b9101908152600601949350505050565b6000825161076d818460208701610ea3565b630813919560e21b920191825250600401919050565b683d913730b6b2911d1160b91b815283516000906107a8816009850160208901610ea3565b71111610113232b9b1b934b83a34b7b7111d1160711b60099184019182015284516107da81601b840160208901610ea3565b6c1116101134b6b0b3b2911d101160991b601b92909101918201527f646174613a696d6167652f7376672b786d6c3b6261736536342c0000000000006028820152835161082e816042840160208801610ea3565b61227d60f01b6042929091019182015260440195945050505050565b60007f3c7376672077696474683d2235313222206865696768743d223531322220766982527f6577426f783d223020302035313220353132222066696c6c3d226e6f6e65222060208301527f786d6c6e733d22687474703a2f2f7777772e77332e6f72672f323030302f737660408301526233911f60e91b6060830152651e3232b3399f60d11b60638301527f3c6c696e6561724772616469656e742069643d226731222078313d22302522206069830152693c989e911a981291101f60b11b60898301528351610922816093850160208801610ea3565b835190830190610939816093840160208801610ea3565b7f3c2f6c696e6561724772616469656e743e3c2f646566733e00000000000000006093929091019182015260ab01949350505050565b60007f3c73746f70206f66667365743d2231303025222073746f702d636f6c6f723d228252602360f81b602083015284516109b1816021850160208901610ea3565b6211101f60e91b6021918401918201527f3c616e696d6174652069643d22613322206174747269627574654e616d653d2260248201527339ba37b816b1b7b637b911103b30b63ab2b99e9160611b604482018190528551610a19816058850160208a01610ea3565b7f2220626567696e3d22303b2061342e656e6422206475723d22337322202f3e00605893909101928301527f3c616e696d6174652069643d22613422206174747269627574654e616d653d22607783015260978201528351610a828160ab840160208801610ea3565b610a9060ab828401016106b7565b979650505050505050565b7f4c5556204e4654206973206d616465206279204861687a20546572727920616e81526a32102530bc902634b72e3760a91b6020820152602b0190565b60007f3c73746f70206f66667365743d223025222073746f702d636f6c6f723d22230082528451610b1081601f850160208901610ea3565b6211101f60e91b601f918401918201527f3c616e696d6174652069643d22613122206174747269627574654e616d653d2260228201527339ba37b816b1b7b637b911103b30b63ab2b99e9160611b604282018190528551610b78816056850160208a01610ea3565b7f2220626567696e3d22303b2061322e656e6422206475723d22337322202f3e00605693909101928301527f3c616e696d6174652069643d22613222206174747269627574654e616d653d22607583015260958201528351610be18160a9840160208801610ea3565b7f2220626567696e3d2261312e656e6422206475723d22337322202f3e3c2f737460a992909101918201526237b81f60e91b60c982015260cc0195945050505050565b7f3c726563742069643d22722220783d22302220793d2230222072783d2232362281527f2072793d223236222077696474683d2235313222206865696768743d2235313260208201527311103334b6361e913ab9361411b398949110179f60611b60408201527f3c7265637420783d2231362220793d223136222077696474683d22343830222060548201527f6865696768743d22343830222072783d223136222072793d223136222066696c60748201527f6c3d227267626128302c302c302c302922207374726f6b653d2272676261283260948201527f35352c3235352c3235352c302e3429223e3c2f726563743e000000000000000060b48201527f3c7265637420783d22302220793d2230222077696474683d223531322220686560cc8201527f696768743d22353132222072783d223235222072793d223235222066696c6c3d60ec8201527f227267626128302c302c302c302922207374726f6b653d22726762612832353561010c8201527516191a9a96191a9a9618171a14911f1e17b932b1ba1f60511b61012c8201526101420190565b6000602360f81b82528351610dd8816001850160208801610ea3565b623b202360e81b6001918401918201528351610dfb816004840160208801610ea3565b01600401949350505050565b60007f646174613a6170706c69636174696f6e2f6a736f6e3b6261736536342c00000082528251610e3f81601d850160208701610ea3565b91909101601d0192915050565b6000602082528251806020840152610e6b816040850160208701610ea3565b601f01601f19169190910160400192915050565b60405181810167ffffffffffffffff81118282101715610e9b57fe5b604052919050565b60005b83811015610ebe578181015183820152602001610ea6565b83811115610ecd576000848401525b5050505056fe4142434445464748494a4b4c4d4e4f505152535455565758595a6162636465666768696a6b6c6d6e6f707172737475767778797a303132333435363738392b2fa26469706673582212206b8ae5a598fc15599642eb4f630db5f4a706e2c1458a7b75e4c5c89e0ec9043a64736f6c63430007060033",
  "immutableReferences": {},
  "source": "// SPDX-License-Identifier: MIT\npragma solidity ^0.7.6;\npragma abicoder v2;\n\nimport '@openzeppelin/contracts/utils/Strings.sol';\nimport '@openzeppelin/contracts/math/SafeMath.sol';\nimport '@openzeppelin/contracts/math/SignedSafeMath.sol';\nimport 'base64-sol/base64.sol';\nimport './HexStrings.sol';\nimport './NFTSVG.sol';\n\nlibrary NFTDescriptor {\n    using Strings for uint256;\n    using SafeMath for uint256;\n    using SafeMath for uint160;\n    using SafeMath for uint8;\n    using SignedSafeMath for int256;\n    using HexStrings for uint256;\n\n    struct URIParams {\n        uint256 tokenId;\n        uint256 blockNumber;\n        string latitude;\n        string longitude;\n        string name;\n    }\n\n    function constructTokenURI(URIParams memory params) public view returns (string memory) {\n        string memory name = string(abi.encodePacked(params.name, ' NFT'));\n        string memory description = generateDescription();\n        string memory image = Base64.encode(bytes(generateSVGImage(params)));\n\n        return\n            string(\n                abi.encodePacked(\n                    'data:application/json;base64,',\n                    Base64.encode(\n                        bytes(\n                            abi.encodePacked(\n                                '{\"name\":\"',\n                                name,\n                                '\", \"description\":\"',\n                                description,\n                                '\", \"image\": \"',\n                                'data:image/svg+xml;base64,',\n                                image,\n                                '\"}'\n                            )\n                        )\n                    )\n                )\n            );\n    }\n\n    function escapeQuotes(string memory symbol) internal pure returns (string memory) {\n        bytes memory symbolBytes = bytes(symbol);\n        uint8 quotesCount = 0;\n        for (uint8 i = 0; i < symbolBytes.length; i++) {\n            if (symbolBytes[i] == '\"') {\n                quotesCount++;\n            }\n        }\n        if (quotesCount > 0) {\n            bytes memory escapedBytes = new bytes(symbolBytes.length + (quotesCount));\n            uint256 index;\n            for (uint8 i = 0; i < symbolBytes.length; i++) {\n                if (symbolBytes[i] == '\"') {\n                    escapedBytes[index++] = '\\\\';\n                }\n                escapedBytes[index++] = symbolBytes[i];\n            }\n            return string(escapedBytes);\n        }\n        return symbol;\n    }\n\n     function addressToString(address addr) internal pure returns (string memory) {\n        return (uint256(addr)).toHexString(20);\n    }\n\n    function toColorHex(uint256 base, uint256 offset) internal view returns (string memory str) {\n        // console.log(\"base\", base);\n        // console.log(\"(base >> offset)\", (base >> offset));\n        // console.log(\"hex\", string((base >> offset).toHexStringNoPrefix(3)));\n        return string((base <<= offset).toHexStringNoPrefix(3));\n    }\n\n    function generateDescription() private pure returns (string memory) {\n        return\n            string(\n                abi.encodePacked(\n                    'LUV NFT is made by Hahz Terry and Jay Lin\\\\n'\n                )\n            );\n    }\n\n    function generateSVGImage(URIParams memory params) internal view returns (string memory svg) {\n        NFTSVG.SVGParams memory svgParams =\n            NFTSVG.SVGParams({\n                tokenId: params.tokenId,\n                blockNumber: params.blockNumber,\n                uToken: params.latitude,\n                longitude: params.longitude,\n                name: params.name,\n                color0: toColorHex(uint256(keccak256(abi.encodePacked(params.latitude,params.longitude))), 136),\n                color1: toColorHex(uint256(keccak256(abi.encodePacked(params.latitude,params.longitude))), 0)\n            });\n\n        return NFTSVG.generateSVG(svgParams);\n    }\n}",
  "sourcePath": "D:\\job\\NFT\\test\\new-contract\\contracts\\GenerativeNFT.sol",
  "compiler": {
    "name": "solc",
    "version": "0.7.6+commit.7338295f.Emscripten.clang"
  },
  "schemaVersion": "3.4.3",
  "updatedAt": "2022-03-01T15:20:33.564Z",
  "devdoc": {
    "kind": "dev",
    "methods": {},
    "version": 1
  },
  "userdoc": {
    "kind": "user",
    "methods": {},
    "version": 1
  }
}